{
  "address": "0xc4a96eD7badcD1beb6013fFF3A0F3EA6D5E1947F",
  "abi": [
    {
      "anonymous": false,
      "inputs": [
        {
          "indexed": false,
          "internalType": "address",
          "name": "_old",
          "type": "address"
        },
        {
          "indexed": false,
          "internalType": "address",
          "name": "_new",
          "type": "address"
        }
      ],
      "name": "OperatorChanged",
      "type": "event"
    },
    {
      "anonymous": false,
      "inputs": [
        {
          "indexed": true,
          "internalType": "address",
          "name": "previousOwner",
          "type": "address"
        },
        {
          "indexed": true,
          "internalType": "address",
          "name": "newOwner",
          "type": "address"
        }
      ],
      "name": "OwnershipTransferred",
      "type": "event"
    },
    {
      "inputs": [],
      "name": "owner",
      "outputs": [
        {
          "internalType": "address",
          "name": "",
          "type": "address"
        }
      ],
      "stateMutability": "view",
      "type": "function"
    },
    {
      "inputs": [
        {
          "internalType": "address",
          "name": "_user",
          "type": "address"
        }
      ],
      "name": "proxies",
      "outputs": [
        {
          "internalType": "address",
          "name": "",
          "type": "address"
        }
      ],
      "stateMutability": "view",
      "type": "function"
    },
    {
      "inputs": [],
      "name": "renounceOwnership",
      "outputs": [],
      "stateMutability": "nonpayable",
      "type": "function"
    },
    {
      "inputs": [
        {
          "internalType": "address",
          "name": "_address",
          "type": "address"
        }
      ],
      "name": "setOperator",
      "outputs": [],
      "stateMutability": "nonpayable",
      "type": "function"
    },
    {
      "inputs": [
        {
          "internalType": "address",
          "name": "newOwner",
          "type": "address"
        }
      ],
      "name": "transferOwnership",
      "outputs": [],
      "stateMutability": "nonpayable",
      "type": "function"
    }
  ],
  "transactionHash": "0x75f6e545e1d0be7ecea891ce331a9df2c3d2bb5ea5cf2768f525bcda67c0e681",
  "args": [],
  "numDeployments": 1,
  "solcInputHash": "586c5144a7967d12ad381d18fbc1fc0e",
  "bytecode": "0x608060405234801561001057600080fd5b5061002d61002261003260201b60201c565b61003a60201b60201c565b6100fe565b600033905090565b60008060009054906101000a900473ffffffffffffffffffffffffffffffffffffffff169050816000806101000a81548173ffffffffffffffffffffffffffffffffffffffff021916908373ffffffffffffffffffffffffffffffffffffffff1602179055508173ffffffffffffffffffffffffffffffffffffffff168173ffffffffffffffffffffffffffffffffffffffff167f8be0079c531659141344cd1fd0a4f28419497f9722a3daafe3b4186f6b6457e060405160405180910390a35050565b6106c78061010d6000396000f3fe608060405234801561001057600080fd5b50600436106100575760003560e01c8063715018a61461005c5780638da5cb5b14610066578063b3ab15fb14610084578063c4552791146100a0578063f2fde38b146100d0575b600080fd5b6100646100ec565b005b61006e610174565b60405161007b919061053b565b60405180910390f35b61009e600480360381019061009991906104bd565b61019d565b005b6100ba60048036038101906100b591906104bd565b6102b8565b6040516100c7919061053b565b60405180910390f35b6100ea60048036038101906100e591906104bd565b6102e4565b005b6100f46103dc565b73ffffffffffffffffffffffffffffffffffffffff16610112610174565b73ffffffffffffffffffffffffffffffffffffffff1614610168576040517f08c379a000000000000000000000000000000000000000000000000000000000815260040161015f9061059f565b60405180910390fd5b61017260006103e4565b565b60008060009054906101000a900473ffffffffffffffffffffffffffffffffffffffff16905090565b6101a56103dc565b73ffffffffffffffffffffffffffffffffffffffff166101c3610174565b73ffffffffffffffffffffffffffffffffffffffff1614610219576040517f08c379a00000000000000000000000000000000000000000000000000000000081526004016102109061059f565b60405180910390fd5b7fd58299b712891143e76310d5e664c4203c940a67db37cf856bdaa3c5c76a802c600160009054906101000a900473ffffffffffffffffffffffffffffffffffffffff168260405161026c929190610556565b60405180910390a180600160006101000a81548173ffffffffffffffffffffffffffffffffffffffff021916908373ffffffffffffffffffffffffffffffffffffffff16021790555050565b6000600160009054906101000a900473ffffffffffffffffffffffffffffffffffffffff169050919050565b6102ec6103dc565b73ffffffffffffffffffffffffffffffffffffffff1661030a610174565b73ffffffffffffffffffffffffffffffffffffffff1614610360576040517f08c379a00000000000000000000000000000000000000000000000000000000081526004016103579061059f565b60405180910390fd5b600073ffffffffffffffffffffffffffffffffffffffff168173ffffffffffffffffffffffffffffffffffffffff1614156103d0576040517f08c379a00000000000000000000000000000000000000000000000000000000081526004016103c79061057f565b60405180910390fd5b6103d9816103e4565b50565b600033905090565b60008060009054906101000a900473ffffffffffffffffffffffffffffffffffffffff169050816000806101000a81548173ffffffffffffffffffffffffffffffffffffffff021916908373ffffffffffffffffffffffffffffffffffffffff1602179055508173ffffffffffffffffffffffffffffffffffffffff168173ffffffffffffffffffffffffffffffffffffffff167f8be0079c531659141344cd1fd0a4f28419497f9722a3daafe3b4186f6b6457e060405160405180910390a35050565b6000813590506104b78161067a565b92915050565b6000602082840312156104cf57600080fd5b60006104dd848285016104a8565b91505092915050565b6104ef816105d0565b82525050565b60006105026026836105bf565b915061050d82610602565b604082019050919050565b60006105256020836105bf565b915061053082610651565b602082019050919050565b600060208201905061055060008301846104e6565b92915050565b600060408201905061056b60008301856104e6565b61057860208301846104e6565b9392505050565b60006020820190508181036000830152610598816104f5565b9050919050565b600060208201905081810360008301526105b881610518565b9050919050565b600082825260208201905092915050565b60006105db826105e2565b9050919050565b600073ffffffffffffffffffffffffffffffffffffffff82169050919050565b7f4f776e61626c653a206e6577206f776e657220697320746865207a65726f206160008201527f6464726573730000000000000000000000000000000000000000000000000000602082015250565b7f4f776e61626c653a2063616c6c6572206973206e6f7420746865206f776e6572600082015250565b610683816105d0565b811461068e57600080fd5b5056fea2646970667358221220dcce99270042525d31e0955a1a8797335592a391e1cdf8e2398d899a1935566664736f6c63430008040033",
  "devdoc": {
    "kind": "dev",
    "methods": {
      "owner()": {
        "details": "Returns the address of the current owner."
      },
      "renounceOwnership()": {
        "details": "Leaves the contract without owner. It will not be possible to call `onlyOwner` functions anymore. Can only be called by the current owner. NOTE: Renouncing ownership will leave the contract without an owner, thereby removing any functionality that is only available to the owner."
      },
      "transferOwnership(address)": {
        "details": "Transfers ownership of the contract to a new account (`newOwner`). Can only be called by the current owner."
      }
    },
    "title": "WinzerTradableProxyRegistry Approves marketplace contract (opensea) for gassless transactions.",
    "version": 1
  },
  "userdoc": {
    "kind": "user",
    "methods": {},
    "version": 1
  },
  "storageLayout": {
    "storage": [
      {
        "astId": 7,
        "contract": "contracts/extras/WinzerTradableProxyRegistry.sol:WinzerTradableProxyRegistry",
        "label": "_owner",
        "offset": 0,
        "slot": "0",
        "type": "t_address"
      },
      {
        "astId": 134,
        "contract": "contracts/extras/WinzerTradableProxyRegistry.sol:WinzerTradableProxyRegistry",
        "label": "_operator",
        "offset": 0,
        "slot": "1",
        "type": "t_address"
      }
    ],
    "types": {
      "t_address": {
        "encoding": "inplace",
        "label": "address",
        "numberOfBytes": "20"
      }
    }
  }
}