{
  "address": "0x5cB77f24dc6eEcBDB7f9B6f66Da6026ee43017AE",
  "abi": [
    {
      "inputs": [
        {
          "internalType": "address",
          "name": "_winzerContract",
          "type": "address"
        }
      ],
      "stateMutability": "nonpayable",
      "type": "constructor"
    },
    {
      "anonymous": false,
      "inputs": [
        {
          "indexed": true,
          "internalType": "address",
          "name": "previousOwner",
          "type": "address"
        },
        {
          "indexed": true,
          "internalType": "address",
          "name": "newOwner",
          "type": "address"
        }
      ],
      "name": "OwnershipTransferred",
      "type": "event"
    },
    {
      "inputs": [],
      "name": "MAX_TO_AIRDROP",
      "outputs": [
        {
          "internalType": "uint256",
          "name": "",
          "type": "uint256"
        }
      ],
      "stateMutability": "view",
      "type": "function"
    },
    {
      "inputs": [],
      "name": "airdroped",
      "outputs": [
        {
          "internalType": "uint256",
          "name": "",
          "type": "uint256"
        }
      ],
      "stateMutability": "view",
      "type": "function"
    },
    {
      "inputs": [],
      "name": "canMint",
      "outputs": [
        {
          "internalType": "bool",
          "name": "",
          "type": "bool"
        }
      ],
      "stateMutability": "view",
      "type": "function"
    },
    {
      "inputs": [
        {
          "internalType": "address",
          "name": "_receiver",
          "type": "address"
        },
        {
          "components": [
            {
              "internalType": "uint8",
              "name": "race",
              "type": "uint8"
            },
            {
              "internalType": "uint8",
              "name": "sex",
              "type": "uint8"
            },
            {
              "internalType": "uint8",
              "name": "skin",
              "type": "uint8"
            },
            {
              "internalType": "uint8",
              "name": "head",
              "type": "uint8"
            },
            {
              "internalType": "uint8",
              "name": "ears",
              "type": "uint8"
            },
            {
              "internalType": "uint8",
              "name": "hair",
              "type": "uint8"
            },
            {
              "internalType": "uint8",
              "name": "beard",
              "type": "uint8"
            },
            {
              "internalType": "uint8",
              "name": "mouth",
              "type": "uint8"
            },
            {
              "internalType": "uint8",
              "name": "eyes",
              "type": "uint8"
            },
            {
              "internalType": "uint8",
              "name": "eyebrows",
              "type": "uint8"
            },
            {
              "internalType": "uint8",
              "name": "nose",
              "type": "uint8"
            },
            {
              "internalType": "uint8",
              "name": "scars",
              "type": "uint8"
            }
          ],
          "internalType": "struct WinzerERC721.DNA1",
          "name": "_dna1",
          "type": "tuple"
        }
      ],
      "name": "mint",
      "outputs": [
        {
          "internalType": "uint256",
          "name": "",
          "type": "uint256"
        }
      ],
      "stateMutability": "nonpayable",
      "type": "function"
    },
    {
      "inputs": [],
      "name": "mintMother",
      "outputs": [
        {
          "internalType": "uint256",
          "name": "",
          "type": "uint256"
        }
      ],
      "stateMutability": "nonpayable",
      "type": "function"
    },
    {
      "inputs": [],
      "name": "motherMinted",
      "outputs": [
        {
          "internalType": "bool",
          "name": "",
          "type": "bool"
        }
      ],
      "stateMutability": "view",
      "type": "function"
    },
    {
      "inputs": [],
      "name": "owner",
      "outputs": [
        {
          "internalType": "address",
          "name": "",
          "type": "address"
        }
      ],
      "stateMutability": "view",
      "type": "function"
    },
    {
      "inputs": [],
      "name": "renounceOwnership",
      "outputs": [],
      "stateMutability": "nonpayable",
      "type": "function"
    },
    {
      "inputs": [
        {
          "internalType": "address",
          "name": "newOwner",
          "type": "address"
        }
      ],
      "name": "transferOwnership",
      "outputs": [],
      "stateMutability": "nonpayable",
      "type": "function"
    },
    {
      "inputs": [],
      "name": "winzerContract",
      "outputs": [
        {
          "internalType": "contract WinzerERC721",
          "name": "",
          "type": "address"
        }
      ],
      "stateMutability": "view",
      "type": "function"
    }
  ],
  "transactionHash": "0x207211715970d1f63ccf05e64832388dc2d13a450a984eddf5731de8bf009c81",
  "args": [
    "0xD8607E07891B42aF8f7c3c4d6ed6A19F923369B3"
  ],
  "numDeployments": 1,
  "solcInputHash": "976dbe860388993d717448835c8f44a3",
  "bytecode": "0x60806040523480156200001157600080fd5b506040516200155938038062001559833981810160405281019062000037919062000182565b620000576200004b6200009f60201b60201c565b620000a760201b60201c565b80600260006101000a81548173ffffffffffffffffffffffffffffffffffffffff021916908373ffffffffffffffffffffffffffffffffffffffff16021790555050620001fc565b600033905090565b60008060009054906101000a900473ffffffffffffffffffffffffffffffffffffffff169050816000806101000a81548173ffffffffffffffffffffffffffffffffffffffff021916908373ffffffffffffffffffffffffffffffffffffffff1602179055508173ffffffffffffffffffffffffffffffffffffffff168173ffffffffffffffffffffffffffffffffffffffff167f8be0079c531659141344cd1fd0a4f28419497f9722a3daafe3b4186f6b6457e060405160405180910390a35050565b6000815190506200017c81620001e2565b92915050565b6000602082840312156200019557600080fd5b6000620001a5848285016200016b565b91505092915050565b6000620001bb82620001c2565b9050919050565b600073ffffffffffffffffffffffffffffffffffffffff82169050919050565b620001ed81620001ae565b8114620001f957600080fd5b50565b61134d806200020c6000396000f3fe608060405234801561001057600080fd5b506004361061009e5760003560e01c8063a22be6c411610066578063a22be6c414610137578063a3996a6d14610155578063beb9716d14610173578063d1ae3e9c14610191578063f2fde38b146101af5761009e565b806312d0cb32146100a357806354dbf484146100c1578063715018a6146100f15780638a4ec69e146100fb5780638da5cb5b14610119575b600080fd5b6100ab6101cb565b6040516100b89190610f49565b60405180910390f35b6100db60048036038101906100d69190610bd9565b6101de565b6040516100e8919061101f565b60405180910390f35b6100f96103de565b005b610103610466565b604051610110919061101f565b60405180910390f35b610121610742565b60405161012e9190610ef5565b60405180910390f35b61013f61076b565b60405161014c919061101f565b60405180910390f35b61015d610770565b60405161016a9190610f64565b60405180910390f35b61017b610796565b6040516101889190610f49565b60405180910390f35b6101996107a3565b6040516101a6919061101f565b60405180910390f35b6101c960048036038101906101c49190610bb0565b6107a9565b005b600060149054906101000a900460ff1681565b60006101e86108a1565b73ffffffffffffffffffffffffffffffffffffffff16610206610742565b73ffffffffffffffffffffffffffffffffffffffff161461025c576040517f08c379a000000000000000000000000000000000000000000000000000000000815260040161025390610fff565b60405180910390fd5b600060149054906101000a900460ff166102ab576040517f08c379a00000000000000000000000000000000000000000000000000000000081526004016102a290610fdf565b60405180910390fd5b6102b3610796565b6102f2576040517f08c379a00000000000000000000000000000000000000000000000000000000081526004016102e990610fbf565b60405180910390fd5b600180546103009190611070565b60018190555061030e61096d565b60008160000181815250506001816020018181525050600260009054906101000a900473ffffffffffffffffffffffffffffffffffffffff1673ffffffffffffffffffffffffffffffffffffffff1663c49d183b8585846040518463ffffffff1660e01b815260040161038393929190610f10565b602060405180830381600087803b15801561039d57600080fd5b505af11580156103b1573d6000803e3d6000fd5b505050506040513d601f19601f820116820180604052508101906103d59190610c16565b91505092915050565b6103e66108a1565b73ffffffffffffffffffffffffffffffffffffffff16610404610742565b73ffffffffffffffffffffffffffffffffffffffff161461045a576040517f08c379a000000000000000000000000000000000000000000000000000000000815260040161045190610fff565b60405180910390fd5b61046460006108a9565b565b60006104706108a1565b73ffffffffffffffffffffffffffffffffffffffff1661048e610742565b73ffffffffffffffffffffffffffffffffffffffff16146104e4576040517f08c379a00000000000000000000000000000000000000000000000000000000081526004016104db90610fff565b60405180910390fd5b600060149054906101000a900460ff1615610534576040517f08c379a000000000000000000000000000000000000000000000000000000000815260040161052b90610f7f565b60405180910390fd5b6001600060146101000a81548160ff0219169083151502179055506105576109ce565b6000816000019060ff16908160ff16815250506001816020019060ff16908160ff16815250506003816040019060ff16908160ff16815250506000816060019060ff16908160ff16815250506002816080019060ff16908160ff168152505060048160a0019060ff16908160ff168152505060008160c0019060ff16908160ff1681525050600d8160e0019060ff16908160ff1681525050600981610100019060ff16908160ff1681525050600881610120019060ff16908160ff1681525050600281610140019060ff16908160ff1681525050600081610160019060ff16908160ff168152505061064761096d565b6004816060019060ff16908160ff1681525050600a816040019060ff16908160ff168152505060018160000181815250506001816020018181525050600260009054906101000a900473ffffffffffffffffffffffffffffffffffffffff1673ffffffffffffffffffffffffffffffffffffffff1663c49d183b6106c96108a1565b84846040518463ffffffff1660e01b81526004016106e993929190610f10565b602060405180830381600087803b15801561070357600080fd5b505af1158015610717573d6000803e3d6000fd5b505050506040513d601f19601f8201168201806040525081019061073b9190610c16565b9250505090565b60008060009054906101000a900473ffffffffffffffffffffffffffffffffffffffff16905090565b606281565b600260009054906101000a900473ffffffffffffffffffffffffffffffffffffffff1681565b6000606260015410905090565b60015481565b6107b16108a1565b73ffffffffffffffffffffffffffffffffffffffff166107cf610742565b73ffffffffffffffffffffffffffffffffffffffff1614610825576040517f08c379a000000000000000000000000000000000000000000000000000000000815260040161081c90610fff565b60405180910390fd5b600073ffffffffffffffffffffffffffffffffffffffff168173ffffffffffffffffffffffffffffffffffffffff161415610895576040517f08c379a000000000000000000000000000000000000000000000000000000000815260040161088c90610f9f565b60405180910390fd5b61089e816108a9565b50565b600033905090565b60008060009054906101000a900473ffffffffffffffffffffffffffffffffffffffff169050816000806101000a81548173ffffffffffffffffffffffffffffffffffffffff021916908373ffffffffffffffffffffffffffffffffffffffff1602179055508173ffffffffffffffffffffffffffffffffffffffff168173ffffffffffffffffffffffffffffffffffffffff167f8be0079c531659141344cd1fd0a4f28419497f9722a3daafe3b4186f6b6457e060405160405180910390a35050565b6040518061012001604052806000815260200160008152602001600060ff168152602001600060ff168152602001600060ff168152602001600060ff168152602001600060ff168152602001600060ff168152602001600060ff1681525090565b604051806101800160405280600060ff168152602001600060ff168152602001600060ff168152602001600060ff168152602001600060ff168152602001600060ff168152602001600060ff168152602001600060ff168152602001600060ff168152602001600060ff168152602001600060ff168152602001600060ff1681525090565b600081359050610a62816112d2565b92915050565b60006101808284031215610a7b57600080fd5b610a8661018061103a565b90506000610a9684828501610b9b565b6000830152506020610aaa84828501610b9b565b6020830152506040610abe84828501610b9b565b6040830152506060610ad284828501610b9b565b6060830152506080610ae684828501610b9b565b60808301525060a0610afa84828501610b9b565b60a08301525060c0610b0e84828501610b9b565b60c08301525060e0610b2284828501610b9b565b60e083015250610100610b3784828501610b9b565b61010083015250610120610b4d84828501610b9b565b61012083015250610140610b6384828501610b9b565b61014083015250610160610b7984828501610b9b565b6101608301525092915050565b600081519050610b95816112e9565b92915050565b600081359050610baa81611300565b92915050565b600060208284031215610bc257600080fd5b6000610bd084828501610a53565b91505092915050565b6000806101a08385031215610bed57600080fd5b6000610bfb85828601610a53565b9250506020610c0c85828601610a68565b9150509250929050565b600060208284031215610c2857600080fd5b6000610c3684828501610b86565b91505092915050565b610c48816110c6565b82525050565b610c57816110d8565b82525050565b610c668161111b565b82525050565b6000610c7960168361105f565b9150610c84826111df565b602082019050919050565b6000610c9c60268361105f565b9150610ca782611208565b604082019050919050565b6000610cbf600e8361105f565b9150610cca82611257565b602082019050919050565b6000610ce260118361105f565b9150610ced82611280565b602082019050919050565b6000610d0560208361105f565b9150610d10826112a9565b602082019050919050565b61018082016000820151610d326000850182610ee6565b506020820151610d456020850182610ee6565b506040820151610d586040850182610ee6565b506060820151610d6b6060850182610ee6565b506080820151610d7e6080850182610ee6565b5060a0820151610d9160a0850182610ee6565b5060c0820151610da460c0850182610ee6565b5060e0820151610db760e0850182610ee6565b50610100820151610dcc610100850182610ee6565b50610120820151610de1610120850182610ee6565b50610140820151610df6610140850182610ee6565b50610160820151610e0b610160850182610ee6565b50505050565b61012082016000820151610e286000850182610ec8565b506020820151610e3b6020850182610ec8565b506040820151610e4e6040850182610ee6565b506060820151610e616060850182610ee6565b506080820151610e746080850182610ee6565b5060a0820151610e8760a0850182610ee6565b5060c0820151610e9a60c0850182610ee6565b5060e0820151610ead60e0850182610ee6565b50610100820151610ec2610100850182610ee6565b50505050565b610ed181611104565b82525050565b610ee081611104565b82525050565b610eef8161110e565b82525050565b6000602082019050610f0a6000830184610c3f565b92915050565b60006102c082019050610f266000830186610c3f565b610f336020830185610d1b565b610f416101a0830184610e11565b949350505050565b6000602082019050610f5e6000830184610c4e565b92915050565b6000602082019050610f796000830184610c5d565b92915050565b60006020820190508181036000830152610f9881610c6c565b9050919050565b60006020820190508181036000830152610fb881610c8f565b9050919050565b60006020820190508181036000830152610fd881610cb2565b9050919050565b60006020820190508181036000830152610ff881610cd5565b9050919050565b6000602082019050818103600083015261101881610cf8565b9050919050565b60006020820190506110346000830184610ed7565b92915050565b6000611044611055565b9050611050828261113f565b919050565b6000604051905090565b600082825260208201905092915050565b600061107b82611104565b915061108683611104565b9250827fffffffffffffffffffffffffffffffffffffffffffffffffffffffffffffffff038211156110bb576110ba611170565b5b828201905092915050565b60006110d1826110e4565b9050919050565b60008115159050919050565b600073ffffffffffffffffffffffffffffffffffffffff82169050919050565b6000819050919050565b600060ff82169050919050565b60006111268261112d565b9050919050565b6000611138826110e4565b9050919050565b611148826111ce565b810181811067ffffffffffffffff821117156111675761116661119f565b5b80604052505050565b7f4e487b7100000000000000000000000000000000000000000000000000000000600052601160045260246000fd5b7f4e487b7100000000000000000000000000000000000000000000000000000000600052604160045260246000fd5b6000601f19601f8301169050919050565b7f4d6f7468657220616c7265616479206d696e7465642e00000000000000000000600082015250565b7f4f776e61626c653a206e6577206f776e657220697320746865207a65726f206160008201527f6464726573730000000000000000000000000000000000000000000000000000602082015250565b7f4c696d697420726561636865642e000000000000000000000000000000000000600082015250565b7f4d696e74206d6f74686572206669727374000000000000000000000000000000600082015250565b7f4f776e61626c653a2063616c6c6572206973206e6f7420746865206f776e6572600082015250565b6112db816110c6565b81146112e657600080fd5b50565b6112f281611104565b81146112fd57600080fd5b50565b6113098161110e565b811461131457600080fd5b5056fea2646970667358221220297c45daee9bee131e0177c6641b605e793c04fe9067d806a33c55c703c907d964736f6c63430008040033",
  "devdoc": {
    "details": "contract allows to mint special winzer called mother for contract ownerowner also can mint up to 98 winzers whos parents will be winzer 0 and winzer 1owner can choose how winzers will look, but minted winzers can't have any skills.",
    "kind": "dev",
    "methods": {
      "owner()": {
        "details": "Returns the address of the current owner."
      },
      "renounceOwnership()": {
        "details": "Leaves the contract without owner. It will not be possible to call `onlyOwner` functions anymore. Can only be called by the current owner. NOTE: Renouncing ownership will leave the contract without an owner, thereby removing any functionality that is only available to the owner."
      },
      "transferOwnership(address)": {
        "details": "Transfers ownership of the contract to a new account (`newOwner`). Can only be called by the current owner."
      }
    },
    "version": 1
  },
  "userdoc": {
    "kind": "user",
    "methods": {},
    "version": 1
  },
  "storageLayout": {
    "storage": [
      {
        "astId": 539,
        "contract": "contracts/provisional/WinzerMarketingAirdrop.sol:WinzerMarketingAirdrop",
        "label": "_owner",
        "offset": 0,
        "slot": "0",
        "type": "t_address"
      },
      {
        "astId": 3340,
        "contract": "contracts/provisional/WinzerMarketingAirdrop.sol:WinzerMarketingAirdrop",
        "label": "motherMinted",
        "offset": 20,
        "slot": "0",
        "type": "t_bool"
      },
      {
        "astId": 3342,
        "contract": "contracts/provisional/WinzerMarketingAirdrop.sol:WinzerMarketingAirdrop",
        "label": "airdroped",
        "offset": 0,
        "slot": "1",
        "type": "t_uint256"
      },
      {
        "astId": 3345,
        "contract": "contracts/provisional/WinzerMarketingAirdrop.sol:WinzerMarketingAirdrop",
        "label": "winzerContract",
        "offset": 0,
        "slot": "2",
        "type": "t_contract(WinzerERC721)3808"
      }
    ],
    "types": {
      "t_address": {
        "encoding": "inplace",
        "label": "address",
        "numberOfBytes": "20"
      },
      "t_bool": {
        "encoding": "inplace",
        "label": "bool",
        "numberOfBytes": "1"
      },
      "t_contract(WinzerERC721)3808": {
        "encoding": "inplace",
        "label": "contract WinzerERC721",
        "numberOfBytes": "20"
      },
      "t_uint256": {
        "encoding": "inplace",
        "label": "uint256",
        "numberOfBytes": "32"
      }
    }
  }
}