{
  "address": "0x8140aee3330143FE407aae7DE4A25F38D9b8F99a",
  "abi": [
    {
      "inputs": [
        {
          "internalType": "address",
          "name": "_genesisReceiver",
          "type": "address"
        },
        {
          "internalType": "string",
          "name": "_initBaseURI",
          "type": "string"
        },
        {
          "internalType": "string",
          "name": "_initContractURI",
          "type": "string"
        }
      ],
      "stateMutability": "nonpayable",
      "type": "constructor"
    },
    {
      "anonymous": false,
      "inputs": [
        {
          "indexed": true,
          "internalType": "address",
          "name": "owner",
          "type": "address"
        },
        {
          "indexed": true,
          "internalType": "address",
          "name": "approved",
          "type": "address"
        },
        {
          "indexed": true,
          "internalType": "uint256",
          "name": "tokenId",
          "type": "uint256"
        }
      ],
      "name": "Approval",
      "type": "event"
    },
    {
      "anonymous": false,
      "inputs": [
        {
          "indexed": true,
          "internalType": "address",
          "name": "owner",
          "type": "address"
        },
        {
          "indexed": true,
          "internalType": "address",
          "name": "operator",
          "type": "address"
        },
        {
          "indexed": false,
          "internalType": "bool",
          "name": "approved",
          "type": "bool"
        }
      ],
      "name": "ApprovalForAll",
      "type": "event"
    },
    {
      "anonymous": false,
      "inputs": [
        {
          "indexed": true,
          "internalType": "uint256",
          "name": "_tokenId",
          "type": "uint256"
        },
        {
          "components": [
            {
              "internalType": "int8",
              "name": "x",
              "type": "int8"
            },
            {
              "internalType": "int8",
              "name": "y",
              "type": "int8"
            },
            {
              "internalType": "uint8",
              "name": "climate",
              "type": "uint8"
            },
            {
              "internalType": "uint8",
              "name": "landType",
              "type": "uint8"
            },
            {
              "internalType": "uint8",
              "name": "resource1",
              "type": "uint8"
            },
            {
              "internalType": "uint8",
              "name": "resource2",
              "type": "uint8"
            },
            {
              "internalType": "uint8",
              "name": "resource3",
              "type": "uint8"
            },
            {
              "internalType": "uint8",
              "name": "resource4",
              "type": "uint8"
            },
            {
              "internalType": "uint8",
              "name": "resourceLevel1",
              "type": "uint8"
            },
            {
              "internalType": "uint8",
              "name": "resourceLevel2",
              "type": "uint8"
            },
            {
              "internalType": "uint8",
              "name": "resourceLevel3",
              "type": "uint8"
            },
            {
              "internalType": "uint8",
              "name": "resourceLevel4",
              "type": "uint8"
            }
          ],
          "indexed": false,
          "internalType": "struct LandERC721.Properties",
          "name": "_props",
          "type": "tuple"
        }
      ],
      "name": "PropertiesUpdated",
      "type": "event"
    },
    {
      "anonymous": false,
      "inputs": [
        {
          "indexed": true,
          "internalType": "address",
          "name": "_newAddress",
          "type": "address"
        }
      ],
      "name": "ProxyRegistryAddressChanged",
      "type": "event"
    },
    {
      "anonymous": false,
      "inputs": [
        {
          "indexed": true,
          "internalType": "bytes32",
          "name": "role",
          "type": "bytes32"
        },
        {
          "indexed": true,
          "internalType": "bytes32",
          "name": "previousAdminRole",
          "type": "bytes32"
        },
        {
          "indexed": true,
          "internalType": "bytes32",
          "name": "newAdminRole",
          "type": "bytes32"
        }
      ],
      "name": "RoleAdminChanged",
      "type": "event"
    },
    {
      "anonymous": false,
      "inputs": [
        {
          "indexed": true,
          "internalType": "bytes32",
          "name": "role",
          "type": "bytes32"
        },
        {
          "indexed": true,
          "internalType": "address",
          "name": "account",
          "type": "address"
        },
        {
          "indexed": true,
          "internalType": "address",
          "name": "sender",
          "type": "address"
        }
      ],
      "name": "RoleGranted",
      "type": "event"
    },
    {
      "anonymous": false,
      "inputs": [
        {
          "indexed": true,
          "internalType": "bytes32",
          "name": "role",
          "type": "bytes32"
        },
        {
          "indexed": true,
          "internalType": "address",
          "name": "account",
          "type": "address"
        },
        {
          "indexed": true,
          "internalType": "address",
          "name": "sender",
          "type": "address"
        }
      ],
      "name": "RoleRevoked",
      "type": "event"
    },
    {
      "anonymous": false,
      "inputs": [
        {
          "indexed": true,
          "internalType": "address",
          "name": "from",
          "type": "address"
        },
        {
          "indexed": true,
          "internalType": "address",
          "name": "to",
          "type": "address"
        },
        {
          "indexed": true,
          "internalType": "uint256",
          "name": "tokenId",
          "type": "uint256"
        }
      ],
      "name": "Transfer",
      "type": "event"
    },
    {
      "inputs": [],
      "name": "DEFAULT_ADMIN_ROLE",
      "outputs": [
        {
          "internalType": "bytes32",
          "name": "",
          "type": "bytes32"
        }
      ],
      "stateMutability": "view",
      "type": "function"
    },
    {
      "inputs": [],
      "name": "MINTER_ROLE",
      "outputs": [
        {
          "internalType": "bytes32",
          "name": "",
          "type": "bytes32"
        }
      ],
      "stateMutability": "view",
      "type": "function"
    },
    {
      "inputs": [
        {
          "internalType": "address",
          "name": "to",
          "type": "address"
        },
        {
          "internalType": "uint256",
          "name": "tokenId",
          "type": "uint256"
        }
      ],
      "name": "approve",
      "outputs": [],
      "stateMutability": "nonpayable",
      "type": "function"
    },
    {
      "inputs": [
        {
          "internalType": "address",
          "name": "owner",
          "type": "address"
        }
      ],
      "name": "balanceOf",
      "outputs": [
        {
          "internalType": "uint256",
          "name": "",
          "type": "uint256"
        }
      ],
      "stateMutability": "view",
      "type": "function"
    },
    {
      "inputs": [],
      "name": "contractURI",
      "outputs": [
        {
          "internalType": "string",
          "name": "",
          "type": "string"
        }
      ],
      "stateMutability": "view",
      "type": "function"
    },
    {
      "inputs": [
        {
          "internalType": "int8",
          "name": "",
          "type": "int8"
        },
        {
          "internalType": "int8",
          "name": "",
          "type": "int8"
        }
      ],
      "name": "coordinates",
      "outputs": [
        {
          "internalType": "uint256",
          "name": "",
          "type": "uint256"
        }
      ],
      "stateMutability": "view",
      "type": "function"
    },
    {
      "inputs": [
        {
          "internalType": "int8",
          "name": "",
          "type": "int8"
        },
        {
          "internalType": "int8",
          "name": "",
          "type": "int8"
        }
      ],
      "name": "coordinatesTaken",
      "outputs": [
        {
          "internalType": "bool",
          "name": "",
          "type": "bool"
        }
      ],
      "stateMutability": "view",
      "type": "function"
    },
    {
      "inputs": [
        {
          "internalType": "uint256",
          "name": "tokenId",
          "type": "uint256"
        }
      ],
      "name": "getApproved",
      "outputs": [
        {
          "internalType": "address",
          "name": "",
          "type": "address"
        }
      ],
      "stateMutability": "view",
      "type": "function"
    },
    {
      "inputs": [
        {
          "internalType": "bytes32",
          "name": "role",
          "type": "bytes32"
        }
      ],
      "name": "getRoleAdmin",
      "outputs": [
        {
          "internalType": "bytes32",
          "name": "",
          "type": "bytes32"
        }
      ],
      "stateMutability": "view",
      "type": "function"
    },
    {
      "inputs": [
        {
          "internalType": "bytes32",
          "name": "role",
          "type": "bytes32"
        },
        {
          "internalType": "uint256",
          "name": "index",
          "type": "uint256"
        }
      ],
      "name": "getRoleMember",
      "outputs": [
        {
          "internalType": "address",
          "name": "",
          "type": "address"
        }
      ],
      "stateMutability": "view",
      "type": "function"
    },
    {
      "inputs": [
        {
          "internalType": "bytes32",
          "name": "role",
          "type": "bytes32"
        }
      ],
      "name": "getRoleMemberCount",
      "outputs": [
        {
          "internalType": "uint256",
          "name": "",
          "type": "uint256"
        }
      ],
      "stateMutability": "view",
      "type": "function"
    },
    {
      "inputs": [
        {
          "internalType": "bytes32",
          "name": "role",
          "type": "bytes32"
        },
        {
          "internalType": "address",
          "name": "account",
          "type": "address"
        }
      ],
      "name": "grantRole",
      "outputs": [],
      "stateMutability": "nonpayable",
      "type": "function"
    },
    {
      "inputs": [
        {
          "internalType": "bytes32",
          "name": "role",
          "type": "bytes32"
        },
        {
          "internalType": "address",
          "name": "account",
          "type": "address"
        }
      ],
      "name": "hasRole",
      "outputs": [
        {
          "internalType": "bool",
          "name": "",
          "type": "bool"
        }
      ],
      "stateMutability": "view",
      "type": "function"
    },
    {
      "inputs": [
        {
          "internalType": "address",
          "name": "_owner",
          "type": "address"
        },
        {
          "internalType": "address",
          "name": "_operator",
          "type": "address"
        }
      ],
      "name": "isApprovedForAll",
      "outputs": [
        {
          "internalType": "bool",
          "name": "",
          "type": "bool"
        }
      ],
      "stateMutability": "view",
      "type": "function"
    },
    {
      "inputs": [
        {
          "internalType": "address",
          "name": "player",
          "type": "address"
        },
        {
          "components": [
            {
              "internalType": "int8",
              "name": "x",
              "type": "int8"
            },
            {
              "internalType": "int8",
              "name": "y",
              "type": "int8"
            },
            {
              "internalType": "uint8",
              "name": "climate",
              "type": "uint8"
            },
            {
              "internalType": "uint8",
              "name": "landType",
              "type": "uint8"
            },
            {
              "internalType": "uint8",
              "name": "resource1",
              "type": "uint8"
            },
            {
              "internalType": "uint8",
              "name": "resource2",
              "type": "uint8"
            },
            {
              "internalType": "uint8",
              "name": "resource3",
              "type": "uint8"
            },
            {
              "internalType": "uint8",
              "name": "resource4",
              "type": "uint8"
            },
            {
              "internalType": "uint8",
              "name": "resourceLevel1",
              "type": "uint8"
            },
            {
              "internalType": "uint8",
              "name": "resourceLevel2",
              "type": "uint8"
            },
            {
              "internalType": "uint8",
              "name": "resourceLevel3",
              "type": "uint8"
            },
            {
              "internalType": "uint8",
              "name": "resourceLevel4",
              "type": "uint8"
            }
          ],
          "internalType": "struct LandERC721.Properties",
          "name": "_properties",
          "type": "tuple"
        }
      ],
      "name": "mint",
      "outputs": [
        {
          "internalType": "uint256",
          "name": "",
          "type": "uint256"
        }
      ],
      "stateMutability": "nonpayable",
      "type": "function"
    },
    {
      "inputs": [],
      "name": "name",
      "outputs": [
        {
          "internalType": "string",
          "name": "",
          "type": "string"
        }
      ],
      "stateMutability": "view",
      "type": "function"
    },
    {
      "inputs": [],
      "name": "owner",
      "outputs": [
        {
          "internalType": "address",
          "name": "",
          "type": "address"
        }
      ],
      "stateMutability": "view",
      "type": "function"
    },
    {
      "inputs": [
        {
          "internalType": "uint256",
          "name": "tokenId",
          "type": "uint256"
        }
      ],
      "name": "ownerOf",
      "outputs": [
        {
          "internalType": "address",
          "name": "",
          "type": "address"
        }
      ],
      "stateMutability": "view",
      "type": "function"
    },
    {
      "inputs": [
        {
          "internalType": "uint256",
          "name": "",
          "type": "uint256"
        }
      ],
      "name": "properties",
      "outputs": [
        {
          "internalType": "int8",
          "name": "x",
          "type": "int8"
        },
        {
          "internalType": "int8",
          "name": "y",
          "type": "int8"
        },
        {
          "internalType": "uint8",
          "name": "climate",
          "type": "uint8"
        },
        {
          "internalType": "uint8",
          "name": "landType",
          "type": "uint8"
        },
        {
          "internalType": "uint8",
          "name": "resource1",
          "type": "uint8"
        },
        {
          "internalType": "uint8",
          "name": "resource2",
          "type": "uint8"
        },
        {
          "internalType": "uint8",
          "name": "resource3",
          "type": "uint8"
        },
        {
          "internalType": "uint8",
          "name": "resource4",
          "type": "uint8"
        },
        {
          "internalType": "uint8",
          "name": "resourceLevel1",
          "type": "uint8"
        },
        {
          "internalType": "uint8",
          "name": "resourceLevel2",
          "type": "uint8"
        },
        {
          "internalType": "uint8",
          "name": "resourceLevel3",
          "type": "uint8"
        },
        {
          "internalType": "uint8",
          "name": "resourceLevel4",
          "type": "uint8"
        }
      ],
      "stateMutability": "view",
      "type": "function"
    },
    {
      "inputs": [],
      "name": "proxyRegistryAddress",
      "outputs": [
        {
          "internalType": "address",
          "name": "",
          "type": "address"
        }
      ],
      "stateMutability": "view",
      "type": "function"
    },
    {
      "inputs": [
        {
          "internalType": "bytes32",
          "name": "role",
          "type": "bytes32"
        },
        {
          "internalType": "address",
          "name": "account",
          "type": "address"
        }
      ],
      "name": "renounceRole",
      "outputs": [],
      "stateMutability": "nonpayable",
      "type": "function"
    },
    {
      "inputs": [
        {
          "internalType": "bytes32",
          "name": "role",
          "type": "bytes32"
        },
        {
          "internalType": "address",
          "name": "account",
          "type": "address"
        }
      ],
      "name": "revokeRole",
      "outputs": [],
      "stateMutability": "nonpayable",
      "type": "function"
    },
    {
      "inputs": [
        {
          "internalType": "address",
          "name": "from",
          "type": "address"
        },
        {
          "internalType": "address",
          "name": "to",
          "type": "address"
        },
        {
          "internalType": "uint256",
          "name": "tokenId",
          "type": "uint256"
        }
      ],
      "name": "safeTransferFrom",
      "outputs": [],
      "stateMutability": "nonpayable",
      "type": "function"
    },
    {
      "inputs": [
        {
          "internalType": "address",
          "name": "from",
          "type": "address"
        },
        {
          "internalType": "address",
          "name": "to",
          "type": "address"
        },
        {
          "internalType": "uint256",
          "name": "tokenId",
          "type": "uint256"
        },
        {
          "internalType": "bytes",
          "name": "_data",
          "type": "bytes"
        }
      ],
      "name": "safeTransferFrom",
      "outputs": [],
      "stateMutability": "nonpayable",
      "type": "function"
    },
    {
      "inputs": [
        {
          "internalType": "address",
          "name": "operator",
          "type": "address"
        },
        {
          "internalType": "bool",
          "name": "approved",
          "type": "bool"
        }
      ],
      "name": "setApprovalForAll",
      "outputs": [],
      "stateMutability": "nonpayable",
      "type": "function"
    },
    {
      "inputs": [
        {
          "internalType": "string",
          "name": "uri",
          "type": "string"
        }
      ],
      "name": "setBaseUri",
      "outputs": [],
      "stateMutability": "nonpayable",
      "type": "function"
    },
    {
      "inputs": [
        {
          "internalType": "string",
          "name": "uri",
          "type": "string"
        }
      ],
      "name": "setContractURI",
      "outputs": [],
      "stateMutability": "nonpayable",
      "type": "function"
    },
    {
      "inputs": [
        {
          "internalType": "address",
          "name": "_proxyRegistryAddress",
          "type": "address"
        }
      ],
      "name": "setProxyRegistryAddress",
      "outputs": [],
      "stateMutability": "nonpayable",
      "type": "function"
    },
    {
      "inputs": [
        {
          "internalType": "bytes4",
          "name": "interfaceId",
          "type": "bytes4"
        }
      ],
      "name": "supportsInterface",
      "outputs": [
        {
          "internalType": "bool",
          "name": "",
          "type": "bool"
        }
      ],
      "stateMutability": "view",
      "type": "function"
    },
    {
      "inputs": [],
      "name": "symbol",
      "outputs": [
        {
          "internalType": "string",
          "name": "",
          "type": "string"
        }
      ],
      "stateMutability": "view",
      "type": "function"
    },
    {
      "inputs": [
        {
          "internalType": "uint256",
          "name": "index",
          "type": "uint256"
        }
      ],
      "name": "tokenByIndex",
      "outputs": [
        {
          "internalType": "uint256",
          "name": "",
          "type": "uint256"
        }
      ],
      "stateMutability": "view",
      "type": "function"
    },
    {
      "inputs": [
        {
          "internalType": "address",
          "name": "owner",
          "type": "address"
        },
        {
          "internalType": "uint256",
          "name": "index",
          "type": "uint256"
        }
      ],
      "name": "tokenOfOwnerByIndex",
      "outputs": [
        {
          "internalType": "uint256",
          "name": "",
          "type": "uint256"
        }
      ],
      "stateMutability": "view",
      "type": "function"
    },
    {
      "inputs": [
        {
          "internalType": "uint256",
          "name": "tokenId",
          "type": "uint256"
        }
      ],
      "name": "tokenURI",
      "outputs": [
        {
          "internalType": "string",
          "name": "",
          "type": "string"
        }
      ],
      "stateMutability": "view",
      "type": "function"
    },
    {
      "inputs": [],
      "name": "totalSupply",
      "outputs": [
        {
          "internalType": "uint256",
          "name": "",
          "type": "uint256"
        }
      ],
      "stateMutability": "view",
      "type": "function"
    },
    {
      "inputs": [
        {
          "internalType": "address",
          "name": "from",
          "type": "address"
        },
        {
          "internalType": "address",
          "name": "to",
          "type": "address"
        },
        {
          "internalType": "uint256",
          "name": "tokenId",
          "type": "uint256"
        }
      ],
      "name": "transferFrom",
      "outputs": [],
      "stateMutability": "nonpayable",
      "type": "function"
    }
  ],
  "transactionHash": "0x06309e4d0618e6b929f0ee7d7d4616989f24820b994b351ab2d3d19386d42379",
  "args": [
    "0x497971B6535A9f7a5D7ef8e5a6F47bb309A0C3Ea",
    "https://testnet.winzeland.com/meta/land/",
    "https://testnet.winzeland.com/meta/contract/lands"
  ],
  "numDeployments": 1,
  "solcInputHash": "61ab444451bbc0ed4daafa2e82c32f64",
  "bytecode": "0x60806040523480156200001157600080fd5b5060405162003bbd38038062003bbd833981016040819052620000349162000b3b565b604080518082018252600f81526e15da5b9e995b185b990e8813185b99608a1b60208083019182528351808501909452600484526313185b9960e21b908401528151919291839183916200008b91600091620009e2565b508051620000a1906001906020840190620009e2565b50620000b39150600090503362000165565b50508151620000ca906010906020850190620009e2565b508051620000e0906011906020840190620009e2565b5060408051610180810182526000808252602082018190529181018290526063606082015260016080820152600260a0820152600360c0820152600460e0820152600a610100820181905261012082018190526101408201819052610160820152906200014e908262000175565b6200015b846000620003ee565b5050505062000d45565b62000171828262000548565b5050565b6001600f6000836000015160000b60000b81526020019081526020016000206000836020015160000b60000b815260200190815260200160002060006101000a81548160ff02191690831515021790555081600e6000836000015160000b60000b81526020019081526020016000206000836020015160000b60000b81526020019081526020016000208190555080600d600084815260200190815260200160002060008201518160000160006101000a81548160ff021916908360000b60ff16021790555060208201518160000160016101000a81548160ff021916908360000b60ff16021790555060408201518160000160026101000a81548160ff021916908360ff16021790555060608201518160000160036101000a81548160ff021916908360ff16021790555060808201518160000160046101000a81548160ff021916908360ff16021790555060a08201518160000160056101000a81548160ff021916908360ff16021790555060c08201518160000160066101000a81548160ff021916908360ff16021790555060e08201518160000160076101000a81548160ff021916908360ff1602179055506101008201518160000160086101000a81548160ff021916908360ff1602179055506101208201518160000160096101000a81548160ff021916908360ff16021790555061014082015181600001600a6101000a81548160ff021916908360ff16021790555061016082015181600001600b6101000a81548160ff021916908360ff160217905550905050817f39b103c1cf55c9c4c19a77bc7de6f29f4ab7f3f8467b1654811a52377d4bf63382604051620003e2919062000bc1565b60405180910390a25050565b6001600160a01b0382166200044a5760405162461bcd60e51b815260206004820181905260248201527f4552433732313a206d696e7420746f20746865207a65726f206164647265737360448201526064015b60405180910390fd5b6000818152600260205260409020546001600160a01b031615620004b15760405162461bcd60e51b815260206004820152601c60248201527f4552433732313a20746f6b656e20616c7265616479206d696e74656400000000604482015260640162000441565b620004bf600083836200058b565b6001600160a01b0382166000908152600360205260408120805460019290620004ea90849062000ca7565b909155505060008181526002602052604080822080546001600160a01b0319166001600160a01b03861690811790915590518392907fddf252ad1be2c89b69c2b068fc378daa952ba7f163c4a11628f55a4df523b3ef908290a45050565b6200055f82826200066760201b620011481760201c565b6000828152600b6020908152604090912062000586918390620011ea6200070b821b17901c565b505050565b620005a38383836200058660201b620009101760201c565b6001600160a01b0383166200060157620005fb81600880546000838152600960205260408120829055600182018355919091527ff3f7a9fe364faab93b216da50a3214154f22a0a2b415b23a84c8169e8b636ee30155565b62000627565b816001600160a01b0316836001600160a01b03161462000627576200062783826200072b565b6001600160a01b03821662000641576200058681620007d8565b826001600160a01b0316826001600160a01b0316146200058657620005868282620008b6565b6000828152600a602090815260408083206001600160a01b038516845290915290205460ff1662000171576000828152600a602090815260408083206001600160a01b03851684529091529020805460ff19166001179055620006c73390565b6001600160a01b0316816001600160a01b0316837f2f8788117e7eff1d82e926ec794901d17c78024a50270940304540a733656f0d60405160405180910390a45050565b600062000722836001600160a01b03841662000907565b90505b92915050565b6000600162000745846200095960201b62000c4e1760201c565b62000751919062000cc2565b600083815260076020526040902054909150808214620007a5576001600160a01b03841660009081526006602090815260408083208584528252808320548484528184208190558352600790915290208190555b5060009182526007602090815260408084208490556001600160a01b039094168352600681528383209183525290812055565b600854600090620007ec9060019062000cc2565b600083815260096020526040812054600880549394509092849081106200082357634e487b7160e01b600052603260045260246000fd5b9060005260206000200154905080600883815481106200085357634e487b7160e01b600052603260045260246000fd5b60009182526020808320909101929092558281526009909152604080822084905585825281205560088054806200089a57634e487b7160e01b600052603160045260246000fd5b6001900381819060005260206000200160009055905550505050565b6000620008ce836200095960201b62000c4e1760201c565b6001600160a01b039093166000908152600660209081526040808320868452825280832085905593825260079052919091209190915550565b6000818152600183016020526040812054620009505750815460018181018455600084815260208082209093018490558454848252828601909352604090209190915562000725565b50600062000725565b60006001600160a01b038216620009c65760405162461bcd60e51b815260206004820152602a60248201527f4552433732313a2062616c616e636520717565727920666f7220746865207a65604482015269726f206164647265737360b01b606482015260840162000441565b506001600160a01b031660009081526003602052604090205490565b828054620009f09062000cdc565b90600052602060002090601f01602090048101928262000a14576000855562000a5f565b82601f1062000a2f57805160ff191683800117855562000a5f565b8280016001018555821562000a5f579182015b8281111562000a5f57825182559160200191906001019062000a42565b5062000a6d92915062000a71565b5090565b5b8082111562000a6d576000815560010162000a72565b600082601f83011262000a99578081fd5b81516001600160401b038082111562000ab65762000ab662000d2f565b604051601f8301601f19908116603f0116810190828211818310171562000ae15762000ae162000d2f565b8160405283815260209250868385880101111562000afd578485fd5b8491505b8382101562000b20578582018301518183018401529082019062000b01565b8382111562000b3157848385830101525b9695505050505050565b60008060006060848603121562000b50578283fd5b83516001600160a01b038116811462000b67578384fd5b60208501519093506001600160401b038082111562000b84578384fd5b62000b928783880162000a88565b9350604086015191508082111562000ba8578283fd5b5062000bb78682870162000a88565b9150509250925092565b815160000b81526101808101602083015162000be2602084018260000b9052565b50604083015162000bf8604084018260ff169052565b50606083015162000c0e606084018260ff169052565b50608083015162000c24608084018260ff169052565b5060a083015162000c3a60a084018260ff169052565b5060c083015162000c5060c084018260ff169052565b5060e083015162000c6660e084018260ff169052565b506101008381015160ff9081169184019190915261012080850151821690840152610140808501518216908401526101609384015116929091019190915290565b6000821982111562000cbd5762000cbd62000d19565b500190565b60008282101562000cd75762000cd762000d19565b500390565b600181811c9082168062000cf157607f821691505b6020821081141562000d1357634e487b7160e01b600052602260045260246000fd5b50919050565b634e487b7160e01b600052601160045260246000fd5b634e487b7160e01b600052604160045260246000fd5b612e688062000d556000396000f3fe608060405234801561001057600080fd5b50600436106102415760003560e01c80639010d07c11610145578063c87b56dd116100bd578063d53913931161008c578063e8a3d48511610071578063e8a3d48514610532578063e985e9c51461053a578063f7b108081461054d57600080fd5b8063d5391393146104f8578063d547741f1461051f57600080fd5b8063c87b56dd146104ac578063ca15c873146104bf578063cd7c0326146104d2578063d26ea6c0146104e557600080fd5b8063a0bcfc7f11610114578063a22cb465116100f9578063a22cb46514610473578063abc0cce014610486578063b88d4fde1461049957600080fd5b8063a0bcfc7f14610458578063a217fddf1461046b57600080fd5b80639010d07c146103f157806391d1485414610404578063938e3d7b1461043d57806395d89b411461045057600080fd5b80632f745c59116101d857806354b826c1116101a75780636352211e1161018c5780636352211e146103c357806370a08231146103d65780638da5cb5b146103e957600080fd5b806354b826c11461036a5780636305769c1461039557600080fd5b80632f745c591461031e57806336568abe1461033157806342842e0e146103445780634f6ccce71461035757600080fd5b806318160ddd1161021457806318160ddd146102c357806323b872dd146102d5578063248a9ca3146102e85780632f2ff15d1461030b57600080fd5b806301ffc9a71461024657806306fdde031461026e578063081812fc14610283578063095ea7b3146102ae575b600080fd5b6102596102543660046129b3565b610671565b60405190151581526020015b60405180910390f35b6102766106b7565b6040516102659190612b97565b610296610291366004612956565b610749565b6040516001600160a01b039091168152602001610265565b6102c16102bc36600461292b565b6107e3565b005b6008545b604051908152602001610265565b6102c16102e3366004612725565b610915565b6102c76102f6366004612956565b6000908152600a602052604090206001015490565b6102c161031936600461296e565b61099c565b6102c761032c36600461292b565b6109c2565b6102c161033f36600461296e565b610a6a565b6102c1610352366004612725565b610af6565b6102c7610365366004612956565b610b11565b6102c7610378366004612a07565b600e60209081526000928352604080842090915290825290205481565b6102596103a3366004612a07565b600f60209081526000928352604080842090915290825290205460ff1681565b6102966103d1366004612956565b610bc3565b6102c76103e43660046126d1565b610c4e565b610296610ce8565b6102966103ff366004612992565b610cf9565b61025961041236600461296e565b6000918252600a602090815260408084206001600160a01b0393909316845291905290205460ff1690565b6102c161044b366004612a39565b610d18565b610276610d37565b6102c1610466366004612a39565b610d46565b6102c7600081565b6102c16104813660046127e2565b610d65565b6102c7610494366004612813565b610d70565b6102c16104a7366004612765565b610e3d565b6102766104ba366004612956565b610ecb565b6102c76104cd366004612956565b610fb3565b600c54610296906001600160a01b031681565b6102c16104f33660046126d1565b610fca565b6102c77f9f2df0fed2c77648de5860a4cc508cd0818c85b8b8a1ab4ceeef8d981c8956a681565b6102c161052d36600461296e565b61102e565b610276611054565b6102596105483660046126ed565b611063565b61060061055b366004612956565b600d6020526000908152604081205480820b916101008204900b9060ff620100008204811691630100000081048216916401000000008204811691650100000000008104821691660100000000000082048116916701000000000000008104821691680100000000000000008204811691690100000000000000000081048216916a010000000000000000000082048116916b0100000000000000000000009004168c565b6040805160009d8e0b81529b909c0b60208c015260ff998a169b8b019b909b5296881660608a0152948716608089015292861660a088015290851660c0870152841660e086015283166101008501528216610120840152811661014083015290911661016082015261018001610265565b60006001600160e01b0319821663780e9d6360e01b14806106a257506001600160e01b03198216635a05180f60e01b145b806106b157506106b1826111ff565b92915050565b6060600080546106c690612d58565b80601f01602080910402602001604051908101604052809291908181526020018280546106f290612d58565b801561073f5780601f106107145761010080835404028352916020019161073f565b820191906000526020600020905b81548152906001019060200180831161072257829003601f168201915b5050505050905090565b6000818152600260205260408120546001600160a01b03166107c75760405162461bcd60e51b815260206004820152602c60248201527f4552433732313a20617070726f76656420717565727920666f72206e6f6e657860448201526b34b9ba32b73a103a37b5b2b760a11b60648201526084015b60405180910390fd5b506000908152600460205260409020546001600160a01b031690565b60006107ee82610bc3565b9050806001600160a01b0316836001600160a01b031614156108785760405162461bcd60e51b815260206004820152602160248201527f4552433732313a20617070726f76616c20746f2063757272656e74206f776e6560448201527f720000000000000000000000000000000000000000000000000000000000000060648201526084016107be565b336001600160a01b038216148061089457506108948133611063565b6109065760405162461bcd60e51b815260206004820152603860248201527f4552433732313a20617070726f76652063616c6c6572206973206e6f74206f7760448201527f6e6572206e6f7220617070726f76656420666f7220616c6c000000000000000060648201526084016107be565b6109108383611224565b505050565b61091f338261129f565b6109915760405162461bcd60e51b815260206004820152603160248201527f4552433732313a207472616e736665722063616c6c6572206973206e6f74206f60448201527f776e6572206e6f7220617070726f76656400000000000000000000000000000060648201526084016107be565b61091083838361136e565b6000828152600a60205260409020600101546109b88133611553565b61091083836115d3565b60006109cd83610c4e565b8210610a415760405162461bcd60e51b815260206004820152602b60248201527f455243373231456e756d657261626c653a206f776e657220696e646578206f7560448201527f74206f6620626f756e647300000000000000000000000000000000000000000060648201526084016107be565b506001600160a01b03919091166000908152600660209081526040808320938352929052205490565b6001600160a01b0381163314610ae85760405162461bcd60e51b815260206004820152602f60248201527f416363657373436f6e74726f6c3a2063616e206f6e6c792072656e6f756e636560448201527f20726f6c657320666f722073656c66000000000000000000000000000000000060648201526084016107be565b610af282826115f5565b5050565b61091083838360405180602001604052806000815250610e3d565b6000610b1c60085490565b8210610b905760405162461bcd60e51b815260206004820152602c60248201527f455243373231456e756d657261626c653a20676c6f62616c20696e646578206f60448201527f7574206f6620626f756e6473000000000000000000000000000000000000000060648201526084016107be565b60088281548110610bb157634e487b7160e01b600052603260045260246000fd5b90600052602060002001549050919050565b6000818152600260205260408120546001600160a01b0316806106b15760405162461bcd60e51b815260206004820152602960248201527f4552433732313a206f776e657220717565727920666f72206e6f6e657869737460448201527f656e7420746f6b656e000000000000000000000000000000000000000000000060648201526084016107be565b60006001600160a01b038216610ccc5760405162461bcd60e51b815260206004820152602a60248201527f4552433732313a2062616c616e636520717565727920666f7220746865207a6560448201527f726f20616464726573730000000000000000000000000000000000000000000060648201526084016107be565b506001600160a01b031660009081526003602052604090205490565b6000610cf48180610cf9565b905090565b6000828152600b60205260408120610d119083611617565b9392505050565b6000610d248133611553565b815161091090601190602085019061259a565b6060600180546106c690612d58565b6000610d528133611553565b815161091090601090602085019061259a565b610af2338383611623565b60007f9f2df0fed2c77648de5860a4cc508cd0818c85b8b8a1ab4ceeef8d981c8956a6610d9d8133611553565b8251600090810b810b8152600f6020908152604080832082870151840b840b845290915290205460ff1615610e145760405162461bcd60e51b815260206004820152601560248201527f4c616e643a20616c7265616479206d696e7465642e000000000000000000000060448201526064016107be565b6000610e1f60085490565b9050610e2b81856116f2565b610e358582611969565b949350505050565b610e47338361129f565b610eb95760405162461bcd60e51b815260206004820152603160248201527f4552433732313a207472616e736665722063616c6c6572206973206e6f74206f60448201527f776e6572206e6f7220617070726f76656400000000000000000000000000000060648201526084016107be565b610ec584848484611ac4565b50505050565b6000818152600260205260409020546060906001600160a01b0316610f585760405162461bcd60e51b815260206004820152602f60248201527f4552433732314d657461646174613a2055524920717565727920666f72206e6f60448201527f6e6578697374656e7420746f6b656e000000000000000000000000000000000060648201526084016107be565b6000610f62611b4d565b90506000815111610f825760405180602001604052806000815250610d11565b80610f8c84611b5c565b604051602001610f9d929190612aab565b6040516020818303038152906040529392505050565b6000818152600b602052604081206106b190611c76565b6000610fd68133611553565b600c805473ffffffffffffffffffffffffffffffffffffffff19166001600160a01b0384169081179091556040517fa2b0839d4585de7874ef6ce1d56318647d0ba0f8661e7ae4b76c47a7d5766b5390600090a25050565b6000828152600a602052604090206001015461104a8133611553565b61091083836115f5565b6060601180546106c690612d58565b600c546040517fc45527910000000000000000000000000000000000000000000000000000000081526001600160a01b03848116600483015260009281169190841690829063c45527919060240160206040518083038186803b1580156110c957600080fd5b505afa1580156110dd573d6000803e3d6000fd5b505050506040513d601f19601f8201168201806040525081019061110191906129eb565b6001600160a01b0316141561111a5760019150506106b1565b6001600160a01b0380851660009081526005602090815260408083209387168352929052205460ff16610e35565b6000828152600a602090815260408083206001600160a01b038516845290915290205460ff16610af2576000828152600a602090815260408083206001600160a01b03851684529091529020805460ff191660011790556111a63390565b6001600160a01b0316816001600160a01b0316837f2f8788117e7eff1d82e926ec794901d17c78024a50270940304540a733656f0d60405160405180910390a45050565b6000610d11836001600160a01b038416611c80565b60006001600160e01b03198216635a05180f60e01b14806106b157506106b182611ccf565b6000818152600460205260409020805473ffffffffffffffffffffffffffffffffffffffff19166001600160a01b038416908117909155819061126682610bc3565b6001600160a01b03167f8c5be1e5ebec7d5bd14f71427d1e84f3dd0314c0f7b2291e5b200ac8c7c3b92560405160405180910390a45050565b6000818152600260205260408120546001600160a01b03166113185760405162461bcd60e51b815260206004820152602c60248201527f4552433732313a206f70657261746f7220717565727920666f72206e6f6e657860448201526b34b9ba32b73a103a37b5b2b760a11b60648201526084016107be565b600061132383610bc3565b9050806001600160a01b0316846001600160a01b0316148061135e5750836001600160a01b031661135384610749565b6001600160a01b0316145b80610e355750610e358185611063565b826001600160a01b031661138182610bc3565b6001600160a01b0316146113fd5760405162461bcd60e51b815260206004820152602560248201527f4552433732313a207472616e736665722066726f6d20696e636f72726563742060448201527f6f776e657200000000000000000000000000000000000000000000000000000060648201526084016107be565b6001600160a01b0382166114785760405162461bcd60e51b8152602060048201526024808201527f4552433732313a207472616e7366657220746f20746865207a65726f2061646460448201527f726573730000000000000000000000000000000000000000000000000000000060648201526084016107be565b611483838383611d0d565b61148e600082611224565b6001600160a01b03831660009081526003602052604081208054600192906114b7908490612cfe565b90915550506001600160a01b03821660009081526003602052604081208054600192906114e5908490612cb3565b9091555050600081815260026020526040808220805473ffffffffffffffffffffffffffffffffffffffff19166001600160a01b0386811691821790925591518493918716917fddf252ad1be2c89b69c2b068fc378daa952ba7f163c4a11628f55a4df523b3ef91a4505050565b6000828152600a602090815260408083206001600160a01b038516845290915290205460ff16610af257611591816001600160a01b03166014611dc5565b61159c836020611dc5565b6040516020016115ad929190612ada565b60408051601f198184030181529082905262461bcd60e51b82526107be91600401612b97565b6115dd8282611148565b6000828152600b6020526040902061091090826111ea565b6115ff8282611fd0565b6000828152600b602052604090206109109082612053565b6000610d118383612068565b816001600160a01b0316836001600160a01b031614156116855760405162461bcd60e51b815260206004820152601960248201527f4552433732313a20617070726f766520746f2063616c6c65720000000000000060448201526064016107be565b6001600160a01b03838116600081815260056020908152604080832094871680845294825291829020805460ff191686151590811790915591519182527f17307eab39ab6107e8899845ad3d59bd9653f200f220920489ca2b5937696c31910160405180910390a3505050565b6001600f6000836000015160000b60000b81526020019081526020016000206000836020015160000b60000b815260200190815260200160002060006101000a81548160ff02191690831515021790555081600e6000836000015160000b60000b81526020019081526020016000206000836020015160000b60000b81526020019081526020016000208190555080600d600084815260200190815260200160002060008201518160000160006101000a81548160ff021916908360000b60ff16021790555060208201518160000160016101000a81548160ff021916908360000b60ff16021790555060408201518160000160026101000a81548160ff021916908360ff16021790555060608201518160000160036101000a81548160ff021916908360ff16021790555060808201518160000160046101000a81548160ff021916908360ff16021790555060a08201518160000160056101000a81548160ff021916908360ff16021790555060c08201518160000160066101000a81548160ff021916908360ff16021790555060e08201518160000160076101000a81548160ff021916908360ff1602179055506101008201518160000160086101000a81548160ff021916908360ff1602179055506101208201518160000160096101000a81548160ff021916908360ff16021790555061014082015181600001600a6101000a81548160ff021916908360ff16021790555061016082015181600001600b6101000a81548160ff021916908360ff160217905550905050817f39b103c1cf55c9c4c19a77bc7de6f29f4ab7f3f8467b1654811a52377d4bf6338260405161195d9190612baa565b60405180910390a25050565b6001600160a01b0382166119bf5760405162461bcd60e51b815260206004820181905260248201527f4552433732313a206d696e7420746f20746865207a65726f206164647265737360448201526064016107be565b6000818152600260205260409020546001600160a01b031615611a245760405162461bcd60e51b815260206004820152601c60248201527f4552433732313a20746f6b656e20616c7265616479206d696e7465640000000060448201526064016107be565b611a3060008383611d0d565b6001600160a01b0382166000908152600360205260408120805460019290611a59908490612cb3565b9091555050600081815260026020526040808220805473ffffffffffffffffffffffffffffffffffffffff19166001600160a01b03861690811790915590518392907fddf252ad1be2c89b69c2b068fc378daa952ba7f163c4a11628f55a4df523b3ef908290a45050565b611acf84848461136e565b611adb848484846120a0565b610ec55760405162461bcd60e51b815260206004820152603260248201527f4552433732313a207472616e7366657220746f206e6f6e20455243373231526560448201527f63656976657220696d706c656d656e746572000000000000000000000000000060648201526084016107be565b6060601080546106c690612d58565b606081611b805750506040805180820190915260018152600360fc1b602082015290565b8160005b8115611baa5780611b9481612d93565b9150611ba39050600a83612ccb565b9150611b84565b60008167ffffffffffffffff811115611bd357634e487b7160e01b600052604160045260246000fd5b6040519080825280601f01601f191660200182016040528015611bfd576020820181803683370190505b5090505b8415610e3557611c12600183612cfe565b9150611c1f600a86612dae565b611c2a906030612cb3565b60f81b818381518110611c4d57634e487b7160e01b600052603260045260246000fd5b60200101906001600160f81b031916908160001a905350611c6f600a86612ccb565b9450611c01565b60006106b1825490565b6000818152600183016020526040812054611cc7575081546001818101845560008481526020808220909301849055845484825282860190935260409020919091556106b1565b5060006106b1565b60006001600160e01b031982167f7965db0b0000000000000000000000000000000000000000000000000000000014806106b157506106b182612203565b6001600160a01b038316611d6857611d6381600880546000838152600960205260408120829055600182018355919091527ff3f7a9fe364faab93b216da50a3214154f22a0a2b415b23a84c8169e8b636ee30155565b611d8b565b816001600160a01b0316836001600160a01b031614611d8b57611d8b8382612228565b6001600160a01b038216611da257610910816122c5565b826001600160a01b0316826001600160a01b03161461091057610910828261239e565b60606000611dd4836002612cdf565b611ddf906002612cb3565b67ffffffffffffffff811115611e0557634e487b7160e01b600052604160045260246000fd5b6040519080825280601f01601f191660200182016040528015611e2f576020820181803683370190505b509050600360fc1b81600081518110611e5857634e487b7160e01b600052603260045260246000fd5b60200101906001600160f81b031916908160001a9053507f780000000000000000000000000000000000000000000000000000000000000081600181518110611eb157634e487b7160e01b600052603260045260246000fd5b60200101906001600160f81b031916908160001a9053506000611ed5846002612cdf565b611ee0906001612cb3565b90505b6001811115611f81577f303132333435363738396162636465660000000000000000000000000000000085600f1660108110611f2f57634e487b7160e01b600052603260045260246000fd5b1a60f81b828281518110611f5357634e487b7160e01b600052603260045260246000fd5b60200101906001600160f81b031916908160001a90535060049490941c93611f7a81612d41565b9050611ee3565b508315610d115760405162461bcd60e51b815260206004820181905260248201527f537472696e67733a20686578206c656e67746820696e73756666696369656e7460448201526064016107be565b6000828152600a602090815260408083206001600160a01b038516845290915290205460ff1615610af2576000828152600a602090815260408083206001600160a01b0385168085529252808320805460ff1916905551339285917ff6391f5c32d9c69d2a47ea670b442974b53935d1edc7fd64eb21e047a839171b9190a45050565b6000610d11836001600160a01b0384166123e2565b600082600001828154811061208d57634e487b7160e01b600052603260045260246000fd5b9060005260206000200154905092915050565b60006001600160a01b0384163b156121f857604051630a85bd0160e11b81526001600160a01b0385169063150b7a02906120e4903390899088908890600401612b5b565b602060405180830381600087803b1580156120fe57600080fd5b505af192505050801561212e575060408051601f3d908101601f1916820190925261212b918101906129cf565b60015b6121de573d80801561215c576040519150601f19603f3d011682016040523d82523d6000602084013e612161565b606091505b5080516121d65760405162461bcd60e51b815260206004820152603260248201527f4552433732313a207472616e7366657220746f206e6f6e20455243373231526560448201527f63656976657220696d706c656d656e746572000000000000000000000000000060648201526084016107be565b805181602001fd5b6001600160e01b031916630a85bd0160e11b149050610e35565b506001949350505050565b60006001600160e01b0319821663780e9d6360e01b14806106b157506106b1826124ff565b6000600161223584610c4e565b61223f9190612cfe565b600083815260076020526040902054909150808214612292576001600160a01b03841660009081526006602090815260408083208584528252808320548484528184208190558352600790915290208190555b5060009182526007602090815260408084208490556001600160a01b039094168352600681528383209183525290812055565b6008546000906122d790600190612cfe565b6000838152600960205260408120546008805493945090928490811061230d57634e487b7160e01b600052603260045260246000fd5b90600052602060002001549050806008838154811061233c57634e487b7160e01b600052603260045260246000fd5b600091825260208083209091019290925582815260099091526040808220849055858252812055600880548061238257634e487b7160e01b600052603160045260246000fd5b6001900381819060005260206000200160009055905550505050565b60006123a983610c4e565b6001600160a01b039093166000908152600660209081526040808320868452825280832085905593825260079052919091209190915550565b600081815260018301602052604081205480156124f5576000612406600183612cfe565b855490915060009061241a90600190612cfe565b905081811461249b57600086600001828154811061244857634e487b7160e01b600052603260045260246000fd5b906000526020600020015490508087600001848154811061247957634e487b7160e01b600052603260045260246000fd5b6000918252602080832090910192909255918252600188019052604090208390555b85548690806124ba57634e487b7160e01b600052603160045260246000fd5b6001900381819060005260206000200160009055905585600101600086815260200190815260200160002060009055600193505050506106b1565b60009150506106b1565b60006001600160e01b031982167f80ac58cd00000000000000000000000000000000000000000000000000000000148061256257506001600160e01b031982167f5b5e139f00000000000000000000000000000000000000000000000000000000145b806106b157507f01ffc9a7000000000000000000000000000000000000000000000000000000006001600160e01b03198316146106b1565b8280546125a690612d58565b90600052602060002090601f0160209004810192826125c8576000855561260e565b82601f106125e157805160ff191683800117855561260e565b8280016001018555821561260e579182015b8281111561260e5782518255916020019190600101906125f3565b5061261a92915061261e565b5090565b5b8082111561261a576000815560010161261f565b600067ffffffffffffffff8084111561264e5761264e612dee565b604051601f8501601f19908116603f0116810190828211818310171561267657612676612dee565b8160405280935085815286868601111561268f57600080fd5b858560208301376000602087830101525050509392505050565b8035600081900b81146126bb57600080fd5b919050565b803560ff811681146126bb57600080fd5b6000602082840312156126e2578081fd5b8135610d1181612e04565b600080604083850312156126ff578081fd5b823561270a81612e04565b9150602083013561271a81612e04565b809150509250929050565b600080600060608486031215612739578081fd5b833561274481612e04565b9250602084013561275481612e04565b929592945050506040919091013590565b6000806000806080858703121561277a578081fd5b843561278581612e04565b9350602085013561279581612e04565b925060408501359150606085013567ffffffffffffffff8111156127b7578182fd5b8501601f810187136127c7578182fd5b6127d687823560208401612633565b91505092959194509250565b600080604083850312156127f4578182fd5b82356127ff81612e04565b91506020830135801515811461271a578182fd5b6000808284036101a0811215612827578283fd5b833561283281612e04565b9250610180601f198201811315612847578283fd5b61284f612c89565b915061285d602086016126a9565b825261286b604086016126a9565b602083015261287c606086016126c0565b604083015261288d608086016126c0565b606083015261289e60a086016126c0565b60808301526128af60c086016126c0565b60a08301526128c060e086016126c0565b60c08301526101006128d38187016126c0565b60e08401526101206128e68188016126c0565b8285015261014091506128fa8288016126c0565b9084015261016061290c8782016126c0565b8285015261291b8388016126c0565b9084015250929590945092505050565b6000806040838503121561293d578182fd5b823561294881612e04565b946020939093013593505050565b600060208284031215612967578081fd5b5035919050565b60008060408385031215612980578182fd5b82359150602083013561271a81612e04565b600080604083850312156129a4578182fd5b50508035926020909101359150565b6000602082840312156129c4578081fd5b8135610d1181612e1c565b6000602082840312156129e0578081fd5b8151610d1181612e1c565b6000602082840312156129fc578081fd5b8151610d1181612e04565b60008060408385031215612a19578182fd5b612a22836126a9565b9150612a30602084016126a9565b90509250929050565b600060208284031215612a4a578081fd5b813567ffffffffffffffff811115612a60578182fd5b8201601f81018413612a70578182fd5b610e3584823560208401612633565b60008151808452612a97816020860160208601612d15565b601f01601f19169290920160200192915050565b60008351612abd818460208801612d15565b835190830190612ad1818360208801612d15565b01949350505050565b7f416363657373436f6e74726f6c3a206163636f756e7420000000000000000000815260008351612b12816017850160208801612d15565b7f206973206d697373696e6720726f6c65200000000000000000000000000000006017918401918201528351612b4f816028840160208801612d15565b01602801949350505050565b60006001600160a01b03808716835280861660208401525083604083015260806060830152612b8d6080830184612a7f565b9695505050505050565b602081526000610d116020830184612a7f565b815160000b815261018081016020830151612bca602084018260000b9052565b506040830151612bdf604084018260ff169052565b506060830151612bf4606084018260ff169052565b506080830151612c09608084018260ff169052565b5060a0830151612c1e60a084018260ff169052565b5060c0830151612c3360c084018260ff169052565b5060e0830151612c4860e084018260ff169052565b506101008381015160ff9081169184019190915261012080850151821690840152610140808501518216908401526101609384015116929091019190915290565b604051610180810167ffffffffffffffff81118282101715612cad57612cad612dee565b60405290565b60008219821115612cc657612cc6612dc2565b500190565b600082612cda57612cda612dd8565b500490565b6000816000190483118215151615612cf957612cf9612dc2565b500290565b600082821015612d1057612d10612dc2565b500390565b60005b83811015612d30578181015183820152602001612d18565b83811115610ec55750506000910152565b600081612d5057612d50612dc2565b506000190190565b600181811c90821680612d6c57607f821691505b60208210811415612d8d57634e487b7160e01b600052602260045260246000fd5b50919050565b6000600019821415612da757612da7612dc2565b5060010190565b600082612dbd57612dbd612dd8565b500690565b634e487b7160e01b600052601160045260246000fd5b634e487b7160e01b600052601260045260246000fd5b634e487b7160e01b600052604160045260246000fd5b6001600160a01b0381168114612e1957600080fd5b50565b6001600160e01b031981168114612e1957600080fdfea26469706673582212207007cadd65d5032165211b398c6ecfa4a53b50f2a672af807c5483b5a310bee364736f6c63430008040033",
  "devdoc": {
    "kind": "dev",
    "methods": {
      "approve(address,uint256)": {
        "details": "See {IERC721-approve}."
      },
      "balanceOf(address)": {
        "details": "See {IERC721-balanceOf}."
      },
      "getApproved(uint256)": {
        "details": "See {IERC721-getApproved}."
      },
      "getRoleAdmin(bytes32)": {
        "details": "Returns the admin role that controls `role`. See {grantRole} and {revokeRole}. To change a role's admin, use {_setRoleAdmin}."
      },
      "getRoleMember(bytes32,uint256)": {
        "details": "Returns one of the accounts that have `role`. `index` must be a value between 0 and {getRoleMemberCount}, non-inclusive. Role bearers are not sorted in any particular way, and their ordering may change at any point. WARNING: When using {getRoleMember} and {getRoleMemberCount}, make sure you perform all queries on the same block. See the following https://forum.openzeppelin.com/t/iterating-over-elements-on-enumerableset-in-openzeppelin-contracts/2296[forum post] for more information."
      },
      "getRoleMemberCount(bytes32)": {
        "details": "Returns the number of accounts that have `role`. Can be used together with {getRoleMember} to enumerate all bearers of a role."
      },
      "grantRole(bytes32,address)": {
        "details": "Grants `role` to `account`. If `account` had not been already granted `role`, emits a {RoleGranted} event. Requirements: - the caller must have ``role``'s admin role."
      },
      "hasRole(bytes32,address)": {
        "details": "Returns `true` if `account` has been granted `role`."
      },
      "name()": {
        "details": "See {IERC721Metadata-name}."
      },
      "ownerOf(uint256)": {
        "details": "See {IERC721-ownerOf}."
      },
      "renounceRole(bytes32,address)": {
        "details": "Revokes `role` from the calling account. Roles are often managed via {grantRole} and {revokeRole}: this function's purpose is to provide a mechanism for accounts to lose their privileges if they are compromised (such as when a trusted device is misplaced). If the calling account had been revoked `role`, emits a {RoleRevoked} event. Requirements: - the caller must be `account`."
      },
      "revokeRole(bytes32,address)": {
        "details": "Revokes `role` from `account`. If `account` had been granted `role`, emits a {RoleRevoked} event. Requirements: - the caller must have ``role``'s admin role."
      },
      "safeTransferFrom(address,address,uint256)": {
        "details": "See {IERC721-safeTransferFrom}."
      },
      "safeTransferFrom(address,address,uint256,bytes)": {
        "details": "See {IERC721-safeTransferFrom}."
      },
      "setApprovalForAll(address,bool)": {
        "details": "See {IERC721-setApprovalForAll}."
      },
      "symbol()": {
        "details": "See {IERC721Metadata-symbol}."
      },
      "tokenByIndex(uint256)": {
        "details": "See {IERC721Enumerable-tokenByIndex}."
      },
      "tokenOfOwnerByIndex(address,uint256)": {
        "details": "See {IERC721Enumerable-tokenOfOwnerByIndex}."
      },
      "tokenURI(uint256)": {
        "details": "See {IERC721Metadata-tokenURI}."
      },
      "totalSupply()": {
        "details": "See {IERC721Enumerable-totalSupply}."
      },
      "transferFrom(address,address,uint256)": {
        "details": "See {IERC721-transferFrom}."
      }
    },
    "version": 1
  },
  "userdoc": {
    "kind": "user",
    "methods": {
      "isApprovedForAll(address,address)": {
        "notice": "Override isApprovedForAll to whitelist user's OpenSea proxy accounts to enable gas-less listings."
      }
    },
    "version": 1
  },
  "storageLayout": {
    "storage": [
      {
        "astId": 2627,
        "contract": "contracts/lands/LandERC721.sol:LandERC721",
        "label": "_name",
        "offset": 0,
        "slot": "0",
        "type": "t_string_storage"
      },
      {
        "astId": 2629,
        "contract": "contracts/lands/LandERC721.sol:LandERC721",
        "label": "_symbol",
        "offset": 0,
        "slot": "1",
        "type": "t_string_storage"
      },
      {
        "astId": 2633,
        "contract": "contracts/lands/LandERC721.sol:LandERC721",
        "label": "_owners",
        "offset": 0,
        "slot": "2",
        "type": "t_mapping(t_uint256,t_address)"
      },
      {
        "astId": 2637,
        "contract": "contracts/lands/LandERC721.sol:LandERC721",
        "label": "_balances",
        "offset": 0,
        "slot": "3",
        "type": "t_mapping(t_address,t_uint256)"
      },
      {
        "astId": 2641,
        "contract": "contracts/lands/LandERC721.sol:LandERC721",
        "label": "_tokenApprovals",
        "offset": 0,
        "slot": "4",
        "type": "t_mapping(t_uint256,t_address)"
      },
      {
        "astId": 2647,
        "contract": "contracts/lands/LandERC721.sol:LandERC721",
        "label": "_operatorApprovals",
        "offset": 0,
        "slot": "5",
        "type": "t_mapping(t_address,t_mapping(t_address,t_bool))"
      },
      {
        "astId": 3616,
        "contract": "contracts/lands/LandERC721.sol:LandERC721",
        "label": "_ownedTokens",
        "offset": 0,
        "slot": "6",
        "type": "t_mapping(t_address,t_mapping(t_uint256,t_uint256))"
      },
      {
        "astId": 3620,
        "contract": "contracts/lands/LandERC721.sol:LandERC721",
        "label": "_ownedTokensIndex",
        "offset": 0,
        "slot": "7",
        "type": "t_mapping(t_uint256,t_uint256)"
      },
      {
        "astId": 3623,
        "contract": "contracts/lands/LandERC721.sol:LandERC721",
        "label": "_allTokens",
        "offset": 0,
        "slot": "8",
        "type": "t_array(t_uint256)dyn_storage"
      },
      {
        "astId": 3627,
        "contract": "contracts/lands/LandERC721.sol:LandERC721",
        "label": "_allTokensIndex",
        "offset": 0,
        "slot": "9",
        "type": "t_mapping(t_uint256,t_uint256)"
      },
      {
        "astId": 24,
        "contract": "contracts/lands/LandERC721.sol:LandERC721",
        "label": "_roles",
        "offset": 0,
        "slot": "10",
        "type": "t_mapping(t_bytes32,t_struct(RoleData)19_storage)"
      },
      {
        "astId": 327,
        "contract": "contracts/lands/LandERC721.sol:LandERC721",
        "label": "_roleMembers",
        "offset": 0,
        "slot": "11",
        "type": "t_mapping(t_bytes32,t_struct(AddressSet)5584_storage)"
      },
      {
        "astId": 5893,
        "contract": "contracts/lands/LandERC721.sol:LandERC721",
        "label": "proxyRegistryAddress",
        "offset": 0,
        "slot": "12",
        "type": "t_address"
      },
      {
        "astId": 6788,
        "contract": "contracts/lands/LandERC721.sol:LandERC721",
        "label": "properties",
        "offset": 0,
        "slot": "13",
        "type": "t_mapping(t_uint256,t_struct(Properties)6776_storage)"
      },
      {
        "astId": 6794,
        "contract": "contracts/lands/LandERC721.sol:LandERC721",
        "label": "coordinates",
        "offset": 0,
        "slot": "14",
        "type": "t_mapping(t_int8,t_mapping(t_int8,t_uint256))"
      },
      {
        "astId": 6800,
        "contract": "contracts/lands/LandERC721.sol:LandERC721",
        "label": "coordinatesTaken",
        "offset": 0,
        "slot": "15",
        "type": "t_mapping(t_int8,t_mapping(t_int8,t_bool))"
      },
      {
        "astId": 6802,
        "contract": "contracts/lands/LandERC721.sol:LandERC721",
        "label": "__baseURI",
        "offset": 0,
        "slot": "16",
        "type": "t_string_storage"
      },
      {
        "astId": 6804,
        "contract": "contracts/lands/LandERC721.sol:LandERC721",
        "label": "__contractURI",
        "offset": 0,
        "slot": "17",
        "type": "t_string_storage"
      }
    ],
    "types": {
      "t_address": {
        "encoding": "inplace",
        "label": "address",
        "numberOfBytes": "20"
      },
      "t_array(t_bytes32)dyn_storage": {
        "base": "t_bytes32",
        "encoding": "dynamic_array",
        "label": "bytes32[]",
        "numberOfBytes": "32"
      },
      "t_array(t_uint256)dyn_storage": {
        "base": "t_uint256",
        "encoding": "dynamic_array",
        "label": "uint256[]",
        "numberOfBytes": "32"
      },
      "t_bool": {
        "encoding": "inplace",
        "label": "bool",
        "numberOfBytes": "1"
      },
      "t_bytes32": {
        "encoding": "inplace",
        "label": "bytes32",
        "numberOfBytes": "32"
      },
      "t_int8": {
        "encoding": "inplace",
        "label": "int8",
        "numberOfBytes": "1"
      },
      "t_mapping(t_address,t_bool)": {
        "encoding": "mapping",
        "key": "t_address",
        "label": "mapping(address => bool)",
        "numberOfBytes": "32",
        "value": "t_bool"
      },
      "t_mapping(t_address,t_mapping(t_address,t_bool))": {
        "encoding": "mapping",
        "key": "t_address",
        "label": "mapping(address => mapping(address => bool))",
        "numberOfBytes": "32",
        "value": "t_mapping(t_address,t_bool)"
      },
      "t_mapping(t_address,t_mapping(t_uint256,t_uint256))": {
        "encoding": "mapping",
        "key": "t_address",
        "label": "mapping(address => mapping(uint256 => uint256))",
        "numberOfBytes": "32",
        "value": "t_mapping(t_uint256,t_uint256)"
      },
      "t_mapping(t_address,t_uint256)": {
        "encoding": "mapping",
        "key": "t_address",
        "label": "mapping(address => uint256)",
        "numberOfBytes": "32",
        "value": "t_uint256"
      },
      "t_mapping(t_bytes32,t_struct(AddressSet)5584_storage)": {
        "encoding": "mapping",
        "key": "t_bytes32",
        "label": "mapping(bytes32 => struct EnumerableSet.AddressSet)",
        "numberOfBytes": "32",
        "value": "t_struct(AddressSet)5584_storage"
      },
      "t_mapping(t_bytes32,t_struct(RoleData)19_storage)": {
        "encoding": "mapping",
        "key": "t_bytes32",
        "label": "mapping(bytes32 => struct AccessControl.RoleData)",
        "numberOfBytes": "32",
        "value": "t_struct(RoleData)19_storage"
      },
      "t_mapping(t_bytes32,t_uint256)": {
        "encoding": "mapping",
        "key": "t_bytes32",
        "label": "mapping(bytes32 => uint256)",
        "numberOfBytes": "32",
        "value": "t_uint256"
      },
      "t_mapping(t_int8,t_bool)": {
        "encoding": "mapping",
        "key": "t_int8",
        "label": "mapping(int8 => bool)",
        "numberOfBytes": "32",
        "value": "t_bool"
      },
      "t_mapping(t_int8,t_mapping(t_int8,t_bool))": {
        "encoding": "mapping",
        "key": "t_int8",
        "label": "mapping(int8 => mapping(int8 => bool))",
        "numberOfBytes": "32",
        "value": "t_mapping(t_int8,t_bool)"
      },
      "t_mapping(t_int8,t_mapping(t_int8,t_uint256))": {
        "encoding": "mapping",
        "key": "t_int8",
        "label": "mapping(int8 => mapping(int8 => uint256))",
        "numberOfBytes": "32",
        "value": "t_mapping(t_int8,t_uint256)"
      },
      "t_mapping(t_int8,t_uint256)": {
        "encoding": "mapping",
        "key": "t_int8",
        "label": "mapping(int8 => uint256)",
        "numberOfBytes": "32",
        "value": "t_uint256"
      },
      "t_mapping(t_uint256,t_address)": {
        "encoding": "mapping",
        "key": "t_uint256",
        "label": "mapping(uint256 => address)",
        "numberOfBytes": "32",
        "value": "t_address"
      },
      "t_mapping(t_uint256,t_struct(Properties)6776_storage)": {
        "encoding": "mapping",
        "key": "t_uint256",
        "label": "mapping(uint256 => struct LandERC721.Properties)",
        "numberOfBytes": "32",
        "value": "t_struct(Properties)6776_storage"
      },
      "t_mapping(t_uint256,t_uint256)": {
        "encoding": "mapping",
        "key": "t_uint256",
        "label": "mapping(uint256 => uint256)",
        "numberOfBytes": "32",
        "value": "t_uint256"
      },
      "t_string_storage": {
        "encoding": "bytes",
        "label": "string",
        "numberOfBytes": "32"
      },
      "t_struct(AddressSet)5584_storage": {
        "encoding": "inplace",
        "label": "struct EnumerableSet.AddressSet",
        "members": [
          {
            "astId": 5583,
            "contract": "contracts/lands/LandERC721.sol:LandERC721",
            "label": "_inner",
            "offset": 0,
            "slot": "0",
            "type": "t_struct(Set)5283_storage"
          }
        ],
        "numberOfBytes": "64"
      },
      "t_struct(Properties)6776_storage": {
        "encoding": "inplace",
        "label": "struct LandERC721.Properties",
        "members": [
          {
            "astId": 6753,
            "contract": "contracts/lands/LandERC721.sol:LandERC721",
            "label": "x",
            "offset": 0,
            "slot": "0",
            "type": "t_int8"
          },
          {
            "astId": 6755,
            "contract": "contracts/lands/LandERC721.sol:LandERC721",
            "label": "y",
            "offset": 1,
            "slot": "0",
            "type": "t_int8"
          },
          {
            "astId": 6757,
            "contract": "contracts/lands/LandERC721.sol:LandERC721",
            "label": "climate",
            "offset": 2,
            "slot": "0",
            "type": "t_uint8"
          },
          {
            "astId": 6759,
            "contract": "contracts/lands/LandERC721.sol:LandERC721",
            "label": "landType",
            "offset": 3,
            "slot": "0",
            "type": "t_uint8"
          },
          {
            "astId": 6761,
            "contract": "contracts/lands/LandERC721.sol:LandERC721",
            "label": "resource1",
            "offset": 4,
            "slot": "0",
            "type": "t_uint8"
          },
          {
            "astId": 6763,
            "contract": "contracts/lands/LandERC721.sol:LandERC721",
            "label": "resource2",
            "offset": 5,
            "slot": "0",
            "type": "t_uint8"
          },
          {
            "astId": 6765,
            "contract": "contracts/lands/LandERC721.sol:LandERC721",
            "label": "resource3",
            "offset": 6,
            "slot": "0",
            "type": "t_uint8"
          },
          {
            "astId": 6767,
            "contract": "contracts/lands/LandERC721.sol:LandERC721",
            "label": "resource4",
            "offset": 7,
            "slot": "0",
            "type": "t_uint8"
          },
          {
            "astId": 6769,
            "contract": "contracts/lands/LandERC721.sol:LandERC721",
            "label": "resourceLevel1",
            "offset": 8,
            "slot": "0",
            "type": "t_uint8"
          },
          {
            "astId": 6771,
            "contract": "contracts/lands/LandERC721.sol:LandERC721",
            "label": "resourceLevel2",
            "offset": 9,
            "slot": "0",
            "type": "t_uint8"
          },
          {
            "astId": 6773,
            "contract": "contracts/lands/LandERC721.sol:LandERC721",
            "label": "resourceLevel3",
            "offset": 10,
            "slot": "0",
            "type": "t_uint8"
          },
          {
            "astId": 6775,
            "contract": "contracts/lands/LandERC721.sol:LandERC721",
            "label": "resourceLevel4",
            "offset": 11,
            "slot": "0",
            "type": "t_uint8"
          }
        ],
        "numberOfBytes": "32"
      },
      "t_struct(RoleData)19_storage": {
        "encoding": "inplace",
        "label": "struct AccessControl.RoleData",
        "members": [
          {
            "astId": 16,
            "contract": "contracts/lands/LandERC721.sol:LandERC721",
            "label": "members",
            "offset": 0,
            "slot": "0",
            "type": "t_mapping(t_address,t_bool)"
          },
          {
            "astId": 18,
            "contract": "contracts/lands/LandERC721.sol:LandERC721",
            "label": "adminRole",
            "offset": 0,
            "slot": "1",
            "type": "t_bytes32"
          }
        ],
        "numberOfBytes": "64"
      },
      "t_struct(Set)5283_storage": {
        "encoding": "inplace",
        "label": "struct EnumerableSet.Set",
        "members": [
          {
            "astId": 5278,
            "contract": "contracts/lands/LandERC721.sol:LandERC721",
            "label": "_values",
            "offset": 0,
            "slot": "0",
            "type": "t_array(t_bytes32)dyn_storage"
          },
          {
            "astId": 5282,
            "contract": "contracts/lands/LandERC721.sol:LandERC721",
            "label": "_indexes",
            "offset": 0,
            "slot": "1",
            "type": "t_mapping(t_bytes32,t_uint256)"
          }
        ],
        "numberOfBytes": "64"
      },
      "t_uint256": {
        "encoding": "inplace",
        "label": "uint256",
        "numberOfBytes": "32"
      },
      "t_uint8": {
        "encoding": "inplace",
        "label": "uint8",
        "numberOfBytes": "1"
      }
    }
  }
}