{
  "address": "0xAa936561077C1c1c58946fCA781C1b7c489825D6",
  "abi": [
    {
      "inputs": [
        {
          "internalType": "address",
          "name": "_landAddress",
          "type": "address"
        },
        {
          "internalType": "address",
          "name": "_signerAddress",
          "type": "address"
        }
      ],
      "stateMutability": "nonpayable",
      "type": "constructor"
    },
    {
      "anonymous": false,
      "inputs": [
        {
          "indexed": true,
          "internalType": "address",
          "name": "previousOwner",
          "type": "address"
        },
        {
          "indexed": true,
          "internalType": "address",
          "name": "newOwner",
          "type": "address"
        }
      ],
      "name": "OwnershipTransferred",
      "type": "event"
    },
    {
      "inputs": [],
      "name": "landContractAddress",
      "outputs": [
        {
          "internalType": "address",
          "name": "",
          "type": "address"
        }
      ],
      "stateMutability": "view",
      "type": "function"
    },
    {
      "inputs": [
        {
          "components": [
            {
              "internalType": "int8",
              "name": "x",
              "type": "int8"
            },
            {
              "internalType": "int8",
              "name": "y",
              "type": "int8"
            },
            {
              "internalType": "uint8",
              "name": "climate",
              "type": "uint8"
            },
            {
              "internalType": "uint8",
              "name": "landType",
              "type": "uint8"
            },
            {
              "internalType": "uint8",
              "name": "resource1",
              "type": "uint8"
            },
            {
              "internalType": "uint8",
              "name": "resource2",
              "type": "uint8"
            },
            {
              "internalType": "uint8",
              "name": "resource3",
              "type": "uint8"
            },
            {
              "internalType": "uint8",
              "name": "resource4",
              "type": "uint8"
            },
            {
              "internalType": "uint8",
              "name": "resourceLevel1",
              "type": "uint8"
            },
            {
              "internalType": "uint8",
              "name": "resourceLevel2",
              "type": "uint8"
            },
            {
              "internalType": "uint8",
              "name": "resourceLevel3",
              "type": "uint8"
            },
            {
              "internalType": "uint8",
              "name": "resourceLevel4",
              "type": "uint8"
            }
          ],
          "internalType": "struct LandERC721.Properties",
          "name": "_properties",
          "type": "tuple"
        },
        {
          "internalType": "bytes",
          "name": "_signature",
          "type": "bytes"
        }
      ],
      "name": "mint",
      "outputs": [
        {
          "internalType": "uint256",
          "name": "",
          "type": "uint256"
        }
      ],
      "stateMutability": "nonpayable",
      "type": "function"
    },
    {
      "inputs": [],
      "name": "owner",
      "outputs": [
        {
          "internalType": "address",
          "name": "",
          "type": "address"
        }
      ],
      "stateMutability": "view",
      "type": "function"
    },
    {
      "inputs": [],
      "name": "renounceOwnership",
      "outputs": [],
      "stateMutability": "nonpayable",
      "type": "function"
    },
    {
      "inputs": [],
      "name": "signerAddress",
      "outputs": [
        {
          "internalType": "address",
          "name": "",
          "type": "address"
        }
      ],
      "stateMutability": "view",
      "type": "function"
    },
    {
      "inputs": [
        {
          "internalType": "address",
          "name": "newOwner",
          "type": "address"
        }
      ],
      "name": "transferOwnership",
      "outputs": [],
      "stateMutability": "nonpayable",
      "type": "function"
    }
  ],
  "transactionHash": "0xfbb6b871ed23a376fb648f0ed06ecd69e4cb0f77e6f9a2ad6dedfa694c148292",
  "args": [
    "0x8140aee3330143FE407aae7DE4A25F38D9b8F99a",
    "0x497971B6535A9f7a5D7ef8e5a6F47bb309A0C3Ea"
  ],
  "numDeployments": 1,
  "solcInputHash": "61ab444451bbc0ed4daafa2e82c32f64",
  "bytecode": "0x608060405234801561001057600080fd5b50604051610e80380380610e8083398101604081905261002f916100d5565b61003833610069565b600180546001600160a01b039384166001600160a01b03199182161790915560028054929093169116179055610107565b600080546001600160a01b038381166001600160a01b0319831681178455604051919092169283917f8be0079c531659141344cd1fd0a4f28419497f9722a3daafe3b4186f6b6457e09190a35050565b80516001600160a01b03811681146100d057600080fd5b919050565b600080604083850312156100e7578182fd5b6100f0836100b9565b91506100fe602084016100b9565b90509250929050565b610d6a806101166000396000f3fe608060405234801561001057600080fd5b50600436106100725760003560e01c80639017f959116100505780639017f959146100c2578063ea253a45146100d5578063f2fde38b146100f657600080fd5b80635b7633d014610077578063715018a6146100a75780638da5cb5b146100b1575b600080fd5b60025461008a906001600160a01b031681565b6040516001600160a01b0390911681526020015b60405180910390f35b6100af610109565b005b6000546001600160a01b031661008a565b60015461008a906001600160a01b031681565b6100e86100e33660046109fc565b610174565b60405190815260200161009e565b6100af6101043660046109b4565b6103be565b6000546001600160a01b031633146101685760405162461bcd60e51b815260206004820181905260248201527f4f776e61626c653a2063616c6c6572206973206e6f7420746865206f776e657260448201526064015b60405180910390fd5b61017260006104a0565b565b60008061018460208601866109e2565b61019460408701602088016109e2565b6101a46060880160408901610a9b565b6101b46080890160608a01610a9b565b6101c460a08a0160808b01610a9b565b6101d460c08b0160a08c01610a9b565b6101e460e08c0160c08d01610a9b565b6101f56101008d0160e08e01610a9b565b6102076101208e016101008f01610a9b565b8d61012001602081019061021b9190610a9b565b8e61014001602081019061022f9190610a9b565b8f6101600160208101906102439190610a9b565b60405160200161025e9c9b9a99989796959493929190610ab5565b604051602081830303815290604052905060008180519060200120905060006102c886868080601f0160208091040260200160405190810160405280939291908181526020018383808284376000920191909152506102c292508691506105089050565b9061055b565b6002549091506001600160a01b038083169116146103285760405162461bcd60e51b815260206004820152601260248201527f5369676e617475726520696e76616c69642e0000000000000000000000000000604482015260640161015f565b6001546001600160a01b03168063abc0cce061034261057f565b8a6040518363ffffffff1660e01b8152600401610360929190610bc6565b602060405180830381600087803b15801561037a57600080fd5b505af115801561038e573d6000803e3d6000fd5b505050506040513d601f19601f820116820180604052508101906103b29190610a83565b98975050505050505050565b6000546001600160a01b031633146104185760405162461bcd60e51b815260206004820181905260248201527f4f776e61626c653a2063616c6c6572206973206e6f7420746865206f776e6572604482015260640161015f565b6001600160a01b0381166104945760405162461bcd60e51b815260206004820152602660248201527f4f776e61626c653a206e6577206f776e657220697320746865207a65726f206160448201527f6464726573730000000000000000000000000000000000000000000000000000606482015260840161015f565b61049d816104a0565b50565b600080546001600160a01b038381167fffffffffffffffffffffffff0000000000000000000000000000000000000000831681178455604051919092169283917f8be0079c531659141344cd1fd0a4f28419497f9722a3daafe3b4186f6b6457e09190a35050565b6040517f19457468657265756d205369676e6564204d6573736167653a0a3332000000006020820152603c8101829052600090605c01604051602081830303815290604052805190602001209050919050565b600080600061056a85856105dc565b915091506105778161064c565b509392505050565b6000333014156105d657600080368080601f0160208091040260200160405190810160405280939291908181526020018383808284376000920191909152505050503601516001600160a01b031691506105d99050565b50335b90565b6000808251604114156106135760208301516040840151606085015160001a6106078782858561084d565b94509450505050610645565b82516040141561063d576020830151604084015161063286838361093a565b935093505050610645565b506000905060025b9250929050565b600081600481111561066e57634e487b7160e01b600052602160045260246000fd5b14156106775750565b600181600481111561069957634e487b7160e01b600052602160045260246000fd5b14156106e75760405162461bcd60e51b815260206004820152601860248201527f45434453413a20696e76616c6964207369676e61747572650000000000000000604482015260640161015f565b600281600481111561070957634e487b7160e01b600052602160045260246000fd5b14156107575760405162461bcd60e51b815260206004820152601f60248201527f45434453413a20696e76616c6964207369676e6174757265206c656e67746800604482015260640161015f565b600381600481111561077957634e487b7160e01b600052602160045260246000fd5b14156107d25760405162461bcd60e51b815260206004820152602260248201527f45434453413a20696e76616c6964207369676e6174757265202773272076616c604482015261756560f01b606482015260840161015f565b60048160048111156107f457634e487b7160e01b600052602160045260246000fd5b141561049d5760405162461bcd60e51b815260206004820152602260248201527f45434453413a20696e76616c6964207369676e6174757265202776272076616c604482015261756560f01b606482015260840161015f565b6000807f7fffffffffffffffffffffffffffffff5d576e7357a4501ddfe92f46681b20a08311156108845750600090506003610931565b8460ff16601b1415801561089c57508460ff16601c14155b156108ad5750600090506004610931565b6040805160008082526020820180845289905260ff881692820192909252606081018690526080810185905260019060a0016020604051602081039080840390855afa158015610901573d6000803e3d6000fd5b5050604051601f1901519150506001600160a01b03811661092a57600060019250925050610931565b9150600090505b94509492505050565b6000807f7fffffffffffffffffffffffffffffffffffffffffffffffffffffffffffffff83168161097060ff86901c601b610d10565b905061097e8782888561084d565b935093505050935093915050565b8035600081900b811461099e57600080fd5b919050565b803560ff8116811461099e57600080fd5b6000602082840312156109c5578081fd5b81356001600160a01b03811681146109db578182fd5b9392505050565b6000602082840312156109f3578081fd5b6109db8261098c565b60008060008385036101a0811215610a12578283fd5b61018080821215610a21578384fd5b859450840135905067ffffffffffffffff80821115610a3e578384fd5b818601915086601f830112610a51578384fd5b813581811115610a5f578485fd5b876020828501011115610a70578485fd5b6020830194508093505050509250925092565b600060208284031215610a94578081fd5b5051919050565b600060208284031215610aac578081fd5b6109db826109a3565b60008d810b60f81b82528c810b60f81b60018301526001600160f81b0319808d60f81b166002840152808c60f81b16600384015250610b03600483018b60f81b6001600160f81b0319169052565b610b1c600583018a60f81b6001600160f81b0319169052565b610b35600683018960f81b6001600160f81b0319169052565b610b4e600783018860f81b6001600160f81b0319169052565b610b67600883018760f81b6001600160f81b0319169052565b610b80600983018660f81b6001600160f81b0319169052565b610b99600a83018560f81b6001600160f81b0319169052565b610bb2600b83018460f81b6001600160f81b0319169052565b50600c019c9b505050505050505050505050565b6001600160a01b03831681526101a08101610bee60208301610be78561098c565b60000b9052565b610bfa6020840161098c565b610c09604084018260000b9052565b50610c16604084016109a3565b60ff8116606084015250610c2c606084016109a3565b60ff8116608084015250610c42608084016109a3565b60ff811660a084015250610c5860a084016109a3565b60ff811660c084015250610c6e60c084016109a3565b60ff811660e084015250610c8460e084016109a3565b610100610c958185018360ff169052565b610ca08186016109a3565b915050610120610cb48185018360ff169052565b610cbf8186016109a3565b915050610140610cd38185018360ff169052565b610cde8186016109a3565b915050610160610cf28185018360ff169052565b610cfd8186016109a3565b91505061057761018084018260ff169052565b60008219821115610d2f57634e487b7160e01b81526011600452602481fd5b50019056fea26469706673582212206fd17d3f2e219331674fc65cb3d4bccf51629177de1209b8f7acce6c4a6452fb64736f6c63430008040033",
  "devdoc": {
    "kind": "dev",
    "methods": {
      "owner()": {
        "details": "Returns the address of the current owner."
      },
      "renounceOwnership()": {
        "details": "Leaves the contract without owner. It will not be possible to call `onlyOwner` functions anymore. Can only be called by the current owner. NOTE: Renouncing ownership will leave the contract without an owner, thereby removing any functionality that is only available to the owner."
      },
      "transferOwnership(address)": {
        "details": "Transfers ownership of the contract to a new account (`newOwner`). Can only be called by the current owner."
      }
    },
    "version": 1
  },
  "userdoc": {
    "kind": "user",
    "methods": {},
    "version": 1
  },
  "storageLayout": {
    "storage": [
      {
        "astId": 539,
        "contract": "contracts/lands/LandClaimer.sol:LandClaimer",
        "label": "_owner",
        "offset": 0,
        "slot": "0",
        "type": "t_address"
      },
      {
        "astId": 6641,
        "contract": "contracts/lands/LandClaimer.sol:LandClaimer",
        "label": "landContractAddress",
        "offset": 0,
        "slot": "1",
        "type": "t_address"
      },
      {
        "astId": 6643,
        "contract": "contracts/lands/LandClaimer.sol:LandClaimer",
        "label": "signerAddress",
        "offset": 0,
        "slot": "2",
        "type": "t_address"
      }
    ],
    "types": {
      "t_address": {
        "encoding": "inplace",
        "label": "address",
        "numberOfBytes": "20"
      }
    }
  }
}