{
  "address": "0xbE66023086Ff9b7Ad318A27D4B0255b0c85D2493",
  "abi": [
    {
      "inputs": [
        {
          "internalType": "address",
          "name": "_land",
          "type": "address"
        },
        {
          "internalType": "address",
          "name": "_winzer",
          "type": "address"
        },
        {
          "internalType": "address",
          "name": "_resource",
          "type": "address"
        }
      ],
      "stateMutability": "nonpayable",
      "type": "constructor"
    },
    {
      "anonymous": false,
      "inputs": [
        {
          "indexed": true,
          "internalType": "address",
          "name": "previousOwner",
          "type": "address"
        },
        {
          "indexed": true,
          "internalType": "address",
          "name": "newOwner",
          "type": "address"
        }
      ],
      "name": "OwnershipTransferred",
      "type": "event"
    },
    {
      "anonymous": false,
      "inputs": [
        {
          "indexed": true,
          "internalType": "uint8",
          "name": "_depositId",
          "type": "uint8"
        },
        {
          "components": [
            {
              "internalType": "uint256",
              "name": "resourceID",
              "type": "uint256"
            },
            {
              "internalType": "uint256",
              "name": "requiredTime",
              "type": "uint256"
            }
          ],
          "indexed": false,
          "internalType": "struct RawResourceMinter.ResourceData",
          "name": "_data",
          "type": "tuple"
        }
      ],
      "name": "ResourceDataUpdated",
      "type": "event"
    },
    {
      "anonymous": false,
      "inputs": [
        {
          "indexed": true,
          "internalType": "bytes32",
          "name": "_zone",
          "type": "bytes32"
        },
        {
          "indexed": false,
          "internalType": "uint256",
          "name": "_resourceId",
          "type": "uint256"
        },
        {
          "indexed": false,
          "internalType": "uint256",
          "name": "_amount",
          "type": "uint256"
        }
      ],
      "name": "ResourcesClaimed",
      "type": "event"
    },
    {
      "anonymous": false,
      "inputs": [
        {
          "indexed": true,
          "internalType": "bytes32",
          "name": "_zone",
          "type": "bytes32"
        },
        {
          "components": [
            {
              "internalType": "uint256",
              "name": "winzerId",
              "type": "uint256"
            },
            {
              "internalType": "uint256",
              "name": "landId",
              "type": "uint256"
            },
            {
              "internalType": "uint8",
              "name": "landZone",
              "type": "uint8"
            },
            {
              "internalType": "uint256",
              "name": "startedAt",
              "type": "uint256"
            },
            {
              "internalType": "uint256",
              "name": "claimedAt",
              "type": "uint256"
            },
            {
              "internalType": "bool",
              "name": "enabled",
              "type": "bool"
            },
            {
              "internalType": "address",
              "name": "owner",
              "type": "address"
            }
          ],
          "indexed": false,
          "internalType": "struct RawResourceMinter.Works",
          "name": "_work",
          "type": "tuple"
        }
      ],
      "name": "WorkStarted",
      "type": "event"
    },
    {
      "anonymous": false,
      "inputs": [
        {
          "indexed": true,
          "internalType": "bytes32",
          "name": "_zone",
          "type": "bytes32"
        }
      ],
      "name": "WorkStoped",
      "type": "event"
    },
    {
      "inputs": [
        {
          "internalType": "uint256",
          "name": "_winzerId",
          "type": "uint256"
        },
        {
          "internalType": "uint256",
          "name": "_landId",
          "type": "uint256"
        },
        {
          "internalType": "uint8",
          "name": "_landZone",
          "type": "uint8"
        }
      ],
      "name": "assign",
      "outputs": [
        {
          "internalType": "bytes32",
          "name": "",
          "type": "bytes32"
        }
      ],
      "stateMutability": "nonpayable",
      "type": "function"
    },
    {
      "inputs": [
        {
          "internalType": "uint256",
          "name": "_start",
          "type": "uint256"
        },
        {
          "internalType": "uint256",
          "name": "_end",
          "type": "uint256"
        },
        {
          "internalType": "uint256",
          "name": "_time",
          "type": "uint256"
        }
      ],
      "name": "calculateAmount",
      "outputs": [
        {
          "internalType": "uint256",
          "name": "",
          "type": "uint256"
        }
      ],
      "stateMutability": "pure",
      "type": "function"
    },
    {
      "inputs": [
        {
          "internalType": "bytes32",
          "name": "_zone",
          "type": "bytes32"
        }
      ],
      "name": "claim",
      "outputs": [],
      "stateMutability": "nonpayable",
      "type": "function"
    },
    {
      "inputs": [
        {
          "internalType": "uint256",
          "name": "_landId",
          "type": "uint256"
        },
        {
          "internalType": "uint256",
          "name": "_landZone",
          "type": "uint256"
        }
      ],
      "name": "getResource",
      "outputs": [
        {
          "internalType": "uint8",
          "name": "",
          "type": "uint8"
        },
        {
          "internalType": "uint8",
          "name": "",
          "type": "uint8"
        }
      ],
      "stateMutability": "view",
      "type": "function"
    },
    {
      "inputs": [],
      "name": "landContract",
      "outputs": [
        {
          "internalType": "contract LandERC721",
          "name": "",
          "type": "address"
        }
      ],
      "stateMutability": "view",
      "type": "function"
    },
    {
      "inputs": [],
      "name": "owner",
      "outputs": [
        {
          "internalType": "address",
          "name": "",
          "type": "address"
        }
      ],
      "stateMutability": "view",
      "type": "function"
    },
    {
      "inputs": [],
      "name": "renounceOwnership",
      "outputs": [],
      "stateMutability": "nonpayable",
      "type": "function"
    },
    {
      "inputs": [],
      "name": "resourceContract",
      "outputs": [
        {
          "internalType": "contract ResourcesERC1155",
          "name": "",
          "type": "address"
        }
      ],
      "stateMutability": "view",
      "type": "function"
    },
    {
      "inputs": [
        {
          "internalType": "uint8",
          "name": "",
          "type": "uint8"
        }
      ],
      "name": "resources",
      "outputs": [
        {
          "internalType": "uint256",
          "name": "resourceID",
          "type": "uint256"
        },
        {
          "internalType": "uint256",
          "name": "requiredTime",
          "type": "uint256"
        }
      ],
      "stateMutability": "view",
      "type": "function"
    },
    {
      "inputs": [
        {
          "internalType": "bytes32",
          "name": "_zone",
          "type": "bytes32"
        }
      ],
      "name": "stop",
      "outputs": [],
      "stateMutability": "nonpayable",
      "type": "function"
    },
    {
      "inputs": [
        {
          "internalType": "address",
          "name": "newOwner",
          "type": "address"
        }
      ],
      "name": "transferOwnership",
      "outputs": [],
      "stateMutability": "nonpayable",
      "type": "function"
    },
    {
      "inputs": [
        {
          "internalType": "uint8",
          "name": "_depositId",
          "type": "uint8"
        },
        {
          "components": [
            {
              "internalType": "uint256",
              "name": "resourceID",
              "type": "uint256"
            },
            {
              "internalType": "uint256",
              "name": "requiredTime",
              "type": "uint256"
            }
          ],
          "internalType": "struct RawResourceMinter.ResourceData",
          "name": "_data",
          "type": "tuple"
        }
      ],
      "name": "updateResourceData",
      "outputs": [],
      "stateMutability": "nonpayable",
      "type": "function"
    },
    {
      "inputs": [],
      "name": "winzerContract",
      "outputs": [
        {
          "internalType": "contract WinzerERC721",
          "name": "",
          "type": "address"
        }
      ],
      "stateMutability": "view",
      "type": "function"
    },
    {
      "inputs": [
        {
          "internalType": "bytes32",
          "name": "",
          "type": "bytes32"
        }
      ],
      "name": "workspace",
      "outputs": [
        {
          "internalType": "uint256",
          "name": "winzerId",
          "type": "uint256"
        },
        {
          "internalType": "uint256",
          "name": "landId",
          "type": "uint256"
        },
        {
          "internalType": "uint8",
          "name": "landZone",
          "type": "uint8"
        },
        {
          "internalType": "uint256",
          "name": "startedAt",
          "type": "uint256"
        },
        {
          "internalType": "uint256",
          "name": "claimedAt",
          "type": "uint256"
        },
        {
          "internalType": "bool",
          "name": "enabled",
          "type": "bool"
        },
        {
          "internalType": "address",
          "name": "owner",
          "type": "address"
        }
      ],
      "stateMutability": "view",
      "type": "function"
    }
  ],
  "transactionHash": "0xdca4b5e6fa5f6d99478c905abbdea8a574ce77ed7a93cfa6becf333c34a58e7d",
  "args": [
    "0x8140aee3330143FE407aae7DE4A25F38D9b8F99a",
    "0x548c6476bBFeE5B99E4E26A371B4775d3184A69C",
    "0x7f8F1E90b53384cb0e0ae5233B39210e14539b92"
  ],
  "numDeployments": 1,
  "solcInputHash": "d54e10b5181e9626db200c4a699086c1",
  "bytecode": "0x60806040523480156200001157600080fd5b50604051620012ff380380620012ff8339810160408190526200003491620000ef565b6200003f3362000082565b600380546001600160a01b039485166001600160a01b03199182161790915560048054938516938216939093179092556005805491909316911617905562000138565b600080546001600160a01b038381166001600160a01b0319831681178455604051919092169283917f8be0079c531659141344cd1fd0a4f28419497f9722a3daafe3b4186f6b6457e09190a35050565b80516001600160a01b0381168114620000ea57600080fd5b919050565b60008060006060848603121562000104578283fd5b6200010f84620000d2565b92506200011f60208501620000d2565b91506200012f60408501620000d2565b90509250925092565b6111b780620001486000396000f3fe608060405234801561001057600080fd5b50600436106100ea5760003560e01c80638da5cb5b1161008c578063bd66528a11610066578063bd66528a146101e7578063cec36419146101fa578063df0e52a91461029b578063f2fde38b146102d757600080fd5b80638da5cb5b146101b057806396c3cd7e146101c1578063a3996a6d146101d457600080fd5b806348246176116100c8578063482461761461016157806363c4f03114610182578063715018a6146101955780637754723e1461019d57600080fd5b806303d07340146100ef578063295bcf841461011f5780634267bdec1461014c575b600080fd5b600354610102906001600160a01b031681565b6040516001600160a01b0390911681526020015b60405180910390f35b61013261012d36600461103b565b6102ea565b6040805160ff938416815292909116602083015201610116565b61015f61015a3660046110db565b610423565b005b61017461016f366004611087565b6104e3565b604051908152602001610116565b61015f610190366004610f37565b6109ee565b61015f610ae2565b6101746101ab36600461105c565b610b48565b6000546001600160a01b0316610102565b600554610102906001600160a01b031681565b600454610102906001600160a01b031681565b61015f6101f5366004610f37565b610b6a565b610255610208366004610f37565b6001602081905260009182526040909120805491810154600282015460038301546004840154600590940154929360ff92831693919290919081169061010090046001600160a01b031687565b60408051978852602088019690965260ff909416948601949094526060850191909152608084015290151560a08301526001600160a01b031660c082015260e001610116565b6102c26102a93660046110bf565b6002602052600090815260409020805460019091015482565b60408051928352602083019190915201610116565b61015f6102e5366004610ef8565b610d8c565b600080600080600080600080600080600360009054906101000a90046001600160a01b03166001600160a01b031663f7b108088d6040518263ffffffff1660e01b815260040161033c91815260200190565b6101806040518083038186803b15801561035557600080fd5b505afa158015610369573d6000803e3d6000fd5b505050506040513d601f19601f8201168201806040525081019061038d9190610f4f565b9b509b509b509b509b509b509b509b50505050508a600014156103bc575095975090955061041c945050505050565b8a600114156103d65750959750955061041c945050505050565b8a600214156103f1575093975092955061041c945050505050565b8a6003141561040c5793985092965061041c95505050505050565b6000809950995050505050505050505b9250929050565b6000546001600160a01b031633146104825760405162461bcd60e51b815260206004820181905260248201527f4f776e61626c653a2063616c6c6572206973206e6f7420746865206f776e657260448201526064015b60405180910390fd5b60ff8216600081815260026020908152604091829020843580825585830135600190920182905583519081529182015281517ffc61f87076daf4eaf2c807d57a2789bb4cf8fe7abf5f7ef392d04a674d9baa86929181900390910190a25050565b600080838360405160200161050592919091825260ff16602082015260400190565b60405160208183030381529060405280519060200120905060008061052d868660ff166102ea565b915091508160ff16600014156105855760405162461bcd60e51b815260206004820152601560248201527f6c616e6420686173206e6f207265736f757263652e00000000000000000000006044820152606401610479565b600083815260016020526040902060030154156105e45760405162461bcd60e51b815260206004820152601060248201527f416c726561647920776f726b696e672e000000000000000000000000000000006044820152606401610479565b33600480546040516331a9108f60e11b81529182018a90526001600160a01b03928316921690636352211e9060240160206040518083038186803b15801561062b57600080fd5b505afa15801561063f573d6000803e3d6000fd5b505050506040513d601f19601f820116820180604052508101906106639190610f1b565b6001600160a01b0316146106b95760405162461bcd60e51b815260206004820152601c60248201527f596f75206d757374206265206f776e6572206f662077696e7a65722e000000006044820152606401610479565b336003546040516331a9108f60e11b8152600481018990526001600160a01b039283169290911690636352211e9060240160206040518083038186803b15801561070257600080fd5b505afa158015610716573d6000803e3d6000fd5b505050506040513d601f19601f8201168201806040525081019061073a9190610f1b565b6001600160a01b0316146107905760405162461bcd60e51b815260206004820152601a60248201527f596f75206d757374206265206f776e6572206f66206c616e642e0000000000006044820152606401610479565b6004546001600160a01b03166342842e0e336040517fffffffff0000000000000000000000000000000000000000000000000000000060e084901b1681526001600160a01b039091166004820152306024820152604481018a9052606401600060405180830381600087803b15801561080857600080fd5b505af115801561081c573d6000803e3d6000fd5b5050505061086e6040518060e001604052806000815260200160008152602001600060ff168152602001600081526020016000815260200160001515815260200160006001600160a01b031681525090565b336001600160a01b0390811660c0830190815289835260208084018a815260ff808b166040808801918252426060890181815260808a0191825260008d81526001978890528390208a51815595519686019690965591516002850180549190941660ff1990911617909255925160038301559151600482015560a0850151600590910180549351909416610100027fffffffffffffffffffffff0000000000000000000000000000000000000000ff911515919091167fffffffffffffffffffffff00000000000000000000000000000000000000000090931692909217919091179091555184907f2b2f7f9c88cdde12b5726f9ea8932e67850257b31e29f0442bd49b9092901a3e906109da908490600060e082019050825182526020830151602083015260ff6040840151166040830152606083015160608301526080830151608083015260a0830151151560a08301526001600160a01b0360c08401511660c083015292915050565b60405180910390a250919695505050505050565b6109f781610b6a565b60008181526001602052604080822060038101839055600501805460ff191690555182917fac2abc78bd762196cad4c36536128ff1e71b19f00e75ded4d0678f6d5705896091a2600354600082815260016020526040908190206005810154905491517f42842e0e0000000000000000000000000000000000000000000000000000000081523060048201526101009091046001600160a01b03908116602483015260448201929092529116906342842e0e90606401600060405180830381600087803b158015610ac757600080fd5b505af1158015610adb573d6000803e3d6000fd5b5050505050565b6000546001600160a01b03163314610b3c5760405162461bcd60e51b815260206004820181905260248201527f4f776e61626c653a2063616c6c6572206973206e6f7420746865206f776e65726044820152606401610479565b610b466000610e6e565b565b600080610b55858561113a565b9050610b61838261111a565b95945050505050565b600081815260016020818152604092839020835160e081018552815481529281015491830191909152600281015460ff9081169383019390935260038101546060830181905260048201546080840152600590910154928316151560a08301526101009092046001600160a01b031660c082015290610be857600080fd5b60c08101516001600160a01b03163314610c0157600080fd5b600080610c198360200151846040015160ff166102ea565b915091508160ff1660001415610c715760405162461bcd60e51b815260206004820152601560248201527f6c616e6420686173206e6f207265736f757263652e00000000000000000000006044820152606401610479565b608083015160ff83166000908152600260205260408120600101549091610c99914290610b48565b90508015610d475742608085015260055460c085015160ff8516600090815260026020526040908190205490517f156e29f60000000000000000000000000000000000000000000000000000000081526001600160a01b03928316600482015260248101919091526044810184905291169063156e29f690606401600060405180830381600087803b158015610d2e57600080fd5b505af1158015610d42573d6000803e3d6000fd5b505050505b6040805160ff851681526020810183905286917fc0d2a3b48313db6ddab2063db990c465ee4b0140e0b1cf5c9f92aa43fe095494910160405180910390a25050505050565b6000546001600160a01b03163314610de65760405162461bcd60e51b815260206004820181905260248201527f4f776e61626c653a2063616c6c6572206973206e6f7420746865206f776e65726044820152606401610479565b6001600160a01b038116610e625760405162461bcd60e51b815260206004820152602660248201527f4f776e61626c653a206e6577206f776e657220697320746865207a65726f206160448201527f64647265737300000000000000000000000000000000000000000000000000006064820152608401610479565b610e6b81610e6e565b50565b600080546001600160a01b038381167fffffffffffffffffffffffff0000000000000000000000000000000000000000831681178455604051919092169283917f8be0079c531659141344cd1fd0a4f28419497f9722a3daafe3b4186f6b6457e09190a35050565b8051600081900b8114610ee857600080fd5b919050565b8051610ee881611172565b600060208284031215610f09578081fd5b8135610f148161115d565b9392505050565b600060208284031215610f2c578081fd5b8151610f148161115d565b600060208284031215610f48578081fd5b5035919050565b6000806000806000806000806000806000806101808d8f031215610f71578788fd5b610f7a8d610ed6565b9b50610f8860208e01610ed6565b9a5060408d0151610f9881611172565b60608e0151909a50610fa981611172565b60808e0151909950610fba81611172565b60a08e0151909850610fcb81611172565b60c08e0151909750610fdc81611172565b60e08e0151909650610fed81611172565b9450610ffc6101008e01610eed565b935061100b6101208e01610eed565b925061101a6101408e01610eed565b91506110296101608e01610eed565b90509295989b509295989b509295989b565b6000806040838503121561104d578182fd5b50508035926020909101359150565b600080600060608486031215611070578283fd5b505081359360208301359350604090920135919050565b60008060006060848603121561109b578283fd5b833592506020840135915060408401356110b481611172565b809150509250925092565b6000602082840312156110d0578081fd5b8135610f1481611172565b60008082840360608112156110ee578283fd5b83356110f981611172565b92506040601f198201121561110c578182fd5b506020830190509250929050565b60008261113557634e487b7160e01b81526012600452602481fd5b500490565b60008282101561115857634e487b7160e01b81526011600452602481fd5b500390565b6001600160a01b0381168114610e6b57600080fd5b60ff81168114610e6b57600080fdfea26469706673582212203942ccf617f69bdcb431e204f6e5fd1c702a1e2b3745b8171aca050df51200a064736f6c63430008040033",
  "devdoc": {
    "kind": "dev",
    "methods": {
      "owner()": {
        "details": "Returns the address of the current owner."
      },
      "renounceOwnership()": {
        "details": "Leaves the contract without owner. It will not be possible to call `onlyOwner` functions anymore. Can only be called by the current owner. NOTE: Renouncing ownership will leave the contract without an owner, thereby removing any functionality that is only available to the owner."
      },
      "transferOwnership(address)": {
        "details": "Transfers ownership of the contract to a new account (`newOwner`). Can only be called by the current owner."
      }
    },
    "version": 1
  },
  "userdoc": {
    "kind": "user",
    "methods": {},
    "version": 1
  },
  "storageLayout": {
    "storage": [
      {
        "astId": 539,
        "contract": "contracts/modules/RawResourceMinter.sol:RawResourceMinter",
        "label": "_owner",
        "offset": 0,
        "slot": "0",
        "type": "t_address"
      },
      {
        "astId": 7616,
        "contract": "contracts/modules/RawResourceMinter.sol:RawResourceMinter",
        "label": "workspace",
        "offset": 0,
        "slot": "1",
        "type": "t_mapping(t_bytes32,t_struct(Works)7580_storage)"
      },
      {
        "astId": 7621,
        "contract": "contracts/modules/RawResourceMinter.sol:RawResourceMinter",
        "label": "resources",
        "offset": 0,
        "slot": "2",
        "type": "t_mapping(t_uint8,t_struct(ResourceData)7585_storage)"
      },
      {
        "astId": 7624,
        "contract": "contracts/modules/RawResourceMinter.sol:RawResourceMinter",
        "label": "landContract",
        "offset": 0,
        "slot": "3",
        "type": "t_contract(LandERC721)7155"
      },
      {
        "astId": 7627,
        "contract": "contracts/modules/RawResourceMinter.sol:RawResourceMinter",
        "label": "winzerContract",
        "offset": 0,
        "slot": "4",
        "type": "t_contract(WinzerERC721)9258"
      },
      {
        "astId": 7630,
        "contract": "contracts/modules/RawResourceMinter.sol:RawResourceMinter",
        "label": "resourceContract",
        "offset": 0,
        "slot": "5",
        "type": "t_contract(ResourcesERC1155)8731"
      }
    ],
    "types": {
      "t_address": {
        "encoding": "inplace",
        "label": "address",
        "numberOfBytes": "20"
      },
      "t_bool": {
        "encoding": "inplace",
        "label": "bool",
        "numberOfBytes": "1"
      },
      "t_bytes32": {
        "encoding": "inplace",
        "label": "bytes32",
        "numberOfBytes": "32"
      },
      "t_contract(LandERC721)7155": {
        "encoding": "inplace",
        "label": "contract LandERC721",
        "numberOfBytes": "20"
      },
      "t_contract(ResourcesERC1155)8731": {
        "encoding": "inplace",
        "label": "contract ResourcesERC1155",
        "numberOfBytes": "20"
      },
      "t_contract(WinzerERC721)9258": {
        "encoding": "inplace",
        "label": "contract WinzerERC721",
        "numberOfBytes": "20"
      },
      "t_mapping(t_bytes32,t_struct(Works)7580_storage)": {
        "encoding": "mapping",
        "key": "t_bytes32",
        "label": "mapping(bytes32 => struct RawResourceMinter.Works)",
        "numberOfBytes": "32",
        "value": "t_struct(Works)7580_storage"
      },
      "t_mapping(t_uint8,t_struct(ResourceData)7585_storage)": {
        "encoding": "mapping",
        "key": "t_uint8",
        "label": "mapping(uint8 => struct RawResourceMinter.ResourceData)",
        "numberOfBytes": "32",
        "value": "t_struct(ResourceData)7585_storage"
      },
      "t_struct(ResourceData)7585_storage": {
        "encoding": "inplace",
        "label": "struct RawResourceMinter.ResourceData",
        "members": [
          {
            "astId": 7582,
            "contract": "contracts/modules/RawResourceMinter.sol:RawResourceMinter",
            "label": "resourceID",
            "offset": 0,
            "slot": "0",
            "type": "t_uint256"
          },
          {
            "astId": 7584,
            "contract": "contracts/modules/RawResourceMinter.sol:RawResourceMinter",
            "label": "requiredTime",
            "offset": 0,
            "slot": "1",
            "type": "t_uint256"
          }
        ],
        "numberOfBytes": "64"
      },
      "t_struct(Works)7580_storage": {
        "encoding": "inplace",
        "label": "struct RawResourceMinter.Works",
        "members": [
          {
            "astId": 7567,
            "contract": "contracts/modules/RawResourceMinter.sol:RawResourceMinter",
            "label": "winzerId",
            "offset": 0,
            "slot": "0",
            "type": "t_uint256"
          },
          {
            "astId": 7569,
            "contract": "contracts/modules/RawResourceMinter.sol:RawResourceMinter",
            "label": "landId",
            "offset": 0,
            "slot": "1",
            "type": "t_uint256"
          },
          {
            "astId": 7571,
            "contract": "contracts/modules/RawResourceMinter.sol:RawResourceMinter",
            "label": "landZone",
            "offset": 0,
            "slot": "2",
            "type": "t_uint8"
          },
          {
            "astId": 7573,
            "contract": "contracts/modules/RawResourceMinter.sol:RawResourceMinter",
            "label": "startedAt",
            "offset": 0,
            "slot": "3",
            "type": "t_uint256"
          },
          {
            "astId": 7575,
            "contract": "contracts/modules/RawResourceMinter.sol:RawResourceMinter",
            "label": "claimedAt",
            "offset": 0,
            "slot": "4",
            "type": "t_uint256"
          },
          {
            "astId": 7577,
            "contract": "contracts/modules/RawResourceMinter.sol:RawResourceMinter",
            "label": "enabled",
            "offset": 0,
            "slot": "5",
            "type": "t_bool"
          },
          {
            "astId": 7579,
            "contract": "contracts/modules/RawResourceMinter.sol:RawResourceMinter",
            "label": "owner",
            "offset": 1,
            "slot": "5",
            "type": "t_address"
          }
        ],
        "numberOfBytes": "192"
      },
      "t_uint256": {
        "encoding": "inplace",
        "label": "uint256",
        "numberOfBytes": "32"
      },
      "t_uint8": {
        "encoding": "inplace",
        "label": "uint8",
        "numberOfBytes": "1"
      }
    }
  }
}