{
  "address": "0xb77CEB0a33180eF96E212e8a7Db8260eE977EADA",
  "abi": [
    {
      "inputs": [
        {
          "internalType": "string",
          "name": "_uri",
          "type": "string"
        },
        {
          "internalType": "string",
          "name": "_initContractURI",
          "type": "string"
        }
      ],
      "stateMutability": "nonpayable",
      "type": "constructor"
    },
    {
      "anonymous": false,
      "inputs": [
        {
          "indexed": true,
          "internalType": "address",
          "name": "account",
          "type": "address"
        },
        {
          "indexed": true,
          "internalType": "address",
          "name": "operator",
          "type": "address"
        },
        {
          "indexed": false,
          "internalType": "bool",
          "name": "approved",
          "type": "bool"
        }
      ],
      "name": "ApprovalForAll",
      "type": "event"
    },
    {
      "anonymous": false,
      "inputs": [
        {
          "indexed": false,
          "internalType": "uint256",
          "name": "_id",
          "type": "uint256"
        },
        {
          "components": [
            {
              "internalType": "uint8",
              "name": "attr1",
              "type": "uint8"
            },
            {
              "internalType": "int8",
              "name": "value1",
              "type": "int8"
            },
            {
              "internalType": "uint8",
              "name": "attr2",
              "type": "uint8"
            },
            {
              "internalType": "int8",
              "name": "value2",
              "type": "int8"
            },
            {
              "internalType": "uint8",
              "name": "attr3",
              "type": "uint8"
            },
            {
              "internalType": "int8",
              "name": "value3",
              "type": "int8"
            },
            {
              "internalType": "uint8",
              "name": "attr4",
              "type": "uint8"
            },
            {
              "internalType": "int8",
              "name": "value4",
              "type": "int8"
            },
            {
              "internalType": "uint8",
              "name": "attr5",
              "type": "uint8"
            },
            {
              "internalType": "int8",
              "name": "value5",
              "type": "int8"
            },
            {
              "internalType": "uint8",
              "name": "attr6",
              "type": "uint8"
            },
            {
              "internalType": "int8",
              "name": "value6",
              "type": "int8"
            }
          ],
          "indexed": false,
          "internalType": "struct ResourcesERC1155.Attributes",
          "name": "_attributes",
          "type": "tuple"
        }
      ],
      "name": "AttributesUpdated",
      "type": "event"
    },
    {
      "anonymous": false,
      "inputs": [
        {
          "indexed": true,
          "internalType": "address",
          "name": "_newAddress",
          "type": "address"
        }
      ],
      "name": "ProxyRegistryAddressChanged",
      "type": "event"
    },
    {
      "anonymous": false,
      "inputs": [
        {
          "indexed": false,
          "internalType": "uint256",
          "name": "_id",
          "type": "uint256"
        },
        {
          "components": [
            {
              "internalType": "string",
              "name": "name",
              "type": "string"
            },
            {
              "internalType": "uint8",
              "name": "typeId",
              "type": "uint8"
            },
            {
              "internalType": "uint8",
              "name": "subtypeId",
              "type": "uint8"
            }
          ],
          "indexed": false,
          "internalType": "struct ResourcesERC1155.Metadata",
          "name": "_metadata",
          "type": "tuple"
        }
      ],
      "name": "ResourceRegistered",
      "type": "event"
    },
    {
      "anonymous": false,
      "inputs": [
        {
          "indexed": true,
          "internalType": "bytes32",
          "name": "role",
          "type": "bytes32"
        },
        {
          "indexed": true,
          "internalType": "bytes32",
          "name": "previousAdminRole",
          "type": "bytes32"
        },
        {
          "indexed": true,
          "internalType": "bytes32",
          "name": "newAdminRole",
          "type": "bytes32"
        }
      ],
      "name": "RoleAdminChanged",
      "type": "event"
    },
    {
      "anonymous": false,
      "inputs": [
        {
          "indexed": true,
          "internalType": "bytes32",
          "name": "role",
          "type": "bytes32"
        },
        {
          "indexed": true,
          "internalType": "address",
          "name": "account",
          "type": "address"
        },
        {
          "indexed": true,
          "internalType": "address",
          "name": "sender",
          "type": "address"
        }
      ],
      "name": "RoleGranted",
      "type": "event"
    },
    {
      "anonymous": false,
      "inputs": [
        {
          "indexed": true,
          "internalType": "bytes32",
          "name": "role",
          "type": "bytes32"
        },
        {
          "indexed": true,
          "internalType": "address",
          "name": "account",
          "type": "address"
        },
        {
          "indexed": true,
          "internalType": "address",
          "name": "sender",
          "type": "address"
        }
      ],
      "name": "RoleRevoked",
      "type": "event"
    },
    {
      "anonymous": false,
      "inputs": [
        {
          "indexed": true,
          "internalType": "address",
          "name": "operator",
          "type": "address"
        },
        {
          "indexed": true,
          "internalType": "address",
          "name": "from",
          "type": "address"
        },
        {
          "indexed": true,
          "internalType": "address",
          "name": "to",
          "type": "address"
        },
        {
          "indexed": false,
          "internalType": "uint256[]",
          "name": "ids",
          "type": "uint256[]"
        },
        {
          "indexed": false,
          "internalType": "uint256[]",
          "name": "values",
          "type": "uint256[]"
        }
      ],
      "name": "TransferBatch",
      "type": "event"
    },
    {
      "anonymous": false,
      "inputs": [
        {
          "indexed": true,
          "internalType": "address",
          "name": "operator",
          "type": "address"
        },
        {
          "indexed": true,
          "internalType": "address",
          "name": "from",
          "type": "address"
        },
        {
          "indexed": true,
          "internalType": "address",
          "name": "to",
          "type": "address"
        },
        {
          "indexed": false,
          "internalType": "uint256",
          "name": "id",
          "type": "uint256"
        },
        {
          "indexed": false,
          "internalType": "uint256",
          "name": "value",
          "type": "uint256"
        }
      ],
      "name": "TransferSingle",
      "type": "event"
    },
    {
      "anonymous": false,
      "inputs": [
        {
          "indexed": false,
          "internalType": "string",
          "name": "value",
          "type": "string"
        },
        {
          "indexed": true,
          "internalType": "uint256",
          "name": "id",
          "type": "uint256"
        }
      ],
      "name": "URI",
      "type": "event"
    },
    {
      "inputs": [],
      "name": "BURNER_ROLE",
      "outputs": [
        {
          "internalType": "bytes32",
          "name": "",
          "type": "bytes32"
        }
      ],
      "stateMutability": "view",
      "type": "function"
    },
    {
      "inputs": [],
      "name": "CREATOR_ROLE",
      "outputs": [
        {
          "internalType": "bytes32",
          "name": "",
          "type": "bytes32"
        }
      ],
      "stateMutability": "view",
      "type": "function"
    },
    {
      "inputs": [],
      "name": "DEFAULT_ADMIN_ROLE",
      "outputs": [
        {
          "internalType": "bytes32",
          "name": "",
          "type": "bytes32"
        }
      ],
      "stateMutability": "view",
      "type": "function"
    },
    {
      "inputs": [],
      "name": "MINTER_ROLE",
      "outputs": [
        {
          "internalType": "bytes32",
          "name": "",
          "type": "bytes32"
        }
      ],
      "stateMutability": "view",
      "type": "function"
    },
    {
      "inputs": [
        {
          "internalType": "uint256",
          "name": "",
          "type": "uint256"
        }
      ],
      "name": "attributes",
      "outputs": [
        {
          "internalType": "uint8",
          "name": "attr1",
          "type": "uint8"
        },
        {
          "internalType": "int8",
          "name": "value1",
          "type": "int8"
        },
        {
          "internalType": "uint8",
          "name": "attr2",
          "type": "uint8"
        },
        {
          "internalType": "int8",
          "name": "value2",
          "type": "int8"
        },
        {
          "internalType": "uint8",
          "name": "attr3",
          "type": "uint8"
        },
        {
          "internalType": "int8",
          "name": "value3",
          "type": "int8"
        },
        {
          "internalType": "uint8",
          "name": "attr4",
          "type": "uint8"
        },
        {
          "internalType": "int8",
          "name": "value4",
          "type": "int8"
        },
        {
          "internalType": "uint8",
          "name": "attr5",
          "type": "uint8"
        },
        {
          "internalType": "int8",
          "name": "value5",
          "type": "int8"
        },
        {
          "internalType": "uint8",
          "name": "attr6",
          "type": "uint8"
        },
        {
          "internalType": "int8",
          "name": "value6",
          "type": "int8"
        }
      ],
      "stateMutability": "view",
      "type": "function"
    },
    {
      "inputs": [
        {
          "internalType": "address",
          "name": "account",
          "type": "address"
        },
        {
          "internalType": "uint256",
          "name": "id",
          "type": "uint256"
        }
      ],
      "name": "balanceOf",
      "outputs": [
        {
          "internalType": "uint256",
          "name": "",
          "type": "uint256"
        }
      ],
      "stateMutability": "view",
      "type": "function"
    },
    {
      "inputs": [
        {
          "internalType": "address[]",
          "name": "accounts",
          "type": "address[]"
        },
        {
          "internalType": "uint256[]",
          "name": "ids",
          "type": "uint256[]"
        }
      ],
      "name": "balanceOfBatch",
      "outputs": [
        {
          "internalType": "uint256[]",
          "name": "",
          "type": "uint256[]"
        }
      ],
      "stateMutability": "view",
      "type": "function"
    },
    {
      "inputs": [
        {
          "internalType": "address",
          "name": "account",
          "type": "address"
        },
        {
          "internalType": "uint256",
          "name": "id",
          "type": "uint256"
        },
        {
          "internalType": "uint256",
          "name": "value",
          "type": "uint256"
        }
      ],
      "name": "burn",
      "outputs": [],
      "stateMutability": "nonpayable",
      "type": "function"
    },
    {
      "inputs": [],
      "name": "contractURI",
      "outputs": [
        {
          "internalType": "string",
          "name": "",
          "type": "string"
        }
      ],
      "stateMutability": "view",
      "type": "function"
    },
    {
      "inputs": [
        {
          "internalType": "uint256",
          "name": "id",
          "type": "uint256"
        }
      ],
      "name": "exists",
      "outputs": [
        {
          "internalType": "bool",
          "name": "",
          "type": "bool"
        }
      ],
      "stateMutability": "view",
      "type": "function"
    },
    {
      "inputs": [
        {
          "internalType": "bytes32",
          "name": "role",
          "type": "bytes32"
        }
      ],
      "name": "getRoleAdmin",
      "outputs": [
        {
          "internalType": "bytes32",
          "name": "",
          "type": "bytes32"
        }
      ],
      "stateMutability": "view",
      "type": "function"
    },
    {
      "inputs": [
        {
          "internalType": "bytes32",
          "name": "role",
          "type": "bytes32"
        },
        {
          "internalType": "uint256",
          "name": "index",
          "type": "uint256"
        }
      ],
      "name": "getRoleMember",
      "outputs": [
        {
          "internalType": "address",
          "name": "",
          "type": "address"
        }
      ],
      "stateMutability": "view",
      "type": "function"
    },
    {
      "inputs": [
        {
          "internalType": "bytes32",
          "name": "role",
          "type": "bytes32"
        }
      ],
      "name": "getRoleMemberCount",
      "outputs": [
        {
          "internalType": "uint256",
          "name": "",
          "type": "uint256"
        }
      ],
      "stateMutability": "view",
      "type": "function"
    },
    {
      "inputs": [
        {
          "internalType": "bytes32",
          "name": "role",
          "type": "bytes32"
        },
        {
          "internalType": "address",
          "name": "account",
          "type": "address"
        }
      ],
      "name": "grantRole",
      "outputs": [],
      "stateMutability": "nonpayable",
      "type": "function"
    },
    {
      "inputs": [
        {
          "internalType": "bytes32",
          "name": "role",
          "type": "bytes32"
        },
        {
          "internalType": "address",
          "name": "account",
          "type": "address"
        }
      ],
      "name": "hasRole",
      "outputs": [
        {
          "internalType": "bool",
          "name": "",
          "type": "bool"
        }
      ],
      "stateMutability": "view",
      "type": "function"
    },
    {
      "inputs": [
        {
          "internalType": "address",
          "name": "_owner",
          "type": "address"
        },
        {
          "internalType": "address",
          "name": "_operator",
          "type": "address"
        }
      ],
      "name": "isApprovedForAll",
      "outputs": [
        {
          "internalType": "bool",
          "name": "",
          "type": "bool"
        }
      ],
      "stateMutability": "view",
      "type": "function"
    },
    {
      "inputs": [
        {
          "internalType": "uint256",
          "name": "",
          "type": "uint256"
        }
      ],
      "name": "metadata",
      "outputs": [
        {
          "internalType": "string",
          "name": "name",
          "type": "string"
        },
        {
          "internalType": "uint8",
          "name": "typeId",
          "type": "uint8"
        },
        {
          "internalType": "uint8",
          "name": "subtypeId",
          "type": "uint8"
        }
      ],
      "stateMutability": "view",
      "type": "function"
    },
    {
      "inputs": [
        {
          "internalType": "address",
          "name": "to",
          "type": "address"
        },
        {
          "internalType": "uint256",
          "name": "id",
          "type": "uint256"
        },
        {
          "internalType": "uint256",
          "name": "amount",
          "type": "uint256"
        }
      ],
      "name": "mint",
      "outputs": [],
      "stateMutability": "nonpayable",
      "type": "function"
    },
    {
      "inputs": [],
      "name": "owner",
      "outputs": [
        {
          "internalType": "address",
          "name": "",
          "type": "address"
        }
      ],
      "stateMutability": "view",
      "type": "function"
    },
    {
      "inputs": [],
      "name": "proxyRegistryAddress",
      "outputs": [
        {
          "internalType": "address",
          "name": "",
          "type": "address"
        }
      ],
      "stateMutability": "view",
      "type": "function"
    },
    {
      "inputs": [
        {
          "internalType": "uint256",
          "name": "_id",
          "type": "uint256"
        },
        {
          "components": [
            {
              "internalType": "string",
              "name": "name",
              "type": "string"
            },
            {
              "internalType": "uint8",
              "name": "typeId",
              "type": "uint8"
            },
            {
              "internalType": "uint8",
              "name": "subtypeId",
              "type": "uint8"
            }
          ],
          "internalType": "struct ResourcesERC1155.Metadata",
          "name": "_metadata",
          "type": "tuple"
        }
      ],
      "name": "registerItem",
      "outputs": [
        {
          "internalType": "uint256",
          "name": "",
          "type": "uint256"
        }
      ],
      "stateMutability": "nonpayable",
      "type": "function"
    },
    {
      "inputs": [
        {
          "internalType": "uint256",
          "name": "_id",
          "type": "uint256"
        }
      ],
      "name": "registered",
      "outputs": [
        {
          "internalType": "bool",
          "name": "",
          "type": "bool"
        }
      ],
      "stateMutability": "view",
      "type": "function"
    },
    {
      "inputs": [
        {
          "internalType": "bytes32",
          "name": "role",
          "type": "bytes32"
        },
        {
          "internalType": "address",
          "name": "account",
          "type": "address"
        }
      ],
      "name": "renounceRole",
      "outputs": [],
      "stateMutability": "nonpayable",
      "type": "function"
    },
    {
      "inputs": [
        {
          "internalType": "bytes32",
          "name": "role",
          "type": "bytes32"
        },
        {
          "internalType": "address",
          "name": "account",
          "type": "address"
        }
      ],
      "name": "revokeRole",
      "outputs": [],
      "stateMutability": "nonpayable",
      "type": "function"
    },
    {
      "inputs": [
        {
          "internalType": "address",
          "name": "from",
          "type": "address"
        },
        {
          "internalType": "address",
          "name": "to",
          "type": "address"
        },
        {
          "internalType": "uint256[]",
          "name": "ids",
          "type": "uint256[]"
        },
        {
          "internalType": "uint256[]",
          "name": "amounts",
          "type": "uint256[]"
        },
        {
          "internalType": "bytes",
          "name": "data",
          "type": "bytes"
        }
      ],
      "name": "safeBatchTransferFrom",
      "outputs": [],
      "stateMutability": "nonpayable",
      "type": "function"
    },
    {
      "inputs": [
        {
          "internalType": "address",
          "name": "from",
          "type": "address"
        },
        {
          "internalType": "address",
          "name": "to",
          "type": "address"
        },
        {
          "internalType": "uint256",
          "name": "id",
          "type": "uint256"
        },
        {
          "internalType": "uint256",
          "name": "amount",
          "type": "uint256"
        },
        {
          "internalType": "bytes",
          "name": "data",
          "type": "bytes"
        }
      ],
      "name": "safeTransferFrom",
      "outputs": [],
      "stateMutability": "nonpayable",
      "type": "function"
    },
    {
      "inputs": [
        {
          "internalType": "address",
          "name": "operator",
          "type": "address"
        },
        {
          "internalType": "bool",
          "name": "approved",
          "type": "bool"
        }
      ],
      "name": "setApprovalForAll",
      "outputs": [],
      "stateMutability": "nonpayable",
      "type": "function"
    },
    {
      "inputs": [
        {
          "internalType": "string",
          "name": "uri",
          "type": "string"
        }
      ],
      "name": "setContractURI",
      "outputs": [],
      "stateMutability": "nonpayable",
      "type": "function"
    },
    {
      "inputs": [
        {
          "internalType": "address",
          "name": "_proxyRegistryAddress",
          "type": "address"
        }
      ],
      "name": "setProxyRegistryAddress",
      "outputs": [],
      "stateMutability": "nonpayable",
      "type": "function"
    },
    {
      "inputs": [
        {
          "internalType": "bytes4",
          "name": "interfaceId",
          "type": "bytes4"
        }
      ],
      "name": "supportsInterface",
      "outputs": [
        {
          "internalType": "bool",
          "name": "",
          "type": "bool"
        }
      ],
      "stateMutability": "view",
      "type": "function"
    },
    {
      "inputs": [
        {
          "internalType": "uint256",
          "name": "id",
          "type": "uint256"
        }
      ],
      "name": "totalSupply",
      "outputs": [
        {
          "internalType": "uint256",
          "name": "",
          "type": "uint256"
        }
      ],
      "stateMutability": "view",
      "type": "function"
    },
    {
      "inputs": [
        {
          "internalType": "uint256",
          "name": "_id",
          "type": "uint256"
        },
        {
          "components": [
            {
              "internalType": "uint8",
              "name": "attr1",
              "type": "uint8"
            },
            {
              "internalType": "int8",
              "name": "value1",
              "type": "int8"
            },
            {
              "internalType": "uint8",
              "name": "attr2",
              "type": "uint8"
            },
            {
              "internalType": "int8",
              "name": "value2",
              "type": "int8"
            },
            {
              "internalType": "uint8",
              "name": "attr3",
              "type": "uint8"
            },
            {
              "internalType": "int8",
              "name": "value3",
              "type": "int8"
            },
            {
              "internalType": "uint8",
              "name": "attr4",
              "type": "uint8"
            },
            {
              "internalType": "int8",
              "name": "value4",
              "type": "int8"
            },
            {
              "internalType": "uint8",
              "name": "attr5",
              "type": "uint8"
            },
            {
              "internalType": "int8",
              "name": "value5",
              "type": "int8"
            },
            {
              "internalType": "uint8",
              "name": "attr6",
              "type": "uint8"
            },
            {
              "internalType": "int8",
              "name": "value6",
              "type": "int8"
            }
          ],
          "internalType": "struct ResourcesERC1155.Attributes",
          "name": "_attributes",
          "type": "tuple"
        }
      ],
      "name": "updateAttributes",
      "outputs": [],
      "stateMutability": "nonpayable",
      "type": "function"
    },
    {
      "inputs": [
        {
          "internalType": "uint256",
          "name": "",
          "type": "uint256"
        }
      ],
      "name": "uri",
      "outputs": [
        {
          "internalType": "string",
          "name": "",
          "type": "string"
        }
      ],
      "stateMutability": "view",
      "type": "function"
    }
  ],
  "transactionHash": "0xa2ef8cb2fb2c6179dcaa4ced60311fdfde6dce7436a6b951cdc0f53f89327f45",
  "args": [
    "https://www.winzeland.com/meta/resources/{id}",
    "https://www.winzeland.com/meta/contract/resources"
  ],
  "numDeployments": 3,
  "solcInputHash": "56a6f604d073d859a805f63ac04f7ec1",
  "bytecode": "0x60806040523480156200001157600080fd5b5060405162003acb38038062003acb8339810160408190526200003491620003c0565b8180620000418162000077565b506200005860006200005262000090565b620000a1565b5080516200006e90600a90602084019062000267565b5050506200047a565b80516200008c90600290602084019062000267565b5050565b60006200009c620000ad565b905090565b6200008c82826200010c565b6000333014156200010657600080368080601f0160208091040260200160405190810160405280939291908181526020018383808284376000920191909152505050503601516001600160a01b03169150620001099050565b50335b90565b6200012382826200014f60201b6200117d1760201c565b60008281526005602090815260409091206200014a91839062001220620001f5821b17901c565b505050565b60008281526004602090815260408083206001600160a01b038516845290915290205460ff166200008c5760008281526004602090815260408083206001600160a01b03851684529091529020805460ff19166001179055620001b162000090565b6001600160a01b0316816001600160a01b0316837f2f8788117e7eff1d82e926ec794901d17c78024a50270940304540a733656f0d60405160405180910390a45050565b60006200020c836001600160a01b03841662000215565b90505b92915050565b60008181526001830160205260408120546200025e575081546001818101845560008481526020808220909301849055845484825282860190935260409020919091556200020f565b5060006200020f565b828054620002759062000427565b90600052602060002090601f016020900481019282620002995760008555620002e4565b82601f10620002b457805160ff1916838001178555620002e4565b82800160010185558215620002e4579182015b82811115620002e4578251825591602001919060010190620002c7565b50620002f2929150620002f6565b5090565b5b80821115620002f25760008155600101620002f7565b600082601f8301126200031e578081fd5b81516001600160401b03808211156200033b576200033b62000464565b604051601f8301601f19908116603f0116810190828211818310171562000366576200036662000464565b8160405283815260209250868385880101111562000382578485fd5b8491505b83821015620003a5578582018301518183018401529082019062000386565b83821115620003b657848385830101525b9695505050505050565b60008060408385031215620003d3578182fd5b82516001600160401b0380821115620003ea578384fd5b620003f8868387016200030d565b935060208501519150808211156200040e578283fd5b506200041d858286016200030d565b9150509250929050565b600181811c908216806200043c57607f821691505b602082108114156200045e57634e487b7160e01b600052602260045260246000fd5b50919050565b634e487b7160e01b600052604160045260246000fd5b613641806200048a6000396000f3fe608060405234801561001057600080fd5b506004361061020a5760003560e01c806391d148541161012a578063d26ea6c0116100bd578063e6cf13461161008c578063e985e9c511610071578063e985e9c5146105e6578063f242432a146105f9578063f5298aca1461060c57600080fd5b8063e6cf1346146105bb578063e8a3d485146105de57600080fd5b8063d26ea6c01461054c578063d53913931461055f578063d547741f14610586578063e3684e391461059957600080fd5b8063bd85b039116100f9578063bd85b03914610439578063ca15c87314610459578063cd7c03261461046c578063d05dcc6a1461047f57600080fd5b806391d14854146103d2578063938e3d7b1461040b578063a217fddf1461041e578063a22cb4651461042657600080fd5b806336568abe116101a2578063895e82d211610171578063895e82d2146103655780638aeda25a146103785780638da5cb5b1461039f5780639010d07c146103bf57600080fd5b806336568abe146102fd5780634e1273f4146103105780634f558e79146103305780637503a63f1461035257600080fd5b8063248a9ca3116101de578063248a9ca31461028d578063282c51f3146102b05780632eb2c2d6146102d75780632f2ff15d146102ea57600080fd5b8062fdd58e1461020f57806301ffc9a7146102355780630e89341c14610258578063156e29f614610278575b600080fd5b61022261021d3660046128cd565b61061f565b6040519081526020015b60405180910390f35b610248610243366004612a6a565b6106cb565b604051901515815260200161022c565b61026b610266366004612a0f565b610724565b60405161022c9190612d29565b61028b6102863660046128f6565b6107b8565b005b61022261029b366004612a0f565b60009081526004602052604090206001015490565b6102227f3c11d16cbaffd01df69ce1c404f6340ee057498f5f00246190ea54220576a84881565b61028b6102e536600461278e565b610869565b61028b6102f8366004612a27565b61091d565b61028b61030b366004612a27565b61094a565b61032361031e366004612928565b6109e6565b60405161022c9190612ce8565b61024861033e366004612a0f565b600090815260036020526040902054151590565b61028b610360366004612ae8565b610b5c565b610222610373366004612b20565b610c42565b6102227f828634d95e775031b9ff576b159a8509d3053581a8c9c4d7d86899e0afcd882f81565b6103a7610d69565b6040516001600160a01b03909116815260200161022c565b6103a76103cd366004612a49565b610d7a565b6102486103e0366004612a27565b60009182526004602090815260408084206001600160a01b0393909316845291905290205460ff1690565b61028b610419366004612aa2565b610d99565b610222600081565b61028b610434366004612897565b610dba565b610222610447366004612a0f565b60009081526003602052604090205490565b610222610467366004612a0f565b610dcc565b6006546103a7906001600160a01b031681565b61053461048d366004612a0f565b60086020526000908152604081205460ff808216926101008304810b9262010000810483169263010000008204830b926401000000008304821692650100000000008104820b92660100000000000082048116926701000000000000008304810b9268010000000000000000810483169269010000000000000000008204830b926a01000000000000000000008304909116916b0100000000000000000000009004900b8c565b60405161022c9c9b9a99989796959493929190612f5e565b61028b61055a366004612742565b610de3565b6102227f9f2df0fed2c77648de5860a4cc508cd0818c85b8b8a1ab4ceeef8d981c8956a681565b61028b610594366004612a27565b610e54565b6105ac6105a7366004612a0f565b610e7c565b60405161022c93929190612d3c565b6102486105c9366004612a0f565b60009081526009602052604090205460ff1690565b61026b610f2c565b6102486105f436600461275c565b610fbe565b61028b610607366004612834565b611098565b61028b61061a3660046128f6565b611145565b60006001600160a01b0383166106a25760405162461bcd60e51b815260206004820152602b60248201527f455243313135353a2062616c616e636520717565727920666f7220746865207a60448201527f65726f206164647265737300000000000000000000000000000000000000000060648201526084015b60405180910390fd5b506000818152602081815260408083206001600160a01b03861684529091529020545b92915050565b60006001600160e01b031982167ff2d03e4000000000000000000000000000000000000000000000000000000000148061071557506001600160e01b03198216635a05180f60e01b145b806106c557506106c582611235565b606060028054610733906130b1565b80601f016020809104026020016040519081016040528092919081815260200182805461075f906130b1565b80156107ac5780601f10610781576101008083540402835291602001916107ac565b820191906000526020600020905b81548152906001019060200180831161078f57829003601f168201915b50505050509050919050565b7f9f2df0fed2c77648de5860a4cc508cd0818c85b8b8a1ab4ceeef8d981c8956a66107ea816107e561125a565b611264565b60008381526009602052604090205460ff166108485760405162461bcd60e51b815260206004820152601b60248201527f7265736f75726365206973206e6f7420726567697374657265642e00000000006044820152606401610699565b610863848484604051806020016040528060008152506112e4565b50505050565b61087161125a565b6001600160a01b0316856001600160a01b031614806108975750610897856105f461125a565b6109095760405162461bcd60e51b815260206004820152603260248201527f455243313135353a207472616e736665722063616c6c6572206973206e6f742060448201527f6f776e6572206e6f7220617070726f76656400000000000000000000000000006064820152608401610699565b610916858585858561141b565b5050505050565b60008281526004602052604090206001015461093b816107e561125a565b61094583836116c3565b505050565b61095261125a565b6001600160a01b0316816001600160a01b0316146109d85760405162461bcd60e51b815260206004820152602f60248201527f416363657373436f6e74726f6c3a2063616e206f6e6c792072656e6f756e636560448201527f20726f6c657320666f722073656c6600000000000000000000000000000000006064820152608401610699565b6109e282826116e5565b5050565b60608151835114610a5f5760405162461bcd60e51b815260206004820152602960248201527f455243313135353a206163636f756e747320616e6420696473206c656e67746860448201527f206d69736d6174636800000000000000000000000000000000000000000000006064820152608401610699565b6000835167ffffffffffffffff811115610a8957634e487b7160e01b600052604160045260246000fd5b604051908082528060200260200182016040528015610ab2578160200160208202803683370190505b50905060005b8451811015610b5457610b19858281518110610ae457634e487b7160e01b600052603260045260246000fd5b6020026020010151858381518110610b0c57634e487b7160e01b600052603260045260246000fd5b602002602001015161061f565b828281518110610b3957634e487b7160e01b600052603260045260246000fd5b6020908102919091010152610b4d81613119565b9050610ab8565b509392505050565b7f828634d95e775031b9ff576b159a8509d3053581a8c9c4d7d86899e0afcd882f610b89816107e561125a565b60008381526009602052604090205460ff16610be75760405162461bcd60e51b815260206004820152601b60248201527f7265736f75726365206973206e6f7420726567697374657265642e00000000006044820152606401610699565b60008381526008602052604090208290610c01828261321b565b9050507f5e948860b0b0cce98b528ed8c4041f43dd3afb46a40e530aa723546d3de4b2118383604051610c35929190612d69565b60405180910390a1505050565b60007f828634d95e775031b9ff576b159a8509d3053581a8c9c4d7d86899e0afcd882f610c71816107e561125a565b60008481526009602052604090205460ff1615610cd05760405162461bcd60e51b815260206004820152601c60248201527f7265736f7572636520616c726561647920726567697374657265642e000000006044820152606401610699565b60008481526007602052604090208390610cea8282613453565b50506000848152600960205260409020805460ff19166001179055610d28610d1061125a565b856000604051806020016040528060008152506112e4565b7fc4ff8a30f7c61c4f06f7aa9ad7497cd6b576d0d6a373e9d1fde5a556ca819d178484604051610d59929190612eb6565b60405180910390a1509192915050565b6000610d758180610d7a565b905090565b6000828152600560205260408120610d929083611707565b9392505050565b6000610da7816107e561125a565b815161094590600a906020850190612586565b6109e2610dc561125a565b8383611713565b60008181526005602052604081206106c590611808565b6000610df1816107e561125a565b600680547fffffffffffffffffffffffff0000000000000000000000000000000000000000166001600160a01b0384169081179091556040517fa2b0839d4585de7874ef6ce1d56318647d0ba0f8661e7ae4b76c47a7d5766b5390600090a25050565b600082815260046020526040902060010154610e72816107e561125a565b61094583836116e5565b600760205260009081526040902080548190610e97906130b1565b80601f0160208091040260200160405190810160405280929190818152602001828054610ec3906130b1565b8015610f105780601f10610ee557610100808354040283529160200191610f10565b820191906000526020600020905b815481529060010190602001808311610ef357829003601f168201915b5050506001909301549192505060ff8082169161010090041683565b6060600a8054610f3b906130b1565b80601f0160208091040260200160405190810160405280929190818152602001828054610f67906130b1565b8015610fb45780601f10610f8957610100808354040283529160200191610fb4565b820191906000526020600020905b815481529060010190602001808311610f9757829003601f168201915b5050505050905090565b6006546040517f71213a2d0000000000000000000000000000000000000000000000000000000081526001600160a01b038381166004830152600092169081906371213a2d9060240160206040518083038186803b15801561101f57600080fd5b505afa158015611033573d6000803e3d6000fd5b505050506040513d601f19601f8201168201806040525081019061105791906129f3565b156110665760019150506106c5565b6001600160a01b0380851660009081526001602090815260408083209387168352929052205460ff165b949350505050565b6110a061125a565b6001600160a01b0316856001600160a01b031614806110c657506110c6856105f461125a565b6111385760405162461bcd60e51b815260206004820152602960248201527f455243313135353a2063616c6c6572206973206e6f74206f776e6572206e6f7260448201527f20617070726f76656400000000000000000000000000000000000000000000006064820152608401610699565b6109168585858585611812565b7f3c11d16cbaffd01df69ce1c404f6340ee057498f5f00246190ea54220576a848611172816107e561125a565b6108638484846119bb565b60008281526004602090815260408083206001600160a01b038516845290915290205460ff166109e25760008281526004602090815260408083206001600160a01b03851684529091529020805460ff191660011790556111dc61125a565b6001600160a01b0316816001600160a01b0316837f2f8788117e7eff1d82e926ec794901d17c78024a50270940304540a733656f0d60405160405180910390a45050565b6000610d92836001600160a01b038416611b72565b60006001600160e01b03198216635a05180f60e01b14806106c557506106c582611bc1565b6000610d75611bff565b60008281526004602090815260408083206001600160a01b038516845290915290205460ff166109e2576112a2816001600160a01b03166014611c5c565b6112ad836020611c5c565b6040516020016112be929190612bc6565b60408051601f198184030181529082905262461bcd60e51b825261069991600401612d29565b6001600160a01b0384166113605760405162461bcd60e51b815260206004820152602160248201527f455243313135353a206d696e7420746f20746865207a65726f2061646472657360448201527f73000000000000000000000000000000000000000000000000000000000000006064820152608401610699565b600061136a61125a565b905061138b8160008761137c88611e83565b61138588611e83565b87611edc565b6000848152602081815260408083206001600160a01b0389168452909152812080548592906113bb90849061300b565b909155505060408051858152602081018590526001600160a01b0380881692600092918516917fc3d58168c5ae7397731d063d5bbf3d657854427343f4c083240f7aacaa2d0f62910160405180910390a461091681600087878787612020565b81518351146114925760405162461bcd60e51b815260206004820152602860248201527f455243313135353a2069647320616e6420616d6f756e7473206c656e6774682060448201527f6d69736d617463680000000000000000000000000000000000000000000000006064820152608401610699565b6001600160a01b0384166114f65760405162461bcd60e51b815260206004820152602560248201527f455243313135353a207472616e7366657220746f20746865207a65726f206164604482015264647265737360d81b6064820152608401610699565b600061150061125a565b9050611510818787878787611edc565b60005b845181101561165557600085828151811061153e57634e487b7160e01b600052603260045260246000fd5b60200260200101519050600085838151811061156a57634e487b7160e01b600052603260045260246000fd5b602090810291909101810151600084815280835260408082206001600160a01b038e1683529093529190912054909150818110156115fd5760405162461bcd60e51b815260206004820152602a60248201527f455243313135353a20696e73756666696369656e742062616c616e636520666f60448201526939103a3930b739b332b960b11b6064820152608401610699565b6000838152602081815260408083206001600160a01b038e8116855292528083208585039055908b1682528120805484929061163a90849061300b565b925050819055505050508061164e90613119565b9050611513565b50846001600160a01b0316866001600160a01b0316826001600160a01b03167f4a39dc06d4c0dbc64b70af90fd698a233a518aa5d07e595d983b8c0526c8f7fb87876040516116a5929190612cfb565b60405180910390a46116bb8187878787876121d5565b505050505050565b6116cd828261117d565b60008281526005602052604090206109459082611220565b6116ef82826122e0565b60008281526005602052604090206109459082612381565b6000610d928383612396565b816001600160a01b0316836001600160a01b0316141561179b5760405162461bcd60e51b815260206004820152602960248201527f455243313135353a2073657474696e6720617070726f76616c2073746174757360448201527f20666f722073656c6600000000000000000000000000000000000000000000006064820152608401610699565b6001600160a01b03838116600081815260016020908152604080832094871680845294825291829020805460ff191686151590811790915591519182527f17307eab39ab6107e8899845ad3d59bd9653f200f220920489ca2b5937696c31910160405180910390a3505050565b60006106c5825490565b6001600160a01b0384166118765760405162461bcd60e51b815260206004820152602560248201527f455243313135353a207472616e7366657220746f20746865207a65726f206164604482015264647265737360d81b6064820152608401610699565b600061188061125a565b905061189181878761137c88611e83565b6000848152602081815260408083206001600160a01b038a168452909152902054838110156119155760405162461bcd60e51b815260206004820152602a60248201527f455243313135353a20696e73756666696369656e742062616c616e636520666f60448201526939103a3930b739b332b960b11b6064820152608401610699565b6000858152602081815260408083206001600160a01b038b811685529252808320878503905590881682528120805486929061195290849061300b565b909155505060408051868152602081018690526001600160a01b03808916928a821692918616917fc3d58168c5ae7397731d063d5bbf3d657854427343f4c083240f7aacaa2d0f62910160405180910390a46119b2828888888888612020565b50505050505050565b6001600160a01b038316611a375760405162461bcd60e51b815260206004820152602360248201527f455243313135353a206275726e2066726f6d20746865207a65726f206164647260448201527f65737300000000000000000000000000000000000000000000000000000000006064820152608401610699565b6000611a4161125a565b9050611a7181856000611a5387611e83565b611a5c87611e83565b60405180602001604052806000815250611edc565b6000838152602081815260408083206001600160a01b038816845290915290205482811015611b075760405162461bcd60e51b8152602060048201526024808201527f455243313135353a206275726e20616d6f756e7420657863656564732062616c60448201527f616e6365000000000000000000000000000000000000000000000000000000006064820152608401610699565b6000848152602081815260408083206001600160a01b03898116808652918452828520888703905582518981529384018890529092908616917fc3d58168c5ae7397731d063d5bbf3d657854427343f4c083240f7aacaa2d0f62910160405180910390a45050505050565b6000818152600183016020526040812054611bb9575081546001818101845560008481526020808220909301849055845484825282860190935260409020919091556106c5565b5060006106c5565b60006001600160e01b031982167f7965db0b0000000000000000000000000000000000000000000000000000000014806106c557506106c5826123ce565b600033301415611c5657600080368080601f0160208091040260200160405190810160405280939291908181526020018383808284376000920191909152505050503601516001600160a01b03169150611c599050565b50335b90565b60606000611c6b836002613023565b611c7690600261300b565b67ffffffffffffffff811115611c9c57634e487b7160e01b600052604160045260246000fd5b6040519080825280601f01601f191660200182016040528015611cc6576020820181803683370190505b5090507f300000000000000000000000000000000000000000000000000000000000000081600081518110611d0b57634e487b7160e01b600052603260045260246000fd5b60200101906001600160f81b031916908160001a9053507f780000000000000000000000000000000000000000000000000000000000000081600181518110611d6457634e487b7160e01b600052603260045260246000fd5b60200101906001600160f81b031916908160001a9053506000611d88846002613023565b611d9390600161300b565b90505b6001811115611e34577f303132333435363738396162636465660000000000000000000000000000000085600f1660108110611de257634e487b7160e01b600052603260045260246000fd5b1a60f81b828281518110611e0657634e487b7160e01b600052603260045260246000fd5b60200101906001600160f81b031916908160001a90535060049490941c93611e2d8161309a565b9050611d96565b508315610d925760405162461bcd60e51b815260206004820181905260248201527f537472696e67733a20686578206c656e67746820696e73756666696369656e746044820152606401610699565b60408051600180825281830190925260609160009190602080830190803683370190505090508281600081518110611ecb57634e487b7160e01b600052603260045260246000fd5b602090810291909101015292915050565b6001600160a01b038516611f7f5760005b8351811015611f7d57828181518110611f1657634e487b7160e01b600052603260045260246000fd5b602002602001015160036000868481518110611f4257634e487b7160e01b600052603260045260246000fd5b602002602001015181526020019081526020016000206000828254611f67919061300b565b90915550611f76905081613119565b9050611eed565b505b6001600160a01b0384166116bb5760005b83518110156119b257828181518110611fb957634e487b7160e01b600052603260045260246000fd5b602002602001015160036000868481518110611fe557634e487b7160e01b600052603260045260246000fd5b60200260200101518152602001908152602001600020600082825461200a9190613042565b90915550612019905081613119565b9050611f90565b6001600160a01b0384163b156116bb5760405163f23a6e6160e01b81526001600160a01b0385169063f23a6e61906120649089908990889088908890600401612ca5565b602060405180830381600087803b15801561207e57600080fd5b505af19250505080156120ae575060408051601f3d908101601f191682019092526120ab91810190612a86565b60015b612164576120ba61317a565b806308c379a014156120f457506120cf613191565b806120da57506120f6565b8060405162461bcd60e51b81526004016106999190612d29565b505b60405162461bcd60e51b815260206004820152603460248201527f455243313135353a207472616e7366657220746f206e6f6e204552433131353560448201527f526563656976657220696d706c656d656e7465720000000000000000000000006064820152608401610699565b6001600160e01b0319811663f23a6e6160e01b146119b25760405162461bcd60e51b815260206004820152602860248201527f455243313135353a204552433131353552656365697665722072656a656374656044820152676420746f6b656e7360c01b6064820152608401610699565b6001600160a01b0384163b156116bb5760405163bc197c8160e01b81526001600160a01b0385169063bc197c81906122199089908990889088908890600401612c47565b602060405180830381600087803b15801561223357600080fd5b505af1925050508015612263575060408051601f3d908101601f1916820190925261226091810190612a86565b60015b61226f576120ba61317a565b6001600160e01b0319811663bc197c8160e01b146119b25760405162461bcd60e51b815260206004820152602860248201527f455243313135353a204552433131353552656365697665722072656a656374656044820152676420746f6b656e7360c01b6064820152608401610699565b60008281526004602090815260408083206001600160a01b038516845290915290205460ff16156109e25760008281526004602090815260408083206001600160a01b03851684529091529020805460ff1916905561233d61125a565b6001600160a01b0316816001600160a01b0316837ff6391f5c32d9c69d2a47ea670b442974b53935d1edc7fd64eb21e047a839171b60405160405180910390a45050565b6000610d92836001600160a01b038416612469565b60008260000182815481106123bb57634e487b7160e01b600052603260045260246000fd5b9060005260206000200154905092915050565b60006001600160e01b031982167fd9b67a2600000000000000000000000000000000000000000000000000000000148061243157506001600160e01b031982167f0e89341c00000000000000000000000000000000000000000000000000000000145b806106c557507f01ffc9a7000000000000000000000000000000000000000000000000000000006001600160e01b03198316146106c5565b6000818152600183016020526040812054801561257c57600061248d600183613042565b85549091506000906124a190600190613042565b90508181146125225760008660000182815481106124cf57634e487b7160e01b600052603260045260246000fd5b906000526020600020015490508087600001848154811061250057634e487b7160e01b600052603260045260246000fd5b6000918252602080832090910192909255918252600188019052604090208390555b855486908061254157634e487b7160e01b600052603160045260246000fd5b6001900381819060005260206000200160009055905585600101600086815260200190815260200160002060009055600193505050506106c5565b60009150506106c5565b828054612592906130b1565b90600052602060002090601f0160209004810192826125b457600085556125fa565b82601f106125cd57805160ff19168380011785556125fa565b828001600101855582156125fa579182015b828111156125fa5782518255916020019190600101906125df565b5061260692915061260a565b5090565b5b80821115612606576000815560010161260b565b600067ffffffffffffffff8311156126395761263961314a565b604051612650601f8501601f1916602001826130ec565b80915083815284848401111561266557600080fd5b83836020830137600060208583010152509392505050565b80356001600160a01b038116811461269457600080fd5b919050565b600082601f8301126126a9578081fd5b813560206126b682612fe7565b6040516126c382826130ec565b8381528281019150858301600585901b870184018810156126e2578586fd5b855b85811015612700578135845292840192908401906001016126e4565b5090979650505050505050565b600082601f83011261271d578081fd5b610d928383356020850161261f565b8035612694816135ed565b8035612694816135fc565b600060208284031215612753578081fd5b610d928261267d565b6000806040838503121561276e578081fd5b6127778361267d565b91506127856020840161267d565b90509250929050565b600080600080600060a086880312156127a5578081fd5b6127ae8661267d565b94506127bc6020870161267d565b9350604086013567ffffffffffffffff808211156127d8578283fd5b6127e489838a01612699565b945060608801359150808211156127f9578283fd5b61280589838a01612699565b9350608088013591508082111561281a578283fd5b506128278882890161270d565b9150509295509295909350565b600080600080600060a0868803121561284b578081fd5b6128548661267d565b94506128626020870161267d565b93506040860135925060608601359150608086013567ffffffffffffffff81111561288b578182fd5b6128278882890161270d565b600080604083850312156128a9578182fd5b6128b28361267d565b915060208301356128c2816135c6565b809150509250929050565b600080604083850312156128df578182fd5b6128e88361267d565b946020939093013593505050565b60008060006060848603121561290a578081fd5b6129138461267d565b95602085013595506040909401359392505050565b6000806040838503121561293a578182fd5b823567ffffffffffffffff80821115612951578384fd5b818501915085601f830112612964578384fd5b8135602061297182612fe7565b60405161297e82826130ec565b8381528281019150858301600585901b870184018b101561299d578889fd5b8896505b848710156129c6576129b28161267d565b8352600196909601959183019183016129a1565b50965050860135925050808211156129dc578283fd5b506129e985828601612699565b9150509250929050565b600060208284031215612a04578081fd5b8151610d92816135c6565b600060208284031215612a20578081fd5b5035919050565b60008060408385031215612a39578182fd5b823591506127856020840161267d565b60008060408385031215612a5b578182fd5b50508035926020909101359150565b600060208284031215612a7b578081fd5b8135610d92816135d7565b600060208284031215612a97578081fd5b8151610d92816135d7565b600060208284031215612ab3578081fd5b813567ffffffffffffffff811115612ac9578182fd5b8201601f81018413612ad9578182fd5b6110908482356020840161261f565b6000808284036101a0811215612afc578283fd5b83359250610180601f1982011215612b12578182fd5b506020830190509250929050565b60008060408385031215612b32578182fd5b82359150602083013567ffffffffffffffff811115612b4f578182fd5b8301606081860312156128c2578182fd5b6000815180845260208085019450808401835b83811015612b8f57815187529582019590820190600101612b73565b509495945050505050565b60008151808452612bb281602086016020860161306e565b601f01601f19169290920160200192915050565b7f416363657373436f6e74726f6c3a206163636f756e7420000000000000000000815260008351612bfe81601785016020880161306e565b7f206973206d697373696e6720726f6c65200000000000000000000000000000006017918401918201528351612c3b81602884016020880161306e565b01602801949350505050565b60006001600160a01b03808816835280871660208401525060a06040830152612c7360a0830186612b60565b8281036060840152612c858186612b60565b90508281036080840152612c998185612b9a565b98975050505050505050565b60006001600160a01b03808816835280871660208401525084604083015283606083015260a06080830152612cdd60a0830184612b9a565b979650505050505050565b602081526000610d926020830184612b60565b604081526000612d0e6040830185612b60565b8281036020840152612d208185612b60565b95945050505050565b602081526000610d926020830184612b9a565b606081526000612d4f6060830186612b9a565b60ff94851660208401529290931660409091015292915050565b8281526101a08101612d8860208301612d8185612737565b60ff169052565b612d946020840161272c565b612da3604084018260000b9052565b50612db060408401612737565b60ff8116606084015250612dc66060840161272c565b612dd5608084018260000b9052565b50612de260808401612737565b60ff811660a084015250612df860a0840161272c565b612e0760c084018260000b9052565b50612e1460c08401612737565b60ff811660e084015250612e2a60e0840161272c565b610100612e3b8185018360000b9052565b612e46818601612737565b915050610120612e5a8185018360ff169052565b612e6581860161272c565b915050610140612e798185018360000b9052565b612e84818601612737565b915050610160612e988185018360ff169052565b612ea381860161272c565b915050610b5461018084018260000b9052565b8281526040602082015260008235601e19843603018112612ed5578182fd5b8301803567ffffffffffffffff811115612eed578283fd5b803603851315612efb578283fd5b606060408501528060a0850152806020830160c08601378260c08286010152612f2660208601612737565b60ff811660608601529150612f3d60408601612737565b60ff811660808601529150601f01601f19169290920160c001949350505050565b60ff8d8116825260008d810b60208401528c821660408401528b810b60608401528a8216608084015289810b60a084015288821660c084015287900b60e083015285166101008201526101808101612fbc61012083018660000b9052565b60ff8416610140830152612fd661016083018460000b9052565b9d9c50505050505050505050505050565b600067ffffffffffffffff8211156130015761300161314a565b5060051b60200190565b6000821982111561301e5761301e613134565b500190565b600081600019048311821515161561303d5761303d613134565b500290565b60008282101561305457613054613134565b500390565b5b818110156109e2576000815560010161305a565b60005b83811015613089578181015183820152602001613071565b838111156108635750506000910152565b6000816130a9576130a9613134565b506000190190565b600181811c908216806130c557607f821691505b602082108114156130e657634e487b7160e01b600052602260045260246000fd5b50919050565b601f8201601f1916810167ffffffffffffffff811182821017156131125761311261314a565b6040525050565b600060001982141561312d5761312d613134565b5060010190565b634e487b7160e01b600052601160045260246000fd5b634e487b7160e01b600052604160045260246000fd5b600081356106c5816135ed565b600081356106c5816135fc565b600060033d1115611c5957600481823e5160e01c90565b600060443d101561319f5790565b6040516003193d81016004833e81513d67ffffffffffffffff81602484011181841117156131cf57505050505090565b82850191508151818111156131e75750505050505090565b843d87010160208285010111156132015750505050505090565b613210602082860101876130ec565b509095945050505050565b6132386132278361316d565b825460ff191660ff91909116178255565b61326061324760208401613160565b825461ff00191660009190910b60081b61ff0016178255565b61328761326f6040840161316d565b825462ff0000191660109190911b62ff000016178255565b6132b361329660608401613160565b825463ff000000191660009190910b60181b63ff00000016178255565b6132de6132c26080840161316d565b825464ff00000000191660209190911b64ff0000000016178255565b61330e6132ed60a08401613160565b825465ff0000000000191660009190910b60281b65ff000000000016178255565b61333d61331d60c0840161316d565b825466ff000000000000191660309190911b66ff00000000000016178255565b61337161334c60e08401613160565b825467ff00000000000000191660009190910b60381b67ff0000000000000016178255565b6133a5613381610100840161316d565b825468ff0000000000000000191660409190911b68ff000000000000000016178255565b6133de6133b56101208401613160565b825469ff000000000000000000191660009190910b60481b69ff00000000000000000016178255565b6134166133ee610140840161316d565b82546aff00000000000000000000191660509190911b6aff0000000000000000000016178255565b6109e26134266101608401613160565b82546bff0000000000000000000000191660009190910b60581b6bff000000000000000000000016178255565b8135601e1983360301811261346757600080fd5b8201803567ffffffffffffffff81111561348057600080fd5b6020813603818401131561349357600080fd5b61349d84546130b1565b600080601f8511601f8411818117156134bc5760008981526020902092505b80156134ea57601f870160051c8301868810156134d65750825b6134e8601f870160051c850182613059565b505b508060018114613520576000945086156135075785848901013594505b600187901b600019600389901b1c198616178955613575565b601f198716945082845b8681101561354b57898601880135825594870194600190910190870161352a565b508786101561356a5760001960f88960031b161c1987868b0101351681555b5060018760011b0189555b505050505060018401925061359f61358e82870161316d565b845460ff191660ff91909116178455565b50506109456135b06040850161316d565b825461ff00191660089190911b61ff0016178255565b80151581146135d457600080fd5b50565b6001600160e01b0319811681146135d457600080fd5b8060000b81146135d457600080fd5b60ff811681146135d457600080fdfea26469706673582212204180d02e50e02b60bfe3a130cbf760514b02cd52285f25ed2f297ce58c496e3764736f6c63430008040033",
  "devdoc": {
    "kind": "dev",
    "methods": {
      "balanceOf(address,uint256)": {
        "details": "See {IERC1155-balanceOf}. Requirements: - `account` cannot be the zero address."
      },
      "balanceOfBatch(address[],uint256[])": {
        "details": "See {IERC1155-balanceOfBatch}. Requirements: - `accounts` and `ids` must have the same length."
      },
      "exists(uint256)": {
        "details": "Indicates whether any token exist with a given id, or not."
      },
      "getRoleAdmin(bytes32)": {
        "details": "Returns the admin role that controls `role`. See {grantRole} and {revokeRole}. To change a role's admin, use {_setRoleAdmin}."
      },
      "getRoleMember(bytes32,uint256)": {
        "details": "Returns one of the accounts that have `role`. `index` must be a value between 0 and {getRoleMemberCount}, non-inclusive. Role bearers are not sorted in any particular way, and their ordering may change at any point. WARNING: When using {getRoleMember} and {getRoleMemberCount}, make sure you perform all queries on the same block. See the following https://forum.openzeppelin.com/t/iterating-over-elements-on-enumerableset-in-openzeppelin-contracts/2296[forum post] for more information."
      },
      "getRoleMemberCount(bytes32)": {
        "details": "Returns the number of accounts that have `role`. Can be used together with {getRoleMember} to enumerate all bearers of a role."
      },
      "grantRole(bytes32,address)": {
        "details": "Grants `role` to `account`. If `account` had not been already granted `role`, emits a {RoleGranted} event. Requirements: - the caller must have ``role``'s admin role."
      },
      "hasRole(bytes32,address)": {
        "details": "Returns `true` if `account` has been granted `role`."
      },
      "renounceRole(bytes32,address)": {
        "details": "Revokes `role` from the calling account. Roles are often managed via {grantRole} and {revokeRole}: this function's purpose is to provide a mechanism for accounts to lose their privileges if they are compromised (such as when a trusted device is misplaced). If the calling account had been revoked `role`, emits a {RoleRevoked} event. Requirements: - the caller must be `account`."
      },
      "revokeRole(bytes32,address)": {
        "details": "Revokes `role` from `account`. If `account` had been granted `role`, emits a {RoleRevoked} event. Requirements: - the caller must have ``role``'s admin role."
      },
      "safeBatchTransferFrom(address,address,uint256[],uint256[],bytes)": {
        "details": "See {IERC1155-safeBatchTransferFrom}."
      },
      "safeTransferFrom(address,address,uint256,uint256,bytes)": {
        "details": "See {IERC1155-safeTransferFrom}."
      },
      "setApprovalForAll(address,bool)": {
        "details": "See {IERC1155-setApprovalForAll}."
      },
      "totalSupply(uint256)": {
        "details": "Total amount of tokens in with a given id."
      },
      "uri(uint256)": {
        "details": "See {IERC1155MetadataURI-uri}. This implementation returns the same URI for *all* token types. It relies on the token type ID substitution mechanism https://eips.ethereum.org/EIPS/eip-1155#metadata[defined in the EIP]. Clients calling this function must replace the `\\{id\\}` substring with the actual token type ID."
      }
    },
    "version": 1
  },
  "userdoc": {
    "kind": "user",
    "methods": {
      "isApprovedForAll(address,address)": {
        "notice": "Override isApprovedForAll to whitelist user's OpenSea proxy accounts to enable gas-less listings."
      }
    },
    "version": 1
  },
  "storageLayout": {
    "storage": [
      {
        "astId": 662,
        "contract": "contracts/resources/ResourcesERC1155.sol:ResourcesERC1155",
        "label": "_balances",
        "offset": 0,
        "slot": "0",
        "type": "t_mapping(t_uint256,t_mapping(t_address,t_uint256))"
      },
      {
        "astId": 668,
        "contract": "contracts/resources/ResourcesERC1155.sol:ResourcesERC1155",
        "label": "_operatorApprovals",
        "offset": 0,
        "slot": "1",
        "type": "t_mapping(t_address,t_mapping(t_address,t_bool))"
      },
      {
        "astId": 670,
        "contract": "contracts/resources/ResourcesERC1155.sol:ResourcesERC1155",
        "label": "_uri",
        "offset": 0,
        "slot": "2",
        "type": "t_string_storage"
      },
      {
        "astId": 1905,
        "contract": "contracts/resources/ResourcesERC1155.sol:ResourcesERC1155",
        "label": "_totalSupply",
        "offset": 0,
        "slot": "3",
        "type": "t_mapping(t_uint256,t_uint256)"
      },
      {
        "astId": 24,
        "contract": "contracts/resources/ResourcesERC1155.sol:ResourcesERC1155",
        "label": "_roles",
        "offset": 0,
        "slot": "4",
        "type": "t_mapping(t_bytes32,t_struct(RoleData)19_storage)"
      },
      {
        "astId": 327,
        "contract": "contracts/resources/ResourcesERC1155.sol:ResourcesERC1155",
        "label": "_roleMembers",
        "offset": 0,
        "slot": "5",
        "type": "t_mapping(t_bytes32,t_struct(AddressSet)5717_storage)"
      },
      {
        "astId": 7287,
        "contract": "contracts/resources/ResourcesERC1155.sol:ResourcesERC1155",
        "label": "proxyRegistryAddress",
        "offset": 0,
        "slot": "6",
        "type": "t_address"
      },
      {
        "astId": 8022,
        "contract": "contracts/resources/ResourcesERC1155.sol:ResourcesERC1155",
        "label": "metadata",
        "offset": 0,
        "slot": "7",
        "type": "t_mapping(t_uint256,t_struct(Metadata)7978_storage)"
      },
      {
        "astId": 8027,
        "contract": "contracts/resources/ResourcesERC1155.sol:ResourcesERC1155",
        "label": "attributes",
        "offset": 0,
        "slot": "8",
        "type": "t_mapping(t_uint256,t_struct(Attributes)8003_storage)"
      },
      {
        "astId": 8031,
        "contract": "contracts/resources/ResourcesERC1155.sol:ResourcesERC1155",
        "label": "_registered",
        "offset": 0,
        "slot": "9",
        "type": "t_mapping(t_uint256,t_bool)"
      },
      {
        "astId": 8033,
        "contract": "contracts/resources/ResourcesERC1155.sol:ResourcesERC1155",
        "label": "__contractURI",
        "offset": 0,
        "slot": "10",
        "type": "t_string_storage"
      }
    ],
    "types": {
      "t_address": {
        "encoding": "inplace",
        "label": "address",
        "numberOfBytes": "20"
      },
      "t_array(t_bytes32)dyn_storage": {
        "base": "t_bytes32",
        "encoding": "dynamic_array",
        "label": "bytes32[]",
        "numberOfBytes": "32"
      },
      "t_bool": {
        "encoding": "inplace",
        "label": "bool",
        "numberOfBytes": "1"
      },
      "t_bytes32": {
        "encoding": "inplace",
        "label": "bytes32",
        "numberOfBytes": "32"
      },
      "t_int8": {
        "encoding": "inplace",
        "label": "int8",
        "numberOfBytes": "1"
      },
      "t_mapping(t_address,t_bool)": {
        "encoding": "mapping",
        "key": "t_address",
        "label": "mapping(address => bool)",
        "numberOfBytes": "32",
        "value": "t_bool"
      },
      "t_mapping(t_address,t_mapping(t_address,t_bool))": {
        "encoding": "mapping",
        "key": "t_address",
        "label": "mapping(address => mapping(address => bool))",
        "numberOfBytes": "32",
        "value": "t_mapping(t_address,t_bool)"
      },
      "t_mapping(t_address,t_uint256)": {
        "encoding": "mapping",
        "key": "t_address",
        "label": "mapping(address => uint256)",
        "numberOfBytes": "32",
        "value": "t_uint256"
      },
      "t_mapping(t_bytes32,t_struct(AddressSet)5717_storage)": {
        "encoding": "mapping",
        "key": "t_bytes32",
        "label": "mapping(bytes32 => struct EnumerableSet.AddressSet)",
        "numberOfBytes": "32",
        "value": "t_struct(AddressSet)5717_storage"
      },
      "t_mapping(t_bytes32,t_struct(RoleData)19_storage)": {
        "encoding": "mapping",
        "key": "t_bytes32",
        "label": "mapping(bytes32 => struct AccessControl.RoleData)",
        "numberOfBytes": "32",
        "value": "t_struct(RoleData)19_storage"
      },
      "t_mapping(t_bytes32,t_uint256)": {
        "encoding": "mapping",
        "key": "t_bytes32",
        "label": "mapping(bytes32 => uint256)",
        "numberOfBytes": "32",
        "value": "t_uint256"
      },
      "t_mapping(t_uint256,t_bool)": {
        "encoding": "mapping",
        "key": "t_uint256",
        "label": "mapping(uint256 => bool)",
        "numberOfBytes": "32",
        "value": "t_bool"
      },
      "t_mapping(t_uint256,t_mapping(t_address,t_uint256))": {
        "encoding": "mapping",
        "key": "t_uint256",
        "label": "mapping(uint256 => mapping(address => uint256))",
        "numberOfBytes": "32",
        "value": "t_mapping(t_address,t_uint256)"
      },
      "t_mapping(t_uint256,t_struct(Attributes)8003_storage)": {
        "encoding": "mapping",
        "key": "t_uint256",
        "label": "mapping(uint256 => struct ResourcesERC1155.Attributes)",
        "numberOfBytes": "32",
        "value": "t_struct(Attributes)8003_storage"
      },
      "t_mapping(t_uint256,t_struct(Metadata)7978_storage)": {
        "encoding": "mapping",
        "key": "t_uint256",
        "label": "mapping(uint256 => struct ResourcesERC1155.Metadata)",
        "numberOfBytes": "32",
        "value": "t_struct(Metadata)7978_storage"
      },
      "t_mapping(t_uint256,t_uint256)": {
        "encoding": "mapping",
        "key": "t_uint256",
        "label": "mapping(uint256 => uint256)",
        "numberOfBytes": "32",
        "value": "t_uint256"
      },
      "t_string_storage": {
        "encoding": "bytes",
        "label": "string",
        "numberOfBytes": "32"
      },
      "t_struct(AddressSet)5717_storage": {
        "encoding": "inplace",
        "label": "struct EnumerableSet.AddressSet",
        "members": [
          {
            "astId": 5716,
            "contract": "contracts/resources/ResourcesERC1155.sol:ResourcesERC1155",
            "label": "_inner",
            "offset": 0,
            "slot": "0",
            "type": "t_struct(Set)5416_storage"
          }
        ],
        "numberOfBytes": "64"
      },
      "t_struct(Attributes)8003_storage": {
        "encoding": "inplace",
        "label": "struct ResourcesERC1155.Attributes",
        "members": [
          {
            "astId": 7980,
            "contract": "contracts/resources/ResourcesERC1155.sol:ResourcesERC1155",
            "label": "attr1",
            "offset": 0,
            "slot": "0",
            "type": "t_uint8"
          },
          {
            "astId": 7982,
            "contract": "contracts/resources/ResourcesERC1155.sol:ResourcesERC1155",
            "label": "value1",
            "offset": 1,
            "slot": "0",
            "type": "t_int8"
          },
          {
            "astId": 7984,
            "contract": "contracts/resources/ResourcesERC1155.sol:ResourcesERC1155",
            "label": "attr2",
            "offset": 2,
            "slot": "0",
            "type": "t_uint8"
          },
          {
            "astId": 7986,
            "contract": "contracts/resources/ResourcesERC1155.sol:ResourcesERC1155",
            "label": "value2",
            "offset": 3,
            "slot": "0",
            "type": "t_int8"
          },
          {
            "astId": 7988,
            "contract": "contracts/resources/ResourcesERC1155.sol:ResourcesERC1155",
            "label": "attr3",
            "offset": 4,
            "slot": "0",
            "type": "t_uint8"
          },
          {
            "astId": 7990,
            "contract": "contracts/resources/ResourcesERC1155.sol:ResourcesERC1155",
            "label": "value3",
            "offset": 5,
            "slot": "0",
            "type": "t_int8"
          },
          {
            "astId": 7992,
            "contract": "contracts/resources/ResourcesERC1155.sol:ResourcesERC1155",
            "label": "attr4",
            "offset": 6,
            "slot": "0",
            "type": "t_uint8"
          },
          {
            "astId": 7994,
            "contract": "contracts/resources/ResourcesERC1155.sol:ResourcesERC1155",
            "label": "value4",
            "offset": 7,
            "slot": "0",
            "type": "t_int8"
          },
          {
            "astId": 7996,
            "contract": "contracts/resources/ResourcesERC1155.sol:ResourcesERC1155",
            "label": "attr5",
            "offset": 8,
            "slot": "0",
            "type": "t_uint8"
          },
          {
            "astId": 7998,
            "contract": "contracts/resources/ResourcesERC1155.sol:ResourcesERC1155",
            "label": "value5",
            "offset": 9,
            "slot": "0",
            "type": "t_int8"
          },
          {
            "astId": 8000,
            "contract": "contracts/resources/ResourcesERC1155.sol:ResourcesERC1155",
            "label": "attr6",
            "offset": 10,
            "slot": "0",
            "type": "t_uint8"
          },
          {
            "astId": 8002,
            "contract": "contracts/resources/ResourcesERC1155.sol:ResourcesERC1155",
            "label": "value6",
            "offset": 11,
            "slot": "0",
            "type": "t_int8"
          }
        ],
        "numberOfBytes": "32"
      },
      "t_struct(Metadata)7978_storage": {
        "encoding": "inplace",
        "label": "struct ResourcesERC1155.Metadata",
        "members": [
          {
            "astId": 7973,
            "contract": "contracts/resources/ResourcesERC1155.sol:ResourcesERC1155",
            "label": "name",
            "offset": 0,
            "slot": "0",
            "type": "t_string_storage"
          },
          {
            "astId": 7975,
            "contract": "contracts/resources/ResourcesERC1155.sol:ResourcesERC1155",
            "label": "typeId",
            "offset": 0,
            "slot": "1",
            "type": "t_uint8"
          },
          {
            "astId": 7977,
            "contract": "contracts/resources/ResourcesERC1155.sol:ResourcesERC1155",
            "label": "subtypeId",
            "offset": 1,
            "slot": "1",
            "type": "t_uint8"
          }
        ],
        "numberOfBytes": "64"
      },
      "t_struct(RoleData)19_storage": {
        "encoding": "inplace",
        "label": "struct AccessControl.RoleData",
        "members": [
          {
            "astId": 16,
            "contract": "contracts/resources/ResourcesERC1155.sol:ResourcesERC1155",
            "label": "members",
            "offset": 0,
            "slot": "0",
            "type": "t_mapping(t_address,t_bool)"
          },
          {
            "astId": 18,
            "contract": "contracts/resources/ResourcesERC1155.sol:ResourcesERC1155",
            "label": "adminRole",
            "offset": 0,
            "slot": "1",
            "type": "t_bytes32"
          }
        ],
        "numberOfBytes": "64"
      },
      "t_struct(Set)5416_storage": {
        "encoding": "inplace",
        "label": "struct EnumerableSet.Set",
        "members": [
          {
            "astId": 5411,
            "contract": "contracts/resources/ResourcesERC1155.sol:ResourcesERC1155",
            "label": "_values",
            "offset": 0,
            "slot": "0",
            "type": "t_array(t_bytes32)dyn_storage"
          },
          {
            "astId": 5415,
            "contract": "contracts/resources/ResourcesERC1155.sol:ResourcesERC1155",
            "label": "_indexes",
            "offset": 0,
            "slot": "1",
            "type": "t_mapping(t_bytes32,t_uint256)"
          }
        ],
        "numberOfBytes": "64"
      },
      "t_uint256": {
        "encoding": "inplace",
        "label": "uint256",
        "numberOfBytes": "32"
      },
      "t_uint8": {
        "encoding": "inplace",
        "label": "uint8",
        "numberOfBytes": "1"
      }
    }
  }
}