{
  "address": "0x7f8F1E90b53384cb0e0ae5233B39210e14539b92",
  "abi": [
    {
      "inputs": [
        {
          "internalType": "string",
          "name": "_uri",
          "type": "string"
        },
        {
          "internalType": "string",
          "name": "_initContractURI",
          "type": "string"
        }
      ],
      "stateMutability": "nonpayable",
      "type": "constructor"
    },
    {
      "anonymous": false,
      "inputs": [
        {
          "indexed": true,
          "internalType": "address",
          "name": "account",
          "type": "address"
        },
        {
          "indexed": true,
          "internalType": "address",
          "name": "operator",
          "type": "address"
        },
        {
          "indexed": false,
          "internalType": "bool",
          "name": "approved",
          "type": "bool"
        }
      ],
      "name": "ApprovalForAll",
      "type": "event"
    },
    {
      "anonymous": false,
      "inputs": [
        {
          "indexed": true,
          "internalType": "uint256",
          "name": "_id",
          "type": "uint256"
        },
        {
          "components": [
            {
              "internalType": "uint8",
              "name": "attr1",
              "type": "uint8"
            },
            {
              "internalType": "int8",
              "name": "value1",
              "type": "int8"
            },
            {
              "internalType": "uint8",
              "name": "attr2",
              "type": "uint8"
            },
            {
              "internalType": "int8",
              "name": "value2",
              "type": "int8"
            },
            {
              "internalType": "uint8",
              "name": "attr3",
              "type": "uint8"
            },
            {
              "internalType": "int8",
              "name": "value3",
              "type": "int8"
            },
            {
              "internalType": "uint8",
              "name": "attr4",
              "type": "uint8"
            },
            {
              "internalType": "int8",
              "name": "value4",
              "type": "int8"
            },
            {
              "internalType": "uint8",
              "name": "attr5",
              "type": "uint8"
            },
            {
              "internalType": "int8",
              "name": "value5",
              "type": "int8"
            },
            {
              "internalType": "uint8",
              "name": "attr6",
              "type": "uint8"
            },
            {
              "internalType": "int8",
              "name": "value6",
              "type": "int8"
            }
          ],
          "indexed": false,
          "internalType": "struct ResourcesERC1155.Attributes",
          "name": "_attributes",
          "type": "tuple"
        }
      ],
      "name": "AttributesUpdated",
      "type": "event"
    },
    {
      "anonymous": false,
      "inputs": [
        {
          "indexed": true,
          "internalType": "uint256",
          "name": "_id",
          "type": "uint256"
        },
        {
          "components": [
            {
              "internalType": "string",
              "name": "name",
              "type": "string"
            },
            {
              "internalType": "uint8",
              "name": "typeId",
              "type": "uint8"
            },
            {
              "internalType": "uint8",
              "name": "subtypeId",
              "type": "uint8"
            }
          ],
          "indexed": false,
          "internalType": "struct ResourcesERC1155.Metadata",
          "name": "_metadata",
          "type": "tuple"
        }
      ],
      "name": "MetadataUpdated",
      "type": "event"
    },
    {
      "anonymous": false,
      "inputs": [
        {
          "indexed": true,
          "internalType": "address",
          "name": "_newAddress",
          "type": "address"
        }
      ],
      "name": "ProxyRegistryAddressChanged",
      "type": "event"
    },
    {
      "anonymous": false,
      "inputs": [
        {
          "indexed": true,
          "internalType": "bytes32",
          "name": "role",
          "type": "bytes32"
        },
        {
          "indexed": true,
          "internalType": "bytes32",
          "name": "previousAdminRole",
          "type": "bytes32"
        },
        {
          "indexed": true,
          "internalType": "bytes32",
          "name": "newAdminRole",
          "type": "bytes32"
        }
      ],
      "name": "RoleAdminChanged",
      "type": "event"
    },
    {
      "anonymous": false,
      "inputs": [
        {
          "indexed": true,
          "internalType": "bytes32",
          "name": "role",
          "type": "bytes32"
        },
        {
          "indexed": true,
          "internalType": "address",
          "name": "account",
          "type": "address"
        },
        {
          "indexed": true,
          "internalType": "address",
          "name": "sender",
          "type": "address"
        }
      ],
      "name": "RoleGranted",
      "type": "event"
    },
    {
      "anonymous": false,
      "inputs": [
        {
          "indexed": true,
          "internalType": "bytes32",
          "name": "role",
          "type": "bytes32"
        },
        {
          "indexed": true,
          "internalType": "address",
          "name": "account",
          "type": "address"
        },
        {
          "indexed": true,
          "internalType": "address",
          "name": "sender",
          "type": "address"
        }
      ],
      "name": "RoleRevoked",
      "type": "event"
    },
    {
      "anonymous": false,
      "inputs": [
        {
          "indexed": true,
          "internalType": "address",
          "name": "operator",
          "type": "address"
        },
        {
          "indexed": true,
          "internalType": "address",
          "name": "from",
          "type": "address"
        },
        {
          "indexed": true,
          "internalType": "address",
          "name": "to",
          "type": "address"
        },
        {
          "indexed": false,
          "internalType": "uint256[]",
          "name": "ids",
          "type": "uint256[]"
        },
        {
          "indexed": false,
          "internalType": "uint256[]",
          "name": "values",
          "type": "uint256[]"
        }
      ],
      "name": "TransferBatch",
      "type": "event"
    },
    {
      "anonymous": false,
      "inputs": [
        {
          "indexed": true,
          "internalType": "address",
          "name": "operator",
          "type": "address"
        },
        {
          "indexed": true,
          "internalType": "address",
          "name": "from",
          "type": "address"
        },
        {
          "indexed": true,
          "internalType": "address",
          "name": "to",
          "type": "address"
        },
        {
          "indexed": false,
          "internalType": "uint256",
          "name": "id",
          "type": "uint256"
        },
        {
          "indexed": false,
          "internalType": "uint256",
          "name": "value",
          "type": "uint256"
        }
      ],
      "name": "TransferSingle",
      "type": "event"
    },
    {
      "anonymous": false,
      "inputs": [
        {
          "indexed": false,
          "internalType": "string",
          "name": "value",
          "type": "string"
        },
        {
          "indexed": true,
          "internalType": "uint256",
          "name": "id",
          "type": "uint256"
        }
      ],
      "name": "URI",
      "type": "event"
    },
    {
      "inputs": [],
      "name": "BURNER_ROLE",
      "outputs": [
        {
          "internalType": "bytes32",
          "name": "",
          "type": "bytes32"
        }
      ],
      "stateMutability": "view",
      "type": "function"
    },
    {
      "inputs": [],
      "name": "CREATOR_ROLE",
      "outputs": [
        {
          "internalType": "bytes32",
          "name": "",
          "type": "bytes32"
        }
      ],
      "stateMutability": "view",
      "type": "function"
    },
    {
      "inputs": [],
      "name": "DEFAULT_ADMIN_ROLE",
      "outputs": [
        {
          "internalType": "bytes32",
          "name": "",
          "type": "bytes32"
        }
      ],
      "stateMutability": "view",
      "type": "function"
    },
    {
      "inputs": [],
      "name": "MINTER_ROLE",
      "outputs": [
        {
          "internalType": "bytes32",
          "name": "",
          "type": "bytes32"
        }
      ],
      "stateMutability": "view",
      "type": "function"
    },
    {
      "inputs": [
        {
          "internalType": "uint256",
          "name": "",
          "type": "uint256"
        }
      ],
      "name": "attributes",
      "outputs": [
        {
          "internalType": "uint8",
          "name": "attr1",
          "type": "uint8"
        },
        {
          "internalType": "int8",
          "name": "value1",
          "type": "int8"
        },
        {
          "internalType": "uint8",
          "name": "attr2",
          "type": "uint8"
        },
        {
          "internalType": "int8",
          "name": "value2",
          "type": "int8"
        },
        {
          "internalType": "uint8",
          "name": "attr3",
          "type": "uint8"
        },
        {
          "internalType": "int8",
          "name": "value3",
          "type": "int8"
        },
        {
          "internalType": "uint8",
          "name": "attr4",
          "type": "uint8"
        },
        {
          "internalType": "int8",
          "name": "value4",
          "type": "int8"
        },
        {
          "internalType": "uint8",
          "name": "attr5",
          "type": "uint8"
        },
        {
          "internalType": "int8",
          "name": "value5",
          "type": "int8"
        },
        {
          "internalType": "uint8",
          "name": "attr6",
          "type": "uint8"
        },
        {
          "internalType": "int8",
          "name": "value6",
          "type": "int8"
        }
      ],
      "stateMutability": "view",
      "type": "function"
    },
    {
      "inputs": [
        {
          "internalType": "address",
          "name": "account",
          "type": "address"
        },
        {
          "internalType": "uint256",
          "name": "id",
          "type": "uint256"
        }
      ],
      "name": "balanceOf",
      "outputs": [
        {
          "internalType": "uint256",
          "name": "",
          "type": "uint256"
        }
      ],
      "stateMutability": "view",
      "type": "function"
    },
    {
      "inputs": [
        {
          "internalType": "address[]",
          "name": "accounts",
          "type": "address[]"
        },
        {
          "internalType": "uint256[]",
          "name": "ids",
          "type": "uint256[]"
        }
      ],
      "name": "balanceOfBatch",
      "outputs": [
        {
          "internalType": "uint256[]",
          "name": "",
          "type": "uint256[]"
        }
      ],
      "stateMutability": "view",
      "type": "function"
    },
    {
      "inputs": [
        {
          "internalType": "address",
          "name": "account",
          "type": "address"
        },
        {
          "internalType": "uint256",
          "name": "id",
          "type": "uint256"
        },
        {
          "internalType": "uint256",
          "name": "value",
          "type": "uint256"
        }
      ],
      "name": "burn",
      "outputs": [],
      "stateMutability": "nonpayable",
      "type": "function"
    },
    {
      "inputs": [],
      "name": "contractURI",
      "outputs": [
        {
          "internalType": "string",
          "name": "",
          "type": "string"
        }
      ],
      "stateMutability": "view",
      "type": "function"
    },
    {
      "inputs": [
        {
          "internalType": "uint256",
          "name": "id",
          "type": "uint256"
        }
      ],
      "name": "exists",
      "outputs": [
        {
          "internalType": "bool",
          "name": "",
          "type": "bool"
        }
      ],
      "stateMutability": "view",
      "type": "function"
    },
    {
      "inputs": [
        {
          "internalType": "bytes32",
          "name": "role",
          "type": "bytes32"
        }
      ],
      "name": "getRoleAdmin",
      "outputs": [
        {
          "internalType": "bytes32",
          "name": "",
          "type": "bytes32"
        }
      ],
      "stateMutability": "view",
      "type": "function"
    },
    {
      "inputs": [
        {
          "internalType": "bytes32",
          "name": "role",
          "type": "bytes32"
        },
        {
          "internalType": "uint256",
          "name": "index",
          "type": "uint256"
        }
      ],
      "name": "getRoleMember",
      "outputs": [
        {
          "internalType": "address",
          "name": "",
          "type": "address"
        }
      ],
      "stateMutability": "view",
      "type": "function"
    },
    {
      "inputs": [
        {
          "internalType": "bytes32",
          "name": "role",
          "type": "bytes32"
        }
      ],
      "name": "getRoleMemberCount",
      "outputs": [
        {
          "internalType": "uint256",
          "name": "",
          "type": "uint256"
        }
      ],
      "stateMutability": "view",
      "type": "function"
    },
    {
      "inputs": [
        {
          "internalType": "bytes32",
          "name": "role",
          "type": "bytes32"
        },
        {
          "internalType": "address",
          "name": "account",
          "type": "address"
        }
      ],
      "name": "grantRole",
      "outputs": [],
      "stateMutability": "nonpayable",
      "type": "function"
    },
    {
      "inputs": [
        {
          "internalType": "bytes32",
          "name": "role",
          "type": "bytes32"
        },
        {
          "internalType": "address",
          "name": "account",
          "type": "address"
        }
      ],
      "name": "hasRole",
      "outputs": [
        {
          "internalType": "bool",
          "name": "",
          "type": "bool"
        }
      ],
      "stateMutability": "view",
      "type": "function"
    },
    {
      "inputs": [
        {
          "internalType": "address",
          "name": "_owner",
          "type": "address"
        },
        {
          "internalType": "address",
          "name": "_operator",
          "type": "address"
        }
      ],
      "name": "isApprovedForAll",
      "outputs": [
        {
          "internalType": "bool",
          "name": "",
          "type": "bool"
        }
      ],
      "stateMutability": "view",
      "type": "function"
    },
    {
      "inputs": [
        {
          "internalType": "uint256",
          "name": "",
          "type": "uint256"
        }
      ],
      "name": "metadata",
      "outputs": [
        {
          "internalType": "string",
          "name": "name",
          "type": "string"
        },
        {
          "internalType": "uint8",
          "name": "typeId",
          "type": "uint8"
        },
        {
          "internalType": "uint8",
          "name": "subtypeId",
          "type": "uint8"
        }
      ],
      "stateMutability": "view",
      "type": "function"
    },
    {
      "inputs": [
        {
          "internalType": "address",
          "name": "to",
          "type": "address"
        },
        {
          "internalType": "uint256",
          "name": "id",
          "type": "uint256"
        },
        {
          "internalType": "uint256",
          "name": "amount",
          "type": "uint256"
        }
      ],
      "name": "mint",
      "outputs": [],
      "stateMutability": "nonpayable",
      "type": "function"
    },
    {
      "inputs": [],
      "name": "owner",
      "outputs": [
        {
          "internalType": "address",
          "name": "",
          "type": "address"
        }
      ],
      "stateMutability": "view",
      "type": "function"
    },
    {
      "inputs": [],
      "name": "proxyRegistryAddress",
      "outputs": [
        {
          "internalType": "address",
          "name": "",
          "type": "address"
        }
      ],
      "stateMutability": "view",
      "type": "function"
    },
    {
      "inputs": [
        {
          "internalType": "uint256",
          "name": "_id",
          "type": "uint256"
        },
        {
          "components": [
            {
              "internalType": "string",
              "name": "name",
              "type": "string"
            },
            {
              "internalType": "uint8",
              "name": "typeId",
              "type": "uint8"
            },
            {
              "internalType": "uint8",
              "name": "subtypeId",
              "type": "uint8"
            }
          ],
          "internalType": "struct ResourcesERC1155.Metadata",
          "name": "_metadata",
          "type": "tuple"
        }
      ],
      "name": "registerItem",
      "outputs": [],
      "stateMutability": "nonpayable",
      "type": "function"
    },
    {
      "inputs": [
        {
          "internalType": "uint256",
          "name": "_id",
          "type": "uint256"
        }
      ],
      "name": "registered",
      "outputs": [
        {
          "internalType": "bool",
          "name": "",
          "type": "bool"
        }
      ],
      "stateMutability": "view",
      "type": "function"
    },
    {
      "inputs": [
        {
          "internalType": "bytes32",
          "name": "role",
          "type": "bytes32"
        },
        {
          "internalType": "address",
          "name": "account",
          "type": "address"
        }
      ],
      "name": "renounceRole",
      "outputs": [],
      "stateMutability": "nonpayable",
      "type": "function"
    },
    {
      "inputs": [
        {
          "internalType": "bytes32",
          "name": "role",
          "type": "bytes32"
        },
        {
          "internalType": "address",
          "name": "account",
          "type": "address"
        }
      ],
      "name": "revokeRole",
      "outputs": [],
      "stateMutability": "nonpayable",
      "type": "function"
    },
    {
      "inputs": [
        {
          "internalType": "address",
          "name": "from",
          "type": "address"
        },
        {
          "internalType": "address",
          "name": "to",
          "type": "address"
        },
        {
          "internalType": "uint256[]",
          "name": "ids",
          "type": "uint256[]"
        },
        {
          "internalType": "uint256[]",
          "name": "amounts",
          "type": "uint256[]"
        },
        {
          "internalType": "bytes",
          "name": "data",
          "type": "bytes"
        }
      ],
      "name": "safeBatchTransferFrom",
      "outputs": [],
      "stateMutability": "nonpayable",
      "type": "function"
    },
    {
      "inputs": [
        {
          "internalType": "address",
          "name": "from",
          "type": "address"
        },
        {
          "internalType": "address",
          "name": "to",
          "type": "address"
        },
        {
          "internalType": "uint256",
          "name": "id",
          "type": "uint256"
        },
        {
          "internalType": "uint256",
          "name": "amount",
          "type": "uint256"
        },
        {
          "internalType": "bytes",
          "name": "data",
          "type": "bytes"
        }
      ],
      "name": "safeTransferFrom",
      "outputs": [],
      "stateMutability": "nonpayable",
      "type": "function"
    },
    {
      "inputs": [
        {
          "internalType": "address",
          "name": "operator",
          "type": "address"
        },
        {
          "internalType": "bool",
          "name": "approved",
          "type": "bool"
        }
      ],
      "name": "setApprovalForAll",
      "outputs": [],
      "stateMutability": "nonpayable",
      "type": "function"
    },
    {
      "inputs": [
        {
          "internalType": "string",
          "name": "uri",
          "type": "string"
        }
      ],
      "name": "setContractURI",
      "outputs": [],
      "stateMutability": "nonpayable",
      "type": "function"
    },
    {
      "inputs": [
        {
          "internalType": "address",
          "name": "_proxyRegistryAddress",
          "type": "address"
        }
      ],
      "name": "setProxyRegistryAddress",
      "outputs": [],
      "stateMutability": "nonpayable",
      "type": "function"
    },
    {
      "inputs": [
        {
          "internalType": "bytes4",
          "name": "interfaceId",
          "type": "bytes4"
        }
      ],
      "name": "supportsInterface",
      "outputs": [
        {
          "internalType": "bool",
          "name": "",
          "type": "bool"
        }
      ],
      "stateMutability": "view",
      "type": "function"
    },
    {
      "inputs": [
        {
          "internalType": "uint256",
          "name": "id",
          "type": "uint256"
        }
      ],
      "name": "totalSupply",
      "outputs": [
        {
          "internalType": "uint256",
          "name": "",
          "type": "uint256"
        }
      ],
      "stateMutability": "view",
      "type": "function"
    },
    {
      "inputs": [
        {
          "internalType": "uint256",
          "name": "_id",
          "type": "uint256"
        },
        {
          "components": [
            {
              "internalType": "uint8",
              "name": "attr1",
              "type": "uint8"
            },
            {
              "internalType": "int8",
              "name": "value1",
              "type": "int8"
            },
            {
              "internalType": "uint8",
              "name": "attr2",
              "type": "uint8"
            },
            {
              "internalType": "int8",
              "name": "value2",
              "type": "int8"
            },
            {
              "internalType": "uint8",
              "name": "attr3",
              "type": "uint8"
            },
            {
              "internalType": "int8",
              "name": "value3",
              "type": "int8"
            },
            {
              "internalType": "uint8",
              "name": "attr4",
              "type": "uint8"
            },
            {
              "internalType": "int8",
              "name": "value4",
              "type": "int8"
            },
            {
              "internalType": "uint8",
              "name": "attr5",
              "type": "uint8"
            },
            {
              "internalType": "int8",
              "name": "value5",
              "type": "int8"
            },
            {
              "internalType": "uint8",
              "name": "attr6",
              "type": "uint8"
            },
            {
              "internalType": "int8",
              "name": "value6",
              "type": "int8"
            }
          ],
          "internalType": "struct ResourcesERC1155.Attributes",
          "name": "_attributes",
          "type": "tuple"
        }
      ],
      "name": "updateAttributes",
      "outputs": [],
      "stateMutability": "nonpayable",
      "type": "function"
    },
    {
      "inputs": [
        {
          "internalType": "uint256",
          "name": "_id",
          "type": "uint256"
        },
        {
          "components": [
            {
              "internalType": "string",
              "name": "name",
              "type": "string"
            },
            {
              "internalType": "uint8",
              "name": "typeId",
              "type": "uint8"
            },
            {
              "internalType": "uint8",
              "name": "subtypeId",
              "type": "uint8"
            }
          ],
          "internalType": "struct ResourcesERC1155.Metadata",
          "name": "_metadata",
          "type": "tuple"
        }
      ],
      "name": "updateMetadata",
      "outputs": [],
      "stateMutability": "nonpayable",
      "type": "function"
    },
    {
      "inputs": [
        {
          "internalType": "uint256",
          "name": "",
          "type": "uint256"
        }
      ],
      "name": "uri",
      "outputs": [
        {
          "internalType": "string",
          "name": "",
          "type": "string"
        }
      ],
      "stateMutability": "view",
      "type": "function"
    }
  ],
  "transactionHash": "0xfdb8896b04efa1dece16ea3082946fbb247a03a1b125d2e3980cfed660e61419",
  "args": [
    "https://www.winzeland.com/meta/resources/{id}",
    "https://www.winzeland.com/meta/contract/resources"
  ],
  "numDeployments": 5,
  "solcInputHash": "55902849730e9d7b75dc6a053da45e44",
  "bytecode": "0x60806040523480156200001157600080fd5b5060405162003b9738038062003b978339810160408190526200003491620003c0565b8180620000418162000077565b506200005860006200005262000090565b620000a1565b5080516200006e90600a90602084019062000267565b5050506200047a565b80516200008c90600290602084019062000267565b5050565b60006200009c620000ad565b905090565b6200008c82826200010c565b6000333014156200010657600080368080601f0160208091040260200160405190810160405280939291908181526020018383808284376000920191909152505050503601516001600160a01b03169150620001099050565b50335b90565b6200012382826200014f60201b6200126c1760201c565b60008281526005602090815260409091206200014a9183906200130f620001f5821b17901c565b505050565b60008281526004602090815260408083206001600160a01b038516845290915290205460ff166200008c5760008281526004602090815260408083206001600160a01b03851684529091529020805460ff19166001179055620001b162000090565b6001600160a01b0316816001600160a01b0316837f2f8788117e7eff1d82e926ec794901d17c78024a50270940304540a733656f0d60405160405180910390a45050565b60006200020c836001600160a01b03841662000215565b90505b92915050565b60008181526001830160205260408120546200025e575081546001818101845560008481526020808220909301849055845484825282860190935260409020919091556200020f565b5060006200020f565b828054620002759062000427565b90600052602060002090601f016020900481019282620002995760008555620002e4565b82601f10620002b457805160ff1916838001178555620002e4565b82800160010185558215620002e4579182015b82811115620002e4578251825591602001919060010190620002c7565b50620002f2929150620002f6565b5090565b5b80821115620002f25760008155600101620002f7565b600082601f8301126200031e578081fd5b81516001600160401b03808211156200033b576200033b62000464565b604051601f8301601f19908116603f0116810190828211818310171562000366576200036662000464565b8160405283815260209250868385880101111562000382578485fd5b8491505b83821015620003a5578582018301518183018401529082019062000386565b83821115620003b657848385830101525b9695505050505050565b60008060408385031215620003d3578182fd5b82516001600160401b0380821115620003ea578384fd5b620003f8868387016200030d565b935060208501519150808211156200040e578283fd5b506200041d858286016200030d565b9150509250929050565b600181811c908216806200043c57607f821691505b602082108114156200045e57634e487b7160e01b600052602260045260246000fd5b50919050565b634e487b7160e01b600052604160045260246000fd5b61370d806200048a6000396000f3fe608060405234801561001057600080fd5b50600436106102255760003560e01c8063938e3d7b1161012a578063d5391393116100bd578063e8a3d4851161008c578063ec3b19a511610071578063ec3b19a514610614578063f242432a14610627578063f5298aca1461063a57600080fd5b8063e8a3d485146105f9578063e985e9c51461060157600080fd5b8063d53913931461057a578063d547741f146105a1578063e3684e39146105b4578063e6cf1346146105d657600080fd5b8063ca15c873116100f9578063ca15c87314610474578063cd7c032614610487578063d05dcc6a1461049a578063d26ea6c01461056757600080fd5b8063938e3d7b14610426578063a217fddf14610439578063a22cb46514610441578063bd85b0391461045457600080fd5b806336568abe116101bd578063895e82d21161018c5780638da5cb5b116101715780638da5cb5b146103ba5780639010d07c146103da57806391d14854146103ed57600080fd5b8063895e82d2146103805780638aeda25a1461039357600080fd5b806336568abe146103185780634e1273f41461032b5780634f558e791461034b5780637503a63f1461036d57600080fd5b8063248a9ca3116101f9578063248a9ca3146102a8578063282c51f3146102cb5780632eb2c2d6146102f25780632f2ff15d1461030557600080fd5b8062fdd58e1461022a57806301ffc9a7146102505780630e89341c14610273578063156e29f614610293575b600080fd5b61023d6102383660046129bc565b61064d565b6040519081526020015b60405180910390f35b61026361025e366004612b59565b6106f9565b6040519015158152602001610247565b610286610281366004612afe565b610752565b6040516102479190612e18565b6102a66102a13660046129e5565b6107e6565b005b61023d6102b6366004612afe565b60009081526004602052604090206001015490565b61023d7f3c11d16cbaffd01df69ce1c404f6340ee057498f5f00246190ea54220576a84881565b6102a661030036600461287d565b610897565b6102a6610313366004612b16565b61094b565b6102a6610326366004612b16565b610978565b61033e610339366004612a17565b610a14565b6040516102479190612dd7565b610263610359366004612afe565b600090815260036020526040902054151590565b6102a661037b366004612bd7565b610b8a565b6102a661038e366004612c0f565b610c6f565b61023d7f828634d95e775031b9ff576b159a8509d3053581a8c9c4d7d86899e0afcd882f81565b6103c2610d80565b6040516001600160a01b039091168152602001610247565b6103c26103e8366004612b38565b610d91565b6102636103fb366004612b16565b60009182526004602090815260408084206001600160a01b0393909316845291905290205460ff1690565b6102a6610434366004612b91565b610db0565b61023d600081565b6102a661044f366004612986565b610dd1565b61023d610462366004612afe565b60009081526003602052604090205490565b61023d610482366004612afe565b610de3565b6006546103c2906001600160a01b031681565b61054f6104a8366004612afe565b60086020526000908152604081205460ff808216926101008304810b9262010000810483169263010000008204830b926401000000008304821692650100000000008104820b92660100000000000082048116926701000000000000008304810b9268010000000000000000810483169269010000000000000000008204830b926a01000000000000000000008304909116916b0100000000000000000000009004900b8c565b6040516102479c9b9a9998979695949392919061302a565b6102a6610575366004612831565b610dfa565b61023d7f9f2df0fed2c77648de5860a4cc508cd0818c85b8b8a1ab4ceeef8d981c8956a681565b6102a66105af366004612b16565b610e6b565b6105c76105c2366004612afe565b610e93565b60405161024793929190612e2b565b6102636105e4366004612afe565b60009081526009602052604090205460ff1690565b610286610f43565b61026361060f36600461284b565b610fd5565b6102a6610622366004612c0f565b6110af565b6102a6610635366004612923565b611187565b6102a66106483660046129e5565b611234565b60006001600160a01b0383166106d05760405162461bcd60e51b815260206004820152602b60248201527f455243313135353a2062616c616e636520717565727920666f7220746865207a60448201527f65726f206164647265737300000000000000000000000000000000000000000060648201526084015b60405180910390fd5b506000818152602081815260408083206001600160a01b03861684529091529020545b92915050565b60006001600160e01b031982167ff2d03e4000000000000000000000000000000000000000000000000000000000148061074357506001600160e01b03198216635a05180f60e01b145b806106f357506106f382611324565b6060600280546107619061317d565b80601f016020809104026020016040519081016040528092919081815260200182805461078d9061317d565b80156107da5780601f106107af576101008083540402835291602001916107da565b820191906000526020600020905b8154815290600101906020018083116107bd57829003601f168201915b50505050509050919050565b7f9f2df0fed2c77648de5860a4cc508cd0818c85b8b8a1ab4ceeef8d981c8956a661081881610813611349565b611353565b60008381526009602052604090205460ff166108765760405162461bcd60e51b815260206004820152601b60248201527f7265736f75726365206973206e6f7420726567697374657265642e000000000060448201526064016106c7565b610891848484604051806020016040528060008152506113d3565b50505050565b61089f611349565b6001600160a01b0316856001600160a01b031614806108c557506108c58561060f611349565b6109375760405162461bcd60e51b815260206004820152603260248201527f455243313135353a207472616e736665722063616c6c6572206973206e6f742060448201527f6f776e6572206e6f7220617070726f766564000000000000000000000000000060648201526084016106c7565b610944858585858561150a565b5050505050565b60008281526004602052604090206001015461096981610813611349565b61097383836117b2565b505050565b610980611349565b6001600160a01b0316816001600160a01b031614610a065760405162461bcd60e51b815260206004820152602f60248201527f416363657373436f6e74726f6c3a2063616e206f6e6c792072656e6f756e636560448201527f20726f6c657320666f722073656c66000000000000000000000000000000000060648201526084016106c7565b610a1082826117d4565b5050565b60608151835114610a8d5760405162461bcd60e51b815260206004820152602960248201527f455243313135353a206163636f756e747320616e6420696473206c656e67746860448201527f206d69736d61746368000000000000000000000000000000000000000000000060648201526084016106c7565b6000835167ffffffffffffffff811115610ab757634e487b7160e01b600052604160045260246000fd5b604051908082528060200260200182016040528015610ae0578160200160208202803683370190505b50905060005b8451811015610b8257610b47858281518110610b1257634e487b7160e01b600052603260045260246000fd5b6020026020010151858381518110610b3a57634e487b7160e01b600052603260045260246000fd5b602002602001015161064d565b828281518110610b6757634e487b7160e01b600052603260045260246000fd5b6020908102919091010152610b7b816131e5565b9050610ae6565b509392505050565b7f828634d95e775031b9ff576b159a8509d3053581a8c9c4d7d86899e0afcd882f610bb781610813611349565b60008381526009602052604090205460ff16610c155760405162461bcd60e51b815260206004820152601b60248201527f7265736f75726365206973206e6f7420726567697374657265642e000000000060448201526064016106c7565b60008381526008602052604090208290610c2f82826132e7565b905050827f5e948860b0b0cce98b528ed8c4041f43dd3afb46a40e530aa723546d3de4b21183604051610c629190612e58565b60405180910390a2505050565b7f828634d95e775031b9ff576b159a8509d3053581a8c9c4d7d86899e0afcd882f610c9c81610813611349565b60008381526009602052604090205460ff1615610cfb5760405162461bcd60e51b815260206004820152601c60248201527f7265736f7572636520616c726561647920726567697374657265642e0000000060448201526064016106c7565b6000838152600960209081526040808320805460ff19166001179055600790915290208290610d2a828261351f565b905050610d50610d38611349565b846000604051806020016040528060008152506113d3565b827f6624c4664bc8146ad3819225d4a571cdea031b6f39ca8770931ace9eba736bba83604051610c629190612f89565b6000610d8c8180610d91565b905090565b6000828152600560205260408120610da990836117f6565b9392505050565b6000610dbe81610813611349565b815161097390600a906020850190612675565b610a10610ddc611349565b8383611802565b60008181526005602052604081206106f3906118f7565b6000610e0881610813611349565b600680547fffffffffffffffffffffffff0000000000000000000000000000000000000000166001600160a01b0384169081179091556040517fa2b0839d4585de7874ef6ce1d56318647d0ba0f8661e7ae4b76c47a7d5766b5390600090a25050565b600082815260046020526040902060010154610e8981610813611349565b61097383836117d4565b600760205260009081526040902080548190610eae9061317d565b80601f0160208091040260200160405190810160405280929190818152602001828054610eda9061317d565b8015610f275780601f10610efc57610100808354040283529160200191610f27565b820191906000526020600020905b815481529060010190602001808311610f0a57829003601f168201915b5050506001909301549192505060ff8082169161010090041683565b6060600a8054610f529061317d565b80601f0160208091040260200160405190810160405280929190818152602001828054610f7e9061317d565b8015610fcb5780601f10610fa057610100808354040283529160200191610fcb565b820191906000526020600020905b815481529060010190602001808311610fae57829003601f168201915b5050505050905090565b6006546040517f71213a2d0000000000000000000000000000000000000000000000000000000081526001600160a01b038381166004830152600092169081906371213a2d9060240160206040518083038186803b15801561103657600080fd5b505afa15801561104a573d6000803e3d6000fd5b505050506040513d601f19601f8201168201806040525081019061106e9190612ae2565b1561107d5760019150506106f3565b6001600160a01b0380851660009081526001602090815260408083209387168352929052205460ff165b949350505050565b7f828634d95e775031b9ff576b159a8509d3053581a8c9c4d7d86899e0afcd882f6110dc81610813611349565b60008381526009602052604090205460ff1661113a5760405162461bcd60e51b815260206004820152601b60248201527f7265736f75726365206973206e6f7420726567697374657265642e000000000060448201526064016106c7565b60008381526007602052604090208290611154828261351f565b905050827f6624c4664bc8146ad3819225d4a571cdea031b6f39ca8770931ace9eba736bba83604051610c629190612f89565b61118f611349565b6001600160a01b0316856001600160a01b031614806111b557506111b58561060f611349565b6112275760405162461bcd60e51b815260206004820152602960248201527f455243313135353a2063616c6c6572206973206e6f74206f776e6572206e6f7260448201527f20617070726f766564000000000000000000000000000000000000000000000060648201526084016106c7565b6109448585858585611901565b7f3c11d16cbaffd01df69ce1c404f6340ee057498f5f00246190ea54220576a84861126181610813611349565b610891848484611aaa565b60008281526004602090815260408083206001600160a01b038516845290915290205460ff16610a105760008281526004602090815260408083206001600160a01b03851684529091529020805460ff191660011790556112cb611349565b6001600160a01b0316816001600160a01b0316837f2f8788117e7eff1d82e926ec794901d17c78024a50270940304540a733656f0d60405160405180910390a45050565b6000610da9836001600160a01b038416611c61565b60006001600160e01b03198216635a05180f60e01b14806106f357506106f382611cb0565b6000610d8c611cee565b60008281526004602090815260408083206001600160a01b038516845290915290205460ff16610a1057611391816001600160a01b03166014611d4b565b61139c836020611d4b565b6040516020016113ad929190612cb5565b60408051601f198184030181529082905262461bcd60e51b82526106c791600401612e18565b6001600160a01b03841661144f5760405162461bcd60e51b815260206004820152602160248201527f455243313135353a206d696e7420746f20746865207a65726f2061646472657360448201527f730000000000000000000000000000000000000000000000000000000000000060648201526084016106c7565b6000611459611349565b905061147a8160008761146b88611f72565b61147488611f72565b87611fcb565b6000848152602081815260408083206001600160a01b0389168452909152812080548592906114aa9084906130d7565b909155505060408051858152602081018590526001600160a01b0380881692600092918516917fc3d58168c5ae7397731d063d5bbf3d657854427343f4c083240f7aacaa2d0f62910160405180910390a46109448160008787878761210f565b81518351146115815760405162461bcd60e51b815260206004820152602860248201527f455243313135353a2069647320616e6420616d6f756e7473206c656e6774682060448201527f6d69736d6174636800000000000000000000000000000000000000000000000060648201526084016106c7565b6001600160a01b0384166115e55760405162461bcd60e51b815260206004820152602560248201527f455243313135353a207472616e7366657220746f20746865207a65726f206164604482015264647265737360d81b60648201526084016106c7565b60006115ef611349565b90506115ff818787878787611fcb565b60005b845181101561174457600085828151811061162d57634e487b7160e01b600052603260045260246000fd5b60200260200101519050600085838151811061165957634e487b7160e01b600052603260045260246000fd5b602090810291909101810151600084815280835260408082206001600160a01b038e1683529093529190912054909150818110156116ec5760405162461bcd60e51b815260206004820152602a60248201527f455243313135353a20696e73756666696369656e742062616c616e636520666f60448201526939103a3930b739b332b960b11b60648201526084016106c7565b6000838152602081815260408083206001600160a01b038e8116855292528083208585039055908b168252812080548492906117299084906130d7565b925050819055505050508061173d906131e5565b9050611602565b50846001600160a01b0316866001600160a01b0316826001600160a01b03167f4a39dc06d4c0dbc64b70af90fd698a233a518aa5d07e595d983b8c0526c8f7fb8787604051611794929190612dea565b60405180910390a46117aa8187878787876122c4565b505050505050565b6117bc828261126c565b6000828152600560205260409020610973908261130f565b6117de82826123cf565b60008281526005602052604090206109739082612470565b6000610da98383612485565b816001600160a01b0316836001600160a01b0316141561188a5760405162461bcd60e51b815260206004820152602960248201527f455243313135353a2073657474696e6720617070726f76616c2073746174757360448201527f20666f722073656c66000000000000000000000000000000000000000000000060648201526084016106c7565b6001600160a01b03838116600081815260016020908152604080832094871680845294825291829020805460ff191686151590811790915591519182527f17307eab39ab6107e8899845ad3d59bd9653f200f220920489ca2b5937696c31910160405180910390a3505050565b60006106f3825490565b6001600160a01b0384166119655760405162461bcd60e51b815260206004820152602560248201527f455243313135353a207472616e7366657220746f20746865207a65726f206164604482015264647265737360d81b60648201526084016106c7565b600061196f611349565b905061198081878761146b88611f72565b6000848152602081815260408083206001600160a01b038a16845290915290205483811015611a045760405162461bcd60e51b815260206004820152602a60248201527f455243313135353a20696e73756666696369656e742062616c616e636520666f60448201526939103a3930b739b332b960b11b60648201526084016106c7565b6000858152602081815260408083206001600160a01b038b8116855292528083208785039055908816825281208054869290611a419084906130d7565b909155505060408051868152602081018690526001600160a01b03808916928a821692918616917fc3d58168c5ae7397731d063d5bbf3d657854427343f4c083240f7aacaa2d0f62910160405180910390a4611aa182888888888861210f565b50505050505050565b6001600160a01b038316611b265760405162461bcd60e51b815260206004820152602360248201527f455243313135353a206275726e2066726f6d20746865207a65726f206164647260448201527f657373000000000000000000000000000000000000000000000000000000000060648201526084016106c7565b6000611b30611349565b9050611b6081856000611b4287611f72565b611b4b87611f72565b60405180602001604052806000815250611fcb565b6000838152602081815260408083206001600160a01b038816845290915290205482811015611bf65760405162461bcd60e51b8152602060048201526024808201527f455243313135353a206275726e20616d6f756e7420657863656564732062616c60448201527f616e63650000000000000000000000000000000000000000000000000000000060648201526084016106c7565b6000848152602081815260408083206001600160a01b03898116808652918452828520888703905582518981529384018890529092908616917fc3d58168c5ae7397731d063d5bbf3d657854427343f4c083240f7aacaa2d0f62910160405180910390a45050505050565b6000818152600183016020526040812054611ca8575081546001818101845560008481526020808220909301849055845484825282860190935260409020919091556106f3565b5060006106f3565b60006001600160e01b031982167f7965db0b0000000000000000000000000000000000000000000000000000000014806106f357506106f3826124bd565b600033301415611d4557600080368080601f0160208091040260200160405190810160405280939291908181526020018383808284376000920191909152505050503601516001600160a01b03169150611d489050565b50335b90565b60606000611d5a8360026130ef565b611d659060026130d7565b67ffffffffffffffff811115611d8b57634e487b7160e01b600052604160045260246000fd5b6040519080825280601f01601f191660200182016040528015611db5576020820181803683370190505b5090507f300000000000000000000000000000000000000000000000000000000000000081600081518110611dfa57634e487b7160e01b600052603260045260246000fd5b60200101906001600160f81b031916908160001a9053507f780000000000000000000000000000000000000000000000000000000000000081600181518110611e5357634e487b7160e01b600052603260045260246000fd5b60200101906001600160f81b031916908160001a9053506000611e778460026130ef565b611e829060016130d7565b90505b6001811115611f23577f303132333435363738396162636465660000000000000000000000000000000085600f1660108110611ed157634e487b7160e01b600052603260045260246000fd5b1a60f81b828281518110611ef557634e487b7160e01b600052603260045260246000fd5b60200101906001600160f81b031916908160001a90535060049490941c93611f1c81613166565b9050611e85565b508315610da95760405162461bcd60e51b815260206004820181905260248201527f537472696e67733a20686578206c656e67746820696e73756666696369656e7460448201526064016106c7565b60408051600180825281830190925260609160009190602080830190803683370190505090508281600081518110611fba57634e487b7160e01b600052603260045260246000fd5b602090810291909101015292915050565b6001600160a01b03851661206e5760005b835181101561206c5782818151811061200557634e487b7160e01b600052603260045260246000fd5b60200260200101516003600086848151811061203157634e487b7160e01b600052603260045260246000fd5b60200260200101518152602001908152602001600020600082825461205691906130d7565b909155506120659050816131e5565b9050611fdc565b505b6001600160a01b0384166117aa5760005b8351811015611aa1578281815181106120a857634e487b7160e01b600052603260045260246000fd5b6020026020010151600360008684815181106120d457634e487b7160e01b600052603260045260246000fd5b6020026020010151815260200190815260200160002060008282546120f9919061310e565b909155506121089050816131e5565b905061207f565b6001600160a01b0384163b156117aa5760405163f23a6e6160e01b81526001600160a01b0385169063f23a6e61906121539089908990889088908890600401612d94565b602060405180830381600087803b15801561216d57600080fd5b505af192505050801561219d575060408051601f3d908101601f1916820190925261219a91810190612b75565b60015b612253576121a9613246565b806308c379a014156121e357506121be61325d565b806121c957506121e5565b8060405162461bcd60e51b81526004016106c79190612e18565b505b60405162461bcd60e51b815260206004820152603460248201527f455243313135353a207472616e7366657220746f206e6f6e204552433131353560448201527f526563656976657220696d706c656d656e74657200000000000000000000000060648201526084016106c7565b6001600160e01b0319811663f23a6e6160e01b14611aa15760405162461bcd60e51b815260206004820152602860248201527f455243313135353a204552433131353552656365697665722072656a656374656044820152676420746f6b656e7360c01b60648201526084016106c7565b6001600160a01b0384163b156117aa5760405163bc197c8160e01b81526001600160a01b0385169063bc197c81906123089089908990889088908890600401612d36565b602060405180830381600087803b15801561232257600080fd5b505af1925050508015612352575060408051601f3d908101601f1916820190925261234f91810190612b75565b60015b61235e576121a9613246565b6001600160e01b0319811663bc197c8160e01b14611aa15760405162461bcd60e51b815260206004820152602860248201527f455243313135353a204552433131353552656365697665722072656a656374656044820152676420746f6b656e7360c01b60648201526084016106c7565b60008281526004602090815260408083206001600160a01b038516845290915290205460ff1615610a105760008281526004602090815260408083206001600160a01b03851684529091529020805460ff1916905561242c611349565b6001600160a01b0316816001600160a01b0316837ff6391f5c32d9c69d2a47ea670b442974b53935d1edc7fd64eb21e047a839171b60405160405180910390a45050565b6000610da9836001600160a01b038416612558565b60008260000182815481106124aa57634e487b7160e01b600052603260045260246000fd5b9060005260206000200154905092915050565b60006001600160e01b031982167fd9b67a2600000000000000000000000000000000000000000000000000000000148061252057506001600160e01b031982167f0e89341c00000000000000000000000000000000000000000000000000000000145b806106f357507f01ffc9a7000000000000000000000000000000000000000000000000000000006001600160e01b03198316146106f3565b6000818152600183016020526040812054801561266b57600061257c60018361310e565b85549091506000906125909060019061310e565b90508181146126115760008660000182815481106125be57634e487b7160e01b600052603260045260246000fd5b90600052602060002001549050808760000184815481106125ef57634e487b7160e01b600052603260045260246000fd5b6000918252602080832090910192909255918252600188019052604090208390555b855486908061263057634e487b7160e01b600052603160045260246000fd5b6001900381819060005260206000200160009055905585600101600086815260200190815260200160002060009055600193505050506106f3565b60009150506106f3565b8280546126819061317d565b90600052602060002090601f0160209004810192826126a357600085556126e9565b82601f106126bc57805160ff19168380011785556126e9565b828001600101855582156126e9579182015b828111156126e95782518255916020019190600101906126ce565b506126f59291506126f9565b5090565b5b808211156126f557600081556001016126fa565b600067ffffffffffffffff83111561272857612728613216565b60405161273f601f8501601f1916602001826131b8565b80915083815284848401111561275457600080fd5b83836020830137600060208583010152509392505050565b80356001600160a01b038116811461278357600080fd5b919050565b600082601f830112612798578081fd5b813560206127a5826130b3565b6040516127b282826131b8565b8381528281019150858301600585901b870184018810156127d1578586fd5b855b858110156127ef578135845292840192908401906001016127d3565b5090979650505050505050565b600082601f83011261280c578081fd5b610da98383356020850161270e565b8035612783816136b9565b8035612783816136c8565b600060208284031215612842578081fd5b610da98261276c565b6000806040838503121561285d578081fd5b6128668361276c565b91506128746020840161276c565b90509250929050565b600080600080600060a08688031215612894578081fd5b61289d8661276c565b94506128ab6020870161276c565b9350604086013567ffffffffffffffff808211156128c7578283fd5b6128d389838a01612788565b945060608801359150808211156128e8578283fd5b6128f489838a01612788565b93506080880135915080821115612909578283fd5b50612916888289016127fc565b9150509295509295909350565b600080600080600060a0868803121561293a578081fd5b6129438661276c565b94506129516020870161276c565b93506040860135925060608601359150608086013567ffffffffffffffff81111561297a578182fd5b612916888289016127fc565b60008060408385031215612998578182fd5b6129a18361276c565b915060208301356129b181613692565b809150509250929050565b600080604083850312156129ce578182fd5b6129d78361276c565b946020939093013593505050565b6000806000606084860312156129f9578081fd5b612a028461276c565b95602085013595506040909401359392505050565b60008060408385031215612a29578182fd5b823567ffffffffffffffff80821115612a40578384fd5b818501915085601f830112612a53578384fd5b81356020612a60826130b3565b604051612a6d82826131b8565b8381528281019150858301600585901b870184018b1015612a8c578889fd5b8896505b84871015612ab557612aa18161276c565b835260019690960195918301918301612a90565b5096505086013592505080821115612acb578283fd5b50612ad885828601612788565b9150509250929050565b600060208284031215612af3578081fd5b8151610da981613692565b600060208284031215612b0f578081fd5b5035919050565b60008060408385031215612b28578182fd5b823591506128746020840161276c565b60008060408385031215612b4a578182fd5b50508035926020909101359150565b600060208284031215612b6a578081fd5b8135610da9816136a3565b600060208284031215612b86578081fd5b8151610da9816136a3565b600060208284031215612ba2578081fd5b813567ffffffffffffffff811115612bb8578182fd5b8201601f81018413612bc8578182fd5b6110a78482356020840161270e565b6000808284036101a0811215612beb578283fd5b83359250610180601f1982011215612c01578182fd5b506020830190509250929050565b60008060408385031215612c21578182fd5b82359150602083013567ffffffffffffffff811115612c3e578182fd5b8301606081860312156129b1578182fd5b6000815180845260208085019450808401835b83811015612c7e57815187529582019590820190600101612c62565b509495945050505050565b60008151808452612ca181602086016020860161313a565b601f01601f19169290920160200192915050565b7f416363657373436f6e74726f6c3a206163636f756e7420000000000000000000815260008351612ced81601785016020880161313a565b7f206973206d697373696e6720726f6c65200000000000000000000000000000006017918401918201528351612d2a81602884016020880161313a565b01602801949350505050565b60006001600160a01b03808816835280871660208401525060a06040830152612d6260a0830186612c4f565b8281036060840152612d748186612c4f565b90508281036080840152612d888185612c89565b98975050505050505050565b60006001600160a01b03808816835280871660208401525084604083015283606083015260a06080830152612dcc60a0830184612c89565b979650505050505050565b602081526000610da96020830184612c4f565b604081526000612dfd6040830185612c4f565b8281036020840152612e0f8185612c4f565b95945050505050565b602081526000610da96020830184612c89565b606081526000612e3e6060830186612c89565b60ff94851660208401529290931660409091015292915050565b6101808101612e7182612e6a85612826565b60ff169052565b612e7d6020840161281b565b612e8c602084018260000b9052565b50612e9960408401612826565b60ff166040830152612ead6060840161281b565b612ebc606084018260000b9052565b50612ec960808401612826565b60ff166080830152612edd60a0840161281b565b612eec60a084018260000b9052565b50612ef960c08401612826565b60ff1660c0830152612f0d60e0840161281b565b612f1c60e084018260000b9052565b50610100612f2b818501612826565b60ff1690830152610120612f4084820161281b565b612f4e8285018260000b9052565b5050610140612f5e818501612826565b60ff1690830152610160612f7384820161281b565b612f818285018260000b9052565b505092915050565b6020815260008235601e19843603018112612fa2578182fd5b8301803567ffffffffffffffff811115612fba578283fd5b803603851315612fc8578283fd5b60606020850152806080850152806020830160a08601378260a08286010152612ff360208601612826565b60ff81166040860152915061300a60408601612826565b60ff811660608601529150601f01601f19169290920160a0019392505050565b60ff8d8116825260008d810b60208401528c821660408401528b810b60608401528a8216608084015289810b60a084015288821660c084015287900b60e08301528516610100820152610180810161308861012083018660000b9052565b60ff84166101408301526130a261016083018460000b9052565b9d9c50505050505050505050505050565b600067ffffffffffffffff8211156130cd576130cd613216565b5060051b60200190565b600082198211156130ea576130ea613200565b500190565b600081600019048311821515161561310957613109613200565b500290565b60008282101561312057613120613200565b500390565b5b81811015610a105760008155600101613126565b60005b8381101561315557818101518382015260200161313d565b838111156108915750506000910152565b60008161317557613175613200565b506000190190565b600181811c9082168061319157607f821691505b602082108114156131b257634e487b7160e01b600052602260045260246000fd5b50919050565b601f8201601f1916810167ffffffffffffffff811182821017156131de576131de613216565b6040525050565b60006000198214156131f9576131f9613200565b5060010190565b634e487b7160e01b600052601160045260246000fd5b634e487b7160e01b600052604160045260246000fd5b600081356106f3816136b9565b600081356106f3816136c8565b600060033d1115611d4857600481823e5160e01c90565b600060443d101561326b5790565b6040516003193d81016004833e81513d67ffffffffffffffff816024840111818411171561329b57505050505090565b82850191508151818111156132b35750505050505090565b843d87010160208285010111156132cd5750505050505090565b6132dc602082860101876131b8565b509095945050505050565b6133046132f383613239565b825460ff191660ff91909116178255565b61332c6133136020840161322c565b825461ff00191660009190910b60081b61ff0016178255565b61335361333b60408401613239565b825462ff0000191660109190911b62ff000016178255565b61337f6133626060840161322c565b825463ff000000191660009190910b60181b63ff00000016178255565b6133aa61338e60808401613239565b825464ff00000000191660209190911b64ff0000000016178255565b6133da6133b960a0840161322c565b825465ff0000000000191660009190910b60281b65ff000000000016178255565b6134096133e960c08401613239565b825466ff000000000000191660309190911b66ff00000000000016178255565b61343d61341860e0840161322c565b825467ff00000000000000191660009190910b60381b67ff0000000000000016178255565b61347161344d6101008401613239565b825468ff0000000000000000191660409190911b68ff000000000000000016178255565b6134aa613481610120840161322c565b825469ff000000000000000000191660009190910b60481b69ff00000000000000000016178255565b6134e26134ba6101408401613239565b82546aff00000000000000000000191660509190911b6aff0000000000000000000016178255565b610a106134f2610160840161322c565b82546bff0000000000000000000000191660009190910b60581b6bff000000000000000000000016178255565b8135601e1983360301811261353357600080fd5b8201803567ffffffffffffffff81111561354c57600080fd5b6020813603818401131561355f57600080fd5b613569845461317d565b600080601f8511601f8411818117156135885760008981526020902092505b80156135b657601f870160051c8301868810156135a25750825b6135b4601f870160051c850182613125565b505b5080600181146135ec576000945086156135d35785848901013594505b600187901b600019600389901b1c198616178955613641565b601f198716945082845b868110156136175789860188013582559487019460019091019087016135f6565b50878610156136365760001960f88960031b161c1987868b0101351681555b5060018760011b0189555b505050505060018401925061366b61365a828701613239565b845460ff191660ff91909116178455565b505061097361367c60408501613239565b825461ff00191660089190911b61ff0016178255565b80151581146136a057600080fd5b50565b6001600160e01b0319811681146136a057600080fd5b8060000b81146136a057600080fd5b60ff811681146136a057600080fdfea2646970667358221220ae6e95d7a7aad5e7413f9fb2d81bf2d38affd2383e1fcd93c402dc6ea4d409ee64736f6c63430008040033",
  "devdoc": {
    "kind": "dev",
    "methods": {
      "balanceOf(address,uint256)": {
        "details": "See {IERC1155-balanceOf}. Requirements: - `account` cannot be the zero address."
      },
      "balanceOfBatch(address[],uint256[])": {
        "details": "See {IERC1155-balanceOfBatch}. Requirements: - `accounts` and `ids` must have the same length."
      },
      "exists(uint256)": {
        "details": "Indicates whether any token exist with a given id, or not."
      },
      "getRoleAdmin(bytes32)": {
        "details": "Returns the admin role that controls `role`. See {grantRole} and {revokeRole}. To change a role's admin, use {_setRoleAdmin}."
      },
      "getRoleMember(bytes32,uint256)": {
        "details": "Returns one of the accounts that have `role`. `index` must be a value between 0 and {getRoleMemberCount}, non-inclusive. Role bearers are not sorted in any particular way, and their ordering may change at any point. WARNING: When using {getRoleMember} and {getRoleMemberCount}, make sure you perform all queries on the same block. See the following https://forum.openzeppelin.com/t/iterating-over-elements-on-enumerableset-in-openzeppelin-contracts/2296[forum post] for more information."
      },
      "getRoleMemberCount(bytes32)": {
        "details": "Returns the number of accounts that have `role`. Can be used together with {getRoleMember} to enumerate all bearers of a role."
      },
      "grantRole(bytes32,address)": {
        "details": "Grants `role` to `account`. If `account` had not been already granted `role`, emits a {RoleGranted} event. Requirements: - the caller must have ``role``'s admin role."
      },
      "hasRole(bytes32,address)": {
        "details": "Returns `true` if `account` has been granted `role`."
      },
      "renounceRole(bytes32,address)": {
        "details": "Revokes `role` from the calling account. Roles are often managed via {grantRole} and {revokeRole}: this function's purpose is to provide a mechanism for accounts to lose their privileges if they are compromised (such as when a trusted device is misplaced). If the calling account had been revoked `role`, emits a {RoleRevoked} event. Requirements: - the caller must be `account`."
      },
      "revokeRole(bytes32,address)": {
        "details": "Revokes `role` from `account`. If `account` had been granted `role`, emits a {RoleRevoked} event. Requirements: - the caller must have ``role``'s admin role."
      },
      "safeBatchTransferFrom(address,address,uint256[],uint256[],bytes)": {
        "details": "See {IERC1155-safeBatchTransferFrom}."
      },
      "safeTransferFrom(address,address,uint256,uint256,bytes)": {
        "details": "See {IERC1155-safeTransferFrom}."
      },
      "setApprovalForAll(address,bool)": {
        "details": "See {IERC1155-setApprovalForAll}."
      },
      "totalSupply(uint256)": {
        "details": "Total amount of tokens in with a given id."
      },
      "uri(uint256)": {
        "details": "See {IERC1155MetadataURI-uri}. This implementation returns the same URI for *all* token types. It relies on the token type ID substitution mechanism https://eips.ethereum.org/EIPS/eip-1155#metadata[defined in the EIP]. Clients calling this function must replace the `\\{id\\}` substring with the actual token type ID."
      }
    },
    "version": 1
  },
  "userdoc": {
    "kind": "user",
    "methods": {
      "isApprovedForAll(address,address)": {
        "notice": "Override isApprovedForAll to whitelist user's OpenSea proxy accounts to enable gas-less listings."
      }
    },
    "version": 1
  },
  "storageLayout": {
    "storage": [
      {
        "astId": 662,
        "contract": "contracts/resources/ResourcesERC1155.sol:ResourcesERC1155",
        "label": "_balances",
        "offset": 0,
        "slot": "0",
        "type": "t_mapping(t_uint256,t_mapping(t_address,t_uint256))"
      },
      {
        "astId": 668,
        "contract": "contracts/resources/ResourcesERC1155.sol:ResourcesERC1155",
        "label": "_operatorApprovals",
        "offset": 0,
        "slot": "1",
        "type": "t_mapping(t_address,t_mapping(t_address,t_bool))"
      },
      {
        "astId": 670,
        "contract": "contracts/resources/ResourcesERC1155.sol:ResourcesERC1155",
        "label": "_uri",
        "offset": 0,
        "slot": "2",
        "type": "t_string_storage"
      },
      {
        "astId": 1905,
        "contract": "contracts/resources/ResourcesERC1155.sol:ResourcesERC1155",
        "label": "_totalSupply",
        "offset": 0,
        "slot": "3",
        "type": "t_mapping(t_uint256,t_uint256)"
      },
      {
        "astId": 24,
        "contract": "contracts/resources/ResourcesERC1155.sol:ResourcesERC1155",
        "label": "_roles",
        "offset": 0,
        "slot": "4",
        "type": "t_mapping(t_bytes32,t_struct(RoleData)19_storage)"
      },
      {
        "astId": 327,
        "contract": "contracts/resources/ResourcesERC1155.sol:ResourcesERC1155",
        "label": "_roleMembers",
        "offset": 0,
        "slot": "5",
        "type": "t_mapping(t_bytes32,t_struct(AddressSet)5717_storage)"
      },
      {
        "astId": 7287,
        "contract": "contracts/resources/ResourcesERC1155.sol:ResourcesERC1155",
        "label": "proxyRegistryAddress",
        "offset": 0,
        "slot": "6",
        "type": "t_address"
      },
      {
        "astId": 8022,
        "contract": "contracts/resources/ResourcesERC1155.sol:ResourcesERC1155",
        "label": "metadata",
        "offset": 0,
        "slot": "7",
        "type": "t_mapping(t_uint256,t_struct(Metadata)7978_storage)"
      },
      {
        "astId": 8027,
        "contract": "contracts/resources/ResourcesERC1155.sol:ResourcesERC1155",
        "label": "attributes",
        "offset": 0,
        "slot": "8",
        "type": "t_mapping(t_uint256,t_struct(Attributes)8003_storage)"
      },
      {
        "astId": 8031,
        "contract": "contracts/resources/ResourcesERC1155.sol:ResourcesERC1155",
        "label": "_registered",
        "offset": 0,
        "slot": "9",
        "type": "t_mapping(t_uint256,t_bool)"
      },
      {
        "astId": 8033,
        "contract": "contracts/resources/ResourcesERC1155.sol:ResourcesERC1155",
        "label": "__contractURI",
        "offset": 0,
        "slot": "10",
        "type": "t_string_storage"
      }
    ],
    "types": {
      "t_address": {
        "encoding": "inplace",
        "label": "address",
        "numberOfBytes": "20"
      },
      "t_array(t_bytes32)dyn_storage": {
        "base": "t_bytes32",
        "encoding": "dynamic_array",
        "label": "bytes32[]",
        "numberOfBytes": "32"
      },
      "t_bool": {
        "encoding": "inplace",
        "label": "bool",
        "numberOfBytes": "1"
      },
      "t_bytes32": {
        "encoding": "inplace",
        "label": "bytes32",
        "numberOfBytes": "32"
      },
      "t_int8": {
        "encoding": "inplace",
        "label": "int8",
        "numberOfBytes": "1"
      },
      "t_mapping(t_address,t_bool)": {
        "encoding": "mapping",
        "key": "t_address",
        "label": "mapping(address => bool)",
        "numberOfBytes": "32",
        "value": "t_bool"
      },
      "t_mapping(t_address,t_mapping(t_address,t_bool))": {
        "encoding": "mapping",
        "key": "t_address",
        "label": "mapping(address => mapping(address => bool))",
        "numberOfBytes": "32",
        "value": "t_mapping(t_address,t_bool)"
      },
      "t_mapping(t_address,t_uint256)": {
        "encoding": "mapping",
        "key": "t_address",
        "label": "mapping(address => uint256)",
        "numberOfBytes": "32",
        "value": "t_uint256"
      },
      "t_mapping(t_bytes32,t_struct(AddressSet)5717_storage)": {
        "encoding": "mapping",
        "key": "t_bytes32",
        "label": "mapping(bytes32 => struct EnumerableSet.AddressSet)",
        "numberOfBytes": "32",
        "value": "t_struct(AddressSet)5717_storage"
      },
      "t_mapping(t_bytes32,t_struct(RoleData)19_storage)": {
        "encoding": "mapping",
        "key": "t_bytes32",
        "label": "mapping(bytes32 => struct AccessControl.RoleData)",
        "numberOfBytes": "32",
        "value": "t_struct(RoleData)19_storage"
      },
      "t_mapping(t_bytes32,t_uint256)": {
        "encoding": "mapping",
        "key": "t_bytes32",
        "label": "mapping(bytes32 => uint256)",
        "numberOfBytes": "32",
        "value": "t_uint256"
      },
      "t_mapping(t_uint256,t_bool)": {
        "encoding": "mapping",
        "key": "t_uint256",
        "label": "mapping(uint256 => bool)",
        "numberOfBytes": "32",
        "value": "t_bool"
      },
      "t_mapping(t_uint256,t_mapping(t_address,t_uint256))": {
        "encoding": "mapping",
        "key": "t_uint256",
        "label": "mapping(uint256 => mapping(address => uint256))",
        "numberOfBytes": "32",
        "value": "t_mapping(t_address,t_uint256)"
      },
      "t_mapping(t_uint256,t_struct(Attributes)8003_storage)": {
        "encoding": "mapping",
        "key": "t_uint256",
        "label": "mapping(uint256 => struct ResourcesERC1155.Attributes)",
        "numberOfBytes": "32",
        "value": "t_struct(Attributes)8003_storage"
      },
      "t_mapping(t_uint256,t_struct(Metadata)7978_storage)": {
        "encoding": "mapping",
        "key": "t_uint256",
        "label": "mapping(uint256 => struct ResourcesERC1155.Metadata)",
        "numberOfBytes": "32",
        "value": "t_struct(Metadata)7978_storage"
      },
      "t_mapping(t_uint256,t_uint256)": {
        "encoding": "mapping",
        "key": "t_uint256",
        "label": "mapping(uint256 => uint256)",
        "numberOfBytes": "32",
        "value": "t_uint256"
      },
      "t_string_storage": {
        "encoding": "bytes",
        "label": "string",
        "numberOfBytes": "32"
      },
      "t_struct(AddressSet)5717_storage": {
        "encoding": "inplace",
        "label": "struct EnumerableSet.AddressSet",
        "members": [
          {
            "astId": 5716,
            "contract": "contracts/resources/ResourcesERC1155.sol:ResourcesERC1155",
            "label": "_inner",
            "offset": 0,
            "slot": "0",
            "type": "t_struct(Set)5416_storage"
          }
        ],
        "numberOfBytes": "64"
      },
      "t_struct(Attributes)8003_storage": {
        "encoding": "inplace",
        "label": "struct ResourcesERC1155.Attributes",
        "members": [
          {
            "astId": 7980,
            "contract": "contracts/resources/ResourcesERC1155.sol:ResourcesERC1155",
            "label": "attr1",
            "offset": 0,
            "slot": "0",
            "type": "t_uint8"
          },
          {
            "astId": 7982,
            "contract": "contracts/resources/ResourcesERC1155.sol:ResourcesERC1155",
            "label": "value1",
            "offset": 1,
            "slot": "0",
            "type": "t_int8"
          },
          {
            "astId": 7984,
            "contract": "contracts/resources/ResourcesERC1155.sol:ResourcesERC1155",
            "label": "attr2",
            "offset": 2,
            "slot": "0",
            "type": "t_uint8"
          },
          {
            "astId": 7986,
            "contract": "contracts/resources/ResourcesERC1155.sol:ResourcesERC1155",
            "label": "value2",
            "offset": 3,
            "slot": "0",
            "type": "t_int8"
          },
          {
            "astId": 7988,
            "contract": "contracts/resources/ResourcesERC1155.sol:ResourcesERC1155",
            "label": "attr3",
            "offset": 4,
            "slot": "0",
            "type": "t_uint8"
          },
          {
            "astId": 7990,
            "contract": "contracts/resources/ResourcesERC1155.sol:ResourcesERC1155",
            "label": "value3",
            "offset": 5,
            "slot": "0",
            "type": "t_int8"
          },
          {
            "astId": 7992,
            "contract": "contracts/resources/ResourcesERC1155.sol:ResourcesERC1155",
            "label": "attr4",
            "offset": 6,
            "slot": "0",
            "type": "t_uint8"
          },
          {
            "astId": 7994,
            "contract": "contracts/resources/ResourcesERC1155.sol:ResourcesERC1155",
            "label": "value4",
            "offset": 7,
            "slot": "0",
            "type": "t_int8"
          },
          {
            "astId": 7996,
            "contract": "contracts/resources/ResourcesERC1155.sol:ResourcesERC1155",
            "label": "attr5",
            "offset": 8,
            "slot": "0",
            "type": "t_uint8"
          },
          {
            "astId": 7998,
            "contract": "contracts/resources/ResourcesERC1155.sol:ResourcesERC1155",
            "label": "value5",
            "offset": 9,
            "slot": "0",
            "type": "t_int8"
          },
          {
            "astId": 8000,
            "contract": "contracts/resources/ResourcesERC1155.sol:ResourcesERC1155",
            "label": "attr6",
            "offset": 10,
            "slot": "0",
            "type": "t_uint8"
          },
          {
            "astId": 8002,
            "contract": "contracts/resources/ResourcesERC1155.sol:ResourcesERC1155",
            "label": "value6",
            "offset": 11,
            "slot": "0",
            "type": "t_int8"
          }
        ],
        "numberOfBytes": "32"
      },
      "t_struct(Metadata)7978_storage": {
        "encoding": "inplace",
        "label": "struct ResourcesERC1155.Metadata",
        "members": [
          {
            "astId": 7973,
            "contract": "contracts/resources/ResourcesERC1155.sol:ResourcesERC1155",
            "label": "name",
            "offset": 0,
            "slot": "0",
            "type": "t_string_storage"
          },
          {
            "astId": 7975,
            "contract": "contracts/resources/ResourcesERC1155.sol:ResourcesERC1155",
            "label": "typeId",
            "offset": 0,
            "slot": "1",
            "type": "t_uint8"
          },
          {
            "astId": 7977,
            "contract": "contracts/resources/ResourcesERC1155.sol:ResourcesERC1155",
            "label": "subtypeId",
            "offset": 1,
            "slot": "1",
            "type": "t_uint8"
          }
        ],
        "numberOfBytes": "64"
      },
      "t_struct(RoleData)19_storage": {
        "encoding": "inplace",
        "label": "struct AccessControl.RoleData",
        "members": [
          {
            "astId": 16,
            "contract": "contracts/resources/ResourcesERC1155.sol:ResourcesERC1155",
            "label": "members",
            "offset": 0,
            "slot": "0",
            "type": "t_mapping(t_address,t_bool)"
          },
          {
            "astId": 18,
            "contract": "contracts/resources/ResourcesERC1155.sol:ResourcesERC1155",
            "label": "adminRole",
            "offset": 0,
            "slot": "1",
            "type": "t_bytes32"
          }
        ],
        "numberOfBytes": "64"
      },
      "t_struct(Set)5416_storage": {
        "encoding": "inplace",
        "label": "struct EnumerableSet.Set",
        "members": [
          {
            "astId": 5411,
            "contract": "contracts/resources/ResourcesERC1155.sol:ResourcesERC1155",
            "label": "_values",
            "offset": 0,
            "slot": "0",
            "type": "t_array(t_bytes32)dyn_storage"
          },
          {
            "astId": 5415,
            "contract": "contracts/resources/ResourcesERC1155.sol:ResourcesERC1155",
            "label": "_indexes",
            "offset": 0,
            "slot": "1",
            "type": "t_mapping(t_bytes32,t_uint256)"
          }
        ],
        "numberOfBytes": "64"
      },
      "t_uint256": {
        "encoding": "inplace",
        "label": "uint256",
        "numberOfBytes": "32"
      },
      "t_uint8": {
        "encoding": "inplace",
        "label": "uint8",
        "numberOfBytes": "1"
      }
    }
  }
}