{
  "address": "0x06717cf64084c1a39237894022B2f4a06B6C63B8",
  "abi": [
    {
      "inputs": [
        {
          "internalType": "string",
          "name": "_uri",
          "type": "string"
        },
        {
          "internalType": "string",
          "name": "_initContractURI",
          "type": "string"
        }
      ],
      "stateMutability": "nonpayable",
      "type": "constructor"
    },
    {
      "anonymous": false,
      "inputs": [
        {
          "indexed": true,
          "internalType": "address",
          "name": "account",
          "type": "address"
        },
        {
          "indexed": true,
          "internalType": "address",
          "name": "operator",
          "type": "address"
        },
        {
          "indexed": false,
          "internalType": "bool",
          "name": "approved",
          "type": "bool"
        }
      ],
      "name": "ApprovalForAll",
      "type": "event"
    },
    {
      "anonymous": false,
      "inputs": [
        {
          "indexed": true,
          "internalType": "address",
          "name": "_newAddress",
          "type": "address"
        }
      ],
      "name": "ProxyRegistryAddressChanged",
      "type": "event"
    },
    {
      "anonymous": false,
      "inputs": [
        {
          "indexed": false,
          "internalType": "uint256",
          "name": "_id",
          "type": "uint256"
        },
        {
          "components": [
            {
              "internalType": "string",
              "name": "name",
              "type": "string"
            },
            {
              "internalType": "uint8",
              "name": "itemType",
              "type": "uint8"
            }
          ],
          "indexed": false,
          "internalType": "struct ResourcesERC1155.Metadata",
          "name": "_metadata",
          "type": "tuple"
        }
      ],
      "name": "ResourceRegistered",
      "type": "event"
    },
    {
      "anonymous": false,
      "inputs": [
        {
          "indexed": true,
          "internalType": "bytes32",
          "name": "role",
          "type": "bytes32"
        },
        {
          "indexed": true,
          "internalType": "bytes32",
          "name": "previousAdminRole",
          "type": "bytes32"
        },
        {
          "indexed": true,
          "internalType": "bytes32",
          "name": "newAdminRole",
          "type": "bytes32"
        }
      ],
      "name": "RoleAdminChanged",
      "type": "event"
    },
    {
      "anonymous": false,
      "inputs": [
        {
          "indexed": true,
          "internalType": "bytes32",
          "name": "role",
          "type": "bytes32"
        },
        {
          "indexed": true,
          "internalType": "address",
          "name": "account",
          "type": "address"
        },
        {
          "indexed": true,
          "internalType": "address",
          "name": "sender",
          "type": "address"
        }
      ],
      "name": "RoleGranted",
      "type": "event"
    },
    {
      "anonymous": false,
      "inputs": [
        {
          "indexed": true,
          "internalType": "bytes32",
          "name": "role",
          "type": "bytes32"
        },
        {
          "indexed": true,
          "internalType": "address",
          "name": "account",
          "type": "address"
        },
        {
          "indexed": true,
          "internalType": "address",
          "name": "sender",
          "type": "address"
        }
      ],
      "name": "RoleRevoked",
      "type": "event"
    },
    {
      "anonymous": false,
      "inputs": [
        {
          "indexed": true,
          "internalType": "address",
          "name": "operator",
          "type": "address"
        },
        {
          "indexed": true,
          "internalType": "address",
          "name": "from",
          "type": "address"
        },
        {
          "indexed": true,
          "internalType": "address",
          "name": "to",
          "type": "address"
        },
        {
          "indexed": false,
          "internalType": "uint256[]",
          "name": "ids",
          "type": "uint256[]"
        },
        {
          "indexed": false,
          "internalType": "uint256[]",
          "name": "values",
          "type": "uint256[]"
        }
      ],
      "name": "TransferBatch",
      "type": "event"
    },
    {
      "anonymous": false,
      "inputs": [
        {
          "indexed": true,
          "internalType": "address",
          "name": "operator",
          "type": "address"
        },
        {
          "indexed": true,
          "internalType": "address",
          "name": "from",
          "type": "address"
        },
        {
          "indexed": true,
          "internalType": "address",
          "name": "to",
          "type": "address"
        },
        {
          "indexed": false,
          "internalType": "uint256",
          "name": "id",
          "type": "uint256"
        },
        {
          "indexed": false,
          "internalType": "uint256",
          "name": "value",
          "type": "uint256"
        }
      ],
      "name": "TransferSingle",
      "type": "event"
    },
    {
      "anonymous": false,
      "inputs": [
        {
          "indexed": false,
          "internalType": "string",
          "name": "value",
          "type": "string"
        },
        {
          "indexed": true,
          "internalType": "uint256",
          "name": "id",
          "type": "uint256"
        }
      ],
      "name": "URI",
      "type": "event"
    },
    {
      "inputs": [],
      "name": "BURNER_ROLE",
      "outputs": [
        {
          "internalType": "bytes32",
          "name": "",
          "type": "bytes32"
        }
      ],
      "stateMutability": "view",
      "type": "function"
    },
    {
      "inputs": [],
      "name": "CREATOR_ROLE",
      "outputs": [
        {
          "internalType": "bytes32",
          "name": "",
          "type": "bytes32"
        }
      ],
      "stateMutability": "view",
      "type": "function"
    },
    {
      "inputs": [],
      "name": "DEFAULT_ADMIN_ROLE",
      "outputs": [
        {
          "internalType": "bytes32",
          "name": "",
          "type": "bytes32"
        }
      ],
      "stateMutability": "view",
      "type": "function"
    },
    {
      "inputs": [],
      "name": "MINTER_ROLE",
      "outputs": [
        {
          "internalType": "bytes32",
          "name": "",
          "type": "bytes32"
        }
      ],
      "stateMutability": "view",
      "type": "function"
    },
    {
      "inputs": [
        {
          "internalType": "address",
          "name": "account",
          "type": "address"
        },
        {
          "internalType": "uint256",
          "name": "id",
          "type": "uint256"
        }
      ],
      "name": "balanceOf",
      "outputs": [
        {
          "internalType": "uint256",
          "name": "",
          "type": "uint256"
        }
      ],
      "stateMutability": "view",
      "type": "function"
    },
    {
      "inputs": [
        {
          "internalType": "address[]",
          "name": "accounts",
          "type": "address[]"
        },
        {
          "internalType": "uint256[]",
          "name": "ids",
          "type": "uint256[]"
        }
      ],
      "name": "balanceOfBatch",
      "outputs": [
        {
          "internalType": "uint256[]",
          "name": "",
          "type": "uint256[]"
        }
      ],
      "stateMutability": "view",
      "type": "function"
    },
    {
      "inputs": [
        {
          "internalType": "address",
          "name": "account",
          "type": "address"
        },
        {
          "internalType": "uint256",
          "name": "id",
          "type": "uint256"
        },
        {
          "internalType": "uint256",
          "name": "value",
          "type": "uint256"
        }
      ],
      "name": "burn",
      "outputs": [],
      "stateMutability": "nonpayable",
      "type": "function"
    },
    {
      "inputs": [],
      "name": "contractURI",
      "outputs": [
        {
          "internalType": "string",
          "name": "",
          "type": "string"
        }
      ],
      "stateMutability": "view",
      "type": "function"
    },
    {
      "inputs": [
        {
          "components": [
            {
              "internalType": "string",
              "name": "name",
              "type": "string"
            },
            {
              "internalType": "uint8",
              "name": "itemType",
              "type": "uint8"
            }
          ],
          "internalType": "struct ResourcesERC1155.Metadata",
          "name": "_metadata",
          "type": "tuple"
        }
      ],
      "name": "create",
      "outputs": [
        {
          "internalType": "uint256",
          "name": "",
          "type": "uint256"
        }
      ],
      "stateMutability": "nonpayable",
      "type": "function"
    },
    {
      "inputs": [
        {
          "internalType": "uint256",
          "name": "id",
          "type": "uint256"
        }
      ],
      "name": "exists",
      "outputs": [
        {
          "internalType": "bool",
          "name": "",
          "type": "bool"
        }
      ],
      "stateMutability": "view",
      "type": "function"
    },
    {
      "inputs": [
        {
          "internalType": "bytes32",
          "name": "role",
          "type": "bytes32"
        }
      ],
      "name": "getRoleAdmin",
      "outputs": [
        {
          "internalType": "bytes32",
          "name": "",
          "type": "bytes32"
        }
      ],
      "stateMutability": "view",
      "type": "function"
    },
    {
      "inputs": [
        {
          "internalType": "bytes32",
          "name": "role",
          "type": "bytes32"
        },
        {
          "internalType": "uint256",
          "name": "index",
          "type": "uint256"
        }
      ],
      "name": "getRoleMember",
      "outputs": [
        {
          "internalType": "address",
          "name": "",
          "type": "address"
        }
      ],
      "stateMutability": "view",
      "type": "function"
    },
    {
      "inputs": [
        {
          "internalType": "bytes32",
          "name": "role",
          "type": "bytes32"
        }
      ],
      "name": "getRoleMemberCount",
      "outputs": [
        {
          "internalType": "uint256",
          "name": "",
          "type": "uint256"
        }
      ],
      "stateMutability": "view",
      "type": "function"
    },
    {
      "inputs": [
        {
          "internalType": "bytes32",
          "name": "role",
          "type": "bytes32"
        },
        {
          "internalType": "address",
          "name": "account",
          "type": "address"
        }
      ],
      "name": "grantRole",
      "outputs": [],
      "stateMutability": "nonpayable",
      "type": "function"
    },
    {
      "inputs": [
        {
          "internalType": "bytes32",
          "name": "role",
          "type": "bytes32"
        },
        {
          "internalType": "address",
          "name": "account",
          "type": "address"
        }
      ],
      "name": "hasRole",
      "outputs": [
        {
          "internalType": "bool",
          "name": "",
          "type": "bool"
        }
      ],
      "stateMutability": "view",
      "type": "function"
    },
    {
      "inputs": [
        {
          "internalType": "address",
          "name": "_owner",
          "type": "address"
        },
        {
          "internalType": "address",
          "name": "_operator",
          "type": "address"
        }
      ],
      "name": "isApprovedForAll",
      "outputs": [
        {
          "internalType": "bool",
          "name": "",
          "type": "bool"
        }
      ],
      "stateMutability": "view",
      "type": "function"
    },
    {
      "inputs": [
        {
          "internalType": "uint256",
          "name": "",
          "type": "uint256"
        }
      ],
      "name": "items",
      "outputs": [
        {
          "internalType": "string",
          "name": "name",
          "type": "string"
        },
        {
          "internalType": "uint8",
          "name": "itemType",
          "type": "uint8"
        }
      ],
      "stateMutability": "view",
      "type": "function"
    },
    {
      "inputs": [
        {
          "internalType": "address",
          "name": "to",
          "type": "address"
        },
        {
          "internalType": "uint256",
          "name": "id",
          "type": "uint256"
        },
        {
          "internalType": "uint256",
          "name": "amount",
          "type": "uint256"
        }
      ],
      "name": "mint",
      "outputs": [],
      "stateMutability": "nonpayable",
      "type": "function"
    },
    {
      "inputs": [],
      "name": "owner",
      "outputs": [
        {
          "internalType": "address",
          "name": "",
          "type": "address"
        }
      ],
      "stateMutability": "view",
      "type": "function"
    },
    {
      "inputs": [],
      "name": "proxyRegistryAddress",
      "outputs": [
        {
          "internalType": "address",
          "name": "",
          "type": "address"
        }
      ],
      "stateMutability": "view",
      "type": "function"
    },
    {
      "inputs": [
        {
          "internalType": "uint256",
          "name": "",
          "type": "uint256"
        }
      ],
      "name": "registeredItems",
      "outputs": [
        {
          "internalType": "bool",
          "name": "",
          "type": "bool"
        }
      ],
      "stateMutability": "view",
      "type": "function"
    },
    {
      "inputs": [
        {
          "internalType": "bytes32",
          "name": "role",
          "type": "bytes32"
        },
        {
          "internalType": "address",
          "name": "account",
          "type": "address"
        }
      ],
      "name": "renounceRole",
      "outputs": [],
      "stateMutability": "nonpayable",
      "type": "function"
    },
    {
      "inputs": [
        {
          "internalType": "bytes32",
          "name": "role",
          "type": "bytes32"
        },
        {
          "internalType": "address",
          "name": "account",
          "type": "address"
        }
      ],
      "name": "revokeRole",
      "outputs": [],
      "stateMutability": "nonpayable",
      "type": "function"
    },
    {
      "inputs": [
        {
          "internalType": "address",
          "name": "from",
          "type": "address"
        },
        {
          "internalType": "address",
          "name": "to",
          "type": "address"
        },
        {
          "internalType": "uint256[]",
          "name": "ids",
          "type": "uint256[]"
        },
        {
          "internalType": "uint256[]",
          "name": "amounts",
          "type": "uint256[]"
        },
        {
          "internalType": "bytes",
          "name": "data",
          "type": "bytes"
        }
      ],
      "name": "safeBatchTransferFrom",
      "outputs": [],
      "stateMutability": "nonpayable",
      "type": "function"
    },
    {
      "inputs": [
        {
          "internalType": "address",
          "name": "from",
          "type": "address"
        },
        {
          "internalType": "address",
          "name": "to",
          "type": "address"
        },
        {
          "internalType": "uint256",
          "name": "id",
          "type": "uint256"
        },
        {
          "internalType": "uint256",
          "name": "amount",
          "type": "uint256"
        },
        {
          "internalType": "bytes",
          "name": "data",
          "type": "bytes"
        }
      ],
      "name": "safeTransferFrom",
      "outputs": [],
      "stateMutability": "nonpayable",
      "type": "function"
    },
    {
      "inputs": [
        {
          "internalType": "address",
          "name": "operator",
          "type": "address"
        },
        {
          "internalType": "bool",
          "name": "approved",
          "type": "bool"
        }
      ],
      "name": "setApprovalForAll",
      "outputs": [],
      "stateMutability": "nonpayable",
      "type": "function"
    },
    {
      "inputs": [
        {
          "internalType": "string",
          "name": "uri",
          "type": "string"
        }
      ],
      "name": "setContractURI",
      "outputs": [],
      "stateMutability": "nonpayable",
      "type": "function"
    },
    {
      "inputs": [
        {
          "internalType": "address",
          "name": "_proxyRegistryAddress",
          "type": "address"
        }
      ],
      "name": "setProxyRegistryAddress",
      "outputs": [],
      "stateMutability": "nonpayable",
      "type": "function"
    },
    {
      "inputs": [
        {
          "internalType": "bytes4",
          "name": "interfaceId",
          "type": "bytes4"
        }
      ],
      "name": "supportsInterface",
      "outputs": [
        {
          "internalType": "bool",
          "name": "",
          "type": "bool"
        }
      ],
      "stateMutability": "view",
      "type": "function"
    },
    {
      "inputs": [],
      "name": "tokenCount",
      "outputs": [
        {
          "internalType": "uint256",
          "name": "",
          "type": "uint256"
        }
      ],
      "stateMutability": "view",
      "type": "function"
    },
    {
      "inputs": [
        {
          "internalType": "uint256",
          "name": "id",
          "type": "uint256"
        }
      ],
      "name": "totalSupply",
      "outputs": [
        {
          "internalType": "uint256",
          "name": "",
          "type": "uint256"
        }
      ],
      "stateMutability": "view",
      "type": "function"
    },
    {
      "inputs": [
        {
          "internalType": "uint256",
          "name": "",
          "type": "uint256"
        }
      ],
      "name": "uri",
      "outputs": [
        {
          "internalType": "string",
          "name": "",
          "type": "string"
        }
      ],
      "stateMutability": "view",
      "type": "function"
    }
  ],
  "transactionHash": "0xe28d88287ab476a2b4a4410a964ff776c1190f543c662bf3dbfcb0c214f4cbbd",
  "args": [
    "https://www.winzeland.com/meta/resources/{id}",
    "https://www.winzeland.com/meta/contract/resources"
  ],
  "numDeployments": 2,
  "solcInputHash": "f61d03dc60716bb47107185a445af2bd",
  "bytecode": "0x60806040523480156200001157600080fd5b50604051620033d8380380620033d88339810160408190526200003491620003c0565b8180620000418162000077565b506200005860006200005262000090565b620000a1565b5080516200006e90600a90602084019062000267565b5050506200047a565b80516200008c90600290602084019062000267565b5050565b60006200009c620000ad565b905090565b6200008c82826200010c565b6000333014156200010657600080368080601f0160208091040260200160405190810160405280939291908181526020018383808284376000920191909152505050503601516001600160a01b03169150620001099050565b50335b90565b6200012382826200014f60201b62000f4e1760201c565b60008281526005602090815260409091206200014a91839062000ff1620001f5821b17901c565b505050565b60008281526004602090815260408083206001600160a01b038516845290915290205460ff166200008c5760008281526004602090815260408083206001600160a01b03851684529091529020805460ff19166001179055620001b162000090565b6001600160a01b0316816001600160a01b0316837f2f8788117e7eff1d82e926ec794901d17c78024a50270940304540a733656f0d60405160405180910390a45050565b60006200020c836001600160a01b03841662000215565b90505b92915050565b60008181526001830160205260408120546200025e575081546001818101845560008481526020808220909301849055845484825282860190935260409020919091556200020f565b5060006200020f565b828054620002759062000427565b90600052602060002090601f016020900481019282620002995760008555620002e4565b82601f10620002b457805160ff1916838001178555620002e4565b82800160010185558215620002e4579182015b82811115620002e4578251825591602001919060010190620002c7565b50620002f2929150620002f6565b5090565b5b80821115620002f25760008155600101620002f7565b600082601f8301126200031e578081fd5b81516001600160401b03808211156200033b576200033b62000464565b604051601f8301601f19908116603f0116810190828211818310171562000366576200036662000464565b8160405283815260209250868385880101111562000382578485fd5b8491505b83821015620003a5578582018301518183018401529082019062000386565b83821115620003b657848385830101525b9695505050505050565b60008060408385031215620003d3578182fd5b82516001600160401b0380821115620003ea578384fd5b620003f8868387016200030d565b935060208501519150808211156200040e578283fd5b506200041d858286016200030d565b9150509250929050565b600181811c908216806200043c57607f821691505b602082108114156200045e57634e487b7160e01b600052602260045260246000fd5b50919050565b634e487b7160e01b600052604160045260246000fd5b612f4e806200048a6000396000f3fe608060405234801561001057600080fd5b50600436106101ef5760003560e01c8063938e3d7b1161010f578063cd7c0326116100a2578063e8a3d48511610071578063e8a3d485146104eb578063e985e9c5146104f3578063f242432a14610506578063f5298aca1461051957600080fd5b8063cd7c03261461048b578063d26ea6c01461049e578063d5391393146104b1578063d547741f146104d857600080fd5b8063a22cb465116100de578063a22cb46514610424578063bd85b03914610437578063bfb231d214610457578063ca15c8731461047857600080fd5b8063938e3d7b146103ed57806394b1f8e9146104005780639f181b5e14610413578063a217fddf1461041c57600080fd5b806336568abe116101875780638aeda25a116101565780638aeda25a1461035a5780638da5cb5b146103815780639010d07c146103a157806391d14854146103b457600080fd5b806336568abe146102e257806348d9b402146102f55780634e1273f4146103185780634f558e791461033857600080fd5b8063248a9ca3116101c3578063248a9ca314610272578063282c51f3146102955780632eb2c2d6146102bc5780632f2ff15d146102cf57600080fd5b8062fdd58e146101f457806301ffc9a71461021a5780630e89341c1461023d578063156e29f61461025d575b600080fd5b610207610202366004612693565b61052c565b6040519081526020015b60405180910390f35b61022d610228366004612830565b6105d8565b6040519015158152602001610211565b61025061024b3660046127d5565b610631565b6040516102119190612aaf565b61027061026b3660046126bc565b6106c5565b005b6102076102803660046127d5565b60009081526004602052604090206001015490565b6102077f3c11d16cbaffd01df69ce1c404f6340ee057498f5f00246190ea54220576a84881565b6102706102ca366004612554565b610776565b6102706102dd3660046127ed565b61082a565b6102706102f03660046127ed565b610857565b61022d6103033660046127d5565b60096020526000908152604090205460ff1681565b61032b6103263660046126ee565b6108f3565b6040516102119190612a6e565b61022d6103463660046127d5565b600090815260036020526040902054151590565b6102077f828634d95e775031b9ff576b159a8509d3053581a8c9c4d7d86899e0afcd882f81565b610389610a69565b6040516001600160a01b039091168152602001610211565b6103896103af36600461280f565b610a7a565b61022d6103c23660046127ed565b60009182526004602090815260408084206001600160a01b0393909316845291905290205460ff1690565b6102706103fb366004612868565b610a99565b61020761040e3660046128ae565b610aba565b61020760075481565b610207600081565b61027061043236600461265d565b610b94565b6102076104453660046127d5565b60009081526003602052604090205490565b61046a6104653660046127d5565b610ba6565b604051610211929190612ac2565b6102076104863660046127d5565b610c4d565b600654610389906001600160a01b031681565b6102706104ac366004612508565b610c64565b6102077f9f2df0fed2c77648de5860a4cc508cd0818c85b8b8a1ab4ceeef8d981c8956a681565b6102706104e63660046127ed565b610cd5565b610250610cfd565b61022d610501366004612522565b610d8f565b6102706105143660046125fa565b610e69565b6102706105273660046126bc565b610f16565b60006001600160a01b0383166105af5760405162461bcd60e51b815260206004820152602b60248201527f455243313135353a2062616c616e636520717565727920666f7220746865207a60448201527f65726f206164647265737300000000000000000000000000000000000000000060648201526084015b60405180910390fd5b506000818152602081815260408083206001600160a01b03861684529091529020545b92915050565b60006001600160e01b031982167ff2d03e4000000000000000000000000000000000000000000000000000000000148061062257506001600160e01b03198216635a05180f60e01b145b806105d257506105d282611006565b60606002805461064090612c41565b80601f016020809104026020016040519081016040528092919081815260200182805461066c90612c41565b80156106b95780601f1061068e576101008083540402835291602001916106b9565b820191906000526020600020905b81548152906001019060200180831161069c57829003601f168201915b50505050509050919050565b7f9f2df0fed2c77648de5860a4cc508cd0818c85b8b8a1ab4ceeef8d981c8956a66106f7816106f261102b565b611035565b60008381526009602052604090205460ff166107555760405162461bcd60e51b815260206004820152601b60248201527f7265736f75726365206973206e6f7420726567697374657265642e000000000060448201526064016105a6565b610770848484604051806020016040528060008152506110b5565b50505050565b61077e61102b565b6001600160a01b0316856001600160a01b031614806107a457506107a48561050161102b565b6108165760405162461bcd60e51b815260206004820152603260248201527f455243313135353a207472616e736665722063616c6c6572206973206e6f742060448201527f6f776e6572206e6f7220617070726f766564000000000000000000000000000060648201526084016105a6565b61082385858585856111ec565b5050505050565b600082815260046020526040902060010154610848816106f261102b565b6108528383611494565b505050565b61085f61102b565b6001600160a01b0316816001600160a01b0316146108e55760405162461bcd60e51b815260206004820152602f60248201527f416363657373436f6e74726f6c3a2063616e206f6e6c792072656e6f756e636560448201527f20726f6c657320666f722073656c66000000000000000000000000000000000060648201526084016105a6565b6108ef82826114b6565b5050565b6060815183511461096c5760405162461bcd60e51b815260206004820152602960248201527f455243313135353a206163636f756e747320616e6420696473206c656e67746860448201527f206d69736d61746368000000000000000000000000000000000000000000000060648201526084016105a6565b6000835167ffffffffffffffff81111561099657634e487b7160e01b600052604160045260246000fd5b6040519080825280602002602001820160405280156109bf578160200160208202803683370190505b50905060005b8451811015610a6157610a268582815181106109f157634e487b7160e01b600052603260045260246000fd5b6020026020010151858381518110610a1957634e487b7160e01b600052603260045260246000fd5b602002602001015161052c565b828281518110610a4657634e487b7160e01b600052603260045260246000fd5b6020908102919091010152610a5a81612ca3565b90506109c5565b509392505050565b6000610a758180610a7a565b905090565b6000828152600560205260408120610a9290836114d8565b9392505050565b6000610aa7816106f261102b565b815161085290600a906020850190612357565b60007f828634d95e775031b9ff576b159a8509d3053581a8c9c4d7d86899e0afcd882f610ae9816106f261102b565b600754610af7816001612b9b565b60075560008181526008602052604090208490610b148282612d98565b50506000818152600960205260409020805460ff19166001179055610b52610b3a61102b565b826000604051806020016040528060008152506110b5565b7f791098ff33c3fa7f7e9860d8946fb3c8596cd9371f11b0dfdbd1873dc5ec10828185604051610b83929190612ae7565b60405180910390a191505b50919050565b6108ef610b9f61102b565b83836114e4565b600860205260009081526040902080548190610bc190612c41565b80601f0160208091040260200160405190810160405280929190818152602001828054610bed90612c41565b8015610c3a5780601f10610c0f57610100808354040283529160200191610c3a565b820191906000526020600020905b815481529060010190602001808311610c1d57829003601f168201915b5050506001909301549192505060ff1682565b60008181526005602052604081206105d2906115d9565b6000610c72816106f261102b565b600680547fffffffffffffffffffffffff0000000000000000000000000000000000000000166001600160a01b0384169081179091556040517fa2b0839d4585de7874ef6ce1d56318647d0ba0f8661e7ae4b76c47a7d5766b5390600090a25050565b600082815260046020526040902060010154610cf3816106f261102b565b61085283836114b6565b6060600a8054610d0c90612c41565b80601f0160208091040260200160405190810160405280929190818152602001828054610d3890612c41565b8015610d855780601f10610d5a57610100808354040283529160200191610d85565b820191906000526020600020905b815481529060010190602001808311610d6857829003601f168201915b5050505050905090565b6006546040517f71213a2d0000000000000000000000000000000000000000000000000000000081526001600160a01b038381166004830152600092169081906371213a2d9060240160206040518083038186803b158015610df057600080fd5b505afa158015610e04573d6000803e3d6000fd5b505050506040513d601f19601f82011682018060405250810190610e2891906127b9565b15610e375760019150506105d2565b6001600160a01b0380851660009081526001602090815260408083209387168352929052205460ff165b949350505050565b610e7161102b565b6001600160a01b0316856001600160a01b03161480610e975750610e978561050161102b565b610f095760405162461bcd60e51b815260206004820152602960248201527f455243313135353a2063616c6c6572206973206e6f74206f776e6572206e6f7260448201527f20617070726f766564000000000000000000000000000000000000000000000060648201526084016105a6565b61082385858585856115e3565b7f3c11d16cbaffd01df69ce1c404f6340ee057498f5f00246190ea54220576a848610f43816106f261102b565b61077084848461178c565b60008281526004602090815260408083206001600160a01b038516845290915290205460ff166108ef5760008281526004602090815260408083206001600160a01b03851684529091529020805460ff19166001179055610fad61102b565b6001600160a01b0316816001600160a01b0316837f2f8788117e7eff1d82e926ec794901d17c78024a50270940304540a733656f0d60405160405180910390a45050565b6000610a92836001600160a01b038416611943565b60006001600160e01b03198216635a05180f60e01b14806105d257506105d282611992565b6000610a756119d0565b60008281526004602090815260408083206001600160a01b038516845290915290205460ff166108ef57611073816001600160a01b03166014611a2d565b61107e836020611a2d565b60405160200161108f92919061294c565b60408051601f198184030181529082905262461bcd60e51b82526105a691600401612aaf565b6001600160a01b0384166111315760405162461bcd60e51b815260206004820152602160248201527f455243313135353a206d696e7420746f20746865207a65726f2061646472657360448201527f730000000000000000000000000000000000000000000000000000000000000060648201526084016105a6565b600061113b61102b565b905061115c8160008761114d88611c54565b61115688611c54565b87611cad565b6000848152602081815260408083206001600160a01b03891684529091528120805485929061118c908490612b9b565b909155505060408051858152602081018590526001600160a01b0380881692600092918516917fc3d58168c5ae7397731d063d5bbf3d657854427343f4c083240f7aacaa2d0f62910160405180910390a461082381600087878787611df1565b81518351146112635760405162461bcd60e51b815260206004820152602860248201527f455243313135353a2069647320616e6420616d6f756e7473206c656e6774682060448201527f6d69736d6174636800000000000000000000000000000000000000000000000060648201526084016105a6565b6001600160a01b0384166112c75760405162461bcd60e51b815260206004820152602560248201527f455243313135353a207472616e7366657220746f20746865207a65726f206164604482015264647265737360d81b60648201526084016105a6565b60006112d161102b565b90506112e1818787878787611cad565b60005b845181101561142657600085828151811061130f57634e487b7160e01b600052603260045260246000fd5b60200260200101519050600085838151811061133b57634e487b7160e01b600052603260045260246000fd5b602090810291909101810151600084815280835260408082206001600160a01b038e1683529093529190912054909150818110156113ce5760405162461bcd60e51b815260206004820152602a60248201527f455243313135353a20696e73756666696369656e742062616c616e636520666f60448201526939103a3930b739b332b960b11b60648201526084016105a6565b6000838152602081815260408083206001600160a01b038e8116855292528083208585039055908b1682528120805484929061140b908490612b9b565b925050819055505050508061141f90612ca3565b90506112e4565b50846001600160a01b0316866001600160a01b0316826001600160a01b03167f4a39dc06d4c0dbc64b70af90fd698a233a518aa5d07e595d983b8c0526c8f7fb8787604051611476929190612a81565b60405180910390a461148c818787878787611fa6565b505050505050565b61149e8282610f4e565b60008281526005602052604090206108529082610ff1565b6114c082826120b1565b60008281526005602052604090206108529082612152565b6000610a928383612167565b816001600160a01b0316836001600160a01b0316141561156c5760405162461bcd60e51b815260206004820152602960248201527f455243313135353a2073657474696e6720617070726f76616c2073746174757360448201527f20666f722073656c66000000000000000000000000000000000000000000000060648201526084016105a6565b6001600160a01b03838116600081815260016020908152604080832094871680845294825291829020805460ff191686151590811790915591519182527f17307eab39ab6107e8899845ad3d59bd9653f200f220920489ca2b5937696c31910160405180910390a3505050565b60006105d2825490565b6001600160a01b0384166116475760405162461bcd60e51b815260206004820152602560248201527f455243313135353a207472616e7366657220746f20746865207a65726f206164604482015264647265737360d81b60648201526084016105a6565b600061165161102b565b905061166281878761114d88611c54565b6000848152602081815260408083206001600160a01b038a168452909152902054838110156116e65760405162461bcd60e51b815260206004820152602a60248201527f455243313135353a20696e73756666696369656e742062616c616e636520666f60448201526939103a3930b739b332b960b11b60648201526084016105a6565b6000858152602081815260408083206001600160a01b038b8116855292528083208785039055908816825281208054869290611723908490612b9b565b909155505060408051868152602081018690526001600160a01b03808916928a821692918616917fc3d58168c5ae7397731d063d5bbf3d657854427343f4c083240f7aacaa2d0f62910160405180910390a4611783828888888888611df1565b50505050505050565b6001600160a01b0383166118085760405162461bcd60e51b815260206004820152602360248201527f455243313135353a206275726e2066726f6d20746865207a65726f206164647260448201527f657373000000000000000000000000000000000000000000000000000000000060648201526084016105a6565b600061181261102b565b90506118428185600061182487611c54565b61182d87611c54565b60405180602001604052806000815250611cad565b6000838152602081815260408083206001600160a01b0388168452909152902054828110156118d85760405162461bcd60e51b8152602060048201526024808201527f455243313135353a206275726e20616d6f756e7420657863656564732062616c60448201527f616e63650000000000000000000000000000000000000000000000000000000060648201526084016105a6565b6000848152602081815260408083206001600160a01b03898116808652918452828520888703905582518981529384018890529092908616917fc3d58168c5ae7397731d063d5bbf3d657854427343f4c083240f7aacaa2d0f62910160405180910390a45050505050565b600081815260018301602052604081205461198a575081546001818101845560008481526020808220909301849055845484825282860190935260409020919091556105d2565b5060006105d2565b60006001600160e01b031982167f7965db0b0000000000000000000000000000000000000000000000000000000014806105d257506105d28261219f565b600033301415611a2757600080368080601f0160208091040260200160405190810160405280939291908181526020018383808284376000920191909152505050503601516001600160a01b03169150611a2a9050565b50335b90565b60606000611a3c836002612bb3565b611a47906002612b9b565b67ffffffffffffffff811115611a6d57634e487b7160e01b600052604160045260246000fd5b6040519080825280601f01601f191660200182016040528015611a97576020820181803683370190505b5090507f300000000000000000000000000000000000000000000000000000000000000081600081518110611adc57634e487b7160e01b600052603260045260246000fd5b60200101906001600160f81b031916908160001a9053507f780000000000000000000000000000000000000000000000000000000000000081600181518110611b3557634e487b7160e01b600052603260045260246000fd5b60200101906001600160f81b031916908160001a9053506000611b59846002612bb3565b611b64906001612b9b565b90505b6001811115611c05577f303132333435363738396162636465660000000000000000000000000000000085600f1660108110611bb357634e487b7160e01b600052603260045260246000fd5b1a60f81b828281518110611bd757634e487b7160e01b600052603260045260246000fd5b60200101906001600160f81b031916908160001a90535060049490941c93611bfe81612c2a565b9050611b67565b508315610a925760405162461bcd60e51b815260206004820181905260248201527f537472696e67733a20686578206c656e67746820696e73756666696369656e7460448201526064016105a6565b60408051600180825281830190925260609160009190602080830190803683370190505090508281600081518110611c9c57634e487b7160e01b600052603260045260246000fd5b602090810291909101015292915050565b6001600160a01b038516611d505760005b8351811015611d4e57828181518110611ce757634e487b7160e01b600052603260045260246000fd5b602002602001015160036000868481518110611d1357634e487b7160e01b600052603260045260246000fd5b602002602001015181526020019081526020016000206000828254611d389190612b9b565b90915550611d47905081612ca3565b9050611cbe565b505b6001600160a01b03841661148c5760005b835181101561178357828181518110611d8a57634e487b7160e01b600052603260045260246000fd5b602002602001015160036000868481518110611db657634e487b7160e01b600052603260045260246000fd5b602002602001015181526020019081526020016000206000828254611ddb9190612bd2565b90915550611dea905081612ca3565b9050611d61565b6001600160a01b0384163b1561148c5760405163f23a6e6160e01b81526001600160a01b0385169063f23a6e6190611e359089908990889088908890600401612a2b565b602060405180830381600087803b158015611e4f57600080fd5b505af1925050508015611e7f575060408051601f3d908101601f19168201909252611e7c9181019061284c565b60015b611f3557611e8b612cf7565b806308c379a01415611ec55750611ea0612d0e565b80611eab5750611ec7565b8060405162461bcd60e51b81526004016105a69190612aaf565b505b60405162461bcd60e51b815260206004820152603460248201527f455243313135353a207472616e7366657220746f206e6f6e204552433131353560448201527f526563656976657220696d706c656d656e74657200000000000000000000000060648201526084016105a6565b6001600160e01b0319811663f23a6e6160e01b146117835760405162461bcd60e51b815260206004820152602860248201527f455243313135353a204552433131353552656365697665722072656a656374656044820152676420746f6b656e7360c01b60648201526084016105a6565b6001600160a01b0384163b1561148c5760405163bc197c8160e01b81526001600160a01b0385169063bc197c8190611fea90899089908890889088906004016129cd565b602060405180830381600087803b15801561200457600080fd5b505af1925050508015612034575060408051601f3d908101601f191682019092526120319181019061284c565b60015b61204057611e8b612cf7565b6001600160e01b0319811663bc197c8160e01b146117835760405162461bcd60e51b815260206004820152602860248201527f455243313135353a204552433131353552656365697665722072656a656374656044820152676420746f6b656e7360c01b60648201526084016105a6565b60008281526004602090815260408083206001600160a01b038516845290915290205460ff16156108ef5760008281526004602090815260408083206001600160a01b03851684529091529020805460ff1916905561210e61102b565b6001600160a01b0316816001600160a01b0316837ff6391f5c32d9c69d2a47ea670b442974b53935d1edc7fd64eb21e047a839171b60405160405180910390a45050565b6000610a92836001600160a01b03841661223a565b600082600001828154811061218c57634e487b7160e01b600052603260045260246000fd5b9060005260206000200154905092915050565b60006001600160e01b031982167fd9b67a2600000000000000000000000000000000000000000000000000000000148061220257506001600160e01b031982167f0e89341c00000000000000000000000000000000000000000000000000000000145b806105d257507f01ffc9a7000000000000000000000000000000000000000000000000000000006001600160e01b03198316146105d2565b6000818152600183016020526040812054801561234d57600061225e600183612bd2565b855490915060009061227290600190612bd2565b90508181146122f35760008660000182815481106122a057634e487b7160e01b600052603260045260246000fd5b90600052602060002001549050808760000184815481106122d157634e487b7160e01b600052603260045260246000fd5b6000918252602080832090910192909255918252600188019052604090208390555b855486908061231257634e487b7160e01b600052603160045260246000fd5b6001900381819060005260206000200160009055905585600101600086815260200190815260200160002060009055600193505050506105d2565b60009150506105d2565b82805461236390612c41565b90600052602060002090601f01602090048101928261238557600085556123cb565b82601f1061239e57805160ff19168380011785556123cb565b828001600101855582156123cb579182015b828111156123cb5782518255916020019190600101906123b0565b506123d79291506123db565b5090565b5b808211156123d757600081556001016123dc565b600067ffffffffffffffff83111561240a5761240a612cd4565b604051612421601f8501601f191660200182612c76565b80915083815284848401111561243657600080fd5b83836020830137600060208583010152509392505050565b80356001600160a01b038116811461246557600080fd5b919050565b600082601f83011261247a578081fd5b8135602061248782612b77565b6040516124948282612c76565b8381528281019150858301600585901b870184018810156124b3578586fd5b855b858110156124d1578135845292840192908401906001016124b5565b5090979650505050505050565b600082601f8301126124ee578081fd5b610a92838335602085016123f0565b803561246581612f09565b600060208284031215612519578081fd5b610a928261244e565b60008060408385031215612534578081fd5b61253d8361244e565b915061254b6020840161244e565b90509250929050565b600080600080600060a0868803121561256b578081fd5b6125748661244e565b94506125826020870161244e565b9350604086013567ffffffffffffffff8082111561259e578283fd5b6125aa89838a0161246a565b945060608801359150808211156125bf578283fd5b6125cb89838a0161246a565b935060808801359150808211156125e0578283fd5b506125ed888289016124de565b9150509295509295909350565b600080600080600060a08688031215612611578081fd5b61261a8661244e565b94506126286020870161244e565b93506040860135925060608601359150608086013567ffffffffffffffff811115612651578182fd5b6125ed888289016124de565b6000806040838503121561266f578182fd5b6126788361244e565b9150602083013561268881612ee2565b809150509250929050565b600080604083850312156126a5578182fd5b6126ae8361244e565b946020939093013593505050565b6000806000606084860312156126d0578081fd5b6126d98461244e565b95602085013595506040909401359392505050565b60008060408385031215612700578182fd5b823567ffffffffffffffff80821115612717578384fd5b818501915085601f83011261272a578384fd5b8135602061273782612b77565b6040516127448282612c76565b8381528281019150858301600585901b870184018b1015612763578889fd5b8896505b8487101561278c576127788161244e565b835260019690960195918301918301612767565b50965050860135925050808211156127a2578283fd5b506127af8582860161246a565b9150509250929050565b6000602082840312156127ca578081fd5b8151610a9281612ee2565b6000602082840312156127e6578081fd5b5035919050565b600080604083850312156127ff578182fd5b8235915061254b6020840161244e565b60008060408385031215612821578182fd5b50508035926020909101359150565b600060208284031215612841578081fd5b8135610a9281612ef3565b60006020828403121561285d578081fd5b8151610a9281612ef3565b600060208284031215612879578081fd5b813567ffffffffffffffff81111561288f578182fd5b8201601f8101841361289f578182fd5b610e61848235602084016123f0565b6000602082840312156128bf578081fd5b813567ffffffffffffffff8111156128d5578182fd5b820160408185031215610a92578182fd5b6000815180845260208085019450808401835b83811015612915578151875295820195908201906001016128f9565b509495945050505050565b60008151808452612938816020860160208601612bfe565b601f01601f19169290920160200192915050565b7f416363657373436f6e74726f6c3a206163636f756e7420000000000000000000815260008351612984816017850160208801612bfe565b7f206973206d697373696e6720726f6c652000000000000000000000000000000060179184019182015283516129c1816028840160208801612bfe565b01602801949350505050565b60006001600160a01b03808816835280871660208401525060a060408301526129f960a08301866128e6565b8281036060840152612a0b81866128e6565b90508281036080840152612a1f8185612920565b98975050505050505050565b60006001600160a01b03808816835280871660208401525084604083015283606083015260a06080830152612a6360a0830184612920565b979650505050505050565b602081526000610a9260208301846128e6565b604081526000612a9460408301856128e6565b8281036020840152612aa681856128e6565b95945050505050565b602081526000610a926020830184612920565b604081526000612ad56040830185612920565b905060ff831660208301529392505050565b8281526040602082015260008235601e19843603018112612b06578182fd5b8301803567ffffffffffffffff811115612b1e578283fd5b803603851315612b2c578283fd5b604080850152806080850152806020830160a08601378260a08286010152612b56602086016124fd565b60ff811660608601529150601f01601f19169290920160a001949350505050565b600067ffffffffffffffff821115612b9157612b91612cd4565b5060051b60200190565b60008219821115612bae57612bae612cbe565b500190565b6000816000190483118215151615612bcd57612bcd612cbe565b500290565b600082821015612be457612be4612cbe565b500390565b5b818110156108ef5760008155600101612bea565b60005b83811015612c19578181015183820152602001612c01565b838111156107705750506000910152565b600081612c3957612c39612cbe565b506000190190565b600181811c90821680612c5557607f821691505b60208210811415610b8e57634e487b7160e01b600052602260045260246000fd5b601f8201601f1916810167ffffffffffffffff81118282101715612c9c57612c9c612cd4565b6040525050565b6000600019821415612cb757612cb7612cbe565b5060010190565b634e487b7160e01b600052601160045260246000fd5b634e487b7160e01b600052604160045260246000fd5b600081356105d281612f09565b600060033d1115611a2a57600481823e5160e01c90565b600060443d1015612d1c5790565b6040516003193d81016004833e81513d67ffffffffffffffff8160248401118184111715612d4c57505050505090565b8285019150815181811115612d645750505050505090565b843d8701016020828501011115612d7e5750505050505090565b612d8d60208286010187612c76565b509095945050505050565b8135601e19833603018112612dac57600080fd5b8201803567ffffffffffffffff811115612dc557600080fd5b60208136038184011315612dd857600080fd5b612de28454612c41565b600080601f8511601f841181811715612e015760008981526020902092505b8015612e2f57601f870160051c830186881015612e1b5750825b612e2d601f870160051c850182612be9565b505b508060018114612e6557600094508615612e4c5785848901013594505b600187901b600019600389901b1c198616178955612eba565b601f198716945082845b86811015612e90578986018801358255948701946001909101908701612e6f565b5087861015612eaf5760001960f88960031b161c1987868b0101351681555b5060018760011b0189555b5050505050610823612ecd828701612cea565b6001860160ff821660ff198254161781555050565b8015158114612ef057600080fd5b50565b6001600160e01b031981168114612ef057600080fd5b60ff81168114612ef057600080fdfea264697066735822122046896e6aec54e51e0f733bb6a452a6051fb5f83ad331aea091fc30e1872da34e64736f6c63430008040033",
  "devdoc": {
    "kind": "dev",
    "methods": {
      "balanceOf(address,uint256)": {
        "details": "See {IERC1155-balanceOf}. Requirements: - `account` cannot be the zero address."
      },
      "balanceOfBatch(address[],uint256[])": {
        "details": "See {IERC1155-balanceOfBatch}. Requirements: - `accounts` and `ids` must have the same length."
      },
      "exists(uint256)": {
        "details": "Indicates whether any token exist with a given id, or not."
      },
      "getRoleAdmin(bytes32)": {
        "details": "Returns the admin role that controls `role`. See {grantRole} and {revokeRole}. To change a role's admin, use {_setRoleAdmin}."
      },
      "getRoleMember(bytes32,uint256)": {
        "details": "Returns one of the accounts that have `role`. `index` must be a value between 0 and {getRoleMemberCount}, non-inclusive. Role bearers are not sorted in any particular way, and their ordering may change at any point. WARNING: When using {getRoleMember} and {getRoleMemberCount}, make sure you perform all queries on the same block. See the following https://forum.openzeppelin.com/t/iterating-over-elements-on-enumerableset-in-openzeppelin-contracts/2296[forum post] for more information."
      },
      "getRoleMemberCount(bytes32)": {
        "details": "Returns the number of accounts that have `role`. Can be used together with {getRoleMember} to enumerate all bearers of a role."
      },
      "grantRole(bytes32,address)": {
        "details": "Grants `role` to `account`. If `account` had not been already granted `role`, emits a {RoleGranted} event. Requirements: - the caller must have ``role``'s admin role."
      },
      "hasRole(bytes32,address)": {
        "details": "Returns `true` if `account` has been granted `role`."
      },
      "renounceRole(bytes32,address)": {
        "details": "Revokes `role` from the calling account. Roles are often managed via {grantRole} and {revokeRole}: this function's purpose is to provide a mechanism for accounts to lose their privileges if they are compromised (such as when a trusted device is misplaced). If the calling account had been revoked `role`, emits a {RoleRevoked} event. Requirements: - the caller must be `account`."
      },
      "revokeRole(bytes32,address)": {
        "details": "Revokes `role` from `account`. If `account` had been granted `role`, emits a {RoleRevoked} event. Requirements: - the caller must have ``role``'s admin role."
      },
      "safeBatchTransferFrom(address,address,uint256[],uint256[],bytes)": {
        "details": "See {IERC1155-safeBatchTransferFrom}."
      },
      "safeTransferFrom(address,address,uint256,uint256,bytes)": {
        "details": "See {IERC1155-safeTransferFrom}."
      },
      "setApprovalForAll(address,bool)": {
        "details": "See {IERC1155-setApprovalForAll}."
      },
      "totalSupply(uint256)": {
        "details": "Total amount of tokens in with a given id."
      },
      "uri(uint256)": {
        "details": "See {IERC1155MetadataURI-uri}. This implementation returns the same URI for *all* token types. It relies on the token type ID substitution mechanism https://eips.ethereum.org/EIPS/eip-1155#metadata[defined in the EIP]. Clients calling this function must replace the `\\{id\\}` substring with the actual token type ID."
      }
    },
    "version": 1
  },
  "userdoc": {
    "kind": "user",
    "methods": {
      "isApprovedForAll(address,address)": {
        "notice": "Override isApprovedForAll to whitelist user's OpenSea proxy accounts to enable gas-less listings."
      }
    },
    "version": 1
  },
  "storageLayout": {
    "storage": [
      {
        "astId": 662,
        "contract": "contracts/resources/ResourcesERC1155.sol:ResourcesERC1155",
        "label": "_balances",
        "offset": 0,
        "slot": "0",
        "type": "t_mapping(t_uint256,t_mapping(t_address,t_uint256))"
      },
      {
        "astId": 668,
        "contract": "contracts/resources/ResourcesERC1155.sol:ResourcesERC1155",
        "label": "_operatorApprovals",
        "offset": 0,
        "slot": "1",
        "type": "t_mapping(t_address,t_mapping(t_address,t_bool))"
      },
      {
        "astId": 670,
        "contract": "contracts/resources/ResourcesERC1155.sol:ResourcesERC1155",
        "label": "_uri",
        "offset": 0,
        "slot": "2",
        "type": "t_string_storage"
      },
      {
        "astId": 1905,
        "contract": "contracts/resources/ResourcesERC1155.sol:ResourcesERC1155",
        "label": "_totalSupply",
        "offset": 0,
        "slot": "3",
        "type": "t_mapping(t_uint256,t_uint256)"
      },
      {
        "astId": 24,
        "contract": "contracts/resources/ResourcesERC1155.sol:ResourcesERC1155",
        "label": "_roles",
        "offset": 0,
        "slot": "4",
        "type": "t_mapping(t_bytes32,t_struct(RoleData)19_storage)"
      },
      {
        "astId": 327,
        "contract": "contracts/resources/ResourcesERC1155.sol:ResourcesERC1155",
        "label": "_roleMembers",
        "offset": 0,
        "slot": "5",
        "type": "t_mapping(t_bytes32,t_struct(AddressSet)5717_storage)"
      },
      {
        "astId": 7287,
        "contract": "contracts/resources/ResourcesERC1155.sol:ResourcesERC1155",
        "label": "proxyRegistryAddress",
        "offset": 0,
        "slot": "6",
        "type": "t_address"
      },
      {
        "astId": 7985,
        "contract": "contracts/resources/ResourcesERC1155.sol:ResourcesERC1155",
        "label": "tokenCount",
        "offset": 0,
        "slot": "7",
        "type": "t_uint256"
      },
      {
        "astId": 7990,
        "contract": "contracts/resources/ResourcesERC1155.sol:ResourcesERC1155",
        "label": "items",
        "offset": 0,
        "slot": "8",
        "type": "t_mapping(t_uint256,t_struct(Metadata)7976_storage)"
      },
      {
        "astId": 7994,
        "contract": "contracts/resources/ResourcesERC1155.sol:ResourcesERC1155",
        "label": "registeredItems",
        "offset": 0,
        "slot": "9",
        "type": "t_mapping(t_uint256,t_bool)"
      },
      {
        "astId": 7996,
        "contract": "contracts/resources/ResourcesERC1155.sol:ResourcesERC1155",
        "label": "__contractURI",
        "offset": 0,
        "slot": "10",
        "type": "t_string_storage"
      }
    ],
    "types": {
      "t_address": {
        "encoding": "inplace",
        "label": "address",
        "numberOfBytes": "20"
      },
      "t_array(t_bytes32)dyn_storage": {
        "base": "t_bytes32",
        "encoding": "dynamic_array",
        "label": "bytes32[]",
        "numberOfBytes": "32"
      },
      "t_bool": {
        "encoding": "inplace",
        "label": "bool",
        "numberOfBytes": "1"
      },
      "t_bytes32": {
        "encoding": "inplace",
        "label": "bytes32",
        "numberOfBytes": "32"
      },
      "t_mapping(t_address,t_bool)": {
        "encoding": "mapping",
        "key": "t_address",
        "label": "mapping(address => bool)",
        "numberOfBytes": "32",
        "value": "t_bool"
      },
      "t_mapping(t_address,t_mapping(t_address,t_bool))": {
        "encoding": "mapping",
        "key": "t_address",
        "label": "mapping(address => mapping(address => bool))",
        "numberOfBytes": "32",
        "value": "t_mapping(t_address,t_bool)"
      },
      "t_mapping(t_address,t_uint256)": {
        "encoding": "mapping",
        "key": "t_address",
        "label": "mapping(address => uint256)",
        "numberOfBytes": "32",
        "value": "t_uint256"
      },
      "t_mapping(t_bytes32,t_struct(AddressSet)5717_storage)": {
        "encoding": "mapping",
        "key": "t_bytes32",
        "label": "mapping(bytes32 => struct EnumerableSet.AddressSet)",
        "numberOfBytes": "32",
        "value": "t_struct(AddressSet)5717_storage"
      },
      "t_mapping(t_bytes32,t_struct(RoleData)19_storage)": {
        "encoding": "mapping",
        "key": "t_bytes32",
        "label": "mapping(bytes32 => struct AccessControl.RoleData)",
        "numberOfBytes": "32",
        "value": "t_struct(RoleData)19_storage"
      },
      "t_mapping(t_bytes32,t_uint256)": {
        "encoding": "mapping",
        "key": "t_bytes32",
        "label": "mapping(bytes32 => uint256)",
        "numberOfBytes": "32",
        "value": "t_uint256"
      },
      "t_mapping(t_uint256,t_bool)": {
        "encoding": "mapping",
        "key": "t_uint256",
        "label": "mapping(uint256 => bool)",
        "numberOfBytes": "32",
        "value": "t_bool"
      },
      "t_mapping(t_uint256,t_mapping(t_address,t_uint256))": {
        "encoding": "mapping",
        "key": "t_uint256",
        "label": "mapping(uint256 => mapping(address => uint256))",
        "numberOfBytes": "32",
        "value": "t_mapping(t_address,t_uint256)"
      },
      "t_mapping(t_uint256,t_struct(Metadata)7976_storage)": {
        "encoding": "mapping",
        "key": "t_uint256",
        "label": "mapping(uint256 => struct ResourcesERC1155.Metadata)",
        "numberOfBytes": "32",
        "value": "t_struct(Metadata)7976_storage"
      },
      "t_mapping(t_uint256,t_uint256)": {
        "encoding": "mapping",
        "key": "t_uint256",
        "label": "mapping(uint256 => uint256)",
        "numberOfBytes": "32",
        "value": "t_uint256"
      },
      "t_string_storage": {
        "encoding": "bytes",
        "label": "string",
        "numberOfBytes": "32"
      },
      "t_struct(AddressSet)5717_storage": {
        "encoding": "inplace",
        "label": "struct EnumerableSet.AddressSet",
        "members": [
          {
            "astId": 5716,
            "contract": "contracts/resources/ResourcesERC1155.sol:ResourcesERC1155",
            "label": "_inner",
            "offset": 0,
            "slot": "0",
            "type": "t_struct(Set)5416_storage"
          }
        ],
        "numberOfBytes": "64"
      },
      "t_struct(Metadata)7976_storage": {
        "encoding": "inplace",
        "label": "struct ResourcesERC1155.Metadata",
        "members": [
          {
            "astId": 7973,
            "contract": "contracts/resources/ResourcesERC1155.sol:ResourcesERC1155",
            "label": "name",
            "offset": 0,
            "slot": "0",
            "type": "t_string_storage"
          },
          {
            "astId": 7975,
            "contract": "contracts/resources/ResourcesERC1155.sol:ResourcesERC1155",
            "label": "itemType",
            "offset": 0,
            "slot": "1",
            "type": "t_uint8"
          }
        ],
        "numberOfBytes": "64"
      },
      "t_struct(RoleData)19_storage": {
        "encoding": "inplace",
        "label": "struct AccessControl.RoleData",
        "members": [
          {
            "astId": 16,
            "contract": "contracts/resources/ResourcesERC1155.sol:ResourcesERC1155",
            "label": "members",
            "offset": 0,
            "slot": "0",
            "type": "t_mapping(t_address,t_bool)"
          },
          {
            "astId": 18,
            "contract": "contracts/resources/ResourcesERC1155.sol:ResourcesERC1155",
            "label": "adminRole",
            "offset": 0,
            "slot": "1",
            "type": "t_bytes32"
          }
        ],
        "numberOfBytes": "64"
      },
      "t_struct(Set)5416_storage": {
        "encoding": "inplace",
        "label": "struct EnumerableSet.Set",
        "members": [
          {
            "astId": 5411,
            "contract": "contracts/resources/ResourcesERC1155.sol:ResourcesERC1155",
            "label": "_values",
            "offset": 0,
            "slot": "0",
            "type": "t_array(t_bytes32)dyn_storage"
          },
          {
            "astId": 5415,
            "contract": "contracts/resources/ResourcesERC1155.sol:ResourcesERC1155",
            "label": "_indexes",
            "offset": 0,
            "slot": "1",
            "type": "t_mapping(t_bytes32,t_uint256)"
          }
        ],
        "numberOfBytes": "64"
      },
      "t_uint256": {
        "encoding": "inplace",
        "label": "uint256",
        "numberOfBytes": "32"
      },
      "t_uint8": {
        "encoding": "inplace",
        "label": "uint8",
        "numberOfBytes": "1"
      }
    }
  }
}