{
  "address": "0x6BB3bB4e0052C8fd7D34E6b69A5688095C2BB937",
  "abi": [
    {
      "anonymous": false,
      "inputs": [
        {
          "indexed": false,
          "internalType": "address",
          "name": "_old",
          "type": "address"
        },
        {
          "indexed": false,
          "internalType": "address",
          "name": "_new",
          "type": "address"
        }
      ],
      "name": "OperatorChanged",
      "type": "event"
    },
    {
      "anonymous": false,
      "inputs": [
        {
          "indexed": true,
          "internalType": "address",
          "name": "previousOwner",
          "type": "address"
        },
        {
          "indexed": true,
          "internalType": "address",
          "name": "newOwner",
          "type": "address"
        }
      ],
      "name": "OwnershipTransferred",
      "type": "event"
    },
    {
      "inputs": [],
      "name": "owner",
      "outputs": [
        {
          "internalType": "address",
          "name": "",
          "type": "address"
        }
      ],
      "stateMutability": "view",
      "type": "function"
    },
    {
      "inputs": [
        {
          "internalType": "address",
          "name": "_user",
          "type": "address"
        }
      ],
      "name": "proxies",
      "outputs": [
        {
          "internalType": "address",
          "name": "",
          "type": "address"
        }
      ],
      "stateMutability": "view",
      "type": "function"
    },
    {
      "inputs": [],
      "name": "renounceOwnership",
      "outputs": [],
      "stateMutability": "nonpayable",
      "type": "function"
    },
    {
      "inputs": [
        {
          "internalType": "address",
          "name": "_address",
          "type": "address"
        }
      ],
      "name": "setOperator",
      "outputs": [],
      "stateMutability": "nonpayable",
      "type": "function"
    },
    {
      "inputs": [
        {
          "internalType": "address",
          "name": "newOwner",
          "type": "address"
        }
      ],
      "name": "transferOwnership",
      "outputs": [],
      "stateMutability": "nonpayable",
      "type": "function"
    }
  ],
  "transactionHash": "0x3debe60aff10e343034fa74d7e6b3a09fa2c5e7243b8c4fb7a1575e56cc59593",
  "args": [],
  "numDeployments": 1,
  "solcInputHash": "61ab444451bbc0ed4daafa2e82c32f64",
  "bytecode": "0x608060405234801561001057600080fd5b5061001a3361001f565b61006f565b600080546001600160a01b038381166001600160a01b0319831681178455604051919092169283917f8be0079c531659141344cd1fd0a4f28419497f9722a3daafe3b4186f6b6457e09190a35050565b6103c18061007e6000396000f3fe608060405234801561001057600080fd5b50600436106100675760003560e01c8063b3ab15fb11610050578063b3ab15fb1461009f578063c4552791146100b2578063f2fde38b146100d057600080fd5b8063715018a61461006c5780638da5cb5b14610076575b600080fd5b6100746100e3565b005b6000546001600160a01b03165b6040516001600160a01b03909116815260200160405180910390f35b6100746100ad36600461035d565b61014e565b6100836100c036600461035d565b506001546001600160a01b031690565b6100746100de36600461035d565b61021e565b6000546001600160a01b031633146101425760405162461bcd60e51b815260206004820181905260248201527f4f776e61626c653a2063616c6c6572206973206e6f7420746865206f776e657260448201526064015b60405180910390fd5b61014c6000610300565b565b6000546001600160a01b031633146101a85760405162461bcd60e51b815260206004820181905260248201527f4f776e61626c653a2063616c6c6572206973206e6f7420746865206f776e65726044820152606401610139565b600154604080516001600160a01b03928316815291831660208301527fd58299b712891143e76310d5e664c4203c940a67db37cf856bdaa3c5c76a802c910160405180910390a16001805473ffffffffffffffffffffffffffffffffffffffff19166001600160a01b0392909216919091179055565b6000546001600160a01b031633146102785760405162461bcd60e51b815260206004820181905260248201527f4f776e61626c653a2063616c6c6572206973206e6f7420746865206f776e65726044820152606401610139565b6001600160a01b0381166102f45760405162461bcd60e51b815260206004820152602660248201527f4f776e61626c653a206e6577206f776e657220697320746865207a65726f206160448201527f64647265737300000000000000000000000000000000000000000000000000006064820152608401610139565b6102fd81610300565b50565b600080546001600160a01b0383811673ffffffffffffffffffffffffffffffffffffffff19831681178455604051919092169283917f8be0079c531659141344cd1fd0a4f28419497f9722a3daafe3b4186f6b6457e09190a35050565b60006020828403121561036e578081fd5b81356001600160a01b0381168114610384578182fd5b939250505056fea26469706673582212207104cd10436b7fd569d84d2d9409b11a2635e9bbfc7b0ff1b46647a228f05ab464736f6c63430008040033",
  "devdoc": {
    "kind": "dev",
    "methods": {
      "owner()": {
        "details": "Returns the address of the current owner."
      },
      "renounceOwnership()": {
        "details": "Leaves the contract without owner. It will not be possible to call `onlyOwner` functions anymore. Can only be called by the current owner. NOTE: Renouncing ownership will leave the contract without an owner, thereby removing any functionality that is only available to the owner."
      },
      "transferOwnership(address)": {
        "details": "Transfers ownership of the contract to a new account (`newOwner`). Can only be called by the current owner."
      }
    },
    "title": "WinzerTradableProxyRegistry Approves marketplace contract (opensea) for gassless transactions.",
    "version": 1
  },
  "userdoc": {
    "kind": "user",
    "methods": {},
    "version": 1
  },
  "storageLayout": {
    "storage": [
      {
        "astId": 539,
        "contract": "contracts/extras/WinzerTradableProxyRegistry.sol:WinzerTradableProxyRegistry",
        "label": "_owner",
        "offset": 0,
        "slot": "0",
        "type": "t_address"
      },
      {
        "astId": 6540,
        "contract": "contracts/extras/WinzerTradableProxyRegistry.sol:WinzerTradableProxyRegistry",
        "label": "_operator",
        "offset": 0,
        "slot": "1",
        "type": "t_address"
      }
    ],
    "types": {
      "t_address": {
        "encoding": "inplace",
        "label": "address",
        "numberOfBytes": "20"
      }
    }
  }
}