{
  "address": "0x929F194985E221C07cDE0902D74789E3637F8EA4",
  "abi": [
    {
      "inputs": [
        {
          "internalType": "address",
          "name": "_fatherReceiver",
          "type": "address"
        },
        {
          "internalType": "string",
          "name": "_initBaseURI",
          "type": "string"
        },
        {
          "internalType": "string",
          "name": "_initContractURI",
          "type": "string"
        }
      ],
      "stateMutability": "nonpayable",
      "type": "constructor"
    },
    {
      "anonymous": false,
      "inputs": [
        {
          "indexed": true,
          "internalType": "address",
          "name": "owner",
          "type": "address"
        },
        {
          "indexed": true,
          "internalType": "address",
          "name": "approved",
          "type": "address"
        },
        {
          "indexed": true,
          "internalType": "uint256",
          "name": "tokenId",
          "type": "uint256"
        }
      ],
      "name": "Approval",
      "type": "event"
    },
    {
      "anonymous": false,
      "inputs": [
        {
          "indexed": true,
          "internalType": "address",
          "name": "owner",
          "type": "address"
        },
        {
          "indexed": true,
          "internalType": "address",
          "name": "operator",
          "type": "address"
        },
        {
          "indexed": false,
          "internalType": "bool",
          "name": "approved",
          "type": "bool"
        }
      ],
      "name": "ApprovalForAll",
      "type": "event"
    },
    {
      "anonymous": false,
      "inputs": [
        {
          "indexed": true,
          "internalType": "uint256",
          "name": "_tokenId",
          "type": "uint256"
        },
        {
          "components": [
            {
              "internalType": "uint8",
              "name": "race",
              "type": "uint8"
            },
            {
              "internalType": "uint8",
              "name": "sex",
              "type": "uint8"
            },
            {
              "internalType": "uint8",
              "name": "skin",
              "type": "uint8"
            },
            {
              "internalType": "uint8",
              "name": "head",
              "type": "uint8"
            },
            {
              "internalType": "uint8",
              "name": "ears",
              "type": "uint8"
            },
            {
              "internalType": "uint8",
              "name": "hair",
              "type": "uint8"
            },
            {
              "internalType": "uint8",
              "name": "beard",
              "type": "uint8"
            },
            {
              "internalType": "uint8",
              "name": "mouth",
              "type": "uint8"
            },
            {
              "internalType": "uint8",
              "name": "eyes",
              "type": "uint8"
            },
            {
              "internalType": "uint8",
              "name": "eyebrows",
              "type": "uint8"
            },
            {
              "internalType": "uint8",
              "name": "nose",
              "type": "uint8"
            },
            {
              "internalType": "uint8",
              "name": "scars",
              "type": "uint8"
            }
          ],
          "indexed": false,
          "internalType": "struct WinzerERC721.DNA1",
          "name": "_dna",
          "type": "tuple"
        }
      ],
      "name": "Dna1Updated",
      "type": "event"
    },
    {
      "anonymous": false,
      "inputs": [
        {
          "indexed": true,
          "internalType": "uint256",
          "name": "_tokenId",
          "type": "uint256"
        },
        {
          "components": [
            {
              "internalType": "uint256",
              "name": "father",
              "type": "uint256"
            },
            {
              "internalType": "uint256",
              "name": "mother",
              "type": "uint256"
            },
            {
              "internalType": "uint8",
              "name": "accessory",
              "type": "uint8"
            },
            {
              "internalType": "uint8",
              "name": "makeup",
              "type": "uint8"
            },
            {
              "internalType": "uint8",
              "name": "skill1",
              "type": "uint8"
            },
            {
              "internalType": "uint8",
              "name": "skill2",
              "type": "uint8"
            },
            {
              "internalType": "uint8",
              "name": "skill3",
              "type": "uint8"
            },
            {
              "internalType": "uint8",
              "name": "skill4",
              "type": "uint8"
            },
            {
              "internalType": "uint8",
              "name": "skill5",
              "type": "uint8"
            }
          ],
          "indexed": false,
          "internalType": "struct WinzerERC721.DNA2",
          "name": "_dna",
          "type": "tuple"
        }
      ],
      "name": "Dna2Updated",
      "type": "event"
    },
    {
      "anonymous": false,
      "inputs": [
        {
          "indexed": true,
          "internalType": "address",
          "name": "_newAddress",
          "type": "address"
        }
      ],
      "name": "ProxyRegistryAddressChanged",
      "type": "event"
    },
    {
      "anonymous": false,
      "inputs": [
        {
          "indexed": true,
          "internalType": "bytes32",
          "name": "role",
          "type": "bytes32"
        },
        {
          "indexed": true,
          "internalType": "bytes32",
          "name": "previousAdminRole",
          "type": "bytes32"
        },
        {
          "indexed": true,
          "internalType": "bytes32",
          "name": "newAdminRole",
          "type": "bytes32"
        }
      ],
      "name": "RoleAdminChanged",
      "type": "event"
    },
    {
      "anonymous": false,
      "inputs": [
        {
          "indexed": true,
          "internalType": "bytes32",
          "name": "role",
          "type": "bytes32"
        },
        {
          "indexed": true,
          "internalType": "address",
          "name": "account",
          "type": "address"
        },
        {
          "indexed": true,
          "internalType": "address",
          "name": "sender",
          "type": "address"
        }
      ],
      "name": "RoleGranted",
      "type": "event"
    },
    {
      "anonymous": false,
      "inputs": [
        {
          "indexed": true,
          "internalType": "bytes32",
          "name": "role",
          "type": "bytes32"
        },
        {
          "indexed": true,
          "internalType": "address",
          "name": "account",
          "type": "address"
        },
        {
          "indexed": true,
          "internalType": "address",
          "name": "sender",
          "type": "address"
        }
      ],
      "name": "RoleRevoked",
      "type": "event"
    },
    {
      "anonymous": false,
      "inputs": [
        {
          "indexed": true,
          "internalType": "address",
          "name": "from",
          "type": "address"
        },
        {
          "indexed": true,
          "internalType": "address",
          "name": "to",
          "type": "address"
        },
        {
          "indexed": true,
          "internalType": "uint256",
          "name": "tokenId",
          "type": "uint256"
        }
      ],
      "name": "Transfer",
      "type": "event"
    },
    {
      "inputs": [],
      "name": "DEFAULT_ADMIN_ROLE",
      "outputs": [
        {
          "internalType": "bytes32",
          "name": "",
          "type": "bytes32"
        }
      ],
      "stateMutability": "view",
      "type": "function"
    },
    {
      "inputs": [],
      "name": "MINTER_ROLE",
      "outputs": [
        {
          "internalType": "bytes32",
          "name": "",
          "type": "bytes32"
        }
      ],
      "stateMutability": "view",
      "type": "function"
    },
    {
      "inputs": [
        {
          "internalType": "address",
          "name": "to",
          "type": "address"
        },
        {
          "internalType": "uint256",
          "name": "tokenId",
          "type": "uint256"
        }
      ],
      "name": "approve",
      "outputs": [],
      "stateMutability": "nonpayable",
      "type": "function"
    },
    {
      "inputs": [
        {
          "internalType": "address",
          "name": "owner",
          "type": "address"
        }
      ],
      "name": "balanceOf",
      "outputs": [
        {
          "internalType": "uint256",
          "name": "",
          "type": "uint256"
        }
      ],
      "stateMutability": "view",
      "type": "function"
    },
    {
      "inputs": [],
      "name": "contractURI",
      "outputs": [
        {
          "internalType": "string",
          "name": "",
          "type": "string"
        }
      ],
      "stateMutability": "view",
      "type": "function"
    },
    {
      "inputs": [
        {
          "internalType": "uint256",
          "name": "",
          "type": "uint256"
        }
      ],
      "name": "dna1",
      "outputs": [
        {
          "internalType": "uint8",
          "name": "race",
          "type": "uint8"
        },
        {
          "internalType": "uint8",
          "name": "sex",
          "type": "uint8"
        },
        {
          "internalType": "uint8",
          "name": "skin",
          "type": "uint8"
        },
        {
          "internalType": "uint8",
          "name": "head",
          "type": "uint8"
        },
        {
          "internalType": "uint8",
          "name": "ears",
          "type": "uint8"
        },
        {
          "internalType": "uint8",
          "name": "hair",
          "type": "uint8"
        },
        {
          "internalType": "uint8",
          "name": "beard",
          "type": "uint8"
        },
        {
          "internalType": "uint8",
          "name": "mouth",
          "type": "uint8"
        },
        {
          "internalType": "uint8",
          "name": "eyes",
          "type": "uint8"
        },
        {
          "internalType": "uint8",
          "name": "eyebrows",
          "type": "uint8"
        },
        {
          "internalType": "uint8",
          "name": "nose",
          "type": "uint8"
        },
        {
          "internalType": "uint8",
          "name": "scars",
          "type": "uint8"
        }
      ],
      "stateMutability": "view",
      "type": "function"
    },
    {
      "inputs": [
        {
          "internalType": "uint256",
          "name": "",
          "type": "uint256"
        }
      ],
      "name": "dna2",
      "outputs": [
        {
          "internalType": "uint256",
          "name": "father",
          "type": "uint256"
        },
        {
          "internalType": "uint256",
          "name": "mother",
          "type": "uint256"
        },
        {
          "internalType": "uint8",
          "name": "accessory",
          "type": "uint8"
        },
        {
          "internalType": "uint8",
          "name": "makeup",
          "type": "uint8"
        },
        {
          "internalType": "uint8",
          "name": "skill1",
          "type": "uint8"
        },
        {
          "internalType": "uint8",
          "name": "skill2",
          "type": "uint8"
        },
        {
          "internalType": "uint8",
          "name": "skill3",
          "type": "uint8"
        },
        {
          "internalType": "uint8",
          "name": "skill4",
          "type": "uint8"
        },
        {
          "internalType": "uint8",
          "name": "skill5",
          "type": "uint8"
        }
      ],
      "stateMutability": "view",
      "type": "function"
    },
    {
      "inputs": [
        {
          "internalType": "uint256",
          "name": "tokenId",
          "type": "uint256"
        }
      ],
      "name": "getApproved",
      "outputs": [
        {
          "internalType": "address",
          "name": "",
          "type": "address"
        }
      ],
      "stateMutability": "view",
      "type": "function"
    },
    {
      "inputs": [
        {
          "internalType": "bytes32",
          "name": "role",
          "type": "bytes32"
        }
      ],
      "name": "getRoleAdmin",
      "outputs": [
        {
          "internalType": "bytes32",
          "name": "",
          "type": "bytes32"
        }
      ],
      "stateMutability": "view",
      "type": "function"
    },
    {
      "inputs": [
        {
          "internalType": "bytes32",
          "name": "role",
          "type": "bytes32"
        },
        {
          "internalType": "uint256",
          "name": "index",
          "type": "uint256"
        }
      ],
      "name": "getRoleMember",
      "outputs": [
        {
          "internalType": "address",
          "name": "",
          "type": "address"
        }
      ],
      "stateMutability": "view",
      "type": "function"
    },
    {
      "inputs": [
        {
          "internalType": "bytes32",
          "name": "role",
          "type": "bytes32"
        }
      ],
      "name": "getRoleMemberCount",
      "outputs": [
        {
          "internalType": "uint256",
          "name": "",
          "type": "uint256"
        }
      ],
      "stateMutability": "view",
      "type": "function"
    },
    {
      "inputs": [
        {
          "internalType": "bytes32",
          "name": "role",
          "type": "bytes32"
        },
        {
          "internalType": "address",
          "name": "account",
          "type": "address"
        }
      ],
      "name": "grantRole",
      "outputs": [],
      "stateMutability": "nonpayable",
      "type": "function"
    },
    {
      "inputs": [
        {
          "internalType": "bytes32",
          "name": "role",
          "type": "bytes32"
        },
        {
          "internalType": "address",
          "name": "account",
          "type": "address"
        }
      ],
      "name": "hasRole",
      "outputs": [
        {
          "internalType": "bool",
          "name": "",
          "type": "bool"
        }
      ],
      "stateMutability": "view",
      "type": "function"
    },
    {
      "inputs": [
        {
          "internalType": "address",
          "name": "_owner",
          "type": "address"
        },
        {
          "internalType": "address",
          "name": "_operator",
          "type": "address"
        }
      ],
      "name": "isApprovedForAll",
      "outputs": [
        {
          "internalType": "bool",
          "name": "",
          "type": "bool"
        }
      ],
      "stateMutability": "view",
      "type": "function"
    },
    {
      "inputs": [
        {
          "internalType": "address",
          "name": "player",
          "type": "address"
        },
        {
          "components": [
            {
              "internalType": "uint8",
              "name": "race",
              "type": "uint8"
            },
            {
              "internalType": "uint8",
              "name": "sex",
              "type": "uint8"
            },
            {
              "internalType": "uint8",
              "name": "skin",
              "type": "uint8"
            },
            {
              "internalType": "uint8",
              "name": "head",
              "type": "uint8"
            },
            {
              "internalType": "uint8",
              "name": "ears",
              "type": "uint8"
            },
            {
              "internalType": "uint8",
              "name": "hair",
              "type": "uint8"
            },
            {
              "internalType": "uint8",
              "name": "beard",
              "type": "uint8"
            },
            {
              "internalType": "uint8",
              "name": "mouth",
              "type": "uint8"
            },
            {
              "internalType": "uint8",
              "name": "eyes",
              "type": "uint8"
            },
            {
              "internalType": "uint8",
              "name": "eyebrows",
              "type": "uint8"
            },
            {
              "internalType": "uint8",
              "name": "nose",
              "type": "uint8"
            },
            {
              "internalType": "uint8",
              "name": "scars",
              "type": "uint8"
            }
          ],
          "internalType": "struct WinzerERC721.DNA1",
          "name": "_dna1",
          "type": "tuple"
        },
        {
          "components": [
            {
              "internalType": "uint256",
              "name": "father",
              "type": "uint256"
            },
            {
              "internalType": "uint256",
              "name": "mother",
              "type": "uint256"
            },
            {
              "internalType": "uint8",
              "name": "accessory",
              "type": "uint8"
            },
            {
              "internalType": "uint8",
              "name": "makeup",
              "type": "uint8"
            },
            {
              "internalType": "uint8",
              "name": "skill1",
              "type": "uint8"
            },
            {
              "internalType": "uint8",
              "name": "skill2",
              "type": "uint8"
            },
            {
              "internalType": "uint8",
              "name": "skill3",
              "type": "uint8"
            },
            {
              "internalType": "uint8",
              "name": "skill4",
              "type": "uint8"
            },
            {
              "internalType": "uint8",
              "name": "skill5",
              "type": "uint8"
            }
          ],
          "internalType": "struct WinzerERC721.DNA2",
          "name": "_dna2",
          "type": "tuple"
        }
      ],
      "name": "mint",
      "outputs": [
        {
          "internalType": "uint256",
          "name": "",
          "type": "uint256"
        }
      ],
      "stateMutability": "nonpayable",
      "type": "function"
    },
    {
      "inputs": [],
      "name": "name",
      "outputs": [
        {
          "internalType": "string",
          "name": "",
          "type": "string"
        }
      ],
      "stateMutability": "view",
      "type": "function"
    },
    {
      "inputs": [],
      "name": "owner",
      "outputs": [
        {
          "internalType": "address",
          "name": "",
          "type": "address"
        }
      ],
      "stateMutability": "view",
      "type": "function"
    },
    {
      "inputs": [
        {
          "internalType": "uint256",
          "name": "tokenId",
          "type": "uint256"
        }
      ],
      "name": "ownerOf",
      "outputs": [
        {
          "internalType": "address",
          "name": "",
          "type": "address"
        }
      ],
      "stateMutability": "view",
      "type": "function"
    },
    {
      "inputs": [],
      "name": "proxyRegistryAddress",
      "outputs": [
        {
          "internalType": "address",
          "name": "",
          "type": "address"
        }
      ],
      "stateMutability": "view",
      "type": "function"
    },
    {
      "inputs": [
        {
          "internalType": "bytes32",
          "name": "role",
          "type": "bytes32"
        },
        {
          "internalType": "address",
          "name": "account",
          "type": "address"
        }
      ],
      "name": "renounceRole",
      "outputs": [],
      "stateMutability": "nonpayable",
      "type": "function"
    },
    {
      "inputs": [
        {
          "internalType": "bytes32",
          "name": "role",
          "type": "bytes32"
        },
        {
          "internalType": "address",
          "name": "account",
          "type": "address"
        }
      ],
      "name": "revokeRole",
      "outputs": [],
      "stateMutability": "nonpayable",
      "type": "function"
    },
    {
      "inputs": [
        {
          "internalType": "address",
          "name": "from",
          "type": "address"
        },
        {
          "internalType": "address",
          "name": "to",
          "type": "address"
        },
        {
          "internalType": "uint256",
          "name": "tokenId",
          "type": "uint256"
        }
      ],
      "name": "safeTransferFrom",
      "outputs": [],
      "stateMutability": "nonpayable",
      "type": "function"
    },
    {
      "inputs": [
        {
          "internalType": "address",
          "name": "from",
          "type": "address"
        },
        {
          "internalType": "address",
          "name": "to",
          "type": "address"
        },
        {
          "internalType": "uint256",
          "name": "tokenId",
          "type": "uint256"
        },
        {
          "internalType": "bytes",
          "name": "_data",
          "type": "bytes"
        }
      ],
      "name": "safeTransferFrom",
      "outputs": [],
      "stateMutability": "nonpayable",
      "type": "function"
    },
    {
      "inputs": [
        {
          "internalType": "address",
          "name": "operator",
          "type": "address"
        },
        {
          "internalType": "bool",
          "name": "approved",
          "type": "bool"
        }
      ],
      "name": "setApprovalForAll",
      "outputs": [],
      "stateMutability": "nonpayable",
      "type": "function"
    },
    {
      "inputs": [
        {
          "internalType": "string",
          "name": "uri",
          "type": "string"
        }
      ],
      "name": "setBaseUri",
      "outputs": [],
      "stateMutability": "nonpayable",
      "type": "function"
    },
    {
      "inputs": [
        {
          "internalType": "string",
          "name": "uri",
          "type": "string"
        }
      ],
      "name": "setContractURI",
      "outputs": [],
      "stateMutability": "nonpayable",
      "type": "function"
    },
    {
      "inputs": [
        {
          "internalType": "address",
          "name": "_proxyRegistryAddress",
          "type": "address"
        }
      ],
      "name": "setProxyRegistryAddress",
      "outputs": [],
      "stateMutability": "nonpayable",
      "type": "function"
    },
    {
      "inputs": [
        {
          "internalType": "bytes4",
          "name": "interfaceId",
          "type": "bytes4"
        }
      ],
      "name": "supportsInterface",
      "outputs": [
        {
          "internalType": "bool",
          "name": "",
          "type": "bool"
        }
      ],
      "stateMutability": "view",
      "type": "function"
    },
    {
      "inputs": [],
      "name": "symbol",
      "outputs": [
        {
          "internalType": "string",
          "name": "",
          "type": "string"
        }
      ],
      "stateMutability": "view",
      "type": "function"
    },
    {
      "inputs": [
        {
          "internalType": "uint256",
          "name": "index",
          "type": "uint256"
        }
      ],
      "name": "tokenByIndex",
      "outputs": [
        {
          "internalType": "uint256",
          "name": "",
          "type": "uint256"
        }
      ],
      "stateMutability": "view",
      "type": "function"
    },
    {
      "inputs": [
        {
          "internalType": "address",
          "name": "owner",
          "type": "address"
        },
        {
          "internalType": "uint256",
          "name": "index",
          "type": "uint256"
        }
      ],
      "name": "tokenOfOwnerByIndex",
      "outputs": [
        {
          "internalType": "uint256",
          "name": "",
          "type": "uint256"
        }
      ],
      "stateMutability": "view",
      "type": "function"
    },
    {
      "inputs": [
        {
          "internalType": "uint256",
          "name": "tokenId",
          "type": "uint256"
        }
      ],
      "name": "tokenURI",
      "outputs": [
        {
          "internalType": "string",
          "name": "",
          "type": "string"
        }
      ],
      "stateMutability": "view",
      "type": "function"
    },
    {
      "inputs": [],
      "name": "totalSupply",
      "outputs": [
        {
          "internalType": "uint256",
          "name": "",
          "type": "uint256"
        }
      ],
      "stateMutability": "view",
      "type": "function"
    },
    {
      "inputs": [
        {
          "internalType": "address",
          "name": "from",
          "type": "address"
        },
        {
          "internalType": "address",
          "name": "to",
          "type": "address"
        },
        {
          "internalType": "uint256",
          "name": "tokenId",
          "type": "uint256"
        }
      ],
      "name": "transferFrom",
      "outputs": [],
      "stateMutability": "nonpayable",
      "type": "function"
    }
  ],
  "transactionHash": "0x5b7bdd527837c1fdb8412d570cd78f70664e8f746acbd7493cdabcab6af158c2",
  "args": [
    "0x497971B6535A9f7a5D7ef8e5a6F47bb309A0C3Ea",
    "https://testnet.winzeland.com/meta/winzer/",
    "https://testnet.winzeland.com/meta/contract/winzers"
  ],
  "numDeployments": 1,
  "solcInputHash": "e3d9904c6db4e87a0b2798b995091235",
  "bytecode": "0x60806040523480156200001157600080fd5b5060405162006ad838038062006ad8833981810160405281019062000037919062001182565b6040518060400160405280601181526020017f57696e7a656c616e643a2057696e7a65720000000000000000000000000000008152506040518060400160405280600681526020017f57696e7a6572000000000000000000000000000000000000000000000000000081525081818160009080519060200190620000bd92919062000f63565b508060019080519060200190620000d692919062000f63565b505050620000fd6000801b620000f16200018960201b60201c565b6200019160201b60201c565b505081600f90805190602001906200011792919062000f63565b5080601090805190602001906200013092919062000f63565b506200013b62000ff4565b6200014562001079565b62000158856000620001a760201b60201c565b6200016b600083620003a160201b60201c565b6200017e6000826200058660201b60201c565b505050505062001868565b600033905090565b620001a38282620006d760201b60201c565b5050565b600073ffffffffffffffffffffffffffffffffffffffff168273ffffffffffffffffffffffffffffffffffffffff1614156200021a576040517f08c379a00000000000000000000000000000000000000000000000000000000081526004016200021190620014bc565b60405180910390fd5b6200022b816200071f60201b60201c565b156200026e576040517f08c379a0000000000000000000000000000000000000000000000000000000008152600401620002659062001478565b60405180910390fd5b62000282600083836200078b60201b60201c565b6001600360008473ffffffffffffffffffffffffffffffffffffffff1673ffffffffffffffffffffffffffffffffffffffff1681526020019081526020016000206000828254620002d491906200158a565b92505081905550816002600083815260200190815260200160002060006101000a81548173ffffffffffffffffffffffffffffffffffffffff021916908373ffffffffffffffffffffffffffffffffffffffff160217905550808273ffffffffffffffffffffffffffffffffffffffff16600073ffffffffffffffffffffffffffffffffffffffff167fddf252ad1be2c89b69c2b068fc378daa952ba7f163c4a11628f55a4df523b3ef60405160405180910390a46200039d60008383620008d260201b60201c565b5050565b80600d600084815260200190815260200160002060008201518160000160006101000a81548160ff021916908360ff16021790555060208201518160000160016101000a81548160ff021916908360ff16021790555060408201518160000160026101000a81548160ff021916908360ff16021790555060608201518160000160036101000a81548160ff021916908360ff16021790555060808201518160000160046101000a81548160ff021916908360ff16021790555060a08201518160000160056101000a81548160ff021916908360ff16021790555060c08201518160000160066101000a81548160ff021916908360ff16021790555060e08201518160000160076101000a81548160ff021916908360ff1602179055506101008201518160000160086101000a81548160ff021916908360ff1602179055506101208201518160000160096101000a81548160ff021916908360ff16021790555061014082015181600001600a6101000a81548160ff021916908360ff16021790555061016082015181600001600b6101000a81548160ff021916908360ff160217905550905050817f1a6e49c439dfb32aa6284482bc7a238ce805706dd9b685516123c05e947e7ea3826040516200057a9190620014de565b60405180910390a25050565b80600e6000848152602001908152602001600020600082015181600001556020820151816001015560408201518160020160006101000a81548160ff021916908360ff16021790555060608201518160020160016101000a81548160ff021916908360ff16021790555060808201518160020160026101000a81548160ff021916908360ff16021790555060a08201518160020160036101000a81548160ff021916908360ff16021790555060c08201518160020160046101000a81548160ff021916908360ff16021790555060e08201518160020160056101000a81548160ff021916908360ff1602179055506101008201518160020160066101000a81548160ff021916908360ff160217905550905050817f2036cd788031480791614b2f778f4b472e1a16a7802e76f095f1d00ae4a2be7f82604051620006cb9190620014fc565b60405180910390a25050565b620006ee8282620008d760201b620015c01760201c565b6200071a81600b6000858152602001908152602001600020620009c960201b620016a11790919060201c565b505050565b60008073ffffffffffffffffffffffffffffffffffffffff166002600084815260200190815260200160002060009054906101000a900473ffffffffffffffffffffffffffffffffffffffff1673ffffffffffffffffffffffffffffffffffffffff1614159050919050565b620007a383838362000a0160201b620016d11760201c565b600073ffffffffffffffffffffffffffffffffffffffff168373ffffffffffffffffffffffffffffffffffffffff161415620007f057620007ea8162000a0660201b60201c565b62000838565b8173ffffffffffffffffffffffffffffffffffffffff168373ffffffffffffffffffffffffffffffffffffffff1614620008375762000836838262000a4f60201b60201c565b5b5b600073ffffffffffffffffffffffffffffffffffffffff168273ffffffffffffffffffffffffffffffffffffffff16141562000885576200087f8162000bcc60201b60201c565b620008cd565b8273ffffffffffffffffffffffffffffffffffffffff168273ffffffffffffffffffffffffffffffffffffffff1614620008cc57620008cb828262000d1460201b60201c565b5b5b505050565b505050565b620008e9828262000da060201b60201c565b620009c5576001600a600084815260200190815260200160002060000160008373ffffffffffffffffffffffffffffffffffffffff1673ffffffffffffffffffffffffffffffffffffffff16815260200190815260200160002060006101000a81548160ff0219169083151502179055506200096a6200018960201b60201c565b73ffffffffffffffffffffffffffffffffffffffff168173ffffffffffffffffffffffffffffffffffffffff16837f2f8788117e7eff1d82e926ec794901d17c78024a50270940304540a733656f0d60405160405180910390a45b5050565b6000620009f9836000018373ffffffffffffffffffffffffffffffffffffffff1660001b62000e0b60201b60201c565b905092915050565b505050565b6008805490506009600083815260200190815260200160002081905550600881908060018154018082558091505060019003906000526020600020016000909190919091505550565b6000600162000a698462000e8560201b62000d6a1760201c565b62000a759190620015e7565b905060006007600084815260200190815260200160002054905081811462000b5b576000600660008673ffffffffffffffffffffffffffffffffffffffff1673ffffffffffffffffffffffffffffffffffffffff168152602001908152602001600020600084815260200190815260200160002054905080600660008773ffffffffffffffffffffffffffffffffffffffff1673ffffffffffffffffffffffffffffffffffffffff168152602001908152602001600020600084815260200190815260200160002081905550816007600083815260200190815260200160002081905550505b6007600084815260200190815260200160002060009055600660008573ffffffffffffffffffffffffffffffffffffffff1673ffffffffffffffffffffffffffffffffffffffff16815260200190815260200160002060008381526020019081526020016000206000905550505050565b6000600160088054905062000be29190620015e7565b905060006009600084815260200190815260200160002054905060006008838154811062000c39577f4e487b7100000000000000000000000000000000000000000000000000000000600052603260045260246000fd5b90600052602060002001549050806008838154811062000c82577f4e487b7100000000000000000000000000000000000000000000000000000000600052603260045260246000fd5b90600052602060002001819055508160096000838152602001908152602001600020819055506009600085815260200190815260200160002060009055600880548062000cf8577f4e487b7100000000000000000000000000000000000000000000000000000000600052603160045260246000fd5b6001900381819060005260206000200160009055905550505050565b600062000d2c8362000e8560201b62000d6a1760201c565b905081600660008573ffffffffffffffffffffffffffffffffffffffff1673ffffffffffffffffffffffffffffffffffffffff168152602001908152602001600020600083815260200190815260200160002081905550806007600084815260200190815260200160002081905550505050565b6000600a600084815260200190815260200160002060000160008373ffffffffffffffffffffffffffffffffffffffff1673ffffffffffffffffffffffffffffffffffffffff16815260200190815260200160002060009054906101000a900460ff16905092915050565b600062000e1f838362000f4060201b60201c565b62000e7a57826000018290806001815401808255809150506001900390600052602060002001600090919091909150558260000180549050836001016000848152602001908152602001600020819055506001905062000e7f565b600090505b92915050565b60008073ffffffffffffffffffffffffffffffffffffffff168273ffffffffffffffffffffffffffffffffffffffff16141562000ef9576040517f08c379a000000000000000000000000000000000000000000000000000000000815260040162000ef0906200149a565b60405180910390fd5b600360008373ffffffffffffffffffffffffffffffffffffffff1673ffffffffffffffffffffffffffffffffffffffff168152602001908152602001600020549050919050565b600080836001016000848152602001908152602001600020541415905092915050565b82805462000f7190620016a3565b90600052602060002090601f01602090048101928262000f95576000855562000fe1565b82601f1062000fb057805160ff191683800117855562000fe1565b8280016001018555821562000fe1579182015b8281111562000fe057825182559160200191906001019062000fc3565b5b50905062000ff09190620010da565b5090565b604051806101800160405280600060ff168152602001600060ff168152602001600060ff168152602001600060ff168152602001600060ff168152602001600060ff168152602001600060ff168152602001600060ff168152602001600060ff168152602001600060ff168152602001600060ff168152602001600060ff1681525090565b6040518061012001604052806000815260200160008152602001600060ff168152602001600060ff168152602001600060ff168152602001600060ff168152602001600060ff168152602001600060ff168152602001600060ff1681525090565b5b80821115620010f5576000816000905550600101620010db565b5090565b6000620011106200110a8462001543565b6200151a565b9050828152602081018484840111156200112957600080fd5b620011368482856200166d565b509392505050565b6000815190506200114f816200184e565b92915050565b600082601f8301126200116757600080fd5b815162001179848260208601620010f9565b91505092915050565b6000806000606084860312156200119857600080fd5b6000620011a8868287016200113e565b935050602084015167ffffffffffffffff811115620011c657600080fd5b620011d48682870162001155565b925050604084015167ffffffffffffffff811115620011f257600080fd5b620012008682870162001155565b9150509250925092565b600062001219601c8362001579565b91506200122682620017ad565b602082019050919050565b600062001240602a8362001579565b91506200124d82620017d6565b604082019050919050565b60006200126760208362001579565b9150620012748262001825565b602082019050919050565b6101808201600082015162001298600085018262001467565b506020820151620012ad602085018262001467565b506040820151620012c2604085018262001467565b506060820151620012d7606085018262001467565b506080820151620012ec608085018262001467565b5060a08201516200130160a085018262001467565b5060c08201516200131660c085018262001467565b5060e08201516200132b60e085018262001467565b506101008201516200134261010085018262001467565b506101208201516200135961012085018262001467565b506101408201516200137061014085018262001467565b506101608201516200138761016085018262001467565b50505050565b61012082016000820151620013a6600085018262001456565b506020820151620013bb602085018262001456565b506040820151620013d0604085018262001467565b506060820151620013e5606085018262001467565b506080820151620013fa608085018262001467565b5060a08201516200140f60a085018262001467565b5060c08201516200142460c085018262001467565b5060e08201516200143960e085018262001467565b506101008201516200145061010085018262001467565b50505050565b620014618162001656565b82525050565b620014728162001660565b82525050565b6000602082019050818103600083015262001493816200120a565b9050919050565b60006020820190508181036000830152620014b58162001231565b9050919050565b60006020820190508181036000830152620014d78162001258565b9050919050565b600061018082019050620014f660008301846200127f565b92915050565b6000610120820190506200151460008301846200138d565b92915050565b60006200152662001539565b9050620015348282620016d9565b919050565b6000604051905090565b600067ffffffffffffffff8211156200156157620015606200176d565b5b6200156c826200179c565b9050602081019050919050565b600082825260208201905092915050565b6000620015978262001656565b9150620015a48362001656565b9250827fffffffffffffffffffffffffffffffffffffffffffffffffffffffffffffffff03821115620015dc57620015db6200170f565b5b828201905092915050565b6000620015f48262001656565b9150620016018362001656565b9250828210156200161757620016166200170f565b5b828203905092915050565b60006200162f8262001636565b9050919050565b600073ffffffffffffffffffffffffffffffffffffffff82169050919050565b6000819050919050565b600060ff82169050919050565b60005b838110156200168d57808201518184015260208101905062001670565b838111156200169d576000848401525b50505050565b60006002820490506001821680620016bc57607f821691505b60208210811415620016d357620016d26200173e565b5b50919050565b620016e4826200179c565b810181811067ffffffffffffffff821117156200170657620017056200176d565b5b80604052505050565b7f4e487b7100000000000000000000000000000000000000000000000000000000600052601160045260246000fd5b7f4e487b7100000000000000000000000000000000000000000000000000000000600052602260045260246000fd5b7f4e487b7100000000000000000000000000000000000000000000000000000000600052604160045260246000fd5b6000601f19601f8301169050919050565b7f4552433732313a20746f6b656e20616c7265616479206d696e74656400000000600082015250565b7f4552433732313a2062616c616e636520717565727920666f7220746865207a6560008201527f726f206164647265737300000000000000000000000000000000000000000000602082015250565b7f4552433732313a206d696e7420746f20746865207a65726f2061646472657373600082015250565b620018598162001622565b81146200186557600080fd5b50565b61526080620018786000396000f3fe608060405234801561001057600080fd5b50600436106102065760003560e01c806391d148541161011a578063c87b56dd116100ad578063d53913931161007c578063d53913931461064f578063d547741f1461066d578063e8a3d48514610689578063e985e9c5146106a7578063f4ee47ac146106d757610206565b8063c87b56dd146105b5578063ca15c873146105e5578063cd7c032614610615578063d26ea6c01461063357610206565b8063a217fddf116100e9578063a217fddf1461052f578063a22cb4651461054d578063b88d4fde14610569578063c49d183b1461058557610206565b806391d14854146104a9578063938e3d7b146104d957806395d89b41146104f5578063a0bcfc7f1461051357610206565b80632f745c591161019d5780636352211e1161016c5780636352211e146103c357806370a08231146103f35780637c557a0f146104235780638da5cb5b1461045b5780639010d07c1461047957610206565b80632f745c591461032b57806336568abe1461035b57806342842e0e146103775780634f6ccce71461039357610206565b806318160ddd116101d957806318160ddd146102a557806323b872dd146102c3578063248a9ca3146102df5780632f2ff15d1461030f57610206565b806301ffc9a71461020b57806306fdde031461023b578063081812fc14610259578063095ea7b314610289575b600080fd5b61022560048036038101906102209190613c5e565b610712565b604051610232919061437d565b60405180910390f35b6102436107f4565b60405161025091906143b3565b60405180910390f35b610273600480360381019061026e9190613d1a565b610886565b6040516102809190614316565b60405180910390f35b6102a3600480360381019061029e9190613b81565b61090b565b005b6102ad610a23565b6040516102ba919061464d565b60405180910390f35b6102dd60048036038101906102d89190613a2a565b610a30565b005b6102f960048036038101906102f49190613bbd565b610a90565b6040516103069190614398565b60405180910390f35b61032960048036038101906103249190613be6565b610ab0565b005b61034560048036038101906103409190613b81565b610ad9565b604051610352919061464d565b60405180910390f35b61037560048036038101906103709190613be6565b610b7e565b005b610391600480360381019061038c9190613a2a565b610c01565b005b6103ad60048036038101906103a89190613d1a565b610c21565b6040516103ba919061464d565b60405180910390f35b6103dd60048036038101906103d89190613d1a565b610cb8565b6040516103ea9190614316565b60405180910390f35b61040d600480360381019061040891906139c5565b610d6a565b60405161041a919061464d565b60405180910390f35b61043d60048036038101906104389190613d1a565b610e22565b60405161045299989796959493929190614668565b60405180910390f35b610463610ecb565b6040516104709190614316565b60405180910390f35b610493600480360381019061048e9190613c22565b610ee0565b6040516104a09190614316565b60405180910390f35b6104c360048036038101906104be9190613be6565b610f0f565b6040516104d0919061437d565b60405180910390f35b6104f360048036038101906104ee9190613cd9565b610f7a565b005b6104fd610faa565b60405161050a91906143b3565b60405180910390f35b61052d60048036038101906105289190613cd9565b61103c565b005b61053761106c565b6040516105449190614398565b60405180910390f35b61056760048036038101906105629190613af4565b611073565b005b610583600480360381019061057e9190613a79565b611089565b005b61059f600480360381019061059a9190613b30565b6110eb565b6040516105ac919061464d565b60405180910390f35b6105cf60048036038101906105ca9190613d1a565b611155565b6040516105dc91906143b3565b60405180910390f35b6105ff60048036038101906105fa9190613bbd565b6111fc565b60405161060c919061464d565b60405180910390f35b61061d611220565b60405161062a9190614316565b60405180910390f35b61064d600480360381019061064891906139c5565b611246565b005b6106576112e3565b6040516106649190614398565b60405180910390f35b61068760048036038101906106829190613be6565b611307565b005b610691611330565b60405161069e91906143b3565b60405180910390f35b6106c160048036038101906106bc91906139ee565b6113c2565b6040516106ce919061437d565b60405180910390f35b6106f160048036038101906106ec9190613d1a565b6114c4565b6040516107099c9b9a999897969594939291906146f5565b60405180910390f35b60007f780e9d63000000000000000000000000000000000000000000000000000000007bffffffffffffffffffffffffffffffffffffffffffffffffffffffff1916827bffffffffffffffffffffffffffffffffffffffffffffffffffffffff191614806107dd57507f5a05180f000000000000000000000000000000000000000000000000000000007bffffffffffffffffffffffffffffffffffffffffffffffffffffffff1916827bffffffffffffffffffffffffffffffffffffffffffffffffffffffff1916145b806107ed57506107ec826116d6565b5b9050919050565b60606000805461080390614a97565b80601f016020809104026020016040519081016040528092919081815260200182805461082f90614a97565b801561087c5780601f106108515761010080835404028352916020019161087c565b820191906000526020600020905b81548152906001019060200180831161085f57829003601f168201915b5050505050905090565b600061089182611750565b6108d0576040517f08c379a00000000000000000000000000000000000000000000000000000000081526004016108c790614555565b60405180910390fd5b6004600083815260200190815260200160002060009054906101000a900473ffffffffffffffffffffffffffffffffffffffff169050919050565b600061091682610cb8565b90508073ffffffffffffffffffffffffffffffffffffffff168373ffffffffffffffffffffffffffffffffffffffff161415610987576040517f08c379a000000000000000000000000000000000000000000000000000000000815260040161097e90614595565b60405180910390fd5b8073ffffffffffffffffffffffffffffffffffffffff166109a66117bc565b73ffffffffffffffffffffffffffffffffffffffff1614806109d557506109d4816109cf6117bc565b6113c2565b5b610a14576040517f08c379a0000000000000000000000000000000000000000000000000000000008152600401610a0b906144d5565b60405180910390fd5b610a1e83836117c4565b505050565b6000600880549050905090565b610a41610a3b6117bc565b8261187d565b610a80576040517f08c379a0000000000000000000000000000000000000000000000000000000008152600401610a77906145b5565b60405180910390fd5b610a8b83838361195b565b505050565b6000600a6000838152602001908152602001600020600101549050919050565b610ab982610a90565b610aca81610ac56117bc565b611bc2565b610ad48383611c5f565b505050565b6000610ae483610d6a565b8210610b25576040517f08c379a0000000000000000000000000000000000000000000000000000000008152600401610b1c906143f5565b60405180910390fd5b600660008473ffffffffffffffffffffffffffffffffffffffff1673ffffffffffffffffffffffffffffffffffffffff168152602001908152602001600020600083815260200190815260200160002054905092915050565b610b866117bc565b73ffffffffffffffffffffffffffffffffffffffff168173ffffffffffffffffffffffffffffffffffffffff1614610bf3576040517f08c379a0000000000000000000000000000000000000000000000000000000008152600401610bea906145f5565b60405180910390fd5b610bfd8282611c93565b5050565b610c1c83838360405180602001604052806000815250611089565b505050565b6000610c2b610a23565b8210610c6c576040517f08c379a0000000000000000000000000000000000000000000000000000000008152600401610c63906145d5565b60405180910390fd5b60088281548110610ca6577f4e487b7100000000000000000000000000000000000000000000000000000000600052603260045260246000fd5b90600052602060002001549050919050565b6000806002600084815260200190815260200160002060009054906101000a900473ffffffffffffffffffffffffffffffffffffffff169050600073ffffffffffffffffffffffffffffffffffffffff168173ffffffffffffffffffffffffffffffffffffffff161415610d61576040517f08c379a0000000000000000000000000000000000000000000000000000000008152600401610d5890614515565b60405180910390fd5b80915050919050565b60008073ffffffffffffffffffffffffffffffffffffffff168273ffffffffffffffffffffffffffffffffffffffff161415610ddb576040517f08c379a0000000000000000000000000000000000000000000000000000000008152600401610dd2906144f5565b60405180910390fd5b600360008373ffffffffffffffffffffffffffffffffffffffff1673ffffffffffffffffffffffffffffffffffffffff168152602001908152602001600020549050919050565b600e6020528060005260406000206000915090508060000154908060010154908060020160009054906101000a900460ff16908060020160019054906101000a900460ff16908060020160029054906101000a900460ff16908060020160039054906101000a900460ff16908060020160049054906101000a900460ff16908060020160059054906101000a900460ff16908060020160069054906101000a900460ff16905089565b6000610edb6000801b6000610ee0565b905090565b6000610f0782600b6000868152602001908152602001600020611cc790919063ffffffff16565b905092915050565b6000600a600084815260200190815260200160002060000160008373ffffffffffffffffffffffffffffffffffffffff1673ffffffffffffffffffffffffffffffffffffffff16815260200190815260200160002060009054906101000a900460ff16905092915050565b6000801b610f8f81610f8a6117bc565b611bc2565b8160109080519060200190610fa59291906135b0565b505050565b606060018054610fb990614a97565b80601f0160208091040260200160405190810160405280929190818152602001828054610fe590614a97565b80156110325780601f1061100757610100808354040283529160200191611032565b820191906000526020600020905b81548152906001019060200180831161101557829003601f168201915b5050505050905090565b6000801b6110518161104c6117bc565b611bc2565b81600f90805190602001906110679291906135b0565b505050565b6000801b81565b61108561107e6117bc565b8383611ce1565b5050565b61109a6110946117bc565b8361187d565b6110d9576040517f08c379a00000000000000000000000000000000000000000000000000000000081526004016110d0906145b5565b60405180910390fd5b6110e584848484611e4e565b50505050565b60007f9f2df0fed2c77648de5860a4cc508cd0818c85b8b8a1ab4ceeef8d981c8956a661111f8161111a6117bc565b611bc2565b6000611129610a23565b90506111358682611eaa565b61113f8186612084565b6111498185612267565b80925050509392505050565b606061116082611750565b61119f576040517f08c379a000000000000000000000000000000000000000000000000000000000815260040161119690614575565b60405180910390fd5b60006111a96123b6565b905060008151116111c957604051806020016040528060008152506111f4565b806111d384612448565b6040516020016111e49291906142b8565b6040516020818303038152906040525b915050919050565b6000611219600b60008481526020019081526020016000206125f5565b9050919050565b600c60009054906101000a900473ffffffffffffffffffffffffffffffffffffffff1681565b6000801b61125b816112566117bc565b611bc2565b81600c60006101000a81548173ffffffffffffffffffffffffffffffffffffffff021916908373ffffffffffffffffffffffffffffffffffffffff1602179055508173ffffffffffffffffffffffffffffffffffffffff167fa2b0839d4585de7874ef6ce1d56318647d0ba0f8661e7ae4b76c47a7d5766b5360405160405180910390a25050565b7f9f2df0fed2c77648de5860a4cc508cd0818c85b8b8a1ab4ceeef8d981c8956a681565b61131082610a90565b6113218161131c6117bc565b611bc2565b61132b8383611c93565b505050565b60606010805461133f90614a97565b80601f016020809104026020016040519081016040528092919081815260200182805461136b90614a97565b80156113b85780601f1061138d576101008083540402835291602001916113b8565b820191906000526020600020905b81548152906001019060200180831161139b57829003601f168201915b5050505050905090565b600080600c60009054906101000a900473ffffffffffffffffffffffffffffffffffffffff1690508273ffffffffffffffffffffffffffffffffffffffff168173ffffffffffffffffffffffffffffffffffffffff1663c4552791866040518263ffffffff1660e01b815260040161143a9190614316565b60206040518083038186803b15801561145257600080fd5b505afa158015611466573d6000803e3d6000fd5b505050506040513d601f19601f8201168201806040525081019061148a9190613cb0565b73ffffffffffffffffffffffffffffffffffffffff1614156114b05760019150506114be565b6114ba848461260a565b9150505b92915050565b600d6020528060005260406000206000915090508060000160009054906101000a900460ff16908060000160019054906101000a900460ff16908060000160029054906101000a900460ff16908060000160039054906101000a900460ff16908060000160049054906101000a900460ff16908060000160059054906101000a900460ff16908060000160069054906101000a900460ff16908060000160079054906101000a900460ff16908060000160089054906101000a900460ff16908060000160099054906101000a900460ff169080600001600a9054906101000a900460ff169080600001600b9054906101000a900460ff1690508c565b6115ca8282610f0f565b61169d576001600a600084815260200190815260200160002060000160008373ffffffffffffffffffffffffffffffffffffffff1673ffffffffffffffffffffffffffffffffffffffff16815260200190815260200160002060006101000a81548160ff0219169083151502179055506116426117bc565b73ffffffffffffffffffffffffffffffffffffffff168173ffffffffffffffffffffffffffffffffffffffff16837f2f8788117e7eff1d82e926ec794901d17c78024a50270940304540a733656f0d60405160405180910390a45b5050565b60006116c9836000018373ffffffffffffffffffffffffffffffffffffffff1660001b61269e565b905092915050565b505050565b60007f5a05180f000000000000000000000000000000000000000000000000000000007bffffffffffffffffffffffffffffffffffffffffffffffffffffffff1916827bffffffffffffffffffffffffffffffffffffffffffffffffffffffff1916148061174957506117488261270e565b5b9050919050565b60008073ffffffffffffffffffffffffffffffffffffffff166002600084815260200190815260200160002060009054906101000a900473ffffffffffffffffffffffffffffffffffffffff1673ffffffffffffffffffffffffffffffffffffffff1614159050919050565b600033905090565b816004600083815260200190815260200160002060006101000a81548173ffffffffffffffffffffffffffffffffffffffff021916908373ffffffffffffffffffffffffffffffffffffffff160217905550808273ffffffffffffffffffffffffffffffffffffffff1661183783610cb8565b73ffffffffffffffffffffffffffffffffffffffff167f8c5be1e5ebec7d5bd14f71427d1e84f3dd0314c0f7b2291e5b200ac8c7c3b92560405160405180910390a45050565b600061188882611750565b6118c7576040517f08c379a00000000000000000000000000000000000000000000000000000000081526004016118be906144b5565b60405180910390fd5b60006118d283610cb8565b90508073ffffffffffffffffffffffffffffffffffffffff168473ffffffffffffffffffffffffffffffffffffffff16148061194157508373ffffffffffffffffffffffffffffffffffffffff1661192984610886565b73ffffffffffffffffffffffffffffffffffffffff16145b80611952575061195181856113c2565b5b91505092915050565b8273ffffffffffffffffffffffffffffffffffffffff1661197b82610cb8565b73ffffffffffffffffffffffffffffffffffffffff16146119d1576040517f08c379a00000000000000000000000000000000000000000000000000000000081526004016119c890614435565b60405180910390fd5b600073ffffffffffffffffffffffffffffffffffffffff168273ffffffffffffffffffffffffffffffffffffffff161415611a41576040517f08c379a0000000000000000000000000000000000000000000000000000000008152600401611a3890614475565b60405180910390fd5b611a4c838383612788565b611a576000826117c4565b6001600360008573ffffffffffffffffffffffffffffffffffffffff1673ffffffffffffffffffffffffffffffffffffffff1681526020019081526020016000206000828254611aa7919061495a565b925050819055506001600360008473ffffffffffffffffffffffffffffffffffffffff1673ffffffffffffffffffffffffffffffffffffffff1681526020019081526020016000206000828254611afe9190614879565b92505081905550816002600083815260200190815260200160002060006101000a81548173ffffffffffffffffffffffffffffffffffffffff021916908373ffffffffffffffffffffffffffffffffffffffff160217905550808273ffffffffffffffffffffffffffffffffffffffff168473ffffffffffffffffffffffffffffffffffffffff167fddf252ad1be2c89b69c2b068fc378daa952ba7f163c4a11628f55a4df523b3ef60405160405180910390a4611bbd83838361289c565b505050565b611bcc8282610f0f565b611c5b57611bf18173ffffffffffffffffffffffffffffffffffffffff1660146128a1565b611bff8360001c60206128a1565b604051602001611c109291906142dc565b6040516020818303038152906040526040517f08c379a0000000000000000000000000000000000000000000000000000000008152600401611c5291906143b3565b60405180910390fd5b5050565b611c6982826115c0565b611c8e81600b60008581526020019081526020016000206116a190919063ffffffff16565b505050565b611c9d8282612b9b565b611cc281600b6000858152602001908152602001600020612c7d90919063ffffffff16565b505050565b6000611cd68360000183612cad565b60001c905092915050565b8173ffffffffffffffffffffffffffffffffffffffff168373ffffffffffffffffffffffffffffffffffffffff161415611d50576040517f08c379a0000000000000000000000000000000000000000000000000000000008152600401611d4790614495565b60405180910390fd5b80600560008573ffffffffffffffffffffffffffffffffffffffff1673ffffffffffffffffffffffffffffffffffffffff16815260200190815260200160002060008473ffffffffffffffffffffffffffffffffffffffff1673ffffffffffffffffffffffffffffffffffffffff16815260200190815260200160002060006101000a81548160ff0219169083151502179055508173ffffffffffffffffffffffffffffffffffffffff168373ffffffffffffffffffffffffffffffffffffffff167f17307eab39ab6107e8899845ad3d59bd9653f200f220920489ca2b5937696c3183604051611e41919061437d565b60405180910390a3505050565b611e5984848461195b565b611e6584848484612cfe565b611ea4576040517f08c379a0000000000000000000000000000000000000000000000000000000008152600401611e9b90614415565b60405180910390fd5b50505050565b600073ffffffffffffffffffffffffffffffffffffffff168273ffffffffffffffffffffffffffffffffffffffff161415611f1a576040517f08c379a0000000000000000000000000000000000000000000000000000000008152600401611f1190614535565b60405180910390fd5b611f2381611750565b15611f63576040517f08c379a0000000000000000000000000000000000000000000000000000000008152600401611f5a90614455565b60405180910390fd5b611f6f60008383612788565b6001600360008473ffffffffffffffffffffffffffffffffffffffff1673ffffffffffffffffffffffffffffffffffffffff1681526020019081526020016000206000828254611fbf9190614879565b92505081905550816002600083815260200190815260200160002060006101000a81548173ffffffffffffffffffffffffffffffffffffffff021916908373ffffffffffffffffffffffffffffffffffffffff160217905550808273ffffffffffffffffffffffffffffffffffffffff16600073ffffffffffffffffffffffffffffffffffffffff167fddf252ad1be2c89b69c2b068fc378daa952ba7f163c4a11628f55a4df523b3ef60405160405180910390a46120806000838361289c565b5050565b80600d600084815260200190815260200160002060008201518160000160006101000a81548160ff021916908360ff16021790555060208201518160000160016101000a81548160ff021916908360ff16021790555060408201518160000160026101000a81548160ff021916908360ff16021790555060608201518160000160036101000a81548160ff021916908360ff16021790555060808201518160000160046101000a81548160ff021916908360ff16021790555060a08201518160000160056101000a81548160ff021916908360ff16021790555060c08201518160000160066101000a81548160ff021916908360ff16021790555060e08201518160000160076101000a81548160ff021916908360ff1602179055506101008201518160000160086101000a81548160ff021916908360ff1602179055506101208201518160000160096101000a81548160ff021916908360ff16021790555061014082015181600001600a6101000a81548160ff021916908360ff16021790555061016082015181600001600b6101000a81548160ff021916908360ff160217905550905050817f1a6e49c439dfb32aa6284482bc7a238ce805706dd9b685516123c05e947e7ea38260405161225b9190614615565b60405180910390a25050565b80600e6000848152602001908152602001600020600082015181600001556020820151816001015560408201518160020160006101000a81548160ff021916908360ff16021790555060608201518160020160016101000a81548160ff021916908360ff16021790555060808201518160020160026101000a81548160ff021916908360ff16021790555060a08201518160020160036101000a81548160ff021916908360ff16021790555060c08201518160020160046101000a81548160ff021916908360ff16021790555060e08201518160020160056101000a81548160ff021916908360ff1602179055506101008201518160020160066101000a81548160ff021916908360ff160217905550905050817f2036cd788031480791614b2f778f4b472e1a16a7802e76f095f1d00ae4a2be7f826040516123aa9190614631565b60405180910390a25050565b6060600f80546123c590614a97565b80601f01602080910402602001604051908101604052809291908181526020018280546123f190614a97565b801561243e5780601f106124135761010080835404028352916020019161243e565b820191906000526020600020905b81548152906001019060200180831161242157829003601f168201915b5050505050905090565b60606000821415612490576040518060400160405280600181526020017f300000000000000000000000000000000000000000000000000000000000000081525090506125f0565b600082905060005b600082146124c25780806124ab90614afa565b915050600a826124bb91906148cf565b9150612498565b60008167ffffffffffffffff811115612504577f4e487b7100000000000000000000000000000000000000000000000000000000600052604160045260246000fd5b6040519080825280601f01601f1916602001820160405280156125365781602001600182028036833780820191505090505b5090505b600085146125e95760018261254f919061495a565b9150600a8561255e9190614b43565b603061256a9190614879565b60f81b8183815181106125a6577f4e487b7100000000000000000000000000000000000000000000000000000000600052603260045260246000fd5b60200101907effffffffffffffffffffffffffffffffffffffffffffffffffffffffffffff1916908160001a905350600a856125e291906148cf565b945061253a565b8093505050505b919050565b600061260382600001612e95565b9050919050565b6000600560008473ffffffffffffffffffffffffffffffffffffffff1673ffffffffffffffffffffffffffffffffffffffff16815260200190815260200160002060008373ffffffffffffffffffffffffffffffffffffffff1673ffffffffffffffffffffffffffffffffffffffff16815260200190815260200160002060009054906101000a900460ff16905092915050565b60006126aa8383612ea6565b612703578260000182908060018154018082558091505060019003906000526020600020016000909190919091505582600001805490508360010160008481526020019081526020016000208190555060019050612708565b600090505b92915050565b60007f7965db0b000000000000000000000000000000000000000000000000000000007bffffffffffffffffffffffffffffffffffffffffffffffffffffffff1916827bffffffffffffffffffffffffffffffffffffffffffffffffffffffff19161480612781575061278082612ec9565b5b9050919050565b6127938383836116d1565b600073ffffffffffffffffffffffffffffffffffffffff168373ffffffffffffffffffffffffffffffffffffffff1614156127d6576127d181612f43565b612815565b8173ffffffffffffffffffffffffffffffffffffffff168373ffffffffffffffffffffffffffffffffffffffff1614612814576128138382612f8c565b5b5b600073ffffffffffffffffffffffffffffffffffffffff168273ffffffffffffffffffffffffffffffffffffffff16141561285857612853816130f9565b612897565b8273ffffffffffffffffffffffffffffffffffffffff168273ffffffffffffffffffffffffffffffffffffffff161461289657612895828261323c565b5b5b505050565b505050565b6060600060028360026128b49190614900565b6128be9190614879565b67ffffffffffffffff8111156128fd577f4e487b7100000000000000000000000000000000000000000000000000000000600052604160045260246000fd5b6040519080825280601f01601f19166020018201604052801561292f5781602001600182028036833780820191505090505b5090507f30000000000000000000000000000000000000000000000000000000000000008160008151811061298d577f4e487b7100000000000000000000000000000000000000000000000000000000600052603260045260246000fd5b60200101907effffffffffffffffffffffffffffffffffffffffffffffffffffffffffffff1916908160001a9053507f780000000000000000000000000000000000000000000000000000000000000081600181518110612a17577f4e487b7100000000000000000000000000000000000000000000000000000000600052603260045260246000fd5b60200101907effffffffffffffffffffffffffffffffffffffffffffffffffffffffffffff1916908160001a90535060006001846002612a579190614900565b612a619190614879565b90505b6001811115612b4d577f3031323334353637383961626364656600000000000000000000000000000000600f861660108110612ac9577f4e487b7100000000000000000000000000000000000000000000000000000000600052603260045260246000fd5b1a60f81b828281518110612b06577f4e487b7100000000000000000000000000000000000000000000000000000000600052603260045260246000fd5b60200101907effffffffffffffffffffffffffffffffffffffffffffffffffffffffffffff1916908160001a905350600485901c945080612b4690614a6d565b9050612a64565b5060008414612b91576040517f08c379a0000000000000000000000000000000000000000000000000000000008152600401612b88906143d5565b60405180910390fd5b8091505092915050565b612ba58282610f0f565b15612c79576000600a600084815260200190815260200160002060000160008373ffffffffffffffffffffffffffffffffffffffff1673ffffffffffffffffffffffffffffffffffffffff16815260200190815260200160002060006101000a81548160ff021916908315150217905550612c1e6117bc565b73ffffffffffffffffffffffffffffffffffffffff168173ffffffffffffffffffffffffffffffffffffffff16837ff6391f5c32d9c69d2a47ea670b442974b53935d1edc7fd64eb21e047a839171b60405160405180910390a45b5050565b6000612ca5836000018373ffffffffffffffffffffffffffffffffffffffff1660001b6132bb565b905092915050565b6000826000018281548110612ceb577f4e487b7100000000000000000000000000000000000000000000000000000000600052603260045260246000fd5b9060005260206000200154905092915050565b6000612d1f8473ffffffffffffffffffffffffffffffffffffffff16613441565b15612e88578373ffffffffffffffffffffffffffffffffffffffff1663150b7a02612d486117bc565b8786866040518563ffffffff1660e01b8152600401612d6a9493929190614331565b602060405180830381600087803b158015612d8457600080fd5b505af1925050508015612db557506040513d601f19601f82011682018060405250810190612db29190613c87565b60015b612e38573d8060008114612de5576040519150601f19603f3d011682016040523d82523d6000602084013e612dea565b606091505b50600081511415612e30576040517f08c379a0000000000000000000000000000000000000000000000000000000008152600401612e2790614415565b60405180910390fd5b805181602001fd5b63150b7a0260e01b7bffffffffffffffffffffffffffffffffffffffffffffffffffffffff1916817bffffffffffffffffffffffffffffffffffffffffffffffffffffffff191614915050612e8d565b600190505b949350505050565b600081600001805490509050919050565b600080836001016000848152602001908152602001600020541415905092915050565b60007f780e9d63000000000000000000000000000000000000000000000000000000007bffffffffffffffffffffffffffffffffffffffffffffffffffffffff1916827bffffffffffffffffffffffffffffffffffffffffffffffffffffffff19161480612f3c5750612f3b82613464565b5b9050919050565b6008805490506009600083815260200190815260200160002081905550600881908060018154018082558091505060019003906000526020600020016000909190919091505550565b60006001612f9984610d6a565b612fa3919061495a565b9050600060076000848152602001908152602001600020549050818114613088576000600660008673ffffffffffffffffffffffffffffffffffffffff1673ffffffffffffffffffffffffffffffffffffffff168152602001908152602001600020600084815260200190815260200160002054905080600660008773ffffffffffffffffffffffffffffffffffffffff1673ffffffffffffffffffffffffffffffffffffffff168152602001908152602001600020600084815260200190815260200160002081905550816007600083815260200190815260200160002081905550505b6007600084815260200190815260200160002060009055600660008573ffffffffffffffffffffffffffffffffffffffff1673ffffffffffffffffffffffffffffffffffffffff16815260200190815260200160002060008381526020019081526020016000206000905550505050565b6000600160088054905061310d919061495a565b9050600060096000848152602001908152602001600020549050600060088381548110613163577f4e487b7100000000000000000000000000000000000000000000000000000000600052603260045260246000fd5b9060005260206000200154905080600883815481106131ab577f4e487b7100000000000000000000000000000000000000000000000000000000600052603260045260246000fd5b906000526020600020018190555081600960008381526020019081526020016000208190555060096000858152602001908152602001600020600090556008805480613220577f4e487b7100000000000000000000000000000000000000000000000000000000600052603160045260246000fd5b6001900381819060005260206000200160009055905550505050565b600061324783610d6a565b905081600660008573ffffffffffffffffffffffffffffffffffffffff1673ffffffffffffffffffffffffffffffffffffffff168152602001908152602001600020600083815260200190815260200160002081905550806007600084815260200190815260200160002081905550505050565b600080836001016000848152602001908152602001600020549050600081146134355760006001826132ed919061495a565b9050600060018660000180549050613305919061495a565b90508181146133c057600086600001828154811061334c577f4e487b7100000000000000000000000000000000000000000000000000000000600052603260045260246000fd5b9060005260206000200154905080876000018481548110613396577f4e487b7100000000000000000000000000000000000000000000000000000000600052603260045260246000fd5b90600052602060002001819055508387600101600083815260200190815260200160002081905550505b856000018054806133fa577f4e487b7100000000000000000000000000000000000000000000000000000000600052603160045260246000fd5b60019003818190600052602060002001600090559055856001016000868152602001908152602001600020600090556001935050505061343b565b60009150505b92915050565b6000808273ffffffffffffffffffffffffffffffffffffffff163b119050919050565b60007f80ac58cd000000000000000000000000000000000000000000000000000000007bffffffffffffffffffffffffffffffffffffffffffffffffffffffff1916827bffffffffffffffffffffffffffffffffffffffffffffffffffffffff1916148061352f57507f5b5e139f000000000000000000000000000000000000000000000000000000007bffffffffffffffffffffffffffffffffffffffffffffffffffffffff1916827bffffffffffffffffffffffffffffffffffffffffffffffffffffffff1916145b8061353f575061353e82613546565b5b9050919050565b60007f01ffc9a7000000000000000000000000000000000000000000000000000000007bffffffffffffffffffffffffffffffffffffffffffffffffffffffff1916827bffffffffffffffffffffffffffffffffffffffffffffffffffffffff1916149050919050565b8280546135bc90614a97565b90600052602060002090601f0160209004810192826135de5760008555613625565b82601f106135f757805160ff1916838001178555613625565b82800160010185558215613625579182015b82811115613624578251825591602001919060010190613609565b5b5090506136329190613636565b5090565b5b8082111561364f576000816000905550600101613637565b5090565b6000613666613661846147d4565b6147af565b90508281526020810184848401111561367e57600080fd5b613689848285614a2b565b509392505050565b60006136a461369f84614805565b6147af565b9050828152602081018484840111156136bc57600080fd5b6136c7848285614a2b565b509392505050565b6000813590506136de81615189565b92915050565b6000813590506136f3816151a0565b92915050565b600081359050613708816151b7565b92915050565b60008135905061371d816151ce565b92915050565b600081519050613732816151ce565b92915050565b600082601f83011261374957600080fd5b8135613759848260208601613653565b91505092915050565b600081519050613771816151e5565b92915050565b600082601f83011261378857600080fd5b8135613798848260208601613691565b91505092915050565b600061018082840312156137b457600080fd5b6137bf6101806147af565b905060006137cf848285016139b0565b60008301525060206137e3848285016139b0565b60208301525060406137f7848285016139b0565b604083015250606061380b848285016139b0565b606083015250608061381f848285016139b0565b60808301525060a0613833848285016139b0565b60a08301525060c0613847848285016139b0565b60c08301525060e061385b848285016139b0565b60e083015250610100613870848285016139b0565b61010083015250610120613886848285016139b0565b6101208301525061014061389c848285016139b0565b610140830152506101606138b2848285016139b0565b6101608301525092915050565b600061012082840312156138d257600080fd5b6138dd6101206147af565b905060006138ed8482850161399b565b60008301525060206139018482850161399b565b6020830152506040613915848285016139b0565b6040830152506060613929848285016139b0565b606083015250608061393d848285016139b0565b60808301525060a0613951848285016139b0565b60a08301525060c0613965848285016139b0565b60c08301525060e0613979848285016139b0565b60e08301525061010061398e848285016139b0565b6101008301525092915050565b6000813590506139aa816151fc565b92915050565b6000813590506139bf81615213565b92915050565b6000602082840312156139d757600080fd5b60006139e5848285016136cf565b91505092915050565b60008060408385031215613a0157600080fd5b6000613a0f858286016136cf565b9250506020613a20858286016136cf565b9150509250929050565b600080600060608486031215613a3f57600080fd5b6000613a4d868287016136cf565b9350506020613a5e868287016136cf565b9250506040613a6f8682870161399b565b9150509250925092565b60008060008060808587031215613a8f57600080fd5b6000613a9d878288016136cf565b9450506020613aae878288016136cf565b9350506040613abf8782880161399b565b925050606085013567ffffffffffffffff811115613adc57600080fd5b613ae887828801613738565b91505092959194509250565b60008060408385031215613b0757600080fd5b6000613b15858286016136cf565b9250506020613b26858286016136e4565b9150509250929050565b60008060006102c08486031215613b4657600080fd5b6000613b54868287016136cf565b9350506020613b65868287016137a1565b9250506101a0613b77868287016138bf565b9150509250925092565b60008060408385031215613b9457600080fd5b6000613ba2858286016136cf565b9250506020613bb38582860161399b565b9150509250929050565b600060208284031215613bcf57600080fd5b6000613bdd848285016136f9565b91505092915050565b60008060408385031215613bf957600080fd5b6000613c07858286016136f9565b9250506020613c18858286016136cf565b9150509250929050565b60008060408385031215613c3557600080fd5b6000613c43858286016136f9565b9250506020613c548582860161399b565b9150509250929050565b600060208284031215613c7057600080fd5b6000613c7e8482850161370e565b91505092915050565b600060208284031215613c9957600080fd5b6000613ca784828501613723565b91505092915050565b600060208284031215613cc257600080fd5b6000613cd084828501613762565b91505092915050565b600060208284031215613ceb57600080fd5b600082013567ffffffffffffffff811115613d0557600080fd5b613d1184828501613777565b91505092915050565b600060208284031215613d2c57600080fd5b6000613d3a8482850161399b565b91505092915050565b613d4c8161498e565b82525050565b613d5b816149a0565b82525050565b613d6a816149ac565b82525050565b6000613d7b82614836565b613d85818561484c565b9350613d95818560208601614a3a565b613d9e81614c30565b840191505092915050565b6000613db482614841565b613dbe818561485d565b9350613dce818560208601614a3a565b613dd781614c30565b840191505092915050565b6000613ded82614841565b613df7818561486e565b9350613e07818560208601614a3a565b80840191505092915050565b6000613e2060208361485d565b9150613e2b82614c41565b602082019050919050565b6000613e43602b8361485d565b9150613e4e82614c6a565b604082019050919050565b6000613e6660328361485d565b9150613e7182614cb9565b604082019050919050565b6000613e8960258361485d565b9150613e9482614d08565b604082019050919050565b6000613eac601c8361485d565b9150613eb782614d57565b602082019050919050565b6000613ecf60248361485d565b9150613eda82614d80565b604082019050919050565b6000613ef260198361485d565b9150613efd82614dcf565b602082019050919050565b6000613f15602c8361485d565b9150613f2082614df8565b604082019050919050565b6000613f3860388361485d565b9150613f4382614e47565b604082019050919050565b6000613f5b602a8361485d565b9150613f6682614e96565b604082019050919050565b6000613f7e60298361485d565b9150613f8982614ee5565b604082019050919050565b6000613fa160208361485d565b9150613fac82614f34565b602082019050919050565b6000613fc4602c8361485d565b9150613fcf82614f5d565b604082019050919050565b6000613fe7602f8361485d565b9150613ff282614fac565b604082019050919050565b600061400a60218361485d565b915061401582614ffb565b604082019050919050565b600061402d60318361485d565b91506140388261504a565b604082019050919050565b6000614050602c8361485d565b915061405b82615099565b604082019050919050565b600061407360178361486e565b915061407e826150e8565b601782019050919050565b600061409660118361486e565b91506140a182615111565b601182019050919050565b60006140b9602f8361485d565b91506140c48261513a565b604082019050919050565b610180820160008201516140e6600085018261429a565b5060208201516140f9602085018261429a565b50604082015161410c604085018261429a565b50606082015161411f606085018261429a565b506080820151614132608085018261429a565b5060a082015161414560a085018261429a565b5060c082015161415860c085018261429a565b5060e082015161416b60e085018261429a565b5061010082015161418061010085018261429a565b5061012082015161419561012085018261429a565b506101408201516141aa61014085018261429a565b506101608201516141bf61016085018261429a565b50505050565b610120820160008201516141dc600085018261427c565b5060208201516141ef602085018261427c565b506040820151614202604085018261429a565b506060820151614215606085018261429a565b506080820151614228608085018261429a565b5060a082015161423b60a085018261429a565b5060c082015161424e60c085018261429a565b5060e082015161426160e085018261429a565b5061010082015161427661010085018261429a565b50505050565b61428581614a14565b82525050565b61429481614a14565b82525050565b6142a381614a1e565b82525050565b6142b281614a1e565b82525050565b60006142c48285613de2565b91506142d08284613de2565b91508190509392505050565b60006142e782614066565b91506142f38285613de2565b91506142fe82614089565b915061430a8284613de2565b91508190509392505050565b600060208201905061432b6000830184613d43565b92915050565b60006080820190506143466000830187613d43565b6143536020830186613d43565b614360604083018561428b565b81810360608301526143728184613d70565b905095945050505050565b60006020820190506143926000830184613d52565b92915050565b60006020820190506143ad6000830184613d61565b92915050565b600060208201905081810360008301526143cd8184613da9565b905092915050565b600060208201905081810360008301526143ee81613e13565b9050919050565b6000602082019050818103600083015261440e81613e36565b9050919050565b6000602082019050818103600083015261442e81613e59565b9050919050565b6000602082019050818103600083015261444e81613e7c565b9050919050565b6000602082019050818103600083015261446e81613e9f565b9050919050565b6000602082019050818103600083015261448e81613ec2565b9050919050565b600060208201905081810360008301526144ae81613ee5565b9050919050565b600060208201905081810360008301526144ce81613f08565b9050919050565b600060208201905081810360008301526144ee81613f2b565b9050919050565b6000602082019050818103600083015261450e81613f4e565b9050919050565b6000602082019050818103600083015261452e81613f71565b9050919050565b6000602082019050818103600083015261454e81613f94565b9050919050565b6000602082019050818103600083015261456e81613fb7565b9050919050565b6000602082019050818103600083015261458e81613fda565b9050919050565b600060208201905081810360008301526145ae81613ffd565b9050919050565b600060208201905081810360008301526145ce81614020565b9050919050565b600060208201905081810360008301526145ee81614043565b9050919050565b6000602082019050818103600083015261460e816140ac565b9050919050565b60006101808201905061462b60008301846140cf565b92915050565b60006101208201905061464760008301846141c5565b92915050565b6000602082019050614662600083018461428b565b92915050565b60006101208201905061467e600083018c61428b565b61468b602083018b61428b565b614698604083018a6142a9565b6146a560608301896142a9565b6146b260808301886142a9565b6146bf60a08301876142a9565b6146cc60c08301866142a9565b6146d960e08301856142a9565b6146e76101008301846142a9565b9a9950505050505050505050565b60006101808201905061470b600083018f6142a9565b614718602083018e6142a9565b614725604083018d6142a9565b614732606083018c6142a9565b61473f608083018b6142a9565b61474c60a083018a6142a9565b61475960c08301896142a9565b61476660e08301886142a9565b6147746101008301876142a9565b6147826101208301866142a9565b6147906101408301856142a9565b61479e6101608301846142a9565b9d9c50505050505050505050505050565b60006147b96147ca565b90506147c58282614ac9565b919050565b6000604051905090565b600067ffffffffffffffff8211156147ef576147ee614c01565b5b6147f882614c30565b9050602081019050919050565b600067ffffffffffffffff8211156148205761481f614c01565b5b61482982614c30565b9050602081019050919050565b600081519050919050565b600081519050919050565b600082825260208201905092915050565b600082825260208201905092915050565b600081905092915050565b600061488482614a14565b915061488f83614a14565b9250827fffffffffffffffffffffffffffffffffffffffffffffffffffffffffffffffff038211156148c4576148c3614b74565b5b828201905092915050565b60006148da82614a14565b91506148e583614a14565b9250826148f5576148f4614ba3565b5b828204905092915050565b600061490b82614a14565b915061491683614a14565b9250817fffffffffffffffffffffffffffffffffffffffffffffffffffffffffffffffff048311821515161561494f5761494e614b74565b5b828202905092915050565b600061496582614a14565b915061497083614a14565b92508282101561498357614982614b74565b5b828203905092915050565b6000614999826149f4565b9050919050565b60008115159050919050565b6000819050919050565b60007fffffffff0000000000000000000000000000000000000000000000000000000082169050919050565b60006149ed8261498e565b9050919050565b600073ffffffffffffffffffffffffffffffffffffffff82169050919050565b6000819050919050565b600060ff82169050919050565b82818337600083830152505050565b60005b83811015614a58578082015181840152602081019050614a3d565b83811115614a67576000848401525b50505050565b6000614a7882614a14565b91506000821415614a8c57614a8b614b74565b5b600182039050919050565b60006002820490506001821680614aaf57607f821691505b60208210811415614ac357614ac2614bd2565b5b50919050565b614ad282614c30565b810181811067ffffffffffffffff82111715614af157614af0614c01565b5b80604052505050565b6000614b0582614a14565b91507fffffffffffffffffffffffffffffffffffffffffffffffffffffffffffffffff821415614b3857614b37614b74565b5b600182019050919050565b6000614b4e82614a14565b9150614b5983614a14565b925082614b6957614b68614ba3565b5b828206905092915050565b7f4e487b7100000000000000000000000000000000000000000000000000000000600052601160045260246000fd5b7f4e487b7100000000000000000000000000000000000000000000000000000000600052601260045260246000fd5b7f4e487b7100000000000000000000000000000000000000000000000000000000600052602260045260246000fd5b7f4e487b7100000000000000000000000000000000000000000000000000000000600052604160045260246000fd5b6000601f19601f8301169050919050565b7f537472696e67733a20686578206c656e67746820696e73756666696369656e74600082015250565b7f455243373231456e756d657261626c653a206f776e657220696e646578206f7560008201527f74206f6620626f756e6473000000000000000000000000000000000000000000602082015250565b7f4552433732313a207472616e7366657220746f206e6f6e20455243373231526560008201527f63656976657220696d706c656d656e7465720000000000000000000000000000602082015250565b7f4552433732313a207472616e736665722066726f6d20696e636f72726563742060008201527f6f776e6572000000000000000000000000000000000000000000000000000000602082015250565b7f4552433732313a20746f6b656e20616c7265616479206d696e74656400000000600082015250565b7f4552433732313a207472616e7366657220746f20746865207a65726f2061646460008201527f7265737300000000000000000000000000000000000000000000000000000000602082015250565b7f4552433732313a20617070726f766520746f2063616c6c657200000000000000600082015250565b7f4552433732313a206f70657261746f7220717565727920666f72206e6f6e657860008201527f697374656e7420746f6b656e0000000000000000000000000000000000000000602082015250565b7f4552433732313a20617070726f76652063616c6c6572206973206e6f74206f7760008201527f6e6572206e6f7220617070726f76656420666f7220616c6c0000000000000000602082015250565b7f4552433732313a2062616c616e636520717565727920666f7220746865207a6560008201527f726f206164647265737300000000000000000000000000000000000000000000602082015250565b7f4552433732313a206f776e657220717565727920666f72206e6f6e657869737460008201527f656e7420746f6b656e0000000000000000000000000000000000000000000000602082015250565b7f4552433732313a206d696e7420746f20746865207a65726f2061646472657373600082015250565b7f4552433732313a20617070726f76656420717565727920666f72206e6f6e657860008201527f697374656e7420746f6b656e0000000000000000000000000000000000000000602082015250565b7f4552433732314d657461646174613a2055524920717565727920666f72206e6f60008201527f6e6578697374656e7420746f6b656e0000000000000000000000000000000000602082015250565b7f4552433732313a20617070726f76616c20746f2063757272656e74206f776e6560008201527f7200000000000000000000000000000000000000000000000000000000000000602082015250565b7f4552433732313a207472616e736665722063616c6c6572206973206e6f74206f60008201527f776e6572206e6f7220617070726f766564000000000000000000000000000000602082015250565b7f455243373231456e756d657261626c653a20676c6f62616c20696e646578206f60008201527f7574206f6620626f756e64730000000000000000000000000000000000000000602082015250565b7f416363657373436f6e74726f6c3a206163636f756e7420000000000000000000600082015250565b7f206973206d697373696e6720726f6c6520000000000000000000000000000000600082015250565b7f416363657373436f6e74726f6c3a2063616e206f6e6c792072656e6f756e636560008201527f20726f6c657320666f722073656c660000000000000000000000000000000000602082015250565b6151928161498e565b811461519d57600080fd5b50565b6151a9816149a0565b81146151b457600080fd5b50565b6151c0816149ac565b81146151cb57600080fd5b50565b6151d7816149b6565b81146151e257600080fd5b50565b6151ee816149e2565b81146151f957600080fd5b50565b61520581614a14565b811461521057600080fd5b50565b61521c81614a1e565b811461522757600080fd5b5056fea264697066735822122084895699c26425ac28364a60a4d131bb69d732ed94154ab23312c91a5ea7e94964736f6c63430008040033",
  "devdoc": {
    "kind": "dev",
    "methods": {
      "approve(address,uint256)": {
        "details": "See {IERC721-approve}."
      },
      "balanceOf(address)": {
        "details": "See {IERC721-balanceOf}."
      },
      "getApproved(uint256)": {
        "details": "See {IERC721-getApproved}."
      },
      "getRoleAdmin(bytes32)": {
        "details": "Returns the admin role that controls `role`. See {grantRole} and {revokeRole}. To change a role's admin, use {_setRoleAdmin}."
      },
      "getRoleMember(bytes32,uint256)": {
        "details": "Returns one of the accounts that have `role`. `index` must be a value between 0 and {getRoleMemberCount}, non-inclusive. Role bearers are not sorted in any particular way, and their ordering may change at any point. WARNING: When using {getRoleMember} and {getRoleMemberCount}, make sure you perform all queries on the same block. See the following https://forum.openzeppelin.com/t/iterating-over-elements-on-enumerableset-in-openzeppelin-contracts/2296[forum post] for more information."
      },
      "getRoleMemberCount(bytes32)": {
        "details": "Returns the number of accounts that have `role`. Can be used together with {getRoleMember} to enumerate all bearers of a role."
      },
      "grantRole(bytes32,address)": {
        "details": "Grants `role` to `account`. If `account` had not been already granted `role`, emits a {RoleGranted} event. Requirements: - the caller must have ``role``'s admin role."
      },
      "hasRole(bytes32,address)": {
        "details": "Returns `true` if `account` has been granted `role`."
      },
      "name()": {
        "details": "See {IERC721Metadata-name}."
      },
      "ownerOf(uint256)": {
        "details": "See {IERC721-ownerOf}."
      },
      "renounceRole(bytes32,address)": {
        "details": "Revokes `role` from the calling account. Roles are often managed via {grantRole} and {revokeRole}: this function's purpose is to provide a mechanism for accounts to lose their privileges if they are compromised (such as when a trusted device is misplaced). If the calling account had been revoked `role`, emits a {RoleRevoked} event. Requirements: - the caller must be `account`."
      },
      "revokeRole(bytes32,address)": {
        "details": "Revokes `role` from `account`. If `account` had been granted `role`, emits a {RoleRevoked} event. Requirements: - the caller must have ``role``'s admin role."
      },
      "safeTransferFrom(address,address,uint256)": {
        "details": "See {IERC721-safeTransferFrom}."
      },
      "safeTransferFrom(address,address,uint256,bytes)": {
        "details": "See {IERC721-safeTransferFrom}."
      },
      "setApprovalForAll(address,bool)": {
        "details": "See {IERC721-setApprovalForAll}."
      },
      "symbol()": {
        "details": "See {IERC721Metadata-symbol}."
      },
      "tokenByIndex(uint256)": {
        "details": "See {IERC721Enumerable-tokenByIndex}."
      },
      "tokenOfOwnerByIndex(address,uint256)": {
        "details": "See {IERC721Enumerable-tokenOfOwnerByIndex}."
      },
      "tokenURI(uint256)": {
        "details": "See {IERC721Metadata-tokenURI}."
      },
      "totalSupply()": {
        "details": "See {IERC721Enumerable-totalSupply}."
      },
      "transferFrom(address,address,uint256)": {
        "details": "See {IERC721-transferFrom}."
      }
    },
    "version": 1
  },
  "userdoc": {
    "kind": "user",
    "methods": {
      "isApprovedForAll(address,address)": {
        "notice": "Override isApprovedForAll to whitelist user's OpenSea proxy accounts to enable gas-less listings."
      }
    },
    "version": 1
  },
  "storageLayout": {
    "storage": [
      {
        "astId": 662,
        "contract": "contracts/winzers/WinzerERC721.sol:WinzerERC721",
        "label": "_name",
        "offset": 0,
        "slot": "0",
        "type": "t_string_storage"
      },
      {
        "astId": 664,
        "contract": "contracts/winzers/WinzerERC721.sol:WinzerERC721",
        "label": "_symbol",
        "offset": 0,
        "slot": "1",
        "type": "t_string_storage"
      },
      {
        "astId": 668,
        "contract": "contracts/winzers/WinzerERC721.sol:WinzerERC721",
        "label": "_owners",
        "offset": 0,
        "slot": "2",
        "type": "t_mapping(t_uint256,t_address)"
      },
      {
        "astId": 672,
        "contract": "contracts/winzers/WinzerERC721.sol:WinzerERC721",
        "label": "_balances",
        "offset": 0,
        "slot": "3",
        "type": "t_mapping(t_address,t_uint256)"
      },
      {
        "astId": 676,
        "contract": "contracts/winzers/WinzerERC721.sol:WinzerERC721",
        "label": "_tokenApprovals",
        "offset": 0,
        "slot": "4",
        "type": "t_mapping(t_uint256,t_address)"
      },
      {
        "astId": 682,
        "contract": "contracts/winzers/WinzerERC721.sol:WinzerERC721",
        "label": "_operatorApprovals",
        "offset": 0,
        "slot": "5",
        "type": "t_mapping(t_address,t_mapping(t_address,t_bool))"
      },
      {
        "astId": 1651,
        "contract": "contracts/winzers/WinzerERC721.sol:WinzerERC721",
        "label": "_ownedTokens",
        "offset": 0,
        "slot": "6",
        "type": "t_mapping(t_address,t_mapping(t_uint256,t_uint256))"
      },
      {
        "astId": 1655,
        "contract": "contracts/winzers/WinzerERC721.sol:WinzerERC721",
        "label": "_ownedTokensIndex",
        "offset": 0,
        "slot": "7",
        "type": "t_mapping(t_uint256,t_uint256)"
      },
      {
        "astId": 1658,
        "contract": "contracts/winzers/WinzerERC721.sol:WinzerERC721",
        "label": "_allTokens",
        "offset": 0,
        "slot": "8",
        "type": "t_array(t_uint256)dyn_storage"
      },
      {
        "astId": 1662,
        "contract": "contracts/winzers/WinzerERC721.sol:WinzerERC721",
        "label": "_allTokensIndex",
        "offset": 0,
        "slot": "9",
        "type": "t_mapping(t_uint256,t_uint256)"
      },
      {
        "astId": 24,
        "contract": "contracts/winzers/WinzerERC721.sol:WinzerERC721",
        "label": "_roles",
        "offset": 0,
        "slot": "10",
        "type": "t_mapping(t_bytes32,t_struct(RoleData)19_storage)"
      },
      {
        "astId": 327,
        "contract": "contracts/winzers/WinzerERC721.sol:WinzerERC721",
        "label": "_roleMembers",
        "offset": 0,
        "slot": "11",
        "type": "t_mapping(t_bytes32,t_struct(AddressSet)2900_storage)"
      },
      {
        "astId": 3209,
        "contract": "contracts/winzers/WinzerERC721.sol:WinzerERC721",
        "label": "proxyRegistryAddress",
        "offset": 0,
        "slot": "12",
        "type": "t_address"
      },
      {
        "astId": 3678,
        "contract": "contracts/winzers/WinzerERC721.sol:WinzerERC721",
        "label": "dna1",
        "offset": 0,
        "slot": "13",
        "type": "t_mapping(t_uint256,t_struct(DNA1)3640_storage)"
      },
      {
        "astId": 3683,
        "contract": "contracts/winzers/WinzerERC721.sol:WinzerERC721",
        "label": "dna2",
        "offset": 0,
        "slot": "14",
        "type": "t_mapping(t_uint256,t_struct(DNA2)3659_storage)"
      },
      {
        "astId": 3685,
        "contract": "contracts/winzers/WinzerERC721.sol:WinzerERC721",
        "label": "__baseURI",
        "offset": 0,
        "slot": "15",
        "type": "t_string_storage"
      },
      {
        "astId": 3687,
        "contract": "contracts/winzers/WinzerERC721.sol:WinzerERC721",
        "label": "__contractURI",
        "offset": 0,
        "slot": "16",
        "type": "t_string_storage"
      }
    ],
    "types": {
      "t_address": {
        "encoding": "inplace",
        "label": "address",
        "numberOfBytes": "20"
      },
      "t_array(t_bytes32)dyn_storage": {
        "base": "t_bytes32",
        "encoding": "dynamic_array",
        "label": "bytes32[]",
        "numberOfBytes": "32"
      },
      "t_array(t_uint256)dyn_storage": {
        "base": "t_uint256",
        "encoding": "dynamic_array",
        "label": "uint256[]",
        "numberOfBytes": "32"
      },
      "t_bool": {
        "encoding": "inplace",
        "label": "bool",
        "numberOfBytes": "1"
      },
      "t_bytes32": {
        "encoding": "inplace",
        "label": "bytes32",
        "numberOfBytes": "32"
      },
      "t_mapping(t_address,t_bool)": {
        "encoding": "mapping",
        "key": "t_address",
        "label": "mapping(address => bool)",
        "numberOfBytes": "32",
        "value": "t_bool"
      },
      "t_mapping(t_address,t_mapping(t_address,t_bool))": {
        "encoding": "mapping",
        "key": "t_address",
        "label": "mapping(address => mapping(address => bool))",
        "numberOfBytes": "32",
        "value": "t_mapping(t_address,t_bool)"
      },
      "t_mapping(t_address,t_mapping(t_uint256,t_uint256))": {
        "encoding": "mapping",
        "key": "t_address",
        "label": "mapping(address => mapping(uint256 => uint256))",
        "numberOfBytes": "32",
        "value": "t_mapping(t_uint256,t_uint256)"
      },
      "t_mapping(t_address,t_uint256)": {
        "encoding": "mapping",
        "key": "t_address",
        "label": "mapping(address => uint256)",
        "numberOfBytes": "32",
        "value": "t_uint256"
      },
      "t_mapping(t_bytes32,t_struct(AddressSet)2900_storage)": {
        "encoding": "mapping",
        "key": "t_bytes32",
        "label": "mapping(bytes32 => struct EnumerableSet.AddressSet)",
        "numberOfBytes": "32",
        "value": "t_struct(AddressSet)2900_storage"
      },
      "t_mapping(t_bytes32,t_struct(RoleData)19_storage)": {
        "encoding": "mapping",
        "key": "t_bytes32",
        "label": "mapping(bytes32 => struct AccessControl.RoleData)",
        "numberOfBytes": "32",
        "value": "t_struct(RoleData)19_storage"
      },
      "t_mapping(t_bytes32,t_uint256)": {
        "encoding": "mapping",
        "key": "t_bytes32",
        "label": "mapping(bytes32 => uint256)",
        "numberOfBytes": "32",
        "value": "t_uint256"
      },
      "t_mapping(t_uint256,t_address)": {
        "encoding": "mapping",
        "key": "t_uint256",
        "label": "mapping(uint256 => address)",
        "numberOfBytes": "32",
        "value": "t_address"
      },
      "t_mapping(t_uint256,t_struct(DNA1)3640_storage)": {
        "encoding": "mapping",
        "key": "t_uint256",
        "label": "mapping(uint256 => struct WinzerERC721.DNA1)",
        "numberOfBytes": "32",
        "value": "t_struct(DNA1)3640_storage"
      },
      "t_mapping(t_uint256,t_struct(DNA2)3659_storage)": {
        "encoding": "mapping",
        "key": "t_uint256",
        "label": "mapping(uint256 => struct WinzerERC721.DNA2)",
        "numberOfBytes": "32",
        "value": "t_struct(DNA2)3659_storage"
      },
      "t_mapping(t_uint256,t_uint256)": {
        "encoding": "mapping",
        "key": "t_uint256",
        "label": "mapping(uint256 => uint256)",
        "numberOfBytes": "32",
        "value": "t_uint256"
      },
      "t_string_storage": {
        "encoding": "bytes",
        "label": "string",
        "numberOfBytes": "32"
      },
      "t_struct(AddressSet)2900_storage": {
        "encoding": "inplace",
        "label": "struct EnumerableSet.AddressSet",
        "members": [
          {
            "astId": 2899,
            "contract": "contracts/winzers/WinzerERC721.sol:WinzerERC721",
            "label": "_inner",
            "offset": 0,
            "slot": "0",
            "type": "t_struct(Set)2599_storage"
          }
        ],
        "numberOfBytes": "64"
      },
      "t_struct(DNA1)3640_storage": {
        "encoding": "inplace",
        "label": "struct WinzerERC721.DNA1",
        "members": [
          {
            "astId": 3617,
            "contract": "contracts/winzers/WinzerERC721.sol:WinzerERC721",
            "label": "race",
            "offset": 0,
            "slot": "0",
            "type": "t_uint8"
          },
          {
            "astId": 3619,
            "contract": "contracts/winzers/WinzerERC721.sol:WinzerERC721",
            "label": "sex",
            "offset": 1,
            "slot": "0",
            "type": "t_uint8"
          },
          {
            "astId": 3621,
            "contract": "contracts/winzers/WinzerERC721.sol:WinzerERC721",
            "label": "skin",
            "offset": 2,
            "slot": "0",
            "type": "t_uint8"
          },
          {
            "astId": 3623,
            "contract": "contracts/winzers/WinzerERC721.sol:WinzerERC721",
            "label": "head",
            "offset": 3,
            "slot": "0",
            "type": "t_uint8"
          },
          {
            "astId": 3625,
            "contract": "contracts/winzers/WinzerERC721.sol:WinzerERC721",
            "label": "ears",
            "offset": 4,
            "slot": "0",
            "type": "t_uint8"
          },
          {
            "astId": 3627,
            "contract": "contracts/winzers/WinzerERC721.sol:WinzerERC721",
            "label": "hair",
            "offset": 5,
            "slot": "0",
            "type": "t_uint8"
          },
          {
            "astId": 3629,
            "contract": "contracts/winzers/WinzerERC721.sol:WinzerERC721",
            "label": "beard",
            "offset": 6,
            "slot": "0",
            "type": "t_uint8"
          },
          {
            "astId": 3631,
            "contract": "contracts/winzers/WinzerERC721.sol:WinzerERC721",
            "label": "mouth",
            "offset": 7,
            "slot": "0",
            "type": "t_uint8"
          },
          {
            "astId": 3633,
            "contract": "contracts/winzers/WinzerERC721.sol:WinzerERC721",
            "label": "eyes",
            "offset": 8,
            "slot": "0",
            "type": "t_uint8"
          },
          {
            "astId": 3635,
            "contract": "contracts/winzers/WinzerERC721.sol:WinzerERC721",
            "label": "eyebrows",
            "offset": 9,
            "slot": "0",
            "type": "t_uint8"
          },
          {
            "astId": 3637,
            "contract": "contracts/winzers/WinzerERC721.sol:WinzerERC721",
            "label": "nose",
            "offset": 10,
            "slot": "0",
            "type": "t_uint8"
          },
          {
            "astId": 3639,
            "contract": "contracts/winzers/WinzerERC721.sol:WinzerERC721",
            "label": "scars",
            "offset": 11,
            "slot": "0",
            "type": "t_uint8"
          }
        ],
        "numberOfBytes": "32"
      },
      "t_struct(DNA2)3659_storage": {
        "encoding": "inplace",
        "label": "struct WinzerERC721.DNA2",
        "members": [
          {
            "astId": 3642,
            "contract": "contracts/winzers/WinzerERC721.sol:WinzerERC721",
            "label": "father",
            "offset": 0,
            "slot": "0",
            "type": "t_uint256"
          },
          {
            "astId": 3644,
            "contract": "contracts/winzers/WinzerERC721.sol:WinzerERC721",
            "label": "mother",
            "offset": 0,
            "slot": "1",
            "type": "t_uint256"
          },
          {
            "astId": 3646,
            "contract": "contracts/winzers/WinzerERC721.sol:WinzerERC721",
            "label": "accessory",
            "offset": 0,
            "slot": "2",
            "type": "t_uint8"
          },
          {
            "astId": 3648,
            "contract": "contracts/winzers/WinzerERC721.sol:WinzerERC721",
            "label": "makeup",
            "offset": 1,
            "slot": "2",
            "type": "t_uint8"
          },
          {
            "astId": 3650,
            "contract": "contracts/winzers/WinzerERC721.sol:WinzerERC721",
            "label": "skill1",
            "offset": 2,
            "slot": "2",
            "type": "t_uint8"
          },
          {
            "astId": 3652,
            "contract": "contracts/winzers/WinzerERC721.sol:WinzerERC721",
            "label": "skill2",
            "offset": 3,
            "slot": "2",
            "type": "t_uint8"
          },
          {
            "astId": 3654,
            "contract": "contracts/winzers/WinzerERC721.sol:WinzerERC721",
            "label": "skill3",
            "offset": 4,
            "slot": "2",
            "type": "t_uint8"
          },
          {
            "astId": 3656,
            "contract": "contracts/winzers/WinzerERC721.sol:WinzerERC721",
            "label": "skill4",
            "offset": 5,
            "slot": "2",
            "type": "t_uint8"
          },
          {
            "astId": 3658,
            "contract": "contracts/winzers/WinzerERC721.sol:WinzerERC721",
            "label": "skill5",
            "offset": 6,
            "slot": "2",
            "type": "t_uint8"
          }
        ],
        "numberOfBytes": "96"
      },
      "t_struct(RoleData)19_storage": {
        "encoding": "inplace",
        "label": "struct AccessControl.RoleData",
        "members": [
          {
            "astId": 16,
            "contract": "contracts/winzers/WinzerERC721.sol:WinzerERC721",
            "label": "members",
            "offset": 0,
            "slot": "0",
            "type": "t_mapping(t_address,t_bool)"
          },
          {
            "astId": 18,
            "contract": "contracts/winzers/WinzerERC721.sol:WinzerERC721",
            "label": "adminRole",
            "offset": 0,
            "slot": "1",
            "type": "t_bytes32"
          }
        ],
        "numberOfBytes": "64"
      },
      "t_struct(Set)2599_storage": {
        "encoding": "inplace",
        "label": "struct EnumerableSet.Set",
        "members": [
          {
            "astId": 2594,
            "contract": "contracts/winzers/WinzerERC721.sol:WinzerERC721",
            "label": "_values",
            "offset": 0,
            "slot": "0",
            "type": "t_array(t_bytes32)dyn_storage"
          },
          {
            "astId": 2598,
            "contract": "contracts/winzers/WinzerERC721.sol:WinzerERC721",
            "label": "_indexes",
            "offset": 0,
            "slot": "1",
            "type": "t_mapping(t_bytes32,t_uint256)"
          }
        ],
        "numberOfBytes": "64"
      },
      "t_uint256": {
        "encoding": "inplace",
        "label": "uint256",
        "numberOfBytes": "32"
      },
      "t_uint8": {
        "encoding": "inplace",
        "label": "uint8",
        "numberOfBytes": "1"
      }
    }
  }
}