{
  "address": "0x00d6A6BAE1BfBa5Ca707fB6B54AA0dEB13c3E683",
  "abi": [
    {
      "inputs": [],
      "stateMutability": "nonpayable",
      "type": "constructor"
    },
    {
      "anonymous": false,
      "inputs": [
        {
          "indexed": true,
          "internalType": "address",
          "name": "owner",
          "type": "address"
        },
        {
          "indexed": true,
          "internalType": "address",
          "name": "approved",
          "type": "address"
        },
        {
          "indexed": true,
          "internalType": "uint256",
          "name": "tokenId",
          "type": "uint256"
        }
      ],
      "name": "Approval",
      "type": "event"
    },
    {
      "anonymous": false,
      "inputs": [
        {
          "indexed": true,
          "internalType": "address",
          "name": "owner",
          "type": "address"
        },
        {
          "indexed": true,
          "internalType": "address",
          "name": "operator",
          "type": "address"
        },
        {
          "indexed": false,
          "internalType": "bool",
          "name": "approved",
          "type": "bool"
        }
      ],
      "name": "ApprovalForAll",
      "type": "event"
    },
    {
      "anonymous": false,
      "inputs": [
        {
          "indexed": true,
          "internalType": "uint256",
          "name": "_tokenId",
          "type": "uint256"
        },
        {
          "components": [
            {
              "internalType": "uint8",
              "name": "x",
              "type": "uint8"
            },
            {
              "internalType": "uint8",
              "name": "y",
              "type": "uint8"
            },
            {
              "internalType": "uint8",
              "name": "climate",
              "type": "uint8"
            },
            {
              "internalType": "uint8",
              "name": "landType",
              "type": "uint8"
            },
            {
              "internalType": "uint8",
              "name": "resource1",
              "type": "uint8"
            },
            {
              "internalType": "uint8",
              "name": "resource2",
              "type": "uint8"
            },
            {
              "internalType": "uint8",
              "name": "resource3",
              "type": "uint8"
            },
            {
              "internalType": "uint8",
              "name": "resource4",
              "type": "uint8"
            },
            {
              "internalType": "uint8",
              "name": "resourceLevel1",
              "type": "uint8"
            },
            {
              "internalType": "uint8",
              "name": "resourceLevel2",
              "type": "uint8"
            },
            {
              "internalType": "uint8",
              "name": "resourceLevel3",
              "type": "uint8"
            },
            {
              "internalType": "uint8",
              "name": "resourceLevel4",
              "type": "uint8"
            }
          ],
          "indexed": false,
          "internalType": "struct LandERC721.DNA",
          "name": "_dna",
          "type": "tuple"
        }
      ],
      "name": "DnaUpdated",
      "type": "event"
    },
    {
      "anonymous": false,
      "inputs": [
        {
          "indexed": true,
          "internalType": "address",
          "name": "_newAddress",
          "type": "address"
        }
      ],
      "name": "ProxyRegistryAddressChanged",
      "type": "event"
    },
    {
      "anonymous": false,
      "inputs": [
        {
          "indexed": true,
          "internalType": "bytes32",
          "name": "role",
          "type": "bytes32"
        },
        {
          "indexed": true,
          "internalType": "bytes32",
          "name": "previousAdminRole",
          "type": "bytes32"
        },
        {
          "indexed": true,
          "internalType": "bytes32",
          "name": "newAdminRole",
          "type": "bytes32"
        }
      ],
      "name": "RoleAdminChanged",
      "type": "event"
    },
    {
      "anonymous": false,
      "inputs": [
        {
          "indexed": true,
          "internalType": "bytes32",
          "name": "role",
          "type": "bytes32"
        },
        {
          "indexed": true,
          "internalType": "address",
          "name": "account",
          "type": "address"
        },
        {
          "indexed": true,
          "internalType": "address",
          "name": "sender",
          "type": "address"
        }
      ],
      "name": "RoleGranted",
      "type": "event"
    },
    {
      "anonymous": false,
      "inputs": [
        {
          "indexed": true,
          "internalType": "bytes32",
          "name": "role",
          "type": "bytes32"
        },
        {
          "indexed": true,
          "internalType": "address",
          "name": "account",
          "type": "address"
        },
        {
          "indexed": true,
          "internalType": "address",
          "name": "sender",
          "type": "address"
        }
      ],
      "name": "RoleRevoked",
      "type": "event"
    },
    {
      "anonymous": false,
      "inputs": [
        {
          "indexed": true,
          "internalType": "address",
          "name": "from",
          "type": "address"
        },
        {
          "indexed": true,
          "internalType": "address",
          "name": "to",
          "type": "address"
        },
        {
          "indexed": true,
          "internalType": "uint256",
          "name": "tokenId",
          "type": "uint256"
        }
      ],
      "name": "Transfer",
      "type": "event"
    },
    {
      "inputs": [],
      "name": "DEFAULT_ADMIN_ROLE",
      "outputs": [
        {
          "internalType": "bytes32",
          "name": "",
          "type": "bytes32"
        }
      ],
      "stateMutability": "view",
      "type": "function"
    },
    {
      "inputs": [],
      "name": "MINTER_ROLE",
      "outputs": [
        {
          "internalType": "bytes32",
          "name": "",
          "type": "bytes32"
        }
      ],
      "stateMutability": "view",
      "type": "function"
    },
    {
      "inputs": [
        {
          "internalType": "address",
          "name": "to",
          "type": "address"
        },
        {
          "internalType": "uint256",
          "name": "tokenId",
          "type": "uint256"
        }
      ],
      "name": "approve",
      "outputs": [],
      "stateMutability": "nonpayable",
      "type": "function"
    },
    {
      "inputs": [
        {
          "internalType": "address",
          "name": "owner",
          "type": "address"
        }
      ],
      "name": "balanceOf",
      "outputs": [
        {
          "internalType": "uint256",
          "name": "",
          "type": "uint256"
        }
      ],
      "stateMutability": "view",
      "type": "function"
    },
    {
      "inputs": [],
      "name": "contractURI",
      "outputs": [
        {
          "internalType": "string",
          "name": "",
          "type": "string"
        }
      ],
      "stateMutability": "pure",
      "type": "function"
    },
    {
      "inputs": [
        {
          "internalType": "uint8",
          "name": "",
          "type": "uint8"
        },
        {
          "internalType": "uint8",
          "name": "",
          "type": "uint8"
        }
      ],
      "name": "coordinates",
      "outputs": [
        {
          "internalType": "uint256",
          "name": "",
          "type": "uint256"
        }
      ],
      "stateMutability": "view",
      "type": "function"
    },
    {
      "inputs": [
        {
          "internalType": "uint8",
          "name": "",
          "type": "uint8"
        },
        {
          "internalType": "uint8",
          "name": "",
          "type": "uint8"
        }
      ],
      "name": "coordinatesTaken",
      "outputs": [
        {
          "internalType": "bool",
          "name": "",
          "type": "bool"
        }
      ],
      "stateMutability": "view",
      "type": "function"
    },
    {
      "inputs": [
        {
          "internalType": "uint256",
          "name": "",
          "type": "uint256"
        }
      ],
      "name": "dna",
      "outputs": [
        {
          "internalType": "uint8",
          "name": "x",
          "type": "uint8"
        },
        {
          "internalType": "uint8",
          "name": "y",
          "type": "uint8"
        },
        {
          "internalType": "uint8",
          "name": "climate",
          "type": "uint8"
        },
        {
          "internalType": "uint8",
          "name": "landType",
          "type": "uint8"
        },
        {
          "internalType": "uint8",
          "name": "resource1",
          "type": "uint8"
        },
        {
          "internalType": "uint8",
          "name": "resource2",
          "type": "uint8"
        },
        {
          "internalType": "uint8",
          "name": "resource3",
          "type": "uint8"
        },
        {
          "internalType": "uint8",
          "name": "resource4",
          "type": "uint8"
        },
        {
          "internalType": "uint8",
          "name": "resourceLevel1",
          "type": "uint8"
        },
        {
          "internalType": "uint8",
          "name": "resourceLevel2",
          "type": "uint8"
        },
        {
          "internalType": "uint8",
          "name": "resourceLevel3",
          "type": "uint8"
        },
        {
          "internalType": "uint8",
          "name": "resourceLevel4",
          "type": "uint8"
        }
      ],
      "stateMutability": "view",
      "type": "function"
    },
    {
      "inputs": [
        {
          "internalType": "uint256",
          "name": "tokenId",
          "type": "uint256"
        }
      ],
      "name": "getApproved",
      "outputs": [
        {
          "internalType": "address",
          "name": "",
          "type": "address"
        }
      ],
      "stateMutability": "view",
      "type": "function"
    },
    {
      "inputs": [
        {
          "internalType": "bytes32",
          "name": "role",
          "type": "bytes32"
        }
      ],
      "name": "getRoleAdmin",
      "outputs": [
        {
          "internalType": "bytes32",
          "name": "",
          "type": "bytes32"
        }
      ],
      "stateMutability": "view",
      "type": "function"
    },
    {
      "inputs": [
        {
          "internalType": "bytes32",
          "name": "role",
          "type": "bytes32"
        },
        {
          "internalType": "uint256",
          "name": "index",
          "type": "uint256"
        }
      ],
      "name": "getRoleMember",
      "outputs": [
        {
          "internalType": "address",
          "name": "",
          "type": "address"
        }
      ],
      "stateMutability": "view",
      "type": "function"
    },
    {
      "inputs": [
        {
          "internalType": "bytes32",
          "name": "role",
          "type": "bytes32"
        }
      ],
      "name": "getRoleMemberCount",
      "outputs": [
        {
          "internalType": "uint256",
          "name": "",
          "type": "uint256"
        }
      ],
      "stateMutability": "view",
      "type": "function"
    },
    {
      "inputs": [
        {
          "internalType": "bytes32",
          "name": "role",
          "type": "bytes32"
        },
        {
          "internalType": "address",
          "name": "account",
          "type": "address"
        }
      ],
      "name": "grantRole",
      "outputs": [],
      "stateMutability": "nonpayable",
      "type": "function"
    },
    {
      "inputs": [
        {
          "internalType": "bytes32",
          "name": "role",
          "type": "bytes32"
        },
        {
          "internalType": "address",
          "name": "account",
          "type": "address"
        }
      ],
      "name": "hasRole",
      "outputs": [
        {
          "internalType": "bool",
          "name": "",
          "type": "bool"
        }
      ],
      "stateMutability": "view",
      "type": "function"
    },
    {
      "inputs": [
        {
          "internalType": "address",
          "name": "_owner",
          "type": "address"
        },
        {
          "internalType": "address",
          "name": "_operator",
          "type": "address"
        }
      ],
      "name": "isApprovedForAll",
      "outputs": [
        {
          "internalType": "bool",
          "name": "",
          "type": "bool"
        }
      ],
      "stateMutability": "view",
      "type": "function"
    },
    {
      "inputs": [
        {
          "internalType": "address",
          "name": "player",
          "type": "address"
        },
        {
          "components": [
            {
              "internalType": "uint8",
              "name": "x",
              "type": "uint8"
            },
            {
              "internalType": "uint8",
              "name": "y",
              "type": "uint8"
            },
            {
              "internalType": "uint8",
              "name": "climate",
              "type": "uint8"
            },
            {
              "internalType": "uint8",
              "name": "landType",
              "type": "uint8"
            },
            {
              "internalType": "uint8",
              "name": "resource1",
              "type": "uint8"
            },
            {
              "internalType": "uint8",
              "name": "resource2",
              "type": "uint8"
            },
            {
              "internalType": "uint8",
              "name": "resource3",
              "type": "uint8"
            },
            {
              "internalType": "uint8",
              "name": "resource4",
              "type": "uint8"
            },
            {
              "internalType": "uint8",
              "name": "resourceLevel1",
              "type": "uint8"
            },
            {
              "internalType": "uint8",
              "name": "resourceLevel2",
              "type": "uint8"
            },
            {
              "internalType": "uint8",
              "name": "resourceLevel3",
              "type": "uint8"
            },
            {
              "internalType": "uint8",
              "name": "resourceLevel4",
              "type": "uint8"
            }
          ],
          "internalType": "struct LandERC721.DNA",
          "name": "_dna",
          "type": "tuple"
        }
      ],
      "name": "mint",
      "outputs": [
        {
          "internalType": "uint256",
          "name": "",
          "type": "uint256"
        }
      ],
      "stateMutability": "nonpayable",
      "type": "function"
    },
    {
      "inputs": [],
      "name": "name",
      "outputs": [
        {
          "internalType": "string",
          "name": "",
          "type": "string"
        }
      ],
      "stateMutability": "view",
      "type": "function"
    },
    {
      "inputs": [],
      "name": "owner",
      "outputs": [
        {
          "internalType": "address",
          "name": "",
          "type": "address"
        }
      ],
      "stateMutability": "view",
      "type": "function"
    },
    {
      "inputs": [
        {
          "internalType": "uint256",
          "name": "tokenId",
          "type": "uint256"
        }
      ],
      "name": "ownerOf",
      "outputs": [
        {
          "internalType": "address",
          "name": "",
          "type": "address"
        }
      ],
      "stateMutability": "view",
      "type": "function"
    },
    {
      "inputs": [],
      "name": "proxyRegistryAddress",
      "outputs": [
        {
          "internalType": "address",
          "name": "",
          "type": "address"
        }
      ],
      "stateMutability": "view",
      "type": "function"
    },
    {
      "inputs": [
        {
          "internalType": "bytes32",
          "name": "role",
          "type": "bytes32"
        },
        {
          "internalType": "address",
          "name": "account",
          "type": "address"
        }
      ],
      "name": "renounceRole",
      "outputs": [],
      "stateMutability": "nonpayable",
      "type": "function"
    },
    {
      "inputs": [
        {
          "internalType": "bytes32",
          "name": "role",
          "type": "bytes32"
        },
        {
          "internalType": "address",
          "name": "account",
          "type": "address"
        }
      ],
      "name": "revokeRole",
      "outputs": [],
      "stateMutability": "nonpayable",
      "type": "function"
    },
    {
      "inputs": [
        {
          "internalType": "address",
          "name": "from",
          "type": "address"
        },
        {
          "internalType": "address",
          "name": "to",
          "type": "address"
        },
        {
          "internalType": "uint256",
          "name": "tokenId",
          "type": "uint256"
        }
      ],
      "name": "safeTransferFrom",
      "outputs": [],
      "stateMutability": "nonpayable",
      "type": "function"
    },
    {
      "inputs": [
        {
          "internalType": "address",
          "name": "from",
          "type": "address"
        },
        {
          "internalType": "address",
          "name": "to",
          "type": "address"
        },
        {
          "internalType": "uint256",
          "name": "tokenId",
          "type": "uint256"
        },
        {
          "internalType": "bytes",
          "name": "_data",
          "type": "bytes"
        }
      ],
      "name": "safeTransferFrom",
      "outputs": [],
      "stateMutability": "nonpayable",
      "type": "function"
    },
    {
      "inputs": [
        {
          "internalType": "address",
          "name": "operator",
          "type": "address"
        },
        {
          "internalType": "bool",
          "name": "approved",
          "type": "bool"
        }
      ],
      "name": "setApprovalForAll",
      "outputs": [],
      "stateMutability": "nonpayable",
      "type": "function"
    },
    {
      "inputs": [
        {
          "internalType": "string",
          "name": "uri",
          "type": "string"
        }
      ],
      "name": "setBaseUri",
      "outputs": [],
      "stateMutability": "nonpayable",
      "type": "function"
    },
    {
      "inputs": [
        {
          "internalType": "address",
          "name": "_proxyRegistryAddress",
          "type": "address"
        }
      ],
      "name": "setProxyRegistryAddress",
      "outputs": [],
      "stateMutability": "nonpayable",
      "type": "function"
    },
    {
      "inputs": [
        {
          "internalType": "bytes4",
          "name": "interfaceId",
          "type": "bytes4"
        }
      ],
      "name": "supportsInterface",
      "outputs": [
        {
          "internalType": "bool",
          "name": "",
          "type": "bool"
        }
      ],
      "stateMutability": "view",
      "type": "function"
    },
    {
      "inputs": [],
      "name": "symbol",
      "outputs": [
        {
          "internalType": "string",
          "name": "",
          "type": "string"
        }
      ],
      "stateMutability": "view",
      "type": "function"
    },
    {
      "inputs": [
        {
          "internalType": "uint256",
          "name": "index",
          "type": "uint256"
        }
      ],
      "name": "tokenByIndex",
      "outputs": [
        {
          "internalType": "uint256",
          "name": "",
          "type": "uint256"
        }
      ],
      "stateMutability": "view",
      "type": "function"
    },
    {
      "inputs": [
        {
          "internalType": "address",
          "name": "owner",
          "type": "address"
        },
        {
          "internalType": "uint256",
          "name": "index",
          "type": "uint256"
        }
      ],
      "name": "tokenOfOwnerByIndex",
      "outputs": [
        {
          "internalType": "uint256",
          "name": "",
          "type": "uint256"
        }
      ],
      "stateMutability": "view",
      "type": "function"
    },
    {
      "inputs": [
        {
          "internalType": "uint256",
          "name": "tokenId",
          "type": "uint256"
        }
      ],
      "name": "tokenURI",
      "outputs": [
        {
          "internalType": "string",
          "name": "",
          "type": "string"
        }
      ],
      "stateMutability": "view",
      "type": "function"
    },
    {
      "inputs": [],
      "name": "totalSupply",
      "outputs": [
        {
          "internalType": "uint256",
          "name": "",
          "type": "uint256"
        }
      ],
      "stateMutability": "view",
      "type": "function"
    },
    {
      "inputs": [
        {
          "internalType": "address",
          "name": "from",
          "type": "address"
        },
        {
          "internalType": "address",
          "name": "to",
          "type": "address"
        },
        {
          "internalType": "uint256",
          "name": "tokenId",
          "type": "uint256"
        }
      ],
      "name": "transferFrom",
      "outputs": [],
      "stateMutability": "nonpayable",
      "type": "function"
    }
  ],
  "transactionHash": "0x7908fbe6d8cd84db5a12525f041e5cfd853627528dfbd6cac8149b50d18af453",
  "args": [],
  "numDeployments": 2,
  "solcInputHash": "23c5cb554a28712c466d17d8e4b35f80",
  "bytecode": "0x60806040526040518060600160405280602881526020016200547a602891396010908051906020019062000035929190620003aa565b503480156200004357600080fd5b506040518060400160405280600f81526020017f57696e7a656c616e643a204c616e6400000000000000000000000000000000008152506040518060400160405280600481526020017f4c616e640000000000000000000000000000000000000000000000000000000081525081818160009080519060200190620000ca929190620003aa565b508060019080519060200190620000e3929190620003aa565b5050506200010a6000801b620000fe6200011260201b60201c565b6200011a60201b60201c565b5050620004bf565b600033905090565b6200012c82826200013060201b60201c565b5050565b6200014782826200017860201b620015561760201c565b6200017381600b60008581526020019081526020016000206200026a60201b620016371790919060201c565b505050565b6200018a8282620002a260201b60201c565b62000266576001600a600084815260200190815260200160002060000160008373ffffffffffffffffffffffffffffffffffffffff1673ffffffffffffffffffffffffffffffffffffffff16815260200190815260200160002060006101000a81548160ff0219169083151502179055506200020b6200011260201b60201c565b73ffffffffffffffffffffffffffffffffffffffff168173ffffffffffffffffffffffffffffffffffffffff16837f2f8788117e7eff1d82e926ec794901d17c78024a50270940304540a733656f0d60405160405180910390a45b5050565b60006200029a836000018373ffffffffffffffffffffffffffffffffffffffff1660001b6200030d60201b60201c565b905092915050565b6000600a600084815260200190815260200160002060000160008373ffffffffffffffffffffffffffffffffffffffff1673ffffffffffffffffffffffffffffffffffffffff16815260200190815260200160002060009054906101000a900460ff16905092915050565b60006200032183836200038760201b60201c565b6200037c57826000018290806001815401808255809150506001900390600052602060002001600090919091909150558260000180549050836001016000848152602001908152602001600020819055506001905062000381565b600090505b92915050565b600080836001016000848152602001908152602001600020541415905092915050565b828054620003b8906200045a565b90600052602060002090601f016020900481019282620003dc576000855562000428565b82601f10620003f757805160ff191683800117855562000428565b8280016001018555821562000428579182015b82811115620004275782518255916020019190600101906200040a565b5b5090506200043791906200043b565b5090565b5b80821115620004565760008160009055506001016200043c565b5090565b600060028204905060018216806200047357607f821691505b602082108114156200048a576200048962000490565b5b50919050565b7f4e487b7100000000000000000000000000000000000000000000000000000000600052602260045260246000fd5b614fab80620004cf6000396000f3fe608060405234801561001057600080fd5b50600436106102065760003560e01c80639010d07c1161011a578063c87b56dd116100ad578063d53913931161007c578063d53913931461065b578063d547741f14610679578063e8a3d48514610695578063e985e9c5146106b3578063f666ec31146106e357610206565b8063c87b56dd146105c1578063ca15c873146105f1578063cd7c032614610621578063d26ea6c01461063f57610206565b8063a0bcfc7f116100e9578063a0bcfc7f1461054f578063a217fddf1461056b578063a22cb46514610589578063b88d4fde146105a557610206565b80639010d07c146104a157806391d14854146104d157806395d89b411461050157806398cd4f1a1461051f57610206565b80632f745c591161019d5780634f6ccce71161016c5780634f6ccce7146103c357806354dbf484146103f35780636352211e1461042357806370a08231146104535780638da5cb5b1461048357610206565b80632f745c591461032b57806336568abe1461035b5780633e2bc02e1461037757806342842e0e146103a757610206565b806318160ddd116101d957806318160ddd146102a557806323b872dd146102c3578063248a9ca3146102df5780632f2ff15d1461030f57610206565b806301ffc9a71461020b57806306fdde031461023b578063081812fc14610259578063095ea7b314610289575b600080fd5b61022560048036038101906102209190613a43565b61071e565b60405161023291906140fb565b60405180910390f35b610243610800565b6040516102509190614131565b60405180910390f35b610273600480360381019061026e9190613aff565b610892565b6040516102809190614094565b60405180910390f35b6102a3600480360381019061029e9190613966565b610917565b005b6102ad610a2f565b6040516102ba91906143cf565b60405180910390f35b6102dd60048036038101906102d89190613823565b610a3c565b005b6102f960048036038101906102f491906139a2565b610a9c565b6040516103069190614116565b60405180910390f35b610329600480360381019061032491906139cb565b610abc565b005b61034560048036038101906103409190613966565b610ae5565b60405161035291906143cf565b60405180910390f35b610375600480360381019061037091906139cb565b610b8a565b005b610391600480360381019061038c9190613b28565b610c0d565b60405161039e91906143cf565b60405180910390f35b6103c160048036038101906103bc9190613823565b610c32565b005b6103dd60048036038101906103d89190613aff565b610c52565b6040516103ea91906143cf565b60405180910390f35b61040d60048036038101906104089190613929565b610ce9565b60405161041a91906143cf565b60405180910390f35b61043d60048036038101906104389190613aff565b610dd4565b60405161044a9190614094565b60405180910390f35b61046d600480360381019061046891906137be565b610e86565b60405161047a91906143cf565b60405180910390f35b61048b610f3e565b6040516104989190614094565b60405180910390f35b6104bb60048036038101906104b69190613a07565b610f53565b6040516104c89190614094565b60405180910390f35b6104eb60048036038101906104e691906139cb565b610f82565b6040516104f891906140fb565b60405180910390f35b610509610fed565b6040516105169190614131565b60405180910390f35b61053960048036038101906105349190613b28565b61107f565b60405161054691906140fb565b60405180910390f35b61056960048036038101906105649190613abe565b6110ae565b005b6105736110de565b6040516105809190614116565b60405180910390f35b6105a3600480360381019061059e91906138ed565b6110e5565b005b6105bf60048036038101906105ba9190613872565b6110fb565b005b6105db60048036038101906105d69190613aff565b61115d565b6040516105e89190614131565b60405180910390f35b61060b600480360381019061060691906139a2565b611204565b60405161061891906143cf565b60405180910390f35b610629611228565b6040516106369190614094565b60405180910390f35b610659600480360381019061065491906137be565b61124e565b005b6106636112eb565b6040516106709190614116565b60405180910390f35b610693600480360381019061068e91906139cb565b61130f565b005b61069d611338565b6040516106aa9190614131565b60405180910390f35b6106cd60048036038101906106c891906137e7565b611358565b6040516106da91906140fb565b60405180910390f35b6106fd60048036038101906106f89190613aff565b61145a565b6040516107159c9b9a999897969594939291906143ea565b60405180910390f35b60007f780e9d63000000000000000000000000000000000000000000000000000000007bffffffffffffffffffffffffffffffffffffffffffffffffffffffff1916827bffffffffffffffffffffffffffffffffffffffffffffffffffffffff191614806107e957507f5a05180f000000000000000000000000000000000000000000000000000000007bffffffffffffffffffffffffffffffffffffffffffffffffffffffff1916827bffffffffffffffffffffffffffffffffffffffffffffffffffffffff1916145b806107f957506107f882611667565b5b9050919050565b60606000805461080f9061478c565b80601f016020809104026020016040519081016040528092919081815260200182805461083b9061478c565b80156108885780601f1061085d57610100808354040283529160200191610888565b820191906000526020600020905b81548152906001019060200180831161086b57829003601f168201915b5050505050905090565b600061089d826116e1565b6108dc576040517f08c379a00000000000000000000000000000000000000000000000000000000081526004016108d3906142f3565b60405180910390fd5b6004600083815260200190815260200160002060009054906101000a900473ffffffffffffffffffffffffffffffffffffffff169050919050565b600061092282610dd4565b90508073ffffffffffffffffffffffffffffffffffffffff168373ffffffffffffffffffffffffffffffffffffffff161415610993576040517f08c379a000000000000000000000000000000000000000000000000000000000815260040161098a90614333565b60405180910390fd5b8073ffffffffffffffffffffffffffffffffffffffff166109b261174d565b73ffffffffffffffffffffffffffffffffffffffff1614806109e157506109e0816109db61174d565b611358565b5b610a20576040517f08c379a0000000000000000000000000000000000000000000000000000000008152600401610a1790614273565b60405180910390fd5b610a2a8383611755565b505050565b6000600880549050905090565b610a4d610a4761174d565b8261180e565b610a8c576040517f08c379a0000000000000000000000000000000000000000000000000000000008152600401610a8390614353565b60405180910390fd5b610a978383836118ec565b505050565b6000600a6000838152602001908152602001600020600101549050919050565b610ac582610a9c565b610ad681610ad161174d565b611b53565b610ae08383611bf0565b505050565b6000610af083610e86565b8210610b31576040517f08c379a0000000000000000000000000000000000000000000000000000000008152600401610b2890614173565b60405180910390fd5b600660008473ffffffffffffffffffffffffffffffffffffffff1673ffffffffffffffffffffffffffffffffffffffff168152602001908152602001600020600083815260200190815260200160002054905092915050565b610b9261174d565b73ffffffffffffffffffffffffffffffffffffffff168173ffffffffffffffffffffffffffffffffffffffff1614610bff576040517f08c379a0000000000000000000000000000000000000000000000000000000008152600401610bf690614393565b60405180910390fd5b610c098282611c24565b5050565b600e602052816000526040600020602052806000526040600020600091509150505481565b610c4d838383604051806020016040528060008152506110fb565b505050565b6000610c5c610a2f565b8210610c9d576040517f08c379a0000000000000000000000000000000000000000000000000000000008152600401610c9490614373565b60405180910390fd5b60088281548110610cd7577f4e487b7100000000000000000000000000000000000000000000000000000000600052603260045260246000fd5b90600052602060002001549050919050565b60007f9f2df0fed2c77648de5860a4cc508cd0818c85b8b8a1ab4ceeef8d981c8956a6610d1d81610d1861174d565b611b53565b60001515600f6000856000015160ff1660ff1681526020019081526020016000206000856020015160ff1660ff16815260200190815260200160002060009054906101000a900460ff16151514610da9576040517f08c379a0000000000000000000000000000000000000000000000000000000008152600401610da090614253565b60405180910390fd5b6000610db3610a2f565b9050610dbf8582611c58565b610dc98185611e32565b809250505092915050565b6000806002600084815260200190815260200160002060009054906101000a900473ffffffffffffffffffffffffffffffffffffffff169050600073ffffffffffffffffffffffffffffffffffffffff168173ffffffffffffffffffffffffffffffffffffffff161415610e7d576040517f08c379a0000000000000000000000000000000000000000000000000000000008152600401610e74906142b3565b60405180910390fd5b80915050919050565b60008073ffffffffffffffffffffffffffffffffffffffff168273ffffffffffffffffffffffffffffffffffffffff161415610ef7576040517f08c379a0000000000000000000000000000000000000000000000000000000008152600401610eee90614293565b60405180910390fd5b600360008373ffffffffffffffffffffffffffffffffffffffff1673ffffffffffffffffffffffffffffffffffffffff168152602001908152602001600020549050919050565b6000610f4e6000801b6000610f53565b905090565b6000610f7a82600b60008681526020019081526020016000206120a390919063ffffffff16565b905092915050565b6000600a600084815260200190815260200160002060000160008373ffffffffffffffffffffffffffffffffffffffff1673ffffffffffffffffffffffffffffffffffffffff16815260200190815260200160002060009054906101000a900460ff16905092915050565b606060018054610ffc9061478c565b80601f01602080910402602001604051908101604052809291908181526020018280546110289061478c565b80156110755780601f1061104a57610100808354040283529160200191611075565b820191906000526020600020905b81548152906001019060200180831161105857829003601f168201915b5050505050905090565b600f6020528160005260406000206020528060005260406000206000915091509054906101000a900460ff1681565b6000801b6110c3816110be61174d565b611b53565b81601090805190602001906110d9929190613485565b505050565b6000801b81565b6110f76110f061174d565b83836120bd565b5050565b61110c61110661174d565b8361180e565b61114b576040517f08c379a000000000000000000000000000000000000000000000000000000000815260040161114290614353565b60405180910390fd5b6111578484848461222a565b50505050565b6060611168826116e1565b6111a7576040517f08c379a000000000000000000000000000000000000000000000000000000000815260040161119e90614313565b60405180910390fd5b60006111b1612286565b905060008151116111d157604051806020016040528060008152506111fc565b806111db84612318565b6040516020016111ec929190614036565b6040516020818303038152906040525b915050919050565b6000611221600b60008481526020019081526020016000206124c5565b9050919050565b600c60009054906101000a900473ffffffffffffffffffffffffffffffffffffffff1681565b6000801b6112638161125e61174d565b611b53565b81600c60006101000a81548173ffffffffffffffffffffffffffffffffffffffff021916908373ffffffffffffffffffffffffffffffffffffffff1602179055508173ffffffffffffffffffffffffffffffffffffffff167fa2b0839d4585de7874ef6ce1d56318647d0ba0f8661e7ae4b76c47a7d5766b5360405160405180910390a25050565b7f9f2df0fed2c77648de5860a4cc508cd0818c85b8b8a1ab4ceeef8d981c8956a681565b61131882610a9c565b6113298161132461174d565b611b53565b6113338383611c24565b505050565b60606040518060600160405280602d8152602001614f49602d9139905090565b600080600c60009054906101000a900473ffffffffffffffffffffffffffffffffffffffff1690508273ffffffffffffffffffffffffffffffffffffffff168173ffffffffffffffffffffffffffffffffffffffff1663c4552791866040518263ffffffff1660e01b81526004016113d09190614094565b60206040518083038186803b1580156113e857600080fd5b505afa1580156113fc573d6000803e3d6000fd5b505050506040513d601f19601f820116820180604052508101906114209190613a95565b73ffffffffffffffffffffffffffffffffffffffff161415611446576001915050611454565b61145084846124da565b9150505b92915050565b600d6020528060005260406000206000915090508060000160009054906101000a900460ff16908060000160019054906101000a900460ff16908060000160029054906101000a900460ff16908060000160039054906101000a900460ff16908060000160049054906101000a900460ff16908060000160059054906101000a900460ff16908060000160069054906101000a900460ff16908060000160079054906101000a900460ff16908060000160089054906101000a900460ff16908060000160099054906101000a900460ff169080600001600a9054906101000a900460ff169080600001600b9054906101000a900460ff1690508c565b6115608282610f82565b611633576001600a600084815260200190815260200160002060000160008373ffffffffffffffffffffffffffffffffffffffff1673ffffffffffffffffffffffffffffffffffffffff16815260200190815260200160002060006101000a81548160ff0219169083151502179055506115d861174d565b73ffffffffffffffffffffffffffffffffffffffff168173ffffffffffffffffffffffffffffffffffffffff16837f2f8788117e7eff1d82e926ec794901d17c78024a50270940304540a733656f0d60405160405180910390a45b5050565b600061165f836000018373ffffffffffffffffffffffffffffffffffffffff1660001b61256e565b905092915050565b60007f5a05180f000000000000000000000000000000000000000000000000000000007bffffffffffffffffffffffffffffffffffffffffffffffffffffffff1916827bffffffffffffffffffffffffffffffffffffffffffffffffffffffff191614806116da57506116d9826125de565b5b9050919050565b60008073ffffffffffffffffffffffffffffffffffffffff166002600084815260200190815260200160002060009054906101000a900473ffffffffffffffffffffffffffffffffffffffff1673ffffffffffffffffffffffffffffffffffffffff1614159050919050565b600033905090565b816004600083815260200190815260200160002060006101000a81548173ffffffffffffffffffffffffffffffffffffffff021916908373ffffffffffffffffffffffffffffffffffffffff160217905550808273ffffffffffffffffffffffffffffffffffffffff166117c883610dd4565b73ffffffffffffffffffffffffffffffffffffffff167f8c5be1e5ebec7d5bd14f71427d1e84f3dd0314c0f7b2291e5b200ac8c7c3b92560405160405180910390a45050565b6000611819826116e1565b611858576040517f08c379a000000000000000000000000000000000000000000000000000000000815260040161184f90614233565b60405180910390fd5b600061186383610dd4565b90508073ffffffffffffffffffffffffffffffffffffffff168473ffffffffffffffffffffffffffffffffffffffff1614806118d257508373ffffffffffffffffffffffffffffffffffffffff166118ba84610892565b73ffffffffffffffffffffffffffffffffffffffff16145b806118e357506118e28185611358565b5b91505092915050565b8273ffffffffffffffffffffffffffffffffffffffff1661190c82610dd4565b73ffffffffffffffffffffffffffffffffffffffff1614611962576040517f08c379a0000000000000000000000000000000000000000000000000000000008152600401611959906141b3565b60405180910390fd5b600073ffffffffffffffffffffffffffffffffffffffff168273ffffffffffffffffffffffffffffffffffffffff1614156119d2576040517f08c379a00000000000000000000000000000000000000000000000000000000081526004016119c9906141f3565b60405180910390fd5b6119dd838383612658565b6119e8600082611755565b6001600360008573ffffffffffffffffffffffffffffffffffffffff1673ffffffffffffffffffffffffffffffffffffffff1681526020019081526020016000206000828254611a38919061464f565b925050819055506001600360008473ffffffffffffffffffffffffffffffffffffffff1673ffffffffffffffffffffffffffffffffffffffff1681526020019081526020016000206000828254611a8f919061456e565b92505081905550816002600083815260200190815260200160002060006101000a81548173ffffffffffffffffffffffffffffffffffffffff021916908373ffffffffffffffffffffffffffffffffffffffff160217905550808273ffffffffffffffffffffffffffffffffffffffff168473ffffffffffffffffffffffffffffffffffffffff167fddf252ad1be2c89b69c2b068fc378daa952ba7f163c4a11628f55a4df523b3ef60405160405180910390a4611b4e83838361276c565b505050565b611b5d8282610f82565b611bec57611b828173ffffffffffffffffffffffffffffffffffffffff166014612771565b611b908360001c6020612771565b604051602001611ba192919061405a565b6040516020818303038152906040526040517f08c379a0000000000000000000000000000000000000000000000000000000008152600401611be39190614131565b60405180910390fd5b5050565b611bfa8282611556565b611c1f81600b600085815260200190815260200160002061163790919063ffffffff16565b505050565b611c2e8282612a6b565b611c5381600b6000858152602001908152602001600020612b4d90919063ffffffff16565b505050565b600073ffffffffffffffffffffffffffffffffffffffff168273ffffffffffffffffffffffffffffffffffffffff161415611cc8576040517f08c379a0000000000000000000000000000000000000000000000000000000008152600401611cbf906142d3565b60405180910390fd5b611cd1816116e1565b15611d11576040517f08c379a0000000000000000000000000000000000000000000000000000000008152600401611d08906141d3565b60405180910390fd5b611d1d60008383612658565b6001600360008473ffffffffffffffffffffffffffffffffffffffff1673ffffffffffffffffffffffffffffffffffffffff1681526020019081526020016000206000828254611d6d919061456e565b92505081905550816002600083815260200190815260200160002060006101000a81548173ffffffffffffffffffffffffffffffffffffffff021916908373ffffffffffffffffffffffffffffffffffffffff160217905550808273ffffffffffffffffffffffffffffffffffffffff16600073ffffffffffffffffffffffffffffffffffffffff167fddf252ad1be2c89b69c2b068fc378daa952ba7f163c4a11628f55a4df523b3ef60405160405180910390a4611e2e6000838361276c565b5050565b81600e6000836000015160ff1660ff1681526020019081526020016000206000836020015160ff1660ff168152602001908152602001600020819055506001600f6000836000015160ff1660ff1681526020019081526020016000206000836020015160ff1660ff16815260200190815260200160002060006101000a81548160ff02191690831515021790555080600d600084815260200190815260200160002060008201518160000160006101000a81548160ff021916908360ff16021790555060208201518160000160016101000a81548160ff021916908360ff16021790555060408201518160000160026101000a81548160ff021916908360ff16021790555060608201518160000160036101000a81548160ff021916908360ff16021790555060808201518160000160046101000a81548160ff021916908360ff16021790555060a08201518160000160056101000a81548160ff021916908360ff16021790555060c08201518160000160066101000a81548160ff021916908360ff16021790555060e08201518160000160076101000a81548160ff021916908360ff1602179055506101008201518160000160086101000a81548160ff021916908360ff1602179055506101208201518160000160096101000a81548160ff021916908360ff16021790555061014082015181600001600a6101000a81548160ff021916908360ff16021790555061016082015181600001600b6101000a81548160ff021916908360ff160217905550905050817f5e08bd04456ca007d75b1fa3676b0e1fcf704a9c652d6b2a0cb5075783d510988260405161209791906143b3565b60405180910390a25050565b60006120b28360000183612b7d565b60001c905092915050565b8173ffffffffffffffffffffffffffffffffffffffff168373ffffffffffffffffffffffffffffffffffffffff16141561212c576040517f08c379a000000000000000000000000000000000000000000000000000000000815260040161212390614213565b60405180910390fd5b80600560008573ffffffffffffffffffffffffffffffffffffffff1673ffffffffffffffffffffffffffffffffffffffff16815260200190815260200160002060008473ffffffffffffffffffffffffffffffffffffffff1673ffffffffffffffffffffffffffffffffffffffff16815260200190815260200160002060006101000a81548160ff0219169083151502179055508173ffffffffffffffffffffffffffffffffffffffff168373ffffffffffffffffffffffffffffffffffffffff167f17307eab39ab6107e8899845ad3d59bd9653f200f220920489ca2b5937696c318360405161221d91906140fb565b60405180910390a3505050565b6122358484846118ec565b61224184848484612bce565b612280576040517f08c379a000000000000000000000000000000000000000000000000000000000815260040161227790614193565b60405180910390fd5b50505050565b6060601080546122959061478c565b80601f01602080910402602001604051908101604052809291908181526020018280546122c19061478c565b801561230e5780601f106122e35761010080835404028352916020019161230e565b820191906000526020600020905b8154815290600101906020018083116122f157829003601f168201915b5050505050905090565b60606000821415612360576040518060400160405280600181526020017f300000000000000000000000000000000000000000000000000000000000000081525090506124c0565b600082905060005b6000821461239257808061237b906147ef565b915050600a8261238b91906145c4565b9150612368565b60008167ffffffffffffffff8111156123d4577f4e487b7100000000000000000000000000000000000000000000000000000000600052604160045260246000fd5b6040519080825280601f01601f1916602001820160405280156124065781602001600182028036833780820191505090505b5090505b600085146124b95760018261241f919061464f565b9150600a8561242e9190614838565b603061243a919061456e565b60f81b818381518110612476577f4e487b7100000000000000000000000000000000000000000000000000000000600052603260045260246000fd5b60200101907effffffffffffffffffffffffffffffffffffffffffffffffffffffffffffff1916908160001a905350600a856124b291906145c4565b945061240a565b8093505050505b919050565b60006124d382600001612d65565b9050919050565b6000600560008473ffffffffffffffffffffffffffffffffffffffff1673ffffffffffffffffffffffffffffffffffffffff16815260200190815260200160002060008373ffffffffffffffffffffffffffffffffffffffff1673ffffffffffffffffffffffffffffffffffffffff16815260200190815260200160002060009054906101000a900460ff16905092915050565b600061257a8383612d76565b6125d35782600001829080600181540180825580915050600190039060005260206000200160009091909190915055826000018054905083600101600084815260200190815260200160002081905550600190506125d8565b600090505b92915050565b60007f7965db0b000000000000000000000000000000000000000000000000000000007bffffffffffffffffffffffffffffffffffffffffffffffffffffffff1916827bffffffffffffffffffffffffffffffffffffffffffffffffffffffff19161480612651575061265082612d99565b5b9050919050565b612663838383612e13565b600073ffffffffffffffffffffffffffffffffffffffff168373ffffffffffffffffffffffffffffffffffffffff1614156126a6576126a181612e18565b6126e5565b8173ffffffffffffffffffffffffffffffffffffffff168373ffffffffffffffffffffffffffffffffffffffff16146126e4576126e38382612e61565b5b5b600073ffffffffffffffffffffffffffffffffffffffff168273ffffffffffffffffffffffffffffffffffffffff1614156127285761272381612fce565b612767565b8273ffffffffffffffffffffffffffffffffffffffff168273ffffffffffffffffffffffffffffffffffffffff1614612766576127658282613111565b5b5b505050565b505050565b60606000600283600261278491906145f5565b61278e919061456e565b67ffffffffffffffff8111156127cd577f4e487b7100000000000000000000000000000000000000000000000000000000600052604160045260246000fd5b6040519080825280601f01601f1916602001820160405280156127ff5781602001600182028036833780820191505090505b5090507f30000000000000000000000000000000000000000000000000000000000000008160008151811061285d577f4e487b7100000000000000000000000000000000000000000000000000000000600052603260045260246000fd5b60200101907effffffffffffffffffffffffffffffffffffffffffffffffffffffffffffff1916908160001a9053507f7800000000000000000000000000000000000000000000000000000000000000816001815181106128e7577f4e487b7100000000000000000000000000000000000000000000000000000000600052603260045260246000fd5b60200101907effffffffffffffffffffffffffffffffffffffffffffffffffffffffffffff1916908160001a9053506000600184600261292791906145f5565b612931919061456e565b90505b6001811115612a1d577f3031323334353637383961626364656600000000000000000000000000000000600f861660108110612999577f4e487b7100000000000000000000000000000000000000000000000000000000600052603260045260246000fd5b1a60f81b8282815181106129d6577f4e487b7100000000000000000000000000000000000000000000000000000000600052603260045260246000fd5b60200101907effffffffffffffffffffffffffffffffffffffffffffffffffffffffffffff1916908160001a905350600485901c945080612a1690614762565b9050612934565b5060008414612a61576040517f08c379a0000000000000000000000000000000000000000000000000000000008152600401612a5890614153565b60405180910390fd5b8091505092915050565b612a758282610f82565b15612b49576000600a600084815260200190815260200160002060000160008373ffffffffffffffffffffffffffffffffffffffff1673ffffffffffffffffffffffffffffffffffffffff16815260200190815260200160002060006101000a81548160ff021916908315150217905550612aee61174d565b73ffffffffffffffffffffffffffffffffffffffff168173ffffffffffffffffffffffffffffffffffffffff16837ff6391f5c32d9c69d2a47ea670b442974b53935d1edc7fd64eb21e047a839171b60405160405180910390a45b5050565b6000612b75836000018373ffffffffffffffffffffffffffffffffffffffff1660001b613190565b905092915050565b6000826000018281548110612bbb577f4e487b7100000000000000000000000000000000000000000000000000000000600052603260045260246000fd5b9060005260206000200154905092915050565b6000612bef8473ffffffffffffffffffffffffffffffffffffffff16613316565b15612d58578373ffffffffffffffffffffffffffffffffffffffff1663150b7a02612c1861174d565b8786866040518563ffffffff1660e01b8152600401612c3a94939291906140af565b602060405180830381600087803b158015612c5457600080fd5b505af1925050508015612c8557506040513d601f19601f82011682018060405250810190612c829190613a6c565b60015b612d08573d8060008114612cb5576040519150601f19603f3d011682016040523d82523d6000602084013e612cba565b606091505b50600081511415612d00576040517f08c379a0000000000000000000000000000000000000000000000000000000008152600401612cf790614193565b60405180910390fd5b805181602001fd5b63150b7a0260e01b7bffffffffffffffffffffffffffffffffffffffffffffffffffffffff1916817bffffffffffffffffffffffffffffffffffffffffffffffffffffffff191614915050612d5d565b600190505b949350505050565b600081600001805490509050919050565b600080836001016000848152602001908152602001600020541415905092915050565b60007f780e9d63000000000000000000000000000000000000000000000000000000007bffffffffffffffffffffffffffffffffffffffffffffffffffffffff1916827bffffffffffffffffffffffffffffffffffffffffffffffffffffffff19161480612e0c5750612e0b82613339565b5b9050919050565b505050565b6008805490506009600083815260200190815260200160002081905550600881908060018154018082558091505060019003906000526020600020016000909190919091505550565b60006001612e6e84610e86565b612e78919061464f565b9050600060076000848152602001908152602001600020549050818114612f5d576000600660008673ffffffffffffffffffffffffffffffffffffffff1673ffffffffffffffffffffffffffffffffffffffff168152602001908152602001600020600084815260200190815260200160002054905080600660008773ffffffffffffffffffffffffffffffffffffffff1673ffffffffffffffffffffffffffffffffffffffff168152602001908152602001600020600084815260200190815260200160002081905550816007600083815260200190815260200160002081905550505b6007600084815260200190815260200160002060009055600660008573ffffffffffffffffffffffffffffffffffffffff1673ffffffffffffffffffffffffffffffffffffffff16815260200190815260200160002060008381526020019081526020016000206000905550505050565b60006001600880549050612fe2919061464f565b9050600060096000848152602001908152602001600020549050600060088381548110613038577f4e487b7100000000000000000000000000000000000000000000000000000000600052603260045260246000fd5b906000526020600020015490508060088381548110613080577f4e487b7100000000000000000000000000000000000000000000000000000000600052603260045260246000fd5b9060005260206000200181905550816009600083815260200190815260200160002081905550600960008581526020019081526020016000206000905560088054806130f5577f4e487b7100000000000000000000000000000000000000000000000000000000600052603160045260246000fd5b6001900381819060005260206000200160009055905550505050565b600061311c83610e86565b905081600660008573ffffffffffffffffffffffffffffffffffffffff1673ffffffffffffffffffffffffffffffffffffffff168152602001908152602001600020600083815260200190815260200160002081905550806007600084815260200190815260200160002081905550505050565b6000808360010160008481526020019081526020016000205490506000811461330a5760006001826131c2919061464f565b90506000600186600001805490506131da919061464f565b9050818114613295576000866000018281548110613221577f4e487b7100000000000000000000000000000000000000000000000000000000600052603260045260246000fd5b906000526020600020015490508087600001848154811061326b577f4e487b7100000000000000000000000000000000000000000000000000000000600052603260045260246000fd5b90600052602060002001819055508387600101600083815260200190815260200160002081905550505b856000018054806132cf577f4e487b7100000000000000000000000000000000000000000000000000000000600052603160045260246000fd5b600190038181906000526020600020016000905590558560010160008681526020019081526020016000206000905560019350505050613310565b60009150505b92915050565b6000808273ffffffffffffffffffffffffffffffffffffffff163b119050919050565b60007f80ac58cd000000000000000000000000000000000000000000000000000000007bffffffffffffffffffffffffffffffffffffffffffffffffffffffff1916827bffffffffffffffffffffffffffffffffffffffffffffffffffffffff1916148061340457507f5b5e139f000000000000000000000000000000000000000000000000000000007bffffffffffffffffffffffffffffffffffffffffffffffffffffffff1916827bffffffffffffffffffffffffffffffffffffffffffffffffffffffff1916145b8061341457506134138261341b565b5b9050919050565b60007f01ffc9a7000000000000000000000000000000000000000000000000000000007bffffffffffffffffffffffffffffffffffffffffffffffffffffffff1916827bffffffffffffffffffffffffffffffffffffffffffffffffffffffff1916149050919050565b8280546134919061478c565b90600052602060002090601f0160209004810192826134b357600085556134fa565b82601f106134cc57805160ff19168380011785556134fa565b828001600101855582156134fa579182015b828111156134f95782518255916020019190600101906134de565b5b509050613507919061350b565b5090565b5b8082111561352457600081600090555060010161350c565b5090565b600061353b613536846144c9565b6144a4565b90508281526020810184848401111561355357600080fd5b61355e848285614720565b509392505050565b6000613579613574846144fa565b6144a4565b90508281526020810184848401111561359157600080fd5b61359c848285614720565b509392505050565b6000813590506135b381614ea7565b92915050565b6000813590506135c881614ebe565b92915050565b6000813590506135dd81614ed5565b92915050565b6000813590506135f281614eec565b92915050565b60008151905061360781614eec565b92915050565b600082601f83011261361e57600080fd5b813561362e848260208601613528565b91505092915050565b60008151905061364681614f03565b92915050565b600082601f83011261365d57600080fd5b813561366d848260208601613566565b91505092915050565b6000610180828403121561368957600080fd5b6136946101806144a4565b905060006136a4848285016137a9565b60008301525060206136b8848285016137a9565b60208301525060406136cc848285016137a9565b60408301525060606136e0848285016137a9565b60608301525060806136f4848285016137a9565b60808301525060a0613708848285016137a9565b60a08301525060c061371c848285016137a9565b60c08301525060e0613730848285016137a9565b60e083015250610100613745848285016137a9565b6101008301525061012061375b848285016137a9565b61012083015250610140613771848285016137a9565b61014083015250610160613787848285016137a9565b6101608301525092915050565b6000813590506137a381614f1a565b92915050565b6000813590506137b881614f31565b92915050565b6000602082840312156137d057600080fd5b60006137de848285016135a4565b91505092915050565b600080604083850312156137fa57600080fd5b6000613808858286016135a4565b9250506020613819858286016135a4565b9150509250929050565b60008060006060848603121561383857600080fd5b6000613846868287016135a4565b9350506020613857868287016135a4565b925050604061386886828701613794565b9150509250925092565b6000806000806080858703121561388857600080fd5b6000613896878288016135a4565b94505060206138a7878288016135a4565b93505060406138b887828801613794565b925050606085013567ffffffffffffffff8111156138d557600080fd5b6138e18782880161360d565b91505092959194509250565b6000806040838503121561390057600080fd5b600061390e858286016135a4565b925050602061391f858286016135b9565b9150509250929050565b6000806101a0838503121561393d57600080fd5b600061394b858286016135a4565b925050602061395c85828601613676565b9150509250929050565b6000806040838503121561397957600080fd5b6000613987858286016135a4565b925050602061399885828601613794565b9150509250929050565b6000602082840312156139b457600080fd5b60006139c2848285016135ce565b91505092915050565b600080604083850312156139de57600080fd5b60006139ec858286016135ce565b92505060206139fd858286016135a4565b9150509250929050565b60008060408385031215613a1a57600080fd5b6000613a28858286016135ce565b9250506020613a3985828601613794565b9150509250929050565b600060208284031215613a5557600080fd5b6000613a63848285016135e3565b91505092915050565b600060208284031215613a7e57600080fd5b6000613a8c848285016135f8565b91505092915050565b600060208284031215613aa757600080fd5b6000613ab584828501613637565b91505092915050565b600060208284031215613ad057600080fd5b600082013567ffffffffffffffff811115613aea57600080fd5b613af68482850161364c565b91505092915050565b600060208284031215613b1157600080fd5b6000613b1f84828501613794565b91505092915050565b60008060408385031215613b3b57600080fd5b6000613b49858286016137a9565b9250506020613b5a858286016137a9565b9150509250929050565b613b6d81614683565b82525050565b613b7c81614695565b82525050565b613b8b816146a1565b82525050565b6000613b9c8261452b565b613ba68185614541565b9350613bb681856020860161472f565b613bbf81614925565b840191505092915050565b6000613bd582614536565b613bdf8185614552565b9350613bef81856020860161472f565b613bf881614925565b840191505092915050565b6000613c0e82614536565b613c188185614563565b9350613c2881856020860161472f565b80840191505092915050565b6000613c41602083614552565b9150613c4c82614936565b602082019050919050565b6000613c64602b83614552565b9150613c6f8261495f565b604082019050919050565b6000613c87603283614552565b9150613c92826149ae565b604082019050919050565b6000613caa602583614552565b9150613cb5826149fd565b604082019050919050565b6000613ccd601c83614552565b9150613cd882614a4c565b602082019050919050565b6000613cf0602483614552565b9150613cfb82614a75565b604082019050919050565b6000613d13601983614552565b9150613d1e82614ac4565b602082019050919050565b6000613d36602c83614552565b9150613d4182614aed565b604082019050919050565b6000613d59601583614552565b9150613d6482614b3c565b602082019050919050565b6000613d7c603883614552565b9150613d8782614b65565b604082019050919050565b6000613d9f602a83614552565b9150613daa82614bb4565b604082019050919050565b6000613dc2602983614552565b9150613dcd82614c03565b604082019050919050565b6000613de5602083614552565b9150613df082614c52565b602082019050919050565b6000613e08602c83614552565b9150613e1382614c7b565b604082019050919050565b6000613e2b602f83614552565b9150613e3682614cca565b604082019050919050565b6000613e4e602183614552565b9150613e5982614d19565b604082019050919050565b6000613e71603183614552565b9150613e7c82614d68565b604082019050919050565b6000613e94602c83614552565b9150613e9f82614db7565b604082019050919050565b6000613eb7601783614563565b9150613ec282614e06565b601782019050919050565b6000613eda601183614563565b9150613ee582614e2f565b601182019050919050565b6000613efd602f83614552565b9150613f0882614e58565b604082019050919050565b61018082016000820151613f2a6000850182614018565b506020820151613f3d6020850182614018565b506040820151613f506040850182614018565b506060820151613f636060850182614018565b506080820151613f766080850182614018565b5060a0820151613f8960a0850182614018565b5060c0820151613f9c60c0850182614018565b5060e0820151613faf60e0850182614018565b50610100820151613fc4610100850182614018565b50610120820151613fd9610120850182614018565b50610140820151613fee610140850182614018565b50610160820151614003610160850182614018565b50505050565b61401281614709565b82525050565b61402181614713565b82525050565b61403081614713565b82525050565b60006140428285613c03565b915061404e8284613c03565b91508190509392505050565b600061406582613eaa565b91506140718285613c03565b915061407c82613ecd565b91506140888284613c03565b91508190509392505050565b60006020820190506140a96000830184613b64565b92915050565b60006080820190506140c46000830187613b64565b6140d16020830186613b64565b6140de6040830185614009565b81810360608301526140f08184613b91565b905095945050505050565b60006020820190506141106000830184613b73565b92915050565b600060208201905061412b6000830184613b82565b92915050565b6000602082019050818103600083015261414b8184613bca565b905092915050565b6000602082019050818103600083015261416c81613c34565b9050919050565b6000602082019050818103600083015261418c81613c57565b9050919050565b600060208201905081810360008301526141ac81613c7a565b9050919050565b600060208201905081810360008301526141cc81613c9d565b9050919050565b600060208201905081810360008301526141ec81613cc0565b9050919050565b6000602082019050818103600083015261420c81613ce3565b9050919050565b6000602082019050818103600083015261422c81613d06565b9050919050565b6000602082019050818103600083015261424c81613d29565b9050919050565b6000602082019050818103600083015261426c81613d4c565b9050919050565b6000602082019050818103600083015261428c81613d6f565b9050919050565b600060208201905081810360008301526142ac81613d92565b9050919050565b600060208201905081810360008301526142cc81613db5565b9050919050565b600060208201905081810360008301526142ec81613dd8565b9050919050565b6000602082019050818103600083015261430c81613dfb565b9050919050565b6000602082019050818103600083015261432c81613e1e565b9050919050565b6000602082019050818103600083015261434c81613e41565b9050919050565b6000602082019050818103600083015261436c81613e64565b9050919050565b6000602082019050818103600083015261438c81613e87565b9050919050565b600060208201905081810360008301526143ac81613ef0565b9050919050565b6000610180820190506143c96000830184613f13565b92915050565b60006020820190506143e46000830184614009565b92915050565b600061018082019050614400600083018f614027565b61440d602083018e614027565b61441a604083018d614027565b614427606083018c614027565b614434608083018b614027565b61444160a083018a614027565b61444e60c0830189614027565b61445b60e0830188614027565b614469610100830187614027565b614477610120830186614027565b614485610140830185614027565b614493610160830184614027565b9d9c50505050505050505050505050565b60006144ae6144bf565b90506144ba82826147be565b919050565b6000604051905090565b600067ffffffffffffffff8211156144e4576144e36148f6565b5b6144ed82614925565b9050602081019050919050565b600067ffffffffffffffff821115614515576145146148f6565b5b61451e82614925565b9050602081019050919050565b600081519050919050565b600081519050919050565b600082825260208201905092915050565b600082825260208201905092915050565b600081905092915050565b600061457982614709565b915061458483614709565b9250827fffffffffffffffffffffffffffffffffffffffffffffffffffffffffffffffff038211156145b9576145b8614869565b5b828201905092915050565b60006145cf82614709565b91506145da83614709565b9250826145ea576145e9614898565b5b828204905092915050565b600061460082614709565b915061460b83614709565b9250817fffffffffffffffffffffffffffffffffffffffffffffffffffffffffffffffff048311821515161561464457614643614869565b5b828202905092915050565b600061465a82614709565b915061466583614709565b92508282101561467857614677614869565b5b828203905092915050565b600061468e826146e9565b9050919050565b60008115159050919050565b6000819050919050565b60007fffffffff0000000000000000000000000000000000000000000000000000000082169050919050565b60006146e282614683565b9050919050565b600073ffffffffffffffffffffffffffffffffffffffff82169050919050565b6000819050919050565b600060ff82169050919050565b82818337600083830152505050565b60005b8381101561474d578082015181840152602081019050614732565b8381111561475c576000848401525b50505050565b600061476d82614709565b9150600082141561478157614780614869565b5b600182039050919050565b600060028204905060018216806147a457607f821691505b602082108114156147b8576147b76148c7565b5b50919050565b6147c782614925565b810181811067ffffffffffffffff821117156147e6576147e56148f6565b5b80604052505050565b60006147fa82614709565b91507fffffffffffffffffffffffffffffffffffffffffffffffffffffffffffffffff82141561482d5761482c614869565b5b600182019050919050565b600061484382614709565b915061484e83614709565b92508261485e5761485d614898565b5b828206905092915050565b7f4e487b7100000000000000000000000000000000000000000000000000000000600052601160045260246000fd5b7f4e487b7100000000000000000000000000000000000000000000000000000000600052601260045260246000fd5b7f4e487b7100000000000000000000000000000000000000000000000000000000600052602260045260246000fd5b7f4e487b7100000000000000000000000000000000000000000000000000000000600052604160045260246000fd5b6000601f19601f8301169050919050565b7f537472696e67733a20686578206c656e67746820696e73756666696369656e74600082015250565b7f455243373231456e756d657261626c653a206f776e657220696e646578206f7560008201527f74206f6620626f756e6473000000000000000000000000000000000000000000602082015250565b7f4552433732313a207472616e7366657220746f206e6f6e20455243373231526560008201527f63656976657220696d706c656d656e7465720000000000000000000000000000602082015250565b7f4552433732313a207472616e736665722066726f6d20696e636f72726563742060008201527f6f776e6572000000000000000000000000000000000000000000000000000000602082015250565b7f4552433732313a20746f6b656e20616c7265616479206d696e74656400000000600082015250565b7f4552433732313a207472616e7366657220746f20746865207a65726f2061646460008201527f7265737300000000000000000000000000000000000000000000000000000000602082015250565b7f4552433732313a20617070726f766520746f2063616c6c657200000000000000600082015250565b7f4552433732313a206f70657261746f7220717565727920666f72206e6f6e657860008201527f697374656e7420746f6b656e0000000000000000000000000000000000000000602082015250565b7f4c616e643a20616c7265616479206d696e7465642e0000000000000000000000600082015250565b7f4552433732313a20617070726f76652063616c6c6572206973206e6f74206f7760008201527f6e6572206e6f7220617070726f76656420666f7220616c6c0000000000000000602082015250565b7f4552433732313a2062616c616e636520717565727920666f7220746865207a6560008201527f726f206164647265737300000000000000000000000000000000000000000000602082015250565b7f4552433732313a206f776e657220717565727920666f72206e6f6e657869737460008201527f656e7420746f6b656e0000000000000000000000000000000000000000000000602082015250565b7f4552433732313a206d696e7420746f20746865207a65726f2061646472657373600082015250565b7f4552433732313a20617070726f76656420717565727920666f72206e6f6e657860008201527f697374656e7420746f6b656e0000000000000000000000000000000000000000602082015250565b7f4552433732314d657461646174613a2055524920717565727920666f72206e6f60008201527f6e6578697374656e7420746f6b656e0000000000000000000000000000000000602082015250565b7f4552433732313a20617070726f76616c20746f2063757272656e74206f776e6560008201527f7200000000000000000000000000000000000000000000000000000000000000602082015250565b7f4552433732313a207472616e736665722063616c6c6572206973206e6f74206f60008201527f776e6572206e6f7220617070726f766564000000000000000000000000000000602082015250565b7f455243373231456e756d657261626c653a20676c6f62616c20696e646578206f60008201527f7574206f6620626f756e64730000000000000000000000000000000000000000602082015250565b7f416363657373436f6e74726f6c3a206163636f756e7420000000000000000000600082015250565b7f206973206d697373696e6720726f6c6520000000000000000000000000000000600082015250565b7f416363657373436f6e74726f6c3a2063616e206f6e6c792072656e6f756e636560008201527f20726f6c657320666f722073656c660000000000000000000000000000000000602082015250565b614eb081614683565b8114614ebb57600080fd5b50565b614ec781614695565b8114614ed257600080fd5b50565b614ede816146a1565b8114614ee957600080fd5b50565b614ef5816146ab565b8114614f0057600080fd5b50565b614f0c816146d7565b8114614f1757600080fd5b50565b614f2381614709565b8114614f2e57600080fd5b50565b614f3a81614713565b8114614f4557600080fd5b5056fe68747470733a2f2f7777772e77696e7a656c616e642e636f6d2f6d6574612f636f6e74726163742f6c616e6473a2646970667358221220d8b25234e75af2f364f2e5256e841ebbb517ddadf3a538c80a9605cb4f1416e564736f6c6343000804003368747470733a2f2f7777772e77696e7a656c616e642e6e6574776f726b2f6d6574612f6c616e642f",
  "devdoc": {
    "kind": "dev",
    "methods": {
      "approve(address,uint256)": {
        "details": "See {IERC721-approve}."
      },
      "balanceOf(address)": {
        "details": "See {IERC721-balanceOf}."
      },
      "getApproved(uint256)": {
        "details": "See {IERC721-getApproved}."
      },
      "getRoleAdmin(bytes32)": {
        "details": "Returns the admin role that controls `role`. See {grantRole} and {revokeRole}. To change a role's admin, use {_setRoleAdmin}."
      },
      "getRoleMember(bytes32,uint256)": {
        "details": "Returns one of the accounts that have `role`. `index` must be a value between 0 and {getRoleMemberCount}, non-inclusive. Role bearers are not sorted in any particular way, and their ordering may change at any point. WARNING: When using {getRoleMember} and {getRoleMemberCount}, make sure you perform all queries on the same block. See the following https://forum.openzeppelin.com/t/iterating-over-elements-on-enumerableset-in-openzeppelin-contracts/2296[forum post] for more information."
      },
      "getRoleMemberCount(bytes32)": {
        "details": "Returns the number of accounts that have `role`. Can be used together with {getRoleMember} to enumerate all bearers of a role."
      },
      "grantRole(bytes32,address)": {
        "details": "Grants `role` to `account`. If `account` had not been already granted `role`, emits a {RoleGranted} event. Requirements: - the caller must have ``role``'s admin role."
      },
      "hasRole(bytes32,address)": {
        "details": "Returns `true` if `account` has been granted `role`."
      },
      "name()": {
        "details": "See {IERC721Metadata-name}."
      },
      "ownerOf(uint256)": {
        "details": "See {IERC721-ownerOf}."
      },
      "renounceRole(bytes32,address)": {
        "details": "Revokes `role` from the calling account. Roles are often managed via {grantRole} and {revokeRole}: this function's purpose is to provide a mechanism for accounts to lose their privileges if they are compromised (such as when a trusted device is misplaced). If the calling account had been revoked `role`, emits a {RoleRevoked} event. Requirements: - the caller must be `account`."
      },
      "revokeRole(bytes32,address)": {
        "details": "Revokes `role` from `account`. If `account` had been granted `role`, emits a {RoleRevoked} event. Requirements: - the caller must have ``role``'s admin role."
      },
      "safeTransferFrom(address,address,uint256)": {
        "details": "See {IERC721-safeTransferFrom}."
      },
      "safeTransferFrom(address,address,uint256,bytes)": {
        "details": "See {IERC721-safeTransferFrom}."
      },
      "setApprovalForAll(address,bool)": {
        "details": "See {IERC721-setApprovalForAll}."
      },
      "symbol()": {
        "details": "See {IERC721Metadata-symbol}."
      },
      "tokenByIndex(uint256)": {
        "details": "See {IERC721Enumerable-tokenByIndex}."
      },
      "tokenOfOwnerByIndex(address,uint256)": {
        "details": "See {IERC721Enumerable-tokenOfOwnerByIndex}."
      },
      "tokenURI(uint256)": {
        "details": "See {IERC721Metadata-tokenURI}."
      },
      "totalSupply()": {
        "details": "See {IERC721Enumerable-totalSupply}."
      },
      "transferFrom(address,address,uint256)": {
        "details": "See {IERC721-transferFrom}."
      }
    },
    "version": 1
  },
  "userdoc": {
    "kind": "user",
    "methods": {
      "isApprovedForAll(address,address)": {
        "notice": "Override isApprovedForAll to whitelist user's OpenSea proxy accounts to enable gas-less listings."
      }
    },
    "version": 1
  },
  "storageLayout": {
    "storage": [
      {
        "astId": 2627,
        "contract": "contracts/lands/LandERC721.sol:LandERC721",
        "label": "_name",
        "offset": 0,
        "slot": "0",
        "type": "t_string_storage"
      },
      {
        "astId": 2629,
        "contract": "contracts/lands/LandERC721.sol:LandERC721",
        "label": "_symbol",
        "offset": 0,
        "slot": "1",
        "type": "t_string_storage"
      },
      {
        "astId": 2633,
        "contract": "contracts/lands/LandERC721.sol:LandERC721",
        "label": "_owners",
        "offset": 0,
        "slot": "2",
        "type": "t_mapping(t_uint256,t_address)"
      },
      {
        "astId": 2637,
        "contract": "contracts/lands/LandERC721.sol:LandERC721",
        "label": "_balances",
        "offset": 0,
        "slot": "3",
        "type": "t_mapping(t_address,t_uint256)"
      },
      {
        "astId": 2641,
        "contract": "contracts/lands/LandERC721.sol:LandERC721",
        "label": "_tokenApprovals",
        "offset": 0,
        "slot": "4",
        "type": "t_mapping(t_uint256,t_address)"
      },
      {
        "astId": 2647,
        "contract": "contracts/lands/LandERC721.sol:LandERC721",
        "label": "_operatorApprovals",
        "offset": 0,
        "slot": "5",
        "type": "t_mapping(t_address,t_mapping(t_address,t_bool))"
      },
      {
        "astId": 3616,
        "contract": "contracts/lands/LandERC721.sol:LandERC721",
        "label": "_ownedTokens",
        "offset": 0,
        "slot": "6",
        "type": "t_mapping(t_address,t_mapping(t_uint256,t_uint256))"
      },
      {
        "astId": 3620,
        "contract": "contracts/lands/LandERC721.sol:LandERC721",
        "label": "_ownedTokensIndex",
        "offset": 0,
        "slot": "7",
        "type": "t_mapping(t_uint256,t_uint256)"
      },
      {
        "astId": 3623,
        "contract": "contracts/lands/LandERC721.sol:LandERC721",
        "label": "_allTokens",
        "offset": 0,
        "slot": "8",
        "type": "t_array(t_uint256)dyn_storage"
      },
      {
        "astId": 3627,
        "contract": "contracts/lands/LandERC721.sol:LandERC721",
        "label": "_allTokensIndex",
        "offset": 0,
        "slot": "9",
        "type": "t_mapping(t_uint256,t_uint256)"
      },
      {
        "astId": 24,
        "contract": "contracts/lands/LandERC721.sol:LandERC721",
        "label": "_roles",
        "offset": 0,
        "slot": "10",
        "type": "t_mapping(t_bytes32,t_struct(RoleData)19_storage)"
      },
      {
        "astId": 327,
        "contract": "contracts/lands/LandERC721.sol:LandERC721",
        "label": "_roleMembers",
        "offset": 0,
        "slot": "11",
        "type": "t_mapping(t_bytes32,t_struct(AddressSet)5177_storage)"
      },
      {
        "astId": 5486,
        "contract": "contracts/lands/LandERC721.sol:LandERC721",
        "label": "proxyRegistryAddress",
        "offset": 0,
        "slot": "12",
        "type": "t_address"
      },
      {
        "astId": 6669,
        "contract": "contracts/lands/LandERC721.sol:LandERC721",
        "label": "dna",
        "offset": 0,
        "slot": "13",
        "type": "t_mapping(t_uint256,t_struct(DNA)6657_storage)"
      },
      {
        "astId": 6675,
        "contract": "contracts/lands/LandERC721.sol:LandERC721",
        "label": "coordinates",
        "offset": 0,
        "slot": "14",
        "type": "t_mapping(t_uint8,t_mapping(t_uint8,t_uint256))"
      },
      {
        "astId": 6681,
        "contract": "contracts/lands/LandERC721.sol:LandERC721",
        "label": "coordinatesTaken",
        "offset": 0,
        "slot": "15",
        "type": "t_mapping(t_uint8,t_mapping(t_uint8,t_bool))"
      },
      {
        "astId": 6684,
        "contract": "contracts/lands/LandERC721.sol:LandERC721",
        "label": "__baseURI",
        "offset": 0,
        "slot": "16",
        "type": "t_string_storage"
      }
    ],
    "types": {
      "t_address": {
        "encoding": "inplace",
        "label": "address",
        "numberOfBytes": "20"
      },
      "t_array(t_bytes32)dyn_storage": {
        "base": "t_bytes32",
        "encoding": "dynamic_array",
        "label": "bytes32[]",
        "numberOfBytes": "32"
      },
      "t_array(t_uint256)dyn_storage": {
        "base": "t_uint256",
        "encoding": "dynamic_array",
        "label": "uint256[]",
        "numberOfBytes": "32"
      },
      "t_bool": {
        "encoding": "inplace",
        "label": "bool",
        "numberOfBytes": "1"
      },
      "t_bytes32": {
        "encoding": "inplace",
        "label": "bytes32",
        "numberOfBytes": "32"
      },
      "t_mapping(t_address,t_bool)": {
        "encoding": "mapping",
        "key": "t_address",
        "label": "mapping(address => bool)",
        "numberOfBytes": "32",
        "value": "t_bool"
      },
      "t_mapping(t_address,t_mapping(t_address,t_bool))": {
        "encoding": "mapping",
        "key": "t_address",
        "label": "mapping(address => mapping(address => bool))",
        "numberOfBytes": "32",
        "value": "t_mapping(t_address,t_bool)"
      },
      "t_mapping(t_address,t_mapping(t_uint256,t_uint256))": {
        "encoding": "mapping",
        "key": "t_address",
        "label": "mapping(address => mapping(uint256 => uint256))",
        "numberOfBytes": "32",
        "value": "t_mapping(t_uint256,t_uint256)"
      },
      "t_mapping(t_address,t_uint256)": {
        "encoding": "mapping",
        "key": "t_address",
        "label": "mapping(address => uint256)",
        "numberOfBytes": "32",
        "value": "t_uint256"
      },
      "t_mapping(t_bytes32,t_struct(AddressSet)5177_storage)": {
        "encoding": "mapping",
        "key": "t_bytes32",
        "label": "mapping(bytes32 => struct EnumerableSet.AddressSet)",
        "numberOfBytes": "32",
        "value": "t_struct(AddressSet)5177_storage"
      },
      "t_mapping(t_bytes32,t_struct(RoleData)19_storage)": {
        "encoding": "mapping",
        "key": "t_bytes32",
        "label": "mapping(bytes32 => struct AccessControl.RoleData)",
        "numberOfBytes": "32",
        "value": "t_struct(RoleData)19_storage"
      },
      "t_mapping(t_bytes32,t_uint256)": {
        "encoding": "mapping",
        "key": "t_bytes32",
        "label": "mapping(bytes32 => uint256)",
        "numberOfBytes": "32",
        "value": "t_uint256"
      },
      "t_mapping(t_uint256,t_address)": {
        "encoding": "mapping",
        "key": "t_uint256",
        "label": "mapping(uint256 => address)",
        "numberOfBytes": "32",
        "value": "t_address"
      },
      "t_mapping(t_uint256,t_struct(DNA)6657_storage)": {
        "encoding": "mapping",
        "key": "t_uint256",
        "label": "mapping(uint256 => struct LandERC721.DNA)",
        "numberOfBytes": "32",
        "value": "t_struct(DNA)6657_storage"
      },
      "t_mapping(t_uint256,t_uint256)": {
        "encoding": "mapping",
        "key": "t_uint256",
        "label": "mapping(uint256 => uint256)",
        "numberOfBytes": "32",
        "value": "t_uint256"
      },
      "t_mapping(t_uint8,t_bool)": {
        "encoding": "mapping",
        "key": "t_uint8",
        "label": "mapping(uint8 => bool)",
        "numberOfBytes": "32",
        "value": "t_bool"
      },
      "t_mapping(t_uint8,t_mapping(t_uint8,t_bool))": {
        "encoding": "mapping",
        "key": "t_uint8",
        "label": "mapping(uint8 => mapping(uint8 => bool))",
        "numberOfBytes": "32",
        "value": "t_mapping(t_uint8,t_bool)"
      },
      "t_mapping(t_uint8,t_mapping(t_uint8,t_uint256))": {
        "encoding": "mapping",
        "key": "t_uint8",
        "label": "mapping(uint8 => mapping(uint8 => uint256))",
        "numberOfBytes": "32",
        "value": "t_mapping(t_uint8,t_uint256)"
      },
      "t_mapping(t_uint8,t_uint256)": {
        "encoding": "mapping",
        "key": "t_uint8",
        "label": "mapping(uint8 => uint256)",
        "numberOfBytes": "32",
        "value": "t_uint256"
      },
      "t_string_storage": {
        "encoding": "bytes",
        "label": "string",
        "numberOfBytes": "32"
      },
      "t_struct(AddressSet)5177_storage": {
        "encoding": "inplace",
        "label": "struct EnumerableSet.AddressSet",
        "members": [
          {
            "astId": 5176,
            "contract": "contracts/lands/LandERC721.sol:LandERC721",
            "label": "_inner",
            "offset": 0,
            "slot": "0",
            "type": "t_struct(Set)4876_storage"
          }
        ],
        "numberOfBytes": "64"
      },
      "t_struct(DNA)6657_storage": {
        "encoding": "inplace",
        "label": "struct LandERC721.DNA",
        "members": [
          {
            "astId": 6634,
            "contract": "contracts/lands/LandERC721.sol:LandERC721",
            "label": "x",
            "offset": 0,
            "slot": "0",
            "type": "t_uint8"
          },
          {
            "astId": 6636,
            "contract": "contracts/lands/LandERC721.sol:LandERC721",
            "label": "y",
            "offset": 1,
            "slot": "0",
            "type": "t_uint8"
          },
          {
            "astId": 6638,
            "contract": "contracts/lands/LandERC721.sol:LandERC721",
            "label": "climate",
            "offset": 2,
            "slot": "0",
            "type": "t_uint8"
          },
          {
            "astId": 6640,
            "contract": "contracts/lands/LandERC721.sol:LandERC721",
            "label": "landType",
            "offset": 3,
            "slot": "0",
            "type": "t_uint8"
          },
          {
            "astId": 6642,
            "contract": "contracts/lands/LandERC721.sol:LandERC721",
            "label": "resource1",
            "offset": 4,
            "slot": "0",
            "type": "t_uint8"
          },
          {
            "astId": 6644,
            "contract": "contracts/lands/LandERC721.sol:LandERC721",
            "label": "resource2",
            "offset": 5,
            "slot": "0",
            "type": "t_uint8"
          },
          {
            "astId": 6646,
            "contract": "contracts/lands/LandERC721.sol:LandERC721",
            "label": "resource3",
            "offset": 6,
            "slot": "0",
            "type": "t_uint8"
          },
          {
            "astId": 6648,
            "contract": "contracts/lands/LandERC721.sol:LandERC721",
            "label": "resource4",
            "offset": 7,
            "slot": "0",
            "type": "t_uint8"
          },
          {
            "astId": 6650,
            "contract": "contracts/lands/LandERC721.sol:LandERC721",
            "label": "resourceLevel1",
            "offset": 8,
            "slot": "0",
            "type": "t_uint8"
          },
          {
            "astId": 6652,
            "contract": "contracts/lands/LandERC721.sol:LandERC721",
            "label": "resourceLevel2",
            "offset": 9,
            "slot": "0",
            "type": "t_uint8"
          },
          {
            "astId": 6654,
            "contract": "contracts/lands/LandERC721.sol:LandERC721",
            "label": "resourceLevel3",
            "offset": 10,
            "slot": "0",
            "type": "t_uint8"
          },
          {
            "astId": 6656,
            "contract": "contracts/lands/LandERC721.sol:LandERC721",
            "label": "resourceLevel4",
            "offset": 11,
            "slot": "0",
            "type": "t_uint8"
          }
        ],
        "numberOfBytes": "32"
      },
      "t_struct(RoleData)19_storage": {
        "encoding": "inplace",
        "label": "struct AccessControl.RoleData",
        "members": [
          {
            "astId": 16,
            "contract": "contracts/lands/LandERC721.sol:LandERC721",
            "label": "members",
            "offset": 0,
            "slot": "0",
            "type": "t_mapping(t_address,t_bool)"
          },
          {
            "astId": 18,
            "contract": "contracts/lands/LandERC721.sol:LandERC721",
            "label": "adminRole",
            "offset": 0,
            "slot": "1",
            "type": "t_bytes32"
          }
        ],
        "numberOfBytes": "64"
      },
      "t_struct(Set)4876_storage": {
        "encoding": "inplace",
        "label": "struct EnumerableSet.Set",
        "members": [
          {
            "astId": 4871,
            "contract": "contracts/lands/LandERC721.sol:LandERC721",
            "label": "_values",
            "offset": 0,
            "slot": "0",
            "type": "t_array(t_bytes32)dyn_storage"
          },
          {
            "astId": 4875,
            "contract": "contracts/lands/LandERC721.sol:LandERC721",
            "label": "_indexes",
            "offset": 0,
            "slot": "1",
            "type": "t_mapping(t_bytes32,t_uint256)"
          }
        ],
        "numberOfBytes": "64"
      },
      "t_uint256": {
        "encoding": "inplace",
        "label": "uint256",
        "numberOfBytes": "32"
      },
      "t_uint8": {
        "encoding": "inplace",
        "label": "uint8",
        "numberOfBytes": "1"
      }
    }
  }
}