{
  "address": "0x584253c3D72D5828703F6b80d96696F1cBD0580A",
  "abi": [
    {
      "inputs": [],
      "stateMutability": "nonpayable",
      "type": "constructor"
    },
    {
      "anonymous": false,
      "inputs": [
        {
          "indexed": true,
          "internalType": "address",
          "name": "account",
          "type": "address"
        },
        {
          "indexed": true,
          "internalType": "address",
          "name": "operator",
          "type": "address"
        },
        {
          "indexed": false,
          "internalType": "bool",
          "name": "approved",
          "type": "bool"
        }
      ],
      "name": "ApprovalForAll",
      "type": "event"
    },
    {
      "anonymous": false,
      "inputs": [
        {
          "indexed": true,
          "internalType": "bytes32",
          "name": "role",
          "type": "bytes32"
        },
        {
          "indexed": true,
          "internalType": "bytes32",
          "name": "previousAdminRole",
          "type": "bytes32"
        },
        {
          "indexed": true,
          "internalType": "bytes32",
          "name": "newAdminRole",
          "type": "bytes32"
        }
      ],
      "name": "RoleAdminChanged",
      "type": "event"
    },
    {
      "anonymous": false,
      "inputs": [
        {
          "indexed": true,
          "internalType": "bytes32",
          "name": "role",
          "type": "bytes32"
        },
        {
          "indexed": true,
          "internalType": "address",
          "name": "account",
          "type": "address"
        },
        {
          "indexed": true,
          "internalType": "address",
          "name": "sender",
          "type": "address"
        }
      ],
      "name": "RoleGranted",
      "type": "event"
    },
    {
      "anonymous": false,
      "inputs": [
        {
          "indexed": true,
          "internalType": "bytes32",
          "name": "role",
          "type": "bytes32"
        },
        {
          "indexed": true,
          "internalType": "address",
          "name": "account",
          "type": "address"
        },
        {
          "indexed": true,
          "internalType": "address",
          "name": "sender",
          "type": "address"
        }
      ],
      "name": "RoleRevoked",
      "type": "event"
    },
    {
      "anonymous": false,
      "inputs": [
        {
          "indexed": true,
          "internalType": "address",
          "name": "operator",
          "type": "address"
        },
        {
          "indexed": true,
          "internalType": "address",
          "name": "from",
          "type": "address"
        },
        {
          "indexed": true,
          "internalType": "address",
          "name": "to",
          "type": "address"
        },
        {
          "indexed": false,
          "internalType": "uint256[]",
          "name": "ids",
          "type": "uint256[]"
        },
        {
          "indexed": false,
          "internalType": "uint256[]",
          "name": "values",
          "type": "uint256[]"
        }
      ],
      "name": "TransferBatch",
      "type": "event"
    },
    {
      "anonymous": false,
      "inputs": [
        {
          "indexed": true,
          "internalType": "address",
          "name": "operator",
          "type": "address"
        },
        {
          "indexed": true,
          "internalType": "address",
          "name": "from",
          "type": "address"
        },
        {
          "indexed": true,
          "internalType": "address",
          "name": "to",
          "type": "address"
        },
        {
          "indexed": false,
          "internalType": "uint256",
          "name": "id",
          "type": "uint256"
        },
        {
          "indexed": false,
          "internalType": "uint256",
          "name": "value",
          "type": "uint256"
        }
      ],
      "name": "TransferSingle",
      "type": "event"
    },
    {
      "anonymous": false,
      "inputs": [
        {
          "indexed": false,
          "internalType": "string",
          "name": "value",
          "type": "string"
        },
        {
          "indexed": true,
          "internalType": "uint256",
          "name": "id",
          "type": "uint256"
        }
      ],
      "name": "URI",
      "type": "event"
    },
    {
      "inputs": [],
      "name": "BURNER_ROLE",
      "outputs": [
        {
          "internalType": "bytes32",
          "name": "",
          "type": "bytes32"
        }
      ],
      "stateMutability": "view",
      "type": "function"
    },
    {
      "inputs": [],
      "name": "CREATOR_ROLE",
      "outputs": [
        {
          "internalType": "bytes32",
          "name": "",
          "type": "bytes32"
        }
      ],
      "stateMutability": "view",
      "type": "function"
    },
    {
      "inputs": [],
      "name": "DEFAULT_ADMIN_ROLE",
      "outputs": [
        {
          "internalType": "bytes32",
          "name": "",
          "type": "bytes32"
        }
      ],
      "stateMutability": "view",
      "type": "function"
    },
    {
      "inputs": [],
      "name": "MINTER_ROLE",
      "outputs": [
        {
          "internalType": "bytes32",
          "name": "",
          "type": "bytes32"
        }
      ],
      "stateMutability": "view",
      "type": "function"
    },
    {
      "inputs": [
        {
          "internalType": "address",
          "name": "account",
          "type": "address"
        },
        {
          "internalType": "uint256",
          "name": "id",
          "type": "uint256"
        }
      ],
      "name": "balanceOf",
      "outputs": [
        {
          "internalType": "uint256",
          "name": "",
          "type": "uint256"
        }
      ],
      "stateMutability": "view",
      "type": "function"
    },
    {
      "inputs": [
        {
          "internalType": "address[]",
          "name": "accounts",
          "type": "address[]"
        },
        {
          "internalType": "uint256[]",
          "name": "ids",
          "type": "uint256[]"
        }
      ],
      "name": "balanceOfBatch",
      "outputs": [
        {
          "internalType": "uint256[]",
          "name": "",
          "type": "uint256[]"
        }
      ],
      "stateMutability": "view",
      "type": "function"
    },
    {
      "inputs": [
        {
          "internalType": "address",
          "name": "account",
          "type": "address"
        },
        {
          "internalType": "uint256",
          "name": "id",
          "type": "uint256"
        },
        {
          "internalType": "uint256",
          "name": "value",
          "type": "uint256"
        }
      ],
      "name": "burn",
      "outputs": [],
      "stateMutability": "nonpayable",
      "type": "function"
    },
    {
      "inputs": [],
      "name": "contractURI",
      "outputs": [
        {
          "internalType": "string",
          "name": "",
          "type": "string"
        }
      ],
      "stateMutability": "pure",
      "type": "function"
    },
    {
      "inputs": [
        {
          "internalType": "string",
          "name": "_name",
          "type": "string"
        },
        {
          "internalType": "uint256",
          "name": "_decimals",
          "type": "uint256"
        }
      ],
      "name": "create",
      "outputs": [],
      "stateMutability": "nonpayable",
      "type": "function"
    },
    {
      "inputs": [
        {
          "internalType": "bytes32",
          "name": "role",
          "type": "bytes32"
        }
      ],
      "name": "getRoleAdmin",
      "outputs": [
        {
          "internalType": "bytes32",
          "name": "",
          "type": "bytes32"
        }
      ],
      "stateMutability": "view",
      "type": "function"
    },
    {
      "inputs": [
        {
          "internalType": "bytes32",
          "name": "role",
          "type": "bytes32"
        },
        {
          "internalType": "uint256",
          "name": "index",
          "type": "uint256"
        }
      ],
      "name": "getRoleMember",
      "outputs": [
        {
          "internalType": "address",
          "name": "",
          "type": "address"
        }
      ],
      "stateMutability": "view",
      "type": "function"
    },
    {
      "inputs": [
        {
          "internalType": "bytes32",
          "name": "role",
          "type": "bytes32"
        }
      ],
      "name": "getRoleMemberCount",
      "outputs": [
        {
          "internalType": "uint256",
          "name": "",
          "type": "uint256"
        }
      ],
      "stateMutability": "view",
      "type": "function"
    },
    {
      "inputs": [
        {
          "internalType": "bytes32",
          "name": "role",
          "type": "bytes32"
        },
        {
          "internalType": "address",
          "name": "account",
          "type": "address"
        }
      ],
      "name": "grantRole",
      "outputs": [],
      "stateMutability": "nonpayable",
      "type": "function"
    },
    {
      "inputs": [
        {
          "internalType": "bytes32",
          "name": "role",
          "type": "bytes32"
        },
        {
          "internalType": "address",
          "name": "account",
          "type": "address"
        }
      ],
      "name": "hasRole",
      "outputs": [
        {
          "internalType": "bool",
          "name": "",
          "type": "bool"
        }
      ],
      "stateMutability": "view",
      "type": "function"
    },
    {
      "inputs": [
        {
          "internalType": "address",
          "name": "account",
          "type": "address"
        },
        {
          "internalType": "address",
          "name": "operator",
          "type": "address"
        }
      ],
      "name": "isApprovedForAll",
      "outputs": [
        {
          "internalType": "bool",
          "name": "",
          "type": "bool"
        }
      ],
      "stateMutability": "view",
      "type": "function"
    },
    {
      "inputs": [
        {
          "internalType": "address",
          "name": "to",
          "type": "address"
        },
        {
          "internalType": "uint256",
          "name": "id",
          "type": "uint256"
        },
        {
          "internalType": "uint256",
          "name": "amount",
          "type": "uint256"
        }
      ],
      "name": "mint",
      "outputs": [],
      "stateMutability": "nonpayable",
      "type": "function"
    },
    {
      "inputs": [
        {
          "internalType": "bytes32",
          "name": "role",
          "type": "bytes32"
        },
        {
          "internalType": "address",
          "name": "account",
          "type": "address"
        }
      ],
      "name": "renounceRole",
      "outputs": [],
      "stateMutability": "nonpayable",
      "type": "function"
    },
    {
      "inputs": [
        {
          "internalType": "bytes32",
          "name": "role",
          "type": "bytes32"
        },
        {
          "internalType": "address",
          "name": "account",
          "type": "address"
        }
      ],
      "name": "revokeRole",
      "outputs": [],
      "stateMutability": "nonpayable",
      "type": "function"
    },
    {
      "inputs": [
        {
          "internalType": "address",
          "name": "from",
          "type": "address"
        },
        {
          "internalType": "address",
          "name": "to",
          "type": "address"
        },
        {
          "internalType": "uint256[]",
          "name": "ids",
          "type": "uint256[]"
        },
        {
          "internalType": "uint256[]",
          "name": "amounts",
          "type": "uint256[]"
        },
        {
          "internalType": "bytes",
          "name": "data",
          "type": "bytes"
        }
      ],
      "name": "safeBatchTransferFrom",
      "outputs": [],
      "stateMutability": "nonpayable",
      "type": "function"
    },
    {
      "inputs": [
        {
          "internalType": "address",
          "name": "from",
          "type": "address"
        },
        {
          "internalType": "address",
          "name": "to",
          "type": "address"
        },
        {
          "internalType": "uint256",
          "name": "id",
          "type": "uint256"
        },
        {
          "internalType": "uint256",
          "name": "amount",
          "type": "uint256"
        },
        {
          "internalType": "bytes",
          "name": "data",
          "type": "bytes"
        }
      ],
      "name": "safeTransferFrom",
      "outputs": [],
      "stateMutability": "nonpayable",
      "type": "function"
    },
    {
      "inputs": [
        {
          "internalType": "address",
          "name": "operator",
          "type": "address"
        },
        {
          "internalType": "bool",
          "name": "approved",
          "type": "bool"
        }
      ],
      "name": "setApprovalForAll",
      "outputs": [],
      "stateMutability": "nonpayable",
      "type": "function"
    },
    {
      "inputs": [
        {
          "internalType": "bytes4",
          "name": "interfaceId",
          "type": "bytes4"
        }
      ],
      "name": "supportsInterface",
      "outputs": [
        {
          "internalType": "bool",
          "name": "",
          "type": "bool"
        }
      ],
      "stateMutability": "view",
      "type": "function"
    },
    {
      "inputs": [
        {
          "internalType": "uint256",
          "name": "",
          "type": "uint256"
        }
      ],
      "name": "uri",
      "outputs": [
        {
          "internalType": "string",
          "name": "",
          "type": "string"
        }
      ],
      "stateMutability": "view",
      "type": "function"
    }
  ],
  "transactionHash": "0xe1b6184ed31e775b1ddcf261878f67f75261e336eb2afa2b3729262175e876a0",
  "args": [],
  "numDeployments": 4,
  "solcInputHash": "a784a32977ebc9a3e2d76a1a329d362c",
  "bytecode": "0x60806040523480156200001157600080fd5b506040518060600160405280602d815260200162005157602d91396200003d816200010560201b60201c565b50620000626000801b620000566200012160201b60201c565b6200012960201b60201c565b62000096620000766200012160201b60201c565b6001600a604051806020016040528060008152506200013f60201b60201c565b620000ca620000aa6200012160201b60201c565b6002600f604051806020016040528060008152506200013f60201b60201c565b620000ff620000de6200012160201b60201c565b6003613a98604051806020016040528060008152506200013f60201b60201c565b62000fc7565b80600290805190602001906200011d9291906200087c565b5050565b600033905090565b6200013b82826200030460201b60201c565b5050565b600073ffffffffffffffffffffffffffffffffffffffff168473ffffffffffffffffffffffffffffffffffffffff161415620001b2576040517f08c379a0000000000000000000000000000000000000000000000000000000008152600401620001a99062000b54565b60405180910390fd5b6000620001c46200012160201b60201c565b9050620001fd81600087620001df886200034c60201b60201c565b620001f0886200034c60201b60201c565b876200041560201b60201c565b8260008086815260200190815260200160002060008773ffffffffffffffffffffffffffffffffffffffff1673ffffffffffffffffffffffffffffffffffffffff16815260200190815260200160002060008282546200025e919062000be5565b925050819055508473ffffffffffffffffffffffffffffffffffffffff16600073ffffffffffffffffffffffffffffffffffffffff168273ffffffffffffffffffffffffffffffffffffffff167fc3d58168c5ae7397731d063d5bbf3d657854427343f4c083240f7aacaa2d0f628787604051620002de92919062000b76565b60405180910390a4620002fd816000878787876200041d60201b60201c565b5050505050565b6200031b82826200062760201b62000d821760201c565b6200034781600460008581526020019081526020016000206200071960201b62000e631790919060201c565b505050565b60606000600167ffffffffffffffff81111562000392577f4e487b7100000000000000000000000000000000000000000000000000000000600052604160045260246000fd5b604051908082528060200260200182016040528015620003c15781602001602082028036833780820191505090505b509050828160008151811062000400577f4e487b7100000000000000000000000000000000000000000000000000000000600052603260045260246000fd5b60200260200101818152505080915050919050565b505050505050565b620004498473ffffffffffffffffffffffffffffffffffffffff166200075160201b62000e931760201c565b156200061f578373ffffffffffffffffffffffffffffffffffffffff1663f23a6e6187878686866040518663ffffffff1660e01b81526004016200049295949392919062000a88565b602060405180830381600087803b158015620004ad57600080fd5b505af1925050508015620004e157506040513d601f19601f82011682018060405250810190620004de919062000943565b60015b6200059357620004f062000ddb565b806308c379a014156200055457506200050862000f0b565b8062000515575062000556565b806040517f08c379a00000000000000000000000000000000000000000000000000000000081526004016200054b919062000aec565b60405180910390fd5b505b6040517f08c379a00000000000000000000000000000000000000000000000000000000081526004016200058a9062000b10565b60405180910390fd5b63f23a6e6160e01b7bffffffffffffffffffffffffffffffffffffffffffffffffffffffff1916817bffffffffffffffffffffffffffffffffffffffffffffffffffffffff1916146200061d576040517f08c379a0000000000000000000000000000000000000000000000000000000008152600401620006149062000b32565b60405180910390fd5b505b505050505050565b6200063982826200077460201b60201c565b620007155760016003600084815260200190815260200160002060000160008373ffffffffffffffffffffffffffffffffffffffff1673ffffffffffffffffffffffffffffffffffffffff16815260200190815260200160002060006101000a81548160ff021916908315150217905550620006ba6200012160201b60201c565b73ffffffffffffffffffffffffffffffffffffffff168173ffffffffffffffffffffffffffffffffffffffff16837f2f8788117e7eff1d82e926ec794901d17c78024a50270940304540a733656f0d60405160405180910390a45b5050565b600062000749836000018373ffffffffffffffffffffffffffffffffffffffff1660001b620007df60201b60201c565b905092915050565b6000808273ffffffffffffffffffffffffffffffffffffffff163b119050919050565b60006003600084815260200190815260200160002060000160008373ffffffffffffffffffffffffffffffffffffffff1673ffffffffffffffffffffffffffffffffffffffff16815260200190815260200160002060009054906101000a900460ff16905092915050565b6000620007f383836200085960201b60201c565b6200084e57826000018290806001815401808255809150506001900390600052602060002001600090919091909150558260000180549050836001016000848152602001908152602001600020819055506001905062000853565b600090505b92915050565b600080836001016000848152602001908152602001600020541415905092915050565b8280546200088a9062000ce2565b90600052602060002090601f016020900481019282620008ae5760008555620008fa565b82601f10620008c957805160ff1916838001178555620008fa565b82800160010185558215620008fa579182015b82811115620008f9578251825591602001919060010190620008dc565b5b5090506200090991906200090d565b5090565b5b80821115620009285760008160009055506001016200090e565b5090565b6000815190506200093d8162000fad565b92915050565b6000602082840312156200095657600080fd5b600062000966848285016200092c565b91505092915050565b6200097a8162000c42565b82525050565b60006200098d8262000bad565b62000999818562000bc3565b9350620009ab81856020860162000cac565b620009b68162000e00565b840191505092915050565b6000620009ce8262000bb8565b620009da818562000bd4565b9350620009ec81856020860162000cac565b620009f78162000e00565b840191505092915050565b600062000a1160348362000bd4565b915062000a1e8262000e1e565b604082019050919050565b600062000a3860288362000bd4565b915062000a458262000e6d565b604082019050919050565b600062000a5f60218362000bd4565b915062000a6c8262000ebc565b604082019050919050565b62000a828162000ca2565b82525050565b600060a08201905062000a9f60008301886200096f565b62000aae60208301876200096f565b62000abd604083018662000a77565b62000acc606083018562000a77565b818103608083015262000ae0818462000980565b90509695505050505050565b6000602082019050818103600083015262000b088184620009c1565b905092915050565b6000602082019050818103600083015262000b2b8162000a02565b9050919050565b6000602082019050818103600083015262000b4d8162000a29565b9050919050565b6000602082019050818103600083015262000b6f8162000a50565b9050919050565b600060408201905062000b8d600083018562000a77565b62000b9c602083018462000a77565b9392505050565b6000604051905090565b600081519050919050565b600081519050919050565b600082825260208201905092915050565b600082825260208201905092915050565b600062000bf28262000ca2565b915062000bff8362000ca2565b9250827fffffffffffffffffffffffffffffffffffffffffffffffffffffffffffffffff0382111562000c375762000c3662000d4e565b5b828201905092915050565b600062000c4f8262000c82565b9050919050565b60007fffffffff0000000000000000000000000000000000000000000000000000000082169050919050565b600073ffffffffffffffffffffffffffffffffffffffff82169050919050565b6000819050919050565b60005b8381101562000ccc57808201518184015260208101905062000caf565b8381111562000cdc576000848401525b50505050565b6000600282049050600182168062000cfb57607f821691505b6020821081141562000d125762000d1162000d7d565b5b50919050565b62000d238262000e00565b810181811067ffffffffffffffff8211171562000d455762000d4462000dac565b5b80604052505050565b7f4e487b7100000000000000000000000000000000000000000000000000000000600052601160045260246000fd5b7f4e487b7100000000000000000000000000000000000000000000000000000000600052602260045260246000fd5b7f4e487b7100000000000000000000000000000000000000000000000000000000600052604160045260246000fd5b600060033d111562000dfd5760046000803e62000dfa60005162000e11565b90505b90565b6000601f19601f8301169050919050565b60008160e01c9050919050565b7f455243313135353a207472616e7366657220746f206e6f6e204552433131353560008201527f526563656976657220696d706c656d656e746572000000000000000000000000602082015250565b7f455243313135353a204552433131353552656365697665722072656a6563746560008201527f6420746f6b656e73000000000000000000000000000000000000000000000000602082015250565b7f455243313135353a206d696e7420746f20746865207a65726f2061646472657360008201527f7300000000000000000000000000000000000000000000000000000000000000602082015250565b600060443d101562000f1d5762000faa565b62000f2762000ba3565b60043d036004823e80513d602482011167ffffffffffffffff8211171562000f5157505062000faa565b808201805167ffffffffffffffff81111562000f71575050505062000faa565b80602083010160043d03850181111562000f9057505050505062000faa565b62000fa18260200185018662000d18565b82955050505050505b90565b62000fb88162000c56565b811462000fc457600080fd5b50565b6141808062000fd76000396000f3fe608060405234801561001057600080fd5b506004361061014c5760003560e01c80638aeda25a116100c3578063d53913931161007c578063d5391393146103d3578063d547741f146103f1578063e8a3d4851461040d578063e985e9c51461042b578063f242432a1461045b578063f5298aca146104775761014c565b80638aeda25a146102eb5780639010d07c1461030957806391d1485414610339578063a217fddf14610369578063a22cb46514610387578063ca15c873146103a35761014c565b8063282c51f311610115578063282c51f31461022d5780632eb2c2d61461024b5780632f2ff15d1461026757806336568abe1461028357806346f81a871461029f5780634e1273f4146102bb5761014c565b8062fdd58e1461015157806301ffc9a7146101815780630e89341c146101b1578063156e29f6146101e1578063248a9ca3146101fd575b600080fd5b61016b60048036038101906101669190612c97565b610493565b604051610178919061365d565b60405180910390f35b61019b60048036038101906101969190612e2f565b61055c565b6040516101a89190613425565b60405180910390f35b6101cb60048036038101906101c69190612ed5565b61063e565b6040516101d8919061345b565b60405180910390f35b6101fb60048036038101906101f69190612cd3565b6106d2565b005b61021760048036038101906102129190612d8e565b610725565b6040516102249190613440565b60405180910390f35b610235610745565b6040516102429190613440565b60405180910390f35b61026560048036038101906102609190612b0d565b610769565b005b610281600480360381019061027c9190612db7565b61080a565b005b61029d60048036038101906102989190612db7565b610833565b005b6102b960048036038101906102b49190612e81565b6108b6565b005b6102d560048036038101906102d09190612d22565b6108ed565b6040516102e291906133cc565b60405180910390f35b6102f3610a9e565b6040516103009190613440565b60405180910390f35b610323600480360381019061031e9190612df3565b610ac2565b60405161033091906132ef565b60405180910390f35b610353600480360381019061034e9190612db7565b610af1565b6040516103609190613425565b60405180910390f35b610371610b5c565b60405161037e9190613440565b60405180910390f35b6103a1600480360381019061039c9190612c5b565b610b63565b005b6103bd60048036038101906103b89190612d8e565b610b79565b6040516103ca919061365d565b60405180910390f35b6103db610b9d565b6040516103e89190613440565b60405180910390f35b61040b60048036038101906104069190612db7565b610bc1565b005b610415610bea565b604051610422919061345b565b60405180910390f35b61044560048036038101906104409190612ad1565b610c0a565b6040516104529190613425565b60405180910390f35b61047560048036038101906104709190612bcc565b610c9e565b005b610491600480360381019061048c9190612cd3565b610d3f565b005b60008073ffffffffffffffffffffffffffffffffffffffff168373ffffffffffffffffffffffffffffffffffffffff161415610504576040517f08c379a00000000000000000000000000000000000000000000000000000000081526004016104fb906134dd565b60405180910390fd5b60008083815260200190815260200160002060008473ffffffffffffffffffffffffffffffffffffffff1673ffffffffffffffffffffffffffffffffffffffff16815260200190815260200160002054905092915050565b60007fd9b67a26000000000000000000000000000000000000000000000000000000007bffffffffffffffffffffffffffffffffffffffffffffffffffffffff1916827bffffffffffffffffffffffffffffffffffffffffffffffffffffffff1916148061062757507f5a05180f000000000000000000000000000000000000000000000000000000007bffffffffffffffffffffffffffffffffffffffffffffffffffffffff1916827bffffffffffffffffffffffffffffffffffffffffffffffffffffffff1916145b80610637575061063682610eb6565b5b9050919050565b60606002805461064d906139ca565b80601f0160208091040260200160405190810160405280929190818152602001828054610679906139ca565b80156106c65780601f1061069b576101008083540402835291602001916106c6565b820191906000526020600020905b8154815290600101906020018083116106a957829003601f168201915b50505050509050919050565b7f9f2df0fed2c77648de5860a4cc508cd0818c85b8b8a1ab4ceeef8d981c8956a6610704816106ff610f30565b610f38565b61071f84848460405180602001604052806000815250610fd5565b50505050565b600060036000838152602001908152602001600020600101549050919050565b7f3c11d16cbaffd01df69ce1c404f6340ee057498f5f00246190ea54220576a84881565b610771610f30565b73ffffffffffffffffffffffffffffffffffffffff168573ffffffffffffffffffffffffffffffffffffffff1614806107b757506107b6856107b1610f30565b610c0a565b5b6107f6576040517f08c379a00000000000000000000000000000000000000000000000000000000081526004016107ed9061355d565b60405180910390fd5b610803858585858561116b565b5050505050565b61081382610725565b6108248161081f610f30565b610f38565b61082e83836114cb565b505050565b61083b610f30565b73ffffffffffffffffffffffffffffffffffffffff168173ffffffffffffffffffffffffffffffffffffffff16146108a8576040517f08c379a000000000000000000000000000000000000000000000000000000000815260040161089f9061363d565b60405180910390fd5b6108b282826114ff565b5050565b7f828634d95e775031b9ff576b159a8509d3053581a8c9c4d7d86899e0afcd882f6108e8816108e3610f30565b610f38565b505050565b60608151835114610933576040517f08c379a000000000000000000000000000000000000000000000000000000000815260040161092a906135dd565b60405180910390fd5b6000835167ffffffffffffffff811115610976577f4e487b7100000000000000000000000000000000000000000000000000000000600052604160045260246000fd5b6040519080825280602002602001820160405280156109a45781602001602082028036833780820191505090505b50905060005b8451811015610a9357610a3d8582815181106109ef577f4e487b7100000000000000000000000000000000000000000000000000000000600052603260045260246000fd5b6020026020010151858381518110610a30577f4e487b7100000000000000000000000000000000000000000000000000000000600052603260045260246000fd5b6020026020010151610493565b828281518110610a76577f4e487b7100000000000000000000000000000000000000000000000000000000600052603260045260246000fd5b60200260200101818152505080610a8c90613a2d565b90506109aa565b508091505092915050565b7f828634d95e775031b9ff576b159a8509d3053581a8c9c4d7d86899e0afcd882f81565b6000610ae9826004600086815260200190815260200160002061153390919063ffffffff16565b905092915050565b60006003600084815260200190815260200160002060000160008373ffffffffffffffffffffffffffffffffffffffff1673ffffffffffffffffffffffffffffffffffffffff16815260200190815260200160002060009054906101000a900460ff16905092915050565b6000801b81565b610b75610b6e610f30565b838361154d565b5050565b6000610b96600460008481526020019081526020016000206116ba565b9050919050565b7f9f2df0fed2c77648de5860a4cc508cd0818c85b8b8a1ab4ceeef8d981c8956a681565b610bca82610725565b610bdb81610bd6610f30565b610f38565b610be583836114ff565b505050565b606060405180606001604052806031815260200161411a60319139905090565b6000600160008473ffffffffffffffffffffffffffffffffffffffff1673ffffffffffffffffffffffffffffffffffffffff16815260200190815260200160002060008373ffffffffffffffffffffffffffffffffffffffff1673ffffffffffffffffffffffffffffffffffffffff16815260200190815260200160002060009054906101000a900460ff16905092915050565b610ca6610f30565b73ffffffffffffffffffffffffffffffffffffffff168573ffffffffffffffffffffffffffffffffffffffff161480610cec5750610ceb85610ce6610f30565b610c0a565b5b610d2b576040517f08c379a0000000000000000000000000000000000000000000000000000000008152600401610d229061351d565b60405180910390fd5b610d3885858585856116cf565b5050505050565b7f3c11d16cbaffd01df69ce1c404f6340ee057498f5f00246190ea54220576a848610d7181610d6c610f30565b610f38565b610d7c848484611951565b50505050565b610d8c8282610af1565b610e5f5760016003600084815260200190815260200160002060000160008373ffffffffffffffffffffffffffffffffffffffff1673ffffffffffffffffffffffffffffffffffffffff16815260200190815260200160002060006101000a81548160ff021916908315150217905550610e04610f30565b73ffffffffffffffffffffffffffffffffffffffff168173ffffffffffffffffffffffffffffffffffffffff16837f2f8788117e7eff1d82e926ec794901d17c78024a50270940304540a733656f0d60405160405180910390a45b5050565b6000610e8b836000018373ffffffffffffffffffffffffffffffffffffffff1660001b611b6e565b905092915050565b6000808273ffffffffffffffffffffffffffffffffffffffff163b119050919050565b60007f5a05180f000000000000000000000000000000000000000000000000000000007bffffffffffffffffffffffffffffffffffffffffffffffffffffffff1916827bffffffffffffffffffffffffffffffffffffffffffffffffffffffff19161480610f295750610f2882611bde565b5b9050919050565b600033905090565b610f428282610af1565b610fd157610f678173ffffffffffffffffffffffffffffffffffffffff166014611c58565b610f758360001c6020611c58565b604051602001610f869291906132b5565b6040516020818303038152906040526040517f08c379a0000000000000000000000000000000000000000000000000000000008152600401610fc8919061345b565b60405180910390fd5b5050565b600073ffffffffffffffffffffffffffffffffffffffff168473ffffffffffffffffffffffffffffffffffffffff161415611045576040517f08c379a000000000000000000000000000000000000000000000000000000000815260040161103c9061361d565b60405180910390fd5b600061104f610f30565b90506110708160008761106188611f52565b61106a88611f52565b87612018565b8260008086815260200190815260200160002060008773ffffffffffffffffffffffffffffffffffffffff1673ffffffffffffffffffffffffffffffffffffffff16815260200190815260200160002060008282546110cf91906137fc565b925050819055508473ffffffffffffffffffffffffffffffffffffffff16600073ffffffffffffffffffffffffffffffffffffffff168273ffffffffffffffffffffffffffffffffffffffff167fc3d58168c5ae7397731d063d5bbf3d657854427343f4c083240f7aacaa2d0f62878760405161114d929190613678565b60405180910390a461116481600087878787612020565b5050505050565b81518351146111af576040517f08c379a00000000000000000000000000000000000000000000000000000000081526004016111a6906135fd565b60405180910390fd5b600073ffffffffffffffffffffffffffffffffffffffff168473ffffffffffffffffffffffffffffffffffffffff16141561121f576040517f08c379a00000000000000000000000000000000000000000000000000000000081526004016112169061353d565b60405180910390fd5b6000611229610f30565b9050611239818787878787612018565b60005b8451811015611436576000858281518110611280577f4e487b7100000000000000000000000000000000000000000000000000000000600052603260045260246000fd5b6020026020010151905060008583815181106112c5577f4e487b7100000000000000000000000000000000000000000000000000000000600052603260045260246000fd5b60200260200101519050600080600084815260200190815260200160002060008b73ffffffffffffffffffffffffffffffffffffffff1673ffffffffffffffffffffffffffffffffffffffff16815260200190815260200160002054905081811015611366576040517f08c379a000000000000000000000000000000000000000000000000000000000815260040161135d9061359d565b60405180910390fd5b81810360008085815260200190815260200160002060008c73ffffffffffffffffffffffffffffffffffffffff1673ffffffffffffffffffffffffffffffffffffffff168152602001908152602001600020819055508160008085815260200190815260200160002060008b73ffffffffffffffffffffffffffffffffffffffff1673ffffffffffffffffffffffffffffffffffffffff168152602001908152602001600020600082825461141b91906137fc565b925050819055505050508061142f90613a2d565b905061123c565b508473ffffffffffffffffffffffffffffffffffffffff168673ffffffffffffffffffffffffffffffffffffffff168273ffffffffffffffffffffffffffffffffffffffff167f4a39dc06d4c0dbc64b70af90fd698a233a518aa5d07e595d983b8c0526c8f7fb87876040516114ad9291906133ee565b60405180910390a46114c3818787878787612207565b505050505050565b6114d58282610d82565b6114fa8160046000858152602001908152602001600020610e6390919063ffffffff16565b505050565b61150982826123ee565b61152e81600460008581526020019081526020016000206124d090919063ffffffff16565b505050565b60006115428360000183612500565b60001c905092915050565b8173ffffffffffffffffffffffffffffffffffffffff168373ffffffffffffffffffffffffffffffffffffffff1614156115bc576040517f08c379a00000000000000000000000000000000000000000000000000000000081526004016115b3906135bd565b60405180910390fd5b80600160008573ffffffffffffffffffffffffffffffffffffffff1673ffffffffffffffffffffffffffffffffffffffff16815260200190815260200160002060008473ffffffffffffffffffffffffffffffffffffffff1673ffffffffffffffffffffffffffffffffffffffff16815260200190815260200160002060006101000a81548160ff0219169083151502179055508173ffffffffffffffffffffffffffffffffffffffff168373ffffffffffffffffffffffffffffffffffffffff167f17307eab39ab6107e8899845ad3d59bd9653f200f220920489ca2b5937696c31836040516116ad9190613425565b60405180910390a3505050565b60006116c882600001612551565b9050919050565b600073ffffffffffffffffffffffffffffffffffffffff168473ffffffffffffffffffffffffffffffffffffffff16141561173f576040517f08c379a00000000000000000000000000000000000000000000000000000000081526004016117369061353d565b60405180910390fd5b6000611749610f30565b905061176981878761175a88611f52565b61176388611f52565b87612018565b600080600086815260200190815260200160002060008873ffffffffffffffffffffffffffffffffffffffff1673ffffffffffffffffffffffffffffffffffffffff16815260200190815260200160002054905083811015611800576040517f08c379a00000000000000000000000000000000000000000000000000000000081526004016117f79061359d565b60405180910390fd5b83810360008087815260200190815260200160002060008973ffffffffffffffffffffffffffffffffffffffff1673ffffffffffffffffffffffffffffffffffffffff168152602001908152602001600020819055508360008087815260200190815260200160002060008873ffffffffffffffffffffffffffffffffffffffff1673ffffffffffffffffffffffffffffffffffffffff16815260200190815260200160002060008282546118b591906137fc565b925050819055508573ffffffffffffffffffffffffffffffffffffffff168773ffffffffffffffffffffffffffffffffffffffff168373ffffffffffffffffffffffffffffffffffffffff167fc3d58168c5ae7397731d063d5bbf3d657854427343f4c083240f7aacaa2d0f628888604051611932929190613678565b60405180910390a4611948828888888888612020565b50505050505050565b600073ffffffffffffffffffffffffffffffffffffffff168373ffffffffffffffffffffffffffffffffffffffff1614156119c1576040517f08c379a00000000000000000000000000000000000000000000000000000000081526004016119b89061357d565b60405180910390fd5b60006119cb610f30565b90506119fb818560006119dd87611f52565b6119e687611f52565b60405180602001604052806000815250612018565b600080600085815260200190815260200160002060008673ffffffffffffffffffffffffffffffffffffffff1673ffffffffffffffffffffffffffffffffffffffff16815260200190815260200160002054905082811015611a92576040517f08c379a0000000000000000000000000000000000000000000000000000000008152600401611a89906134fd565b60405180910390fd5b82810360008086815260200190815260200160002060008773ffffffffffffffffffffffffffffffffffffffff1673ffffffffffffffffffffffffffffffffffffffff16815260200190815260200160002081905550600073ffffffffffffffffffffffffffffffffffffffff168573ffffffffffffffffffffffffffffffffffffffff168373ffffffffffffffffffffffffffffffffffffffff167fc3d58168c5ae7397731d063d5bbf3d657854427343f4c083240f7aacaa2d0f628787604051611b5f929190613678565b60405180910390a45050505050565b6000611b7a8383612562565b611bd3578260000182908060018154018082558091505060019003906000526020600020016000909190919091505582600001805490508360010160008481526020019081526020016000208190555060019050611bd8565b600090505b92915050565b60007f7965db0b000000000000000000000000000000000000000000000000000000007bffffffffffffffffffffffffffffffffffffffffffffffffffffffff1916827bffffffffffffffffffffffffffffffffffffffffffffffffffffffff19161480611c515750611c5082612585565b5b9050919050565b606060006002836002611c6b9190613852565b611c7591906137fc565b67ffffffffffffffff811115611cb4577f4e487b7100000000000000000000000000000000000000000000000000000000600052604160045260246000fd5b6040519080825280601f01601f191660200182016040528015611ce65781602001600182028036833780820191505090505b5090507f300000000000000000000000000000000000000000000000000000000000000081600081518110611d44577f4e487b7100000000000000000000000000000000000000000000000000000000600052603260045260246000fd5b60200101907effffffffffffffffffffffffffffffffffffffffffffffffffffffffffffff1916908160001a9053507f780000000000000000000000000000000000000000000000000000000000000081600181518110611dce577f4e487b7100000000000000000000000000000000000000000000000000000000600052603260045260246000fd5b60200101907effffffffffffffffffffffffffffffffffffffffffffffffffffffffffffff1916908160001a90535060006001846002611e0e9190613852565b611e1891906137fc565b90505b6001811115611f04577f3031323334353637383961626364656600000000000000000000000000000000600f861660108110611e80577f4e487b7100000000000000000000000000000000000000000000000000000000600052603260045260246000fd5b1a60f81b828281518110611ebd577f4e487b7100000000000000000000000000000000000000000000000000000000600052603260045260246000fd5b60200101907effffffffffffffffffffffffffffffffffffffffffffffffffffffffffffff1916908160001a905350600485901c945080611efd906139a0565b9050611e1b565b5060008414611f48576040517f08c379a0000000000000000000000000000000000000000000000000000000008152600401611f3f9061349d565b60405180910390fd5b8091505092915050565b60606000600167ffffffffffffffff811115611f97577f4e487b7100000000000000000000000000000000000000000000000000000000600052604160045260246000fd5b604051908082528060200260200182016040528015611fc55781602001602082028036833780820191505090505b5090508281600081518110612003577f4e487b7100000000000000000000000000000000000000000000000000000000600052603260045260246000fd5b60200260200101818152505080915050919050565b505050505050565b61203f8473ffffffffffffffffffffffffffffffffffffffff16610e93565b156121ff578373ffffffffffffffffffffffffffffffffffffffff1663f23a6e6187878686866040518663ffffffff1660e01b8152600401612085959493929190613372565b602060405180830381600087803b15801561209f57600080fd5b505af19250505080156120d057506040513d601f19601f820116820180604052508101906120cd9190612e58565b60015b612176576120dc613b03565b806308c379a0141561213957506120f1614010565b806120fc575061213b565b806040517f08c379a0000000000000000000000000000000000000000000000000000000008152600401612130919061345b565b60405180910390fd5b505b6040517f08c379a000000000000000000000000000000000000000000000000000000000815260040161216d9061347d565b60405180910390fd5b63f23a6e6160e01b7bffffffffffffffffffffffffffffffffffffffffffffffffffffffff1916817bffffffffffffffffffffffffffffffffffffffffffffffffffffffff1916146121fd576040517f08c379a00000000000000000000000000000000000000000000000000000000081526004016121f4906134bd565b60405180910390fd5b505b505050505050565b6122268473ffffffffffffffffffffffffffffffffffffffff16610e93565b156123e6578373ffffffffffffffffffffffffffffffffffffffff1663bc197c8187878686866040518663ffffffff1660e01b815260040161226c95949392919061330a565b602060405180830381600087803b15801561228657600080fd5b505af19250505080156122b757506040513d601f19601f820116820180604052508101906122b49190612e58565b60015b61235d576122c3613b03565b806308c379a0141561232057506122d8614010565b806122e35750612322565b806040517f08c379a0000000000000000000000000000000000000000000000000000000008152600401612317919061345b565b60405180910390fd5b505b6040517f08c379a00000000000000000000000000000000000000000000000000000000081526004016123549061347d565b60405180910390fd5b63bc197c8160e01b7bffffffffffffffffffffffffffffffffffffffffffffffffffffffff1916817bffffffffffffffffffffffffffffffffffffffffffffffffffffffff1916146123e4576040517f08c379a00000000000000000000000000000000000000000000000000000000081526004016123db906134bd565b60405180910390fd5b505b505050505050565b6123f88282610af1565b156124cc5760006003600084815260200190815260200160002060000160008373ffffffffffffffffffffffffffffffffffffffff1673ffffffffffffffffffffffffffffffffffffffff16815260200190815260200160002060006101000a81548160ff021916908315150217905550612471610f30565b73ffffffffffffffffffffffffffffffffffffffff168173ffffffffffffffffffffffffffffffffffffffff16837ff6391f5c32d9c69d2a47ea670b442974b53935d1edc7fd64eb21e047a839171b60405160405180910390a45b5050565b60006124f8836000018373ffffffffffffffffffffffffffffffffffffffff1660001b612667565b905092915050565b600082600001828154811061253e577f4e487b7100000000000000000000000000000000000000000000000000000000600052603260045260246000fd5b9060005260206000200154905092915050565b600081600001805490509050919050565b600080836001016000848152602001908152602001600020541415905092915050565b60007fd9b67a26000000000000000000000000000000000000000000000000000000007bffffffffffffffffffffffffffffffffffffffffffffffffffffffff1916827bffffffffffffffffffffffffffffffffffffffffffffffffffffffff1916148061265057507f0e89341c000000000000000000000000000000000000000000000000000000007bffffffffffffffffffffffffffffffffffffffffffffffffffffffff1916827bffffffffffffffffffffffffffffffffffffffffffffffffffffffff1916145b80612660575061265f826127ed565b5b9050919050565b600080836001016000848152602001908152602001600020549050600081146127e157600060018261269991906138ac565b90506000600186600001805490506126b191906138ac565b905081811461276c5760008660000182815481106126f8577f4e487b7100000000000000000000000000000000000000000000000000000000600052603260045260246000fd5b9060005260206000200154905080876000018481548110612742577f4e487b7100000000000000000000000000000000000000000000000000000000600052603260045260246000fd5b90600052602060002001819055508387600101600083815260200190815260200160002081905550505b856000018054806127a6577f4e487b7100000000000000000000000000000000000000000000000000000000600052603160045260246000fd5b6001900381819060005260206000200160009055905585600101600086815260200190815260200160002060009055600193505050506127e7565b60009150505b92915050565b60007f01ffc9a7000000000000000000000000000000000000000000000000000000007bffffffffffffffffffffffffffffffffffffffffffffffffffffffff1916827bffffffffffffffffffffffffffffffffffffffffffffffffffffffff1916149050919050565b600061286a612865846136c6565b6136a1565b9050808382526020820190508285602086028201111561288957600080fd5b60005b858110156128b9578161289f88826129ab565b84526020840193506020830192505060018101905061288c565b5050509392505050565b60006128d66128d1846136f2565b6136a1565b905080838252602082019050828560208602820111156128f557600080fd5b60005b85811015612925578161290b8882612abc565b8452602084019350602083019250506001810190506128f8565b5050509392505050565b600061294261293d8461371e565b6136a1565b90508281526020810184848401111561295a57600080fd5b61296584828561395e565b509392505050565b600061298061297b8461374f565b6136a1565b90508281526020810184848401111561299857600080fd5b6129a384828561395e565b509392505050565b6000813590506129ba816140a6565b92915050565b600082601f8301126129d157600080fd5b81356129e1848260208601612857565b91505092915050565b600082601f8301126129fb57600080fd5b8135612a0b8482602086016128c3565b91505092915050565b600081359050612a23816140bd565b92915050565b600081359050612a38816140d4565b92915050565b600081359050612a4d816140eb565b92915050565b600081519050612a62816140eb565b92915050565b600082601f830112612a7957600080fd5b8135612a8984826020860161292f565b91505092915050565b600082601f830112612aa357600080fd5b8135612ab384826020860161296d565b91505092915050565b600081359050612acb81614102565b92915050565b60008060408385031215612ae457600080fd5b6000612af2858286016129ab565b9250506020612b03858286016129ab565b9150509250929050565b600080600080600060a08688031215612b2557600080fd5b6000612b33888289016129ab565b9550506020612b44888289016129ab565b945050604086013567ffffffffffffffff811115612b6157600080fd5b612b6d888289016129ea565b935050606086013567ffffffffffffffff811115612b8a57600080fd5b612b96888289016129ea565b925050608086013567ffffffffffffffff811115612bb357600080fd5b612bbf88828901612a68565b9150509295509295909350565b600080600080600060a08688031215612be457600080fd5b6000612bf2888289016129ab565b9550506020612c03888289016129ab565b9450506040612c1488828901612abc565b9350506060612c2588828901612abc565b925050608086013567ffffffffffffffff811115612c4257600080fd5b612c4e88828901612a68565b9150509295509295909350565b60008060408385031215612c6e57600080fd5b6000612c7c858286016129ab565b9250506020612c8d85828601612a14565b9150509250929050565b60008060408385031215612caa57600080fd5b6000612cb8858286016129ab565b9250506020612cc985828601612abc565b9150509250929050565b600080600060608486031215612ce857600080fd5b6000612cf6868287016129ab565b9350506020612d0786828701612abc565b9250506040612d1886828701612abc565b9150509250925092565b60008060408385031215612d3557600080fd5b600083013567ffffffffffffffff811115612d4f57600080fd5b612d5b858286016129c0565b925050602083013567ffffffffffffffff811115612d7857600080fd5b612d84858286016129ea565b9150509250929050565b600060208284031215612da057600080fd5b6000612dae84828501612a29565b91505092915050565b60008060408385031215612dca57600080fd5b6000612dd885828601612a29565b9250506020612de9858286016129ab565b9150509250929050565b60008060408385031215612e0657600080fd5b6000612e1485828601612a29565b9250506020612e2585828601612abc565b9150509250929050565b600060208284031215612e4157600080fd5b6000612e4f84828501612a3e565b91505092915050565b600060208284031215612e6a57600080fd5b6000612e7884828501612a53565b91505092915050565b60008060408385031215612e9457600080fd5b600083013567ffffffffffffffff811115612eae57600080fd5b612eba85828601612a92565b9250506020612ecb85828601612abc565b9150509250929050565b600060208284031215612ee757600080fd5b6000612ef584828501612abc565b91505092915050565b6000612f0a8383613297565b60208301905092915050565b612f1f816138e0565b82525050565b6000612f3082613790565b612f3a81856137be565b9350612f4583613780565b8060005b83811015612f76578151612f5d8882612efe565b9750612f68836137b1565b925050600181019050612f49565b5085935050505092915050565b612f8c816138f2565b82525050565b612f9b816138fe565b82525050565b6000612fac8261379b565b612fb681856137cf565b9350612fc681856020860161396d565b612fcf81613b25565b840191505092915050565b6000612fe5826137a6565b612fef81856137e0565b9350612fff81856020860161396d565b61300881613b25565b840191505092915050565b600061301e826137a6565b61302881856137f1565b935061303881856020860161396d565b80840191505092915050565b60006130516034836137e0565b915061305c82613b43565b604082019050919050565b60006130746020836137e0565b915061307f82613b92565b602082019050919050565b60006130976028836137e0565b91506130a282613bbb565b604082019050919050565b60006130ba602b836137e0565b91506130c582613c0a565b604082019050919050565b60006130dd6024836137e0565b91506130e882613c59565b604082019050919050565b60006131006029836137e0565b915061310b82613ca8565b604082019050919050565b60006131236025836137e0565b915061312e82613cf7565b604082019050919050565b60006131466032836137e0565b915061315182613d46565b604082019050919050565b60006131696023836137e0565b915061317482613d95565b604082019050919050565b600061318c602a836137e0565b915061319782613de4565b604082019050919050565b60006131af6017836137f1565b91506131ba82613e33565b601782019050919050565b60006131d26029836137e0565b91506131dd82613e5c565b604082019050919050565b60006131f56029836137e0565b915061320082613eab565b604082019050919050565b60006132186028836137e0565b915061322382613efa565b604082019050919050565b600061323b6021836137e0565b915061324682613f49565b604082019050919050565b600061325e6011836137f1565b915061326982613f98565b601182019050919050565b6000613281602f836137e0565b915061328c82613fc1565b604082019050919050565b6132a081613954565b82525050565b6132af81613954565b82525050565b60006132c0826131a2565b91506132cc8285613013565b91506132d782613251565b91506132e38284613013565b91508190509392505050565b60006020820190506133046000830184612f16565b92915050565b600060a08201905061331f6000830188612f16565b61332c6020830187612f16565b818103604083015261333e8186612f25565b905081810360608301526133528185612f25565b905081810360808301526133668184612fa1565b90509695505050505050565b600060a0820190506133876000830188612f16565b6133946020830187612f16565b6133a160408301866132a6565b6133ae60608301856132a6565b81810360808301526133c08184612fa1565b90509695505050505050565b600060208201905081810360008301526133e68184612f25565b905092915050565b600060408201905081810360008301526134088185612f25565b9050818103602083015261341c8184612f25565b90509392505050565b600060208201905061343a6000830184612f83565b92915050565b60006020820190506134556000830184612f92565b92915050565b600060208201905081810360008301526134758184612fda565b905092915050565b6000602082019050818103600083015261349681613044565b9050919050565b600060208201905081810360008301526134b681613067565b9050919050565b600060208201905081810360008301526134d68161308a565b9050919050565b600060208201905081810360008301526134f6816130ad565b9050919050565b60006020820190508181036000830152613516816130d0565b9050919050565b60006020820190508181036000830152613536816130f3565b9050919050565b6000602082019050818103600083015261355681613116565b9050919050565b6000602082019050818103600083015261357681613139565b9050919050565b600060208201905081810360008301526135968161315c565b9050919050565b600060208201905081810360008301526135b68161317f565b9050919050565b600060208201905081810360008301526135d6816131c5565b9050919050565b600060208201905081810360008301526135f6816131e8565b9050919050565b600060208201905081810360008301526136168161320b565b9050919050565b600060208201905081810360008301526136368161322e565b9050919050565b6000602082019050818103600083015261365681613274565b9050919050565b600060208201905061367260008301846132a6565b92915050565b600060408201905061368d60008301856132a6565b61369a60208301846132a6565b9392505050565b60006136ab6136bc565b90506136b782826139fc565b919050565b6000604051905090565b600067ffffffffffffffff8211156136e1576136e0613ad4565b5b602082029050602081019050919050565b600067ffffffffffffffff82111561370d5761370c613ad4565b5b602082029050602081019050919050565b600067ffffffffffffffff82111561373957613738613ad4565b5b61374282613b25565b9050602081019050919050565b600067ffffffffffffffff82111561376a57613769613ad4565b5b61377382613b25565b9050602081019050919050565b6000819050602082019050919050565b600081519050919050565b600081519050919050565b600081519050919050565b6000602082019050919050565b600082825260208201905092915050565b600082825260208201905092915050565b600082825260208201905092915050565b600081905092915050565b600061380782613954565b915061381283613954565b9250827fffffffffffffffffffffffffffffffffffffffffffffffffffffffffffffffff0382111561384757613846613a76565b5b828201905092915050565b600061385d82613954565b915061386883613954565b9250817fffffffffffffffffffffffffffffffffffffffffffffffffffffffffffffffff04831182151516156138a1576138a0613a76565b5b828202905092915050565b60006138b782613954565b91506138c283613954565b9250828210156138d5576138d4613a76565b5b828203905092915050565b60006138eb82613934565b9050919050565b60008115159050919050565b6000819050919050565b60007fffffffff0000000000000000000000000000000000000000000000000000000082169050919050565b600073ffffffffffffffffffffffffffffffffffffffff82169050919050565b6000819050919050565b82818337600083830152505050565b60005b8381101561398b578082015181840152602081019050613970565b8381111561399a576000848401525b50505050565b60006139ab82613954565b915060008214156139bf576139be613a76565b5b600182039050919050565b600060028204905060018216806139e257607f821691505b602082108114156139f6576139f5613aa5565b5b50919050565b613a0582613b25565b810181811067ffffffffffffffff82111715613a2457613a23613ad4565b5b80604052505050565b6000613a3882613954565b91507fffffffffffffffffffffffffffffffffffffffffffffffffffffffffffffffff821415613a6b57613a6a613a76565b5b600182019050919050565b7f4e487b7100000000000000000000000000000000000000000000000000000000600052601160045260246000fd5b7f4e487b7100000000000000000000000000000000000000000000000000000000600052602260045260246000fd5b7f4e487b7100000000000000000000000000000000000000000000000000000000600052604160045260246000fd5b600060033d1115613b225760046000803e613b1f600051613b36565b90505b90565b6000601f19601f8301169050919050565b60008160e01c9050919050565b7f455243313135353a207472616e7366657220746f206e6f6e204552433131353560008201527f526563656976657220696d706c656d656e746572000000000000000000000000602082015250565b7f537472696e67733a20686578206c656e67746820696e73756666696369656e74600082015250565b7f455243313135353a204552433131353552656365697665722072656a6563746560008201527f6420746f6b656e73000000000000000000000000000000000000000000000000602082015250565b7f455243313135353a2062616c616e636520717565727920666f7220746865207a60008201527f65726f2061646472657373000000000000000000000000000000000000000000602082015250565b7f455243313135353a206275726e20616d6f756e7420657863656564732062616c60008201527f616e636500000000000000000000000000000000000000000000000000000000602082015250565b7f455243313135353a2063616c6c6572206973206e6f74206f776e6572206e6f7260008201527f20617070726f7665640000000000000000000000000000000000000000000000602082015250565b7f455243313135353a207472616e7366657220746f20746865207a65726f20616460008201527f6472657373000000000000000000000000000000000000000000000000000000602082015250565b7f455243313135353a207472616e736665722063616c6c6572206973206e6f742060008201527f6f776e6572206e6f7220617070726f7665640000000000000000000000000000602082015250565b7f455243313135353a206275726e2066726f6d20746865207a65726f206164647260008201527f6573730000000000000000000000000000000000000000000000000000000000602082015250565b7f455243313135353a20696e73756666696369656e742062616c616e636520666f60008201527f72207472616e7366657200000000000000000000000000000000000000000000602082015250565b7f416363657373436f6e74726f6c3a206163636f756e7420000000000000000000600082015250565b7f455243313135353a2073657474696e6720617070726f76616c2073746174757360008201527f20666f722073656c660000000000000000000000000000000000000000000000602082015250565b7f455243313135353a206163636f756e747320616e6420696473206c656e67746860008201527f206d69736d617463680000000000000000000000000000000000000000000000602082015250565b7f455243313135353a2069647320616e6420616d6f756e7473206c656e6774682060008201527f6d69736d61746368000000000000000000000000000000000000000000000000602082015250565b7f455243313135353a206d696e7420746f20746865207a65726f2061646472657360008201527f7300000000000000000000000000000000000000000000000000000000000000602082015250565b7f206973206d697373696e6720726f6c6520000000000000000000000000000000600082015250565b7f416363657373436f6e74726f6c3a2063616e206f6e6c792072656e6f756e636560008201527f20726f6c657320666f722073656c660000000000000000000000000000000000602082015250565b600060443d1015614020576140a3565b6140286136bc565b60043d036004823e80513d602482011167ffffffffffffffff821117156140505750506140a3565b808201805167ffffffffffffffff81111561406e57505050506140a3565b80602083010160043d03850181111561408b5750505050506140a3565b61409a826020018501866139fc565b82955050505050505b90565b6140af816138e0565b81146140ba57600080fd5b50565b6140c6816138f2565b81146140d157600080fd5b50565b6140dd816138fe565b81146140e857600080fd5b50565b6140f481613908565b81146140ff57600080fd5b50565b61410b81613954565b811461411657600080fd5b5056fe68747470733a2f2f7777772e77696e7a656c616e642e636f6d2f6d6574612f636f6e74726163742f7265736f7572636573a26469706673582212206d6a14de096a398464a0833f265fa9150c2068ac3c3e5a3b4b07b5f22745b94864736f6c6343000804003368747470733a2f2f7777772e77696e7a656c616e642e636f6d2f6d6574612f7265736f75726365732f7b69647d",
  "devdoc": {
    "kind": "dev",
    "methods": {
      "balanceOf(address,uint256)": {
        "details": "See {IERC1155-balanceOf}. Requirements: - `account` cannot be the zero address."
      },
      "balanceOfBatch(address[],uint256[])": {
        "details": "See {IERC1155-balanceOfBatch}. Requirements: - `accounts` and `ids` must have the same length."
      },
      "getRoleAdmin(bytes32)": {
        "details": "Returns the admin role that controls `role`. See {grantRole} and {revokeRole}. To change a role's admin, use {_setRoleAdmin}."
      },
      "getRoleMember(bytes32,uint256)": {
        "details": "Returns one of the accounts that have `role`. `index` must be a value between 0 and {getRoleMemberCount}, non-inclusive. Role bearers are not sorted in any particular way, and their ordering may change at any point. WARNING: When using {getRoleMember} and {getRoleMemberCount}, make sure you perform all queries on the same block. See the following https://forum.openzeppelin.com/t/iterating-over-elements-on-enumerableset-in-openzeppelin-contracts/2296[forum post] for more information."
      },
      "getRoleMemberCount(bytes32)": {
        "details": "Returns the number of accounts that have `role`. Can be used together with {getRoleMember} to enumerate all bearers of a role."
      },
      "grantRole(bytes32,address)": {
        "details": "Grants `role` to `account`. If `account` had not been already granted `role`, emits a {RoleGranted} event. Requirements: - the caller must have ``role``'s admin role."
      },
      "hasRole(bytes32,address)": {
        "details": "Returns `true` if `account` has been granted `role`."
      },
      "isApprovedForAll(address,address)": {
        "details": "See {IERC1155-isApprovedForAll}."
      },
      "renounceRole(bytes32,address)": {
        "details": "Revokes `role` from the calling account. Roles are often managed via {grantRole} and {revokeRole}: this function's purpose is to provide a mechanism for accounts to lose their privileges if they are compromised (such as when a trusted device is misplaced). If the calling account had been revoked `role`, emits a {RoleRevoked} event. Requirements: - the caller must be `account`."
      },
      "revokeRole(bytes32,address)": {
        "details": "Revokes `role` from `account`. If `account` had been granted `role`, emits a {RoleRevoked} event. Requirements: - the caller must have ``role``'s admin role."
      },
      "safeBatchTransferFrom(address,address,uint256[],uint256[],bytes)": {
        "details": "See {IERC1155-safeBatchTransferFrom}."
      },
      "safeTransferFrom(address,address,uint256,uint256,bytes)": {
        "details": "See {IERC1155-safeTransferFrom}."
      },
      "setApprovalForAll(address,bool)": {
        "details": "See {IERC1155-setApprovalForAll}."
      },
      "uri(uint256)": {
        "details": "See {IERC1155MetadataURI-uri}. This implementation returns the same URI for *all* token types. It relies on the token type ID substitution mechanism https://eips.ethereum.org/EIPS/eip-1155#metadata[defined in the EIP]. Clients calling this function must replace the `\\{id\\}` substring with the actual token type ID."
      }
    },
    "version": 1
  },
  "userdoc": {
    "kind": "user",
    "methods": {},
    "version": 1
  },
  "storageLayout": {
    "storage": [
      {
        "astId": 662,
        "contract": "contracts/resources/ResourcesERC1155.sol:ResourcesERC1155",
        "label": "_balances",
        "offset": 0,
        "slot": "0",
        "type": "t_mapping(t_uint256,t_mapping(t_address,t_uint256))"
      },
      {
        "astId": 668,
        "contract": "contracts/resources/ResourcesERC1155.sol:ResourcesERC1155",
        "label": "_operatorApprovals",
        "offset": 0,
        "slot": "1",
        "type": "t_mapping(t_address,t_mapping(t_address,t_bool))"
      },
      {
        "astId": 670,
        "contract": "contracts/resources/ResourcesERC1155.sol:ResourcesERC1155",
        "label": "_uri",
        "offset": 0,
        "slot": "2",
        "type": "t_string_storage"
      },
      {
        "astId": 24,
        "contract": "contracts/resources/ResourcesERC1155.sol:ResourcesERC1155",
        "label": "_roles",
        "offset": 0,
        "slot": "3",
        "type": "t_mapping(t_bytes32,t_struct(RoleData)19_storage)"
      },
      {
        "astId": 327,
        "contract": "contracts/resources/ResourcesERC1155.sol:ResourcesERC1155",
        "label": "_roleMembers",
        "offset": 0,
        "slot": "4",
        "type": "t_mapping(t_bytes32,t_struct(AddressSet)3781_storage)"
      }
    ],
    "types": {
      "t_address": {
        "encoding": "inplace",
        "label": "address",
        "numberOfBytes": "20"
      },
      "t_array(t_bytes32)dyn_storage": {
        "base": "t_bytes32",
        "encoding": "dynamic_array",
        "label": "bytes32[]",
        "numberOfBytes": "32"
      },
      "t_bool": {
        "encoding": "inplace",
        "label": "bool",
        "numberOfBytes": "1"
      },
      "t_bytes32": {
        "encoding": "inplace",
        "label": "bytes32",
        "numberOfBytes": "32"
      },
      "t_mapping(t_address,t_bool)": {
        "encoding": "mapping",
        "key": "t_address",
        "label": "mapping(address => bool)",
        "numberOfBytes": "32",
        "value": "t_bool"
      },
      "t_mapping(t_address,t_mapping(t_address,t_bool))": {
        "encoding": "mapping",
        "key": "t_address",
        "label": "mapping(address => mapping(address => bool))",
        "numberOfBytes": "32",
        "value": "t_mapping(t_address,t_bool)"
      },
      "t_mapping(t_address,t_uint256)": {
        "encoding": "mapping",
        "key": "t_address",
        "label": "mapping(address => uint256)",
        "numberOfBytes": "32",
        "value": "t_uint256"
      },
      "t_mapping(t_bytes32,t_struct(AddressSet)3781_storage)": {
        "encoding": "mapping",
        "key": "t_bytes32",
        "label": "mapping(bytes32 => struct EnumerableSet.AddressSet)",
        "numberOfBytes": "32",
        "value": "t_struct(AddressSet)3781_storage"
      },
      "t_mapping(t_bytes32,t_struct(RoleData)19_storage)": {
        "encoding": "mapping",
        "key": "t_bytes32",
        "label": "mapping(bytes32 => struct AccessControl.RoleData)",
        "numberOfBytes": "32",
        "value": "t_struct(RoleData)19_storage"
      },
      "t_mapping(t_bytes32,t_uint256)": {
        "encoding": "mapping",
        "key": "t_bytes32",
        "label": "mapping(bytes32 => uint256)",
        "numberOfBytes": "32",
        "value": "t_uint256"
      },
      "t_mapping(t_uint256,t_mapping(t_address,t_uint256))": {
        "encoding": "mapping",
        "key": "t_uint256",
        "label": "mapping(uint256 => mapping(address => uint256))",
        "numberOfBytes": "32",
        "value": "t_mapping(t_address,t_uint256)"
      },
      "t_string_storage": {
        "encoding": "bytes",
        "label": "string",
        "numberOfBytes": "32"
      },
      "t_struct(AddressSet)3781_storage": {
        "encoding": "inplace",
        "label": "struct EnumerableSet.AddressSet",
        "members": [
          {
            "astId": 3780,
            "contract": "contracts/resources/ResourcesERC1155.sol:ResourcesERC1155",
            "label": "_inner",
            "offset": 0,
            "slot": "0",
            "type": "t_struct(Set)3480_storage"
          }
        ],
        "numberOfBytes": "64"
      },
      "t_struct(RoleData)19_storage": {
        "encoding": "inplace",
        "label": "struct AccessControl.RoleData",
        "members": [
          {
            "astId": 16,
            "contract": "contracts/resources/ResourcesERC1155.sol:ResourcesERC1155",
            "label": "members",
            "offset": 0,
            "slot": "0",
            "type": "t_mapping(t_address,t_bool)"
          },
          {
            "astId": 18,
            "contract": "contracts/resources/ResourcesERC1155.sol:ResourcesERC1155",
            "label": "adminRole",
            "offset": 0,
            "slot": "1",
            "type": "t_bytes32"
          }
        ],
        "numberOfBytes": "64"
      },
      "t_struct(Set)3480_storage": {
        "encoding": "inplace",
        "label": "struct EnumerableSet.Set",
        "members": [
          {
            "astId": 3475,
            "contract": "contracts/resources/ResourcesERC1155.sol:ResourcesERC1155",
            "label": "_values",
            "offset": 0,
            "slot": "0",
            "type": "t_array(t_bytes32)dyn_storage"
          },
          {
            "astId": 3479,
            "contract": "contracts/resources/ResourcesERC1155.sol:ResourcesERC1155",
            "label": "_indexes",
            "offset": 0,
            "slot": "1",
            "type": "t_mapping(t_bytes32,t_uint256)"
          }
        ],
        "numberOfBytes": "64"
      },
      "t_uint256": {
        "encoding": "inplace",
        "label": "uint256",
        "numberOfBytes": "32"
      }
    }
  }
}